:020000040800F2
:1000000018040020490D0008C10C0008C30C0008AA
:10001000C50C0008C70C0008C90C0008000000004F
:10002000000000000000000000000000CB0C0008F1
:10003000CD0C000800000000CF0C0008D10C000817
:10004000650D0008690D00086D0D0008710D0008B0
:10005000750D0008790D00087D0D0008810D000860
:10006000850D0008890D00088D0D0008910D000810
:10007000950D0008990D00089D0D0008A10D0008C0
:10008000A50D0008A90D0008AD0D0008B10D000870
:10009000B50D0008B90D0008BD0D0008C10D000820
:1000A000C50D0008C90D0008CD0D0008D10D0008D0
:1000B000D50D0008D90D0008DD0D0008E10D000880
:1000C000E50D0008E90D0008ED0D0008F10D000830
:1000D000F50D0008F90D0008FD0D0008010E0008DF
:1000E000050E0008090E00080D0E00082DE9F84362
:1000F0000446DFF844542078C00747D5686800F00C
:100100000C00042807D0686800F00C0008280AD109
:100110006868C00307D52868800337D56068002861
:1001200034D1012049E16068B0F5803F09D008B9B9
:1001300028680AE0B0F5A02F286806D140F4802096
:100140002860286840F4803005E020F48030286082
:10015000286820F480202860606858B100F00AFA0E
:1001600007462868800311D400F004FAC01B6528F4
:10017000F7D31FE100F0FEF907462868800305D594
:1001800000F0F8F9C01B6528F7D313E12078DFF8F9
:10019000B463800718D5686810F00C0F07D0686842
:1001A00000F00C00082825D16868C00322D4286814
:1001B000800702D520690128B3D12868616920F041
:1001C000F80040EAC1002860207800073ED5A16908
:1001D000DFF87403002965D00121016000F0CAF93D
:1001E0000746686A800722D400F0C4F9C01B0328C0
:1001F000F7D3DFE0206968B10120306000F0BAF980
:10020000074628688007D8D400F0B4F9C01B03283B
:10021000F7D3CFE0306000F0ADF9074628688007DB
:10022000D2D500F0A7F9C01B0328F7D3C2E0DFF84E
:100230000C030068C0084FF47A71B0FBF1F0009035
:1002400000BF0098411E00280091F9D12078400796
:100250006FD5E869C0004FF000080AD4E86940F0A3
:100260008050E8614FF00108E86900F0805000908C
:100270000098DFF8D892D9F80000C0051FD4D9F84B
:10028000000040F48070C9F8000000F073F90746E0
:10029000D9F80000C00512D400F06CF9C01B652825
:1002A000F6D387E0016000F065F90746686A8007C9
:1002B000CCD500F05FF9C01B0328F7D37AE0E068E3
:1002C000012808D008B9286A09E00528286A06D15B
:1002D00040F004002862286A40F0010005E0400870
:1002E00040002862286A20F00400286241F289391F
:1002F000E06858B100F03EF90746286A800711D43B
:1003000000F038F9C01B4845F7D353E000F032F94C
:100310000746286A800705D500F02CF9C01B484520
:10032000F7D347E0B8F1000F03D0E86920F0805020
:10033000E861E06900283FD0696801F00C010829F4
:100340003FF4EFAE02282AD100F039F807462868BA
:10035000800105D500F00EF9C01B0328F7D329E072
:10036000206AB0F5803F05D16868A16820F40030AC
:10037000084368606868216A20F474100843616A61
:1003800008436860012000F01BF8074628688001D8
:1003900012D400F0EFF8C01B0328F7D30AE000F0F6
:1003A0000EF807462868800106D500F0E3F8C01B68
:1003B0000328F7D3032000E00020BDE8F2830020EB
:1003C000306600F0D7B82DE9F843614E0446306836
:1003D000884600F00700404502D200F079F852D17B
:1003E0002078554F800705D57868A16820F0F00087
:1003F000084378602078C0073DD56068012802D1A5
:100400003968890303E00228396802D1890102D4DE
:1004100039E0890737D57968890840EA8100786032
:1004200041F2893900F0A6F80546606801280AD132
:10043000786800F00C0004281DD000F09BF8401BE9
:100440004845F5D315E002280AD1786800F00C0081
:10045000082810D000F08EF8401B4845F5D308E07E
:10046000786810F00C0F06D000F084F8401B484567
:10047000F6D303202AE0306800F00700804504D25C
:1004800000F026F801D0012020E02078400705D5B3
:100490007868E16820F4E06008437860207800071D
:1004A00006D57868216920F4605040EAC100786080
:1004B00000F018F87A682749C2F30312895CC84033
:1004C0001E490860002000F05BF80020BDE8F283C0
:1004D0003068C00848EAC0003060306800F00700AB
:1004E0004045704710B586B001A80FF27401102284
:1004F00000F066F80FF2780017490088ADF80000A8
:100500000A680F4802F00C03082B10D101ABC2F3AC
:100510008344D2031B5D08D50968C1F340415843A9
:100520001DF80110B0FBF1F001E00C48584306B093
:1005300010BD024800687047001002401000002003
:1005400000127A00000042428004424200700040E3
:1005500000200240480C00080410024000093D0041
:1005600002030405060708090A0B0C0D0E0F1010F4
:100570000102000001484068704700BF04000020ED
:1005800038B50D4D297804464FF47A70B0FBF1F080
:100590000A490968B1FBF0F000F075F850B9102C69
:1005A00008D2002221464FF0FF3000F04FF8AC6037
:1005B000002032BD012032BD0400002010000020C8
:1005C000103A07D330B4B1E83810103AA0E8381028
:1005D000F9D230BC530724BFB1E80810A0E80810D6
:1005E00044BF51F8043B40F8043BD20724BF31F824
:1005F000022B20F8022B44BF0B7803707047083A97
:1006000007D3B1E80810083A40F8043B40F804CB9F
:10061000F7D25307E4E700000901002806D5294A6C
:1006200000F00F00104400F8041C7047264A1154D3
:10063000704726490A684FF6FF0300021A4000F48B
:10064000E0601043224A10430860704738B51F4BE2
:100650001B68C3F30223C3F10704052C28BF04243D
:100660001D1D072D34BF0023DB1E012505FA04F4F0
:10067000641E2140994005FA03F35B1E1A401143A2
:10068000BDE83440C8E710B5401EB0F1807F01D30B
:10069000012010BD0F4C60600F214FF0FF30FFF7BD
:1006A000BBFF0020A06007202060002010BD09498A
:1006B000042808680CBF40F0040020F00400086023
:1006C0007047000018ED00E000E400E00CED00E0F1
:1006D0000000FA0510E000E000F000B870470000EC
:1006E0002DE9F8474FF0000E00225C4BDFF87081D7
:1006F000DFF870914FF00F0A012707FA02F60F6832
:100700003740B74240F0A0804C685CB3012C1AD04F
:10071000022C1FD0032C31D0112C17D0122C1DD03D
:10072000514DAC421CBF514DAC421BD0504DAC4260
:100730001CBF504DAC4215D04F4DAC421CBF4F4D6D
:10074000AC420FD01CE0D1F80CE019E0CC6804F109
:10075000040E15E0CC6804F1080E11E0CC6804F139
:100760000C0E0DE08C6814B94FF0040E08E0012C5B
:100770004FF0080E14BF4661066101E04FF0000E15
:10078000FF2F02D88446940004E0A2F1080400F18F
:10079000040CA400DCF800500AFA04F6B5430EFA83
:1007A00004F42C43CCF800404C68E4004CD5D9F854
:1007B000004044F00104C9F800404FEA920CD9F817
:1007C000005005F001040094009C58F82C5094004F
:1007D00004F00C040AFA04F6B543294EB04208BFEF
:1007E00000260ED0274EB04208BF012609D0264E63
:1007F000B04208BF022604D0244EB0420CBF0326EC
:10080000042606FA04F42C4348F82C40FD434C68B7
:10081000E4031C684CBF3C432C401C604C68A403A0
:100820005C684CBF3C432C405C604C68E4029C68B4
:100830004CBF3C432C409C604C68A40247BFDC6822
:100840002743DF682F40DF60521C102AFFF454AFAB
:10085000BDE8F18702B90904016170470004014055
:100860000800014018100240000011100000121092
:100870000000211000002210000031100000321092
:1008800000080140000C014000100140001401402C
:1008900010B5584C0022022100F02EF843F69820A3
:1008A00000F073F8002200F026F8142000F0A6F8FB
:1008B000012200F020F8142000F0A0F8202000F021
:1008C00016F844F6206400F01AF8012000F00FF842
:1008D00000F015F8062000F00AF800F010F80C20DF
:1008E00000F005F800F00BF8BDE81040012010B54D
:1008F0000446002208E080212046FFF7ABBF2046D7
:1009000043E010B50446012201213A48FFF7A2FF57
:10091000200900F008F8204600F005F8BDE8104076
:1009200042F2107031E038B50446324D012200F039
:1009300028F84FF4FA6000F028F8E0074CBF0122D5
:100940000022082100F01EF8A0074CBF012200225F
:10095000102100F017F860074CBF0122002220216F
:1009600000F010F820074CBF01220022402100F0C7
:1009700009F8002200F005F8BDE832404FF4FA60B3
:1009800003E004212846FFF765BF01B400980090FA
:100990000098411E00280091FAD101B0704770B54F
:1009A00000F01AF80620FFF7A2FF00F01AF8304610
:1009B000BDE87040A5E770B500F00EF80620FFF71F
:1009C00096FF00F00EF803E016F8010BFFF799FF11
:1009D00030780028F8D170BD04460D461646302008
:1009E00085E70548204410F8010C2818401EC0B2C5
:1009F0007DE70000000801400000002038B50446F3
:100A0000FFF7B8FD14F1010F054602D00448007845
:100A10000419FFF7AFFD401BA042FAD331BD00BF60
:100A20000400002010B500F057F800F014F800F0B2
:100A300065F86420FFF7E2FFFFF72AFF0FF28C044E
:100A4000412202210120FFF7AAFF224601210220B4
:100A5000FFF7B1FFF4E700B58FB00120059000214A
:100A600007914FF48030069001210D9009914FF4C9
:100A7000E01002210E900C9105A8FFF737FB00B1A2
:100A8000FEE70F200090022102200190002002903A
:100A90004FF480600390002004906846FFF793FCB9
:100AA00000B1FEE7FFF745FD4FF47A71B0FBF1F0BE
:100AB000FFF7E9FD0420FFF7FAFD002200214FF0C7
:100AC000FF30FFF7C3FD0FB000BD00004C4344D220
:100AD000BABEA7CFD4CABE0080B50748016841F0AE
:100AE000100101600320FFF7A4FD0020FFF748FD7F
:100AF00000F036F8002002BD0020024010B5164874
:100B0000164C86B0016841F02001016001220168A5
:100B100001F0200100910099016841F00401016099
:100B2000FD21006800F00400009000982046FFF7C7
:100B300091FE002202212046FFF78CFEFF2001904B
:100B400001A9012002900020039002200490204679
:100B5000FFF7C6FD06B010BD1810024000080140A6
:100B600080B52448016841F001010160016801F08D
:100B7000010100910099416841F080514160406855
:100B800000F08050009000980320FFF752FD0022F3
:100B900000216FF00B00FFF759FD002200216FF0DC
:100BA0000A00FFF753FD002200216FF00900FFF754
:100BB0004DFD002200216FF00400FFF747FD0022E9
:100BC00000216FF00300FFF741FD002200216FF0CC
:100BD0000100FFF73BFD002200214FF0FF30FFF73F
:100BE00035FD0548016821F0E06141F000710160C8
:100BF00001BD00BF18100240040001400E480F4A1A
:100C0000016841F0010101604168114041600C4AF6
:100C1000016811400160016821F480210160416890
:100C200021F4FE0141604FF41F0181604FF000602C
:100C30000449086070470000001002400000FFF8FF
:100C4000FFFFF6FE08ED00E00000000000000000DD
:100C5000010203040607080910B450F8041B79B117
:100C60000268436802440830DC0744BFA9F101046C
:100C7000E31852F8044B43F8044B091FF9D1ECE791
:100C800010BC704710B5074979441831064C7C44B4
:100C9000163404E00A68081D114488470146A14241
:100CA000F8D110BD0800000018000000ADFFFFFFE4
:100CB0001400000080000000000000200000000080
:100CC0007047FEE7FEE7FEE7FEE7704770477047B4
:100CD00080B500F005F8BDE80140FFF7FDBC00005D
:100CE00002484168027851184160704704000020B2
:100CF00000F00BF8002801D0FFF7C4FF0020AFF38D
:100D00000080FFF78FFE00F002F80120704700F02E
:100D100001B800000746384600F002F8FBE7000083
:100D200080B5AFF30080024A11001820ABBEFBE78C
:100D3000260002008090889801000000000000005A
:100D40001000000000A24A04014880470148004703
:100D5000FD0B0008590D0008AFF30080AFF30080D1
:100D6000FFF7C6FFFFF7FEBFFFF7FEBFFFF7FEBFAF
:100D7000FFF7FEBFFFF7FEBFFFF7FEBFFFF7FEBFA7
:100D8000FFF7FEBFFFF7FEBFFFF7FEBFFFF7FEBF97
:100D9000FFF7FEBFFFF7FEBFFFF7FEBFFFF7FEBF87
:100DA000FFF7FEBFFFF7FEBFFFF7FEBFFFF7FEBF77
:100DB000FFF7FEBFFFF7FEBFFFF7FEBFFFF7FEBF67
:100DC000FFF7FEBFFFF7FEBFFFF7FEBFFFF7FEBF57
:100DD000FFF7FEBFFFF7FEBFFFF7FEBFFFF7FEBF47
:100DE000FFF7FEBFFFF7FEBFFFF7FEBFFFF7FEBF37
:100DF000FFF7FEBFFFF7FEBFFFF7FEBFFFF7FEBF27
:100E0000FFF7FEBFFFF7FEBFFFF7FEBFFFF7FEBF16
:0400000508000D5989
:00000001FF
