:020000040800F2
:1000000010050020A5630008E55F0008E75F000811
:10001000E95F0008EB5F0008ED5F000800000000EA
:10002000000000000000000000000000EF5F00087A
:10003000F15F000800000000F35F0008F55F0008B2
:10004000ED630008F1630008F5630008F963000838
:10005000FD630008016400080564000809640008E5
:100060000D64000811640008156400081964000894
:100070001D64000821640008256400080160000870
:100080000B600008296400082D6400083164000832
:1000900035640008396400083D64000841640008C4
:1000A000156000081F600008296000083360000820
:1000B00045640008496400084D6400085164000864
:1000C00055640008596400085D6400086164000814
:1000D000656400083D6000084D6000086964000820
:1000E0006D64000871640008756400082DE9F04F24
:1000F00082460FF25860A5B015461E46D0E900238F
:10010000CDE9122303AF00207960B8620DF15009E8
:1001100000E045440020ADF8020012AB4FF0FF3282
:1001200029460DF1020001F0AEF88046B8F1010F4A
:1001300008DA2878B0F1010868EB08086FEA0800CF
:100140004FEAD078BDF8020025280CBFA8F1010BBA
:10015000C346BBF1010F0EDB2C4614F8011B786877
:10016000D0470028786000F0F880B86A401CBBF1E6
:10017000010BB862F1D1BDF80200252807D100209B
:1001800038617861B861F8613862786205E000280A
:10019000BFD1B86AE2E240F0010015F8011F202942
:1001A000F9D023290DD02B2904D02D2906D03029B0
:1001B0000AD00CE040F0020080B2EEE740F004000C
:1001C000FAE740F00800F7E740F01000F4E72A29CA
:1001D0000ED13168316051F8042B3160002A3A6346
:1001E00004D5514240F00400396380B26D1C13E025
:1001F000002139630BE0396B6FF00043994205D061
:1002000001EB810302EB4301303939636D1C2A781D
:10021000A2F130010A29EED329782E2903D04FF01C
:10022000FF31F9621FE015F8011F2A2907D1316853
:1002300031606D1C51F8042B3160FA6213E000212B
:10024000F9620BE0F96A6FF00043994205D001EBC7
:10025000810302EB43013039F9626D1C2A78A2F167
:1002600030010A29EED3B8860FF2E840297801F070
:100270001FF808B115F8010B8DF842009DF84200F7
:10028000682802BF29786829622005D06C2804BF3D
:1002900028786C2803D171208DF842006D1C14A8B9
:1002A000F86015F8014BB4F125002AD01C3800F095
:1002B000DB80001F022840F2D780133800F0FB805B
:1002C000093800F0D180801E00F06581401E00F0EA
:1002D0003C81401E022840F2C780001F00F035819B
:1002E000401F00F09280401E00F0E580401E37D095
:1002F000C01E0BD0801E00F0DE80C01E00F0DB8030
:100300006CE125208DF85000012070E19DF842003D
:100310006C283068306016D050F8048B3060C7F815
:100320000880FC6A002C04D5404600F0CDFF04464E
:1003300007E022460021404600F0E2FF08B1A0EBB2
:1003400008047C6154E150F8042B306002A9504647
:1003500000F03EFA002840F14B814FF0FF30FDE104
:1003600031683160002251F8040B31604FF03C0ECF
:100370000021CDE9020114A8B860DDE90201914233
:10038000FC6808BF904201D1FA6AC2B100F00F03C5
:100390003033DBB23A2BA8BF2733AEF1010200099C
:1003A000A354964640EA017009090022914208BF11
:1003B000904204D0BA6804EB0E039A42E6D304EBF1
:1003C0000E01B960CEF13C00F96A7861884207DA23
:1003D000081AF8614FF6EF71B88E0840B88607E149
:1003E000002940F1058197F8341001F0140110291B
:1003F00040F0FE80396B3A69891AFA69891A081A3D
:100400000128C0F2F580F861F2E09DF84200622810
:100410001AD0682806D06A280CD06C281CD0712805
:1004200008D019E03068306050F8041B3060B86ABA
:100430000880DDE03068306050F8042B3060B86A26
:10044000C117C2E90001D3E03068306050F8041BE6
:100450003060B86A0870CBE03068306050F8041B38
:100460003060B86A0860C3E03068C01D20F0070241
:100470003260D2E9000108323260CDE90201002980
:1004800002D538692D2109E0B88E810702D5386977
:100490002B2103E0C00705D53869202109F8001099
:1004A000401C386114A839690844B860214602A884
:1004B00000F09AFB9CE09DF842006C280DD071285A
:1004C00018BF6A2809D13068C01D20F007023260C9
:1004D000D2E900010832326005E03168316051F83C
:1004E000040B31600021CDE902019DF8420068282B
:1004F00003D1DDE9020180B20BE0622803D1DDE91E
:100500000201C0B205E0742818BF7A2804D1DDE9E1
:1005100002010021CDE9020197F83400000731D52E
:10052000DDE902230020834208BF82422AD044F042
:100530002000782826D13869302109F80010401CA5
:10054000411C396109F800401CE09DF84200314629
:1005500000F007F9CDE90201DDE9022300218B4219
:1005600002DA38692D2109E0B88E810702D5386991
:100570002B2103E0C00705D53869202109F80010B8
:10058000401C386114A839690844B860214602A8A3
:1005900000F0A4FA2CE09DF842006C2809D001205C
:1005A00038613068306050F8041B30608DF85010AE
:1005B0001EE03068306001AA50F8041B3060ADF8CE
:1005C00004100020ADF8060002A94FF0FF30F862D9
:1005D000504600F0FDF800280AD5BEE625208DF82B
:1005E0005000012038611CB189F8014002203861B7
:1005F000386B3969401AF969401A7969401A396AC1
:10060000401AB969401A796AA0EB010897F83400DA
:10061000400711D42020B8F1010F8DF800000BDB4A
:10062000444601236A4602A9504600F007FE00280E
:100630007FF493AE641EF4D1D7F810B0BBF1000F75
:1006400014AC0DD014F8011B7868D04700287860EE
:100650003FF483AEB86A401CBBF1010BB862F1D124
:1006600030208DF80000FC69012C0ADB01236A466A
:1006700002A9504600F0E2FD00287FF46EAE641E31
:10068000F4D1D7F814B0BC68BBF1000F0DD014F84A
:10069000011B7868D047002878603FF45EAEB86AE6
:1006A000401CBBF1010BB862F1D130208DF8000085
:1006B0003C6A012C0ADB01236A4602A9504600F07D
:1006C000BDFD00287FF449AE641EF4D1B868796995
:1006D000D7F818B04418BBF1000F0DD014F8011B67
:1006E0007868D047002878603FF437AEB86A401C7D
:1006F000BBF1010BB862F1D130208DF800007C6AAB
:10070000012C0ADB01236A4602A9504600F096FD3F
:1007100000287FF422AE641EF4D197F8340040071D
:100720007FF5F8AC2020B8F1010F8DF80000FFF63E
:10073000F1AC01236A4602A9504600F07FFD002873
:100740007FF40BAEB8F10108F3D1E3E40000000040
:1007500000000000686A6C747A4C000025B0BDE8A7
:10076000F08F622826D068281DD06A2808D06C280F
:1007700027D0712804D0742823D07A280CD020E008
:100780000868C01D20F007000860D0E90023083089
:1007900008601946104670470A680A6052F8040B50
:1007A0000A60002170470A680A6052F8040B0A6068
:1007B00000B20BE00A680A6052F8040B0A6040B20B
:1007C00004E00A680A6052F8040B0A60C117704717
:1007D0002DE9F44F0D4694B0D5F830A0BAF1000FD2
:1007E000804648BF6FF0004A00F0B6FD696B4018C4
:1007F00001900FF67820D0E90023CDE9022395F887
:100800003800400702D40198412805D240200DF15C
:1008100010090190002609E000F0A4FD5FEA00093C
:10082000F8D14FF0FF3056E1AAEB040ABAF1010FFC
:10083000C0F2CE801498018802AA0DF1010000F0E8
:10084000E9FD0028044600F1DE801498008810B904
:10085000641E00F1D880A245C0F2BA80686901998F
:100860002218914280F0A2806E634042296A401AA9
:10087000A969401A696A401AE969401AA96A461AC0
:1008800095F83800400710D42020012E8DF8000084
:100890000BDB374601236A462946404600F0CEFC72
:1008A000002840F0B0807F1EF4D1D5F814B0BBF121
:1008B000000F4F460DD017F8011BA868C04700284D
:1008C000A86000F0A080E86A401CBBF1010BE86260
:1008D000F1D130208DF800002F6A012F0ADB0123AF
:1008E0006A462946404600F0A9FC002840F08B806B
:1008F0007F1EF4D1D5F818B0EF68BBF1000F0CD013
:1009000017F8011BA868C0470028A8607BD0E86AD8
:10091000401CBBF1010BE862F2D130208DF80000E1
:100920006F6A012F09DB01236A462946404600F021
:1009300085FC002867D17F1EF5D1E868A969D5F844
:100940001CB04718BBF1000F0CD017F8011BA868AA
:10095000C0470028A86056D0E86A401CBBF1010BD4
:10096000E862F2D130208DF80000AF6A012F09DB78
:1009700001236A462946404600F060FC002842D127
:100980007F1EF5D195F8380040070DD52020012EA7
:100990008DF8000008DB01236A462946404600F036
:1009A0004DFC80BB761EF6D100266E61224668693A
:1009B0000DF10101484400F03BFD686920186861B1
:1009C0001498801C1490801E008800287FF42CAF9F
:1009D000686B6969401A296A401AA969401A696AEC
:1009E000401AE969401AA96AA0EB010A95F8380093
:1009F000400710D4BAF1010F0DDB5446A86820213E
:100A0000C047A86010B94FF0FF365DE0E86A401CAF
:100A1000641EE862F2D16B694A462946404600F0FE
:100A20000DFC0028EFD12C6A012C0ADBA8683021CC
:100A3000C0470028A860E6D0E86A401C641EE8624F
:100A4000F4D1AB69EA682946404600F0F7FB00287C
:100A5000D9D16C6A012C0ADBA8683021C047002874
:100A6000A860D0D0E86A401C641EE862F4D1E8684F
:100A7000A969EB6942182946404600F0DFFB0028CF
:100A8000C1D1AC6A012C0ADBA8683021C04700281C
:100A9000A860B8D0E86A401C641EE862F4D195F8FA
:100AA000380040070ED5BAF1010F0BDBA8682021F2
:100AB000C0470028A860A6D0E86A401CBAF1010A25
:100AC000E862F3D16E616E6304A881451CBF48469D
:100AD00000F0EAFC304615B0BDE8F08F2DE9F34395
:100AE000054608462F696F2808BF082405D041F045
:100AF0002001782914BF0A2410243C26D5E90023BC
:100B0000642818BF69289046994606D100218B4277
:100B100003DAD8F1000869EB49090020814508BFD4
:100B200080450CD1286B50B9082C38D195F8380085
:100B3000000734D530203B2687F83B002FE0701E9D
:100B400000900646404649462246E31700F00EFD57
:100B500002F13000C0B23A2803DB9DF8041051398D
:100B60000818B855494640462246E31700F0FEFCF7
:100B7000804689460020814508BF804503D0E8684B
:100B8000B9198842DBD3082C09D195F83800000741
:100B900005D5B85D302802D0761E3020B855B91979
:100BA000E960C6F13C00296BA861884208DA081A9E
:100BB00028624FF6EF71288F08402887BDE8F3833D
:100BC00000290ED595F8381001F01401102908D12C
:100BD000696B6A69891A2A6A891A0E1A012EA8BFD6
:100BE0002E62BDE8F38300002DE9F24F04468EB07B
:100BF000D4E90001CDE9020104AF9DF8380040F0CE
:100C0000200BBBF1610F0AD0206B002848BF0620E3
:100C100004D408BFBBF1670F01D1012020636168D4
:100C2000C1F30A5040F2FF7290421CD1080304BF86
:100C30002068002809D10320A0619DF838006138A0
:100C40001A2835D30FF2386108E00320A0619DF81F
:100C5000380061381A2828D30FF21C61E06803229B
:100C600000F0E6FBBDE1012815DA204600F0F5FCB6
:100C7000012810DB00250020BBF1610F1FD1E168C6
:100C800030220A708A1CE2609DF83820612A0CBF6D
:100C9000782258220FE0626840F2FE3161F31E5262
:100CA000451A62604FF0FF30E6E70FF2C851D5E712
:100CB0000FF2C851D2E74A706169891C616110B9AD
:100CC0000026002584E1BBF1610F40F09880206B85
:100CD000D4E900AB00284CBF2126461CDDE9020107
:100CE0000022002300F0DCFC36B23ABF8BF000405B
:100CF000CDE902A0CDE902AB06F101082D1FB8F144
:100D0000010F8DF810200DF1110736DBDDE902012E
:100D10000022002300F0DCFC2FD21C2102A800F0EE
:100D2000EFFCDDE9020100F071FDA8F10708B8F160
:100D3000010F814609DB00F095FD02460B46DDE917
:100D4000020100F0A7FDCDE90201F81D072105E031
:100D500009F00F0200F8012D4FEA2919B9F1010F2E
:100D600001DB491EF4D5491E5CBF002200F8012DAD
:100D7000F9D5C71DB8F1010FC8DA0DF11100391A04
:100D8000B142B8BF0E4636B230000DF111072FD474
:100D9000884206DA04A9014449780829A8BF0F212E
:100DA00000DA002104AA024400E0761E12F801399C
:100DB000401E8B42F9D00F2904D104A901444A787E
:100DC000521C4A70002802D504AF761C2D1D36B285
:100DD000701E0DD439180A783032D2B23A2A03DBA9
:100DE0009DF838303A3B9A18401E01F80129F2D597
:100DF000206B002840F1EC80701E2063E8E0DDE904
:100E000002010022002300F04BFC3CBF81F00041B6
:100E1000CDE902012DB247F2975068434B49DFF804
:100E2000309190FBF1F52DB2C5F1070ABAF1010F2F
:100E300090461CDBDDE902675FEACA7007D54246CF
:100E40004B463046394600F0E5FD06460F46404623
:100E5000494642464B464FEA6A0A00F0DBFDBAF1CA
:100E6000000F80468946E7D1CDE9026724E0CAF148
:100E7000000A0026374F14E05FEACA7007D54246E1
:100E80004B463046394600F0C5FD06460F46404603
:100E9000494642464B4600F0BDFD4FEA6A0A80468D
:100EA0008946BAF1000FE7D1DDE9020132463B463F
:100EB00000F082FECDE90201BBF1660F216BDFF885
:100EC00098900CBF05F10A0006204618142EA8BF02
:100ED000132630208DF810000DF11107012E3DDB97
:100EE000DDE9020100F0A8FC07F1080104220A2351
:100EF000B0FBF3F303EB8307A0EB4700303001F8BE
:100F0000010C0A20B3FBF0F000EB8007A3EB4703D2
:100F10003033521E01F8023DE9D1083E012E01F1A5
:100F20000807DBDBDDE9020100F086FC00F0A4FC31
:100F300002460B46DDE9020100F0ACFC00224B4604
:100F400000F068FDCDE90201CAE700BFA0860100FC
:100F5000000024400000F03F84D797410DF11100BC
:100F6000381A0DF1110702E0401E6D1E7F1C397802
:100F70003029F9D0BBF1660F08BF691C04D0BBF162
:100F8000650F0CBF01210021226B8E1836B2B042D2
:100F9000B8BF064636B231001AD4814204DA785C12
:100FA0003528A8BF392000DA30207A18521E00E018
:100FB000761E12F80139491E8342F9D0392802D130
:100FC000785C401C7854002902D57F1E761C6D1C6D
:100FD0002DB29DF83810009533B23A46204600F005
:100FE00003F80FB0BDE8F08F2DE9F04786B0064654
:100FF0008A4690461D4600F028FF012D406A376B57
:1010000090F8009002DA01250FF278284AF02000CB
:10101000BDF93840662808BF641C12D0672878D113
:1010200014F1040F7BDBBC4279DA96F83800641CBB
:10103000000702D4BD42B8BF2F4624B23F1B48BFB1
:10104000002724B2F068B169012C23DA4A1C30234E
:101050004354012F03DA96F83800000703D5F068EF
:1010600000F80290521CE742B8BF7C4224B26042B2
:101070007062E719AF42B261B8BF3D46F068B3692C
:101080002DB2F5612A464146184400F0D1F9781B8B
:10109000B062BCE022469542084416DA2A46414630
:1010A00000F0C6F9B1696918601B012FB161706267
:1010B00003DA96F83800000705D5F06800F80190CB
:1010C000F069401CF061B762A1E0414600F0B0F960
:1010D000B06920182D1B012F03DA96F83810090784
:1010E00003D5F16801F80090401CB0612DB2AF4209
:1010F000B8BF3D46F068B3692DB22A4608EB04013B
:10110000184400F095F9B0692818B061781B706236
:101110007DE0BAF1610F14D14FF0700A16E0BD42C4
:1011200004DA96F83810090758BF2F467F1E48BFCB
:101130000027BAF1670F14BF4FF0450A4FF0650A58
:1011400004E0BAF1410F08BF4FF0500AB169F368EB
:10115000481CB061012F18F8012B5A5403DA96F895
:101160003810090717D5F168431CB36101F80090E6
:10117000012F10DB6D1E2DB2AF42B8BF3D46F068A7
:101180002DB22A464146184400F052F9B069281899
:10119000B061781B7062F068B1690144200081F889
:1011A00000A004D42B20487001F1020804E02D2295
:1011B0004A7001F102086442002502AF08E00A22E9
:1011C000684600F05BFE019807F8010B6D1C009C5F
:1011D00021B20129F3DA022D06DA4AF0200065284F
:1011E00004BF302008F8010B4DB9302008F8010B7E
:1011F00007E06D1E02A8405D303008F8010B012D9C
:10120000F7DAF068B1690844A8EB0000F06196F8DD
:10121000380000F0140010280DD17069B169081869
:10122000716A0818F1690818B16A0818716B884268
:10123000BCBF081A306206B0BDE8F087F8B50446B6
:101240000D4616461F46002077B116F8011BA86808
:10125000A047A86030B1E86A401CE86200207F1E09
:10126000F3D1F2BD4FF0FF30F2BD000000000000EE
:10127000000000006E616E004E414E00696E660017
:10128000494E46003000F8B504460D4616461F4646
:1012900000F0FCFD3B4632462946204601B0BDE841
:1012A000F04000F00ABE0268531C036011707047E2
:1012B0000278C9B28A421AB11CBF10F8012FF9E7AF
:1012C00018BF00207047010200F10103810704D01C
:1012D00010F8011B89B18107FAD10268B2F101311E
:1012E000914311F0803F04BF50F8042FF6E710F847
:1012F000011B11B110F8011BFBE7C01A7047000079
:10130000C9B2830706D0521E22D310F8013B99427E
:10131000F7D11FE0083A13D302F1040241EA012198
:1013200041EA014150F8043B121F21BF4B40A3F199
:10133000013C2CEA030C1CF0803FF3D0C9B2001F23
:10134000083210F8013B521E28BF91EA030FF8D86B
:1013500018BF0120401E704780B500F097FD0120A6
:1013600002BD000070B5054605F10F00C408AFF3DB
:101370000080E400A54232D2082C04D2082402E006
:10138000083000F091F82248026811000CD1011DCC
:101390000A6802B31368A34238BF111DF8D310E0E6
:1013A0001D68A5420DD2191D0B68002BF8D11268DB
:1013B000011D00E0191D0B6893420CD01D68A54269
:1013C000F8D361B10D682A68A2F10803A3420AD2DA
:1013D0006A680A600FE000F093FD0028D0D1AFF3F7
:1013E0000080002070BD2B190B60121B6E685E60C0
:1013F0000B681A602C60096800291DBF4A68002A22
:10140000091D00210160AFF3008005F1080070BDE7
:10141000E813002070B504460D46164600F036FD70
:10142000324629462046BDE8704000F039BD000034
:1014300062B38B0708D0521E11F8013B00F8013B44
:1014400000F024808B07F6D1830740F0208000BF96
:10145000103A07D330B4B1E83810103AA0E8381089
:10146000F9D230BC530724BFB1E80810A0E8081037
:1014700044BF51F8043B40F8043BD20724BF31F885
:10148000022B20F8022B44BF0B7803707047083AF8
:1014900007D3B1E80810083A40F8043B40F804CB01
:1014A000F7D25307E4E7000000B9704738B5A0F160
:1014B00008042068082833D310F0070F30D1AFF3A9
:1014C00000801848416809B18C4203D261604460D1
:1014D00017E019464B680BB1A342FAD30B68CD183D
:1014E000AC421BD3A54204D12268D2180A600C4634
:1014F00007E04A681AB1236823449A420ED3626017
:101500004C60616851B12268A3188B4206D1002358
:10151000036008688018206048686060AFF300804E
:1015200031BD0000E813002013F0004C03D55B42EE
:10153000524263F100039CEA210C00F0178010B5C1
:10154000644603D34942404261F1000100F00EF8C5
:10155000640004D34942404261F10001244203D5B2
:101560005B42524263F1000310BD00001B4213D1E5
:10157000094236D12AB18446B0FBF2F002FB10C218
:10158000704700F0D3BCFCD30022002370470B004F
:101590000200002100207047904271EB030CF6D34B
:1015A00070B5B1FA81F4B3FA83F52C1BA340C4F1F2
:1015B000200532FA05F63343A2405FF00046E640CC
:1015C00002E05B085FEA3202841A71EB030524BF74
:1015D000204629467641F4D302000B00300000215A
:1015E00070BD012ACFD970B5140C20D0B1FA81F4A6
:1015F000B2FA82F5C4F120046419B4F12006D6D3FE
:10160000B2405FF00044F440002502E052085FEA77
:101610003303C61A71EB020E24BF30467146644193
:101620006D41F3D302000B002000290070BD0C4671
:10163000B1FBF2F102FB11452D0445EA1045B5FB63
:10164000F2F402FB145580B240EA0545B5FBF2F016
:1016500002FB105240EA044070BD30B4436803F00E
:1016600000420121C3F313034360002B04BF03684E
:10167000002B08D10DE00368DD0F45EA4404446007
:101680005B000360491E4468E302F4D5C4F313030E
:10169000436043681A434260084630BC704700000C
:1016A0004FF4001C1CEB410F94BF1CEB430F09E0EF
:1016B00041EA030C50EA4C0C52EA0C0C03D299425A
:1016C00008BF9042704714BF8B42824270470000AF
:1016D0004FF4001C1CEB410F94BF1CEB430F09E0BF
:1016E00041EA030C50EA4C0C52EA0C0C03D28B4238
:1016F00008BF8242704714BF994290427047000071
:1017000070B504460D466068C0F30A5040F2FF71A0
:10171000884207D16068000304BF2068002817D002
:10172000022070BD20B92046FFF797FF012866DA36
:10173000012D0FDB40F2FF71091A8D420AD3606858
:10174000002847BF00202F4900202F49C4E900018D
:10175000012070BD4142A942616806DA6FF31E5153
:10176000401941EA0050606040E0401E636845193E
:10177000012205F1350062F31F53352801F00041C5
:10178000636003D361600020206070BD002015F10C
:101790001F0F04DA206823600022203562606A424D
:1017A00012D0401E25688041C2F12003C0439D40F5
:1017B00045EAD07025686668D54006FA03F32B43E6
:1017C00023606368D340636062680A43B0F1004FEE
:1017D000626003D80DD12078C0070AD52068401C6C
:1017E0002060206828B96068401C60604FF0FF30BE
:1017F00070BD6068884204BF20680028F6D10020D0
:1018000070BD00BF0000F0FF0000F07FF446400D07
:1018100040EAC120490006D200F014F8004248BF57
:101820006FF00040604700F00DF84FF00041884233
:101830008CBF084640426047400D40EAC120490045
:1018400080F00D8040F00040490DA1F58061491CF9
:1018500005D4D1F11F0154BFC840C01770474FF0E5
:1018600000007047010040F10980F446404200F05A
:1018700005F851F000416047010000BF09D0B0FAFF
:1018800080F18840C91CC1F58461090501EBD021B4
:1018900040057047F0B44FF0004591EA030F44BF94
:1018A0006B4000F04FBB00BF841A71EB030604D2FB
:1018B0006E40001BB141121973414FF4001C1CEB28
:1018C000410F34BF7CEB430684E00C0DA4EB1356B0
:1018D000362E7DDC012E43DC45EAC32343EA525316
:1018E00012BFD20292025B08240545EAC12141EAF7
:1018F0005051D2EBC020994125D407D1B0FA80F6DF
:1019000010FA06F164D00020203608E0B1FA81F622
:10191000B140C6F1200220FA02F21143B0404FEA72
:10192000F474B4EB465434F001064FEA74040AD858
:10193000D6F50016760D04F00044F04061FA06F288
:101940005040F1404840C00A40EA415021F0004177
:1019500028BF5FEA500550F1000044EBD12137E089
:1019600045EAC323DB0A45EAC121C90AB6F12005CD
:101970000EDD42EA0242120CC5F1200603FA06F619
:10198000EB4042EA06056D42984161F100010DE02D
:1019900062FA06F5F240554063FA06FC82EA0C0250
:1019A000F3405A406D42904161EB030111F4801FF6
:1019B00005D1641E620502D06D004041494121F409
:1019C0008011430875F1004350F1000041EB0451D0
:1019D000F0BC70471CEB410F15D223F0004352EAD4
:1019E00043060BD04FEA4C0CBCEB410F04D80C0D56
:1019F000661E342EB7DDEBE7801A994150EA4106A6
:101A000008BF0021E4E708BF1CEB430F28BF6FF0BD
:101A10000001DDE7B0B581EA030C0CF0004C40F2A8
:101A2000FF7515EA11541DBF15EA1357AC42AF42BA
:101A300039E0E41923EA455343F48013C90241F025
:101A4000004141EA505EC7021100A7FB02020028D4
:101A50004FF00000EEFB01204FF00001E3FB0721F7
:101A600018BF42F00102401800214941E3FB0E017A
:101A7000A4F580640F0302D252004041494154F161
:101A800001046CDD470872F1004250F1000051EB97
:101A90000451A1F580115CBF41EA0C01B0BD4CEAD4
:101AA00005510020B0BD05EA1357AC4214BFAF4248
:101AB00041E050EA410E1CBF52EA430E02E061468B
:101AC0000020B0BD24423C441BD15FEA070EF6D093
:101AD000090302BF01460020AEF1140EB1FA81F7EE
:101AE000AEEB070401FA07FE0C37C7F1200100FA3C
:101AF00007F7C8404EEA000E23EA455343F480132B
:101B0000A2E733F00043B3FA83F704BFB2FA82FED0
:101B100077440B3FE41BB7F1200E2FBF02FA0EF300
:101B2000BB40C7F1200E22FA0EFE38BF43EA0E0377
:101B3000BA40641C82E750EA410E14BF52EA430ED9
:101B40006FF000014FF4001717EB430F8ABF1946DF
:101B500017EB410FB5E74CEA05510020B0BDD4F1B9
:101B60000104B4F120070FDAC4F12007520828BF9E
:101B700042F0010210FA07F501FA07F7E1BF2A4324
:101B8000E0403843E1400FE0352C98DCC7F12004F9
:101B900052EA400220FA07F218BF42F0010231FA7D
:101BA00007F0A1400A43002172F1004250F1000009
:101BB00051EB0C01B0BD00002DE9F04140F2FF7582
:101BC00081EA030C0CF0004C15EA11541DBF15EA14
:101BD0001357AC42AF42E9E0BC41C1F31301C3F378
:101BE0001303801A994143F4801304D2641E400009
:101BF000494180185941C90241EA5051B1FBF3F6FD
:101C000003FB1611A2FB0675D7EBC020A94102D237
:101C1000761E80185941C90241EA5051B1FBF3FECA
:101C200003FB1E11A2FB0E75D7EBC020A94103D206
:101C3000AEF1010E80185941890241EA90517605B2
:101C400046EA8E2EB1FBF3F603FB1611A2FB0675D6
:101C5000D7EB8020A94102D2761E80185941C902D3
:101C600041EA50514EEA060EB1FBF3F603FB1611A2
:101C7000A2FB0675D7EBC020A94102D2761E8018C0
:101C80005941C90241EA5051B1FBF3F703FB171167
:101C9000A2FB0735D3EBC020A94167F100070CBFB9
:101CA000004247F0010766F3D5274FEA1E31B80816
:101CB00014F5806414DDBD0775F1004250EB0E5041
:101CC00051EB045111F5801F5CBF41EA0C01BDE8E6
:101CD000F0814CF07F6141F0E0410020BDE8F081EF
:101CE000BD076D0840EA0E5041F48011D4F10104A3
:101CF000B4F120060ADAC4F120060200E04001FA3D
:101D000006F3E1401843B24015430EE0342C14DCD6
:101D1000C6F1200445EA40056D0820FA06F2154395
:101D200021FA06F0A1400D43002175F1004250F167
:101D3000000051EB0C01BDE8F08100205FEA0C01CE
:101D4000BDE8F081CFB992185B41B3FA83F704BFC5
:101D5000B2FA82F6BF190B3FB7F120062FBF02FA85
:101D600006F3BB40C7F1200622FA06F638BF33431C
:101D7000BA401CB1E419641E2FE77F4231F00041E4
:101D8000B1FA81F404BFB0FA80F6A4190B3CB4F1A7
:101D900020062FBF00FA06F1A140C4F1200620FA68
:101DA00006F638BF3143A0403C1B16E7AC421ABFD1
:101DB00005EA1357AF4214E050EA41061CBF52EA4D
:101DC0004306BFE750EA4107304661461CBF41EA7F
:101DD0000551BDE8F08152EA430C08BFC143BDE89C
:101DE000F08100204FF4001616EB410F98BF16EB60
:101DF000430F08BF16EB410F24BFC14305E016EBAC
:101E0000430F0CBF61464CEA0551BDE8F08100006C
:101E100080B5134800F000F90FF24C020FF24401B4
:101E20000160426241600FF24402826381600FF2FE
:101E30004402C1600161416181618162C1620163EB
:101E40004163C2630164416401BD10B5044800F000
:101E5000E3F80446206808B9FFF7DAFF204610BD12
:101E60000C000020000000002E00000066616C7372
:101E700065000000747275650000000091FBF2F3CC
:101E800003FB1211C0E900317047000080B5DFF894
:101E90000C0000F0C1F8806902BD00009C00002029
:101EA00030B430B90FF24800D0E90045C2E900452E
:101EB0001BE00170012030BC704730B431B90FF223
:101EC0003800D0E90045C3E900450EE01AB930BC3E
:101ED0006FF00100704708B10A7802800978481E47
:101EE000804130BCC043C00F7047002030BC7047F9
:101EF00000000000000000000000000000000000E2
:101F00000749086808B1002070470648C008C000AB
:101F100008600549C908C900091A0160704700BF77
:101F2000F81300201705002010070020704700005C
:101F3000F0B44FF0004591EA030C44BF6B40FFF74B
:101F4000B3BC00BF841A71EB030603D2001BB1417E
:101F5000121973414FF4001C1CEB410F34BF7CEB92
:101F6000430443E00C0DA4EB1356352E50DC45EA38
:101F7000C323DB0A45EAC121C912B6F120050DDDF4
:101F800063FA05F6EB4086EA0305124218BF45F0F6
:101F90000105C01851F100010CD213E062FA06F5F8
:101FA000F2405540F3415A40B340F3405A40801844
:101FB000594107D349085FEA30005FEA350528BF79
:101FC00045F0010501F58011420875F1004250F11C
:101FD000000041EB0451F0BC4FF4001C1CEB410F1E
:101FE00038BF70470020090D090570471CEB410FF1
:101FF00010D252EA43060BD0BCEB410F05D80C0DB2
:10200000AB43661E342EB5DD02E0AB438018594168
:10201000F0BC7047F0BC70477047000010B504007A
:10202000002C01D1012033E0A0690028FFD194F8F1
:102030003900002805D1002084F83800200000F085
:1020400061FC242084F839002068C06830F4005016
:102050002168C860200000F019FB2068006930F496
:102060009040216808612068406930F02A002168AA
:1020700048612068C06850F400502168C8600020A2
:10208000E063202084F83900202084F83A00002002
:1020900010BD2DE9F84304000D0016001F005FF08D
:1020A000000994F8390020285FD1002D02D0B6B283
:1020B000002E01D1012059E094F83800012801D107
:1020C000022053E0012084F838000020E063212042
:1020D00084F8390000F006FD8146A684E684E08C91
:1020E00000282FD0E08C401EE084A068B0F5805F0F
:1020F00018D100974B4600228021200000F0CAF939
:10210000002801D0032031E0A846B8F80000C0053F
:10211000C00D216848602069002801D1AD1CDEE7B0
:102120006D1CDCE700974B4600228021200000F068
:10213000B1F9002801D0032018E028782168486010
:102140006D1CCCE700974B4600224021200000F098
:10215000A1F9002801D0032008E0202084F83900EC
:10216000002084F83800002000E00220BDE8F2835F
:1021700073B50400150094F83A00202851D1019855
:10218000002802D0ADB2002D01D101204AE094F820
:102190003800012801D1022044E0012084F83800F1
:1021A0000198A062A5850020E063222084F83A000F
:1021B0000FF23120616B88620FF26D20616BC86293
:1021C0000FF27520616B08630020616B486301A802
:1021D0000600ADB22B0032682068011D606B00F074
:1021E000C3FC0020009020680068009020684068D0
:1021F00000900098002084F838002068C06850F4EF
:1022000080702168C8602068406950F00100216832
:1022100048612068406950F0400021684861002012
:1022200000E0022076BD38B5040000252068406932
:10223000C00910F00100050094F83900212810D1E0
:10224000002D0ED02068406930F080002168486180
:10225000206B002802D0206B00F0D2FC200000F0A0
:1022600051F920684069800910F00100050094F8D8
:102270003A00222810D1002D0ED02068406930F09D
:10228000400021684861606B002802D0606B00F05C
:10229000B7FC200000F040F9002032BD2DE9F843E2
:1022A0000400206805682068C668206847695FF0F8
:1022B00000085FF0000915F00F008046B8F1000F2C
:1022C00007D1A80605D5B00603D5200000F087F990
:1022D00085E0B8F1000F72D0F80702D416F4907FB1
:1022E0006DD015F00100C0B2002805D0F00503D56F
:1022F000E06B50F00100E063680708D517F00100BB
:10230000C0B2002803D0E06B50F00200E063A807E1
:1023100008D517F00100C0B2002803D0E06B50F0E0
:102320000400E063280708D517F00100C0B20028B8
:1023300003D0E06B50F00800E063E06B00283DD074
:10234000A80604D5B00602D5200000F048F92068A0
:102350004069800910F001008146E06B000702D45B
:10236000B9F1000F25D0200000F0D6F820684069B0
:1023700040061AD52068406930F040002168486165
:10238000606B00280DD00FF2B110616B4863606B79
:1023900000F051FC002811D0606B616B496B8847DD
:1023A0000CE0200000F07EFD08E0200000F07AFD47
:1023B00004E0200000F076FD0020E0630FE0280636
:1023C00005D5300603D5200000F0C2F807E0680606
:1023D00005D5700603D5200000F0F1F8FFE7BDE851
:1023E000F183000038B50400656A20680068800643
:1023F00016D40020E8852868C06830F48070296809
:10240000C860286840694008400029684861286819
:10241000406930F0400029684861202085F83A0082
:10242000280000F040FD31BD38B50400656A280081
:1024300000F03AFD31BD000070B504000025666A69
:1024400030684069C00910F00100050096F83900B5
:10245000212806D1002D04D00020F084300000F0A7
:1024600051F830684069800910F00100050096F8C5
:102470003A00222806D1002D04D00020F08530003B
:1024800000F04AF8F06B50F01000F063300000F0FC
:1024900009FD70BD2DE9F04104000D0016001F007C
:1024A000DDF81880206800682840A84201D101208A
:1024B00000E00020F6B2B04221D118F1010FF1D0B6
:1024C000B8F1000F04D000F00DFBC01B8045E9D22D
:1024D0002068C06830F4D0702168C8602068406906
:1024E0004008400021684861202084F839002020FD
:1024F00084F83A00002084F83800032000E000202F
:10250000BDE8F0810168C96831F0C0010268D1609E
:10251000202180F8391070470168C96831F4907142
:102520000268D1600168496949084900026851613F
:10253000202180F83A10704738B50400656A002001
:10254000E8850020E884280000F0ACFC31BD0000E4
:10255000010091F8390021282FD18868B0F5805FFB
:1025600011D1086A02001088C005C00D0B685860C0
:102570000869002803D1086A801C086209E0086A1B
:10258000401C086205E0086A431C0B6200780B6877
:102590005860C88C401EC88480B200280BD10868DF
:1025A000C06830F080000B68D8600868C06850F0E0
:1025B00040000B68D860002000E00220704710B592
:1025C00004002068C06830F040002168C860202006
:1025D00084F83900200000F068FC002010BD38B5F8
:1025E000040094F83A0022284ED1A068B0F5805F2C
:1025F00016D1A06A05002069002808D1206840682B
:10260000C005C00D2880A06A801CA0621AE0206866
:10261000406800F0FF002880A06A401CA06211E022
:102620002069002806D1A06A411CA162216849687E
:10263000017007E0A06A411CA1622168496811F09D
:102640007F010170E08D401EE08580B2002819D125
:102650002068C06830F020002168C8602068C06829
:1026600030F480702168C8602068406940084000EC
:1026700021684861202084F83A00200000F013FC13
:10268000002002E0002000E0022032BD2DE9F843E6
:10269000040000252068006930F44050E1680843D8
:1026A00021680861A06821690843616908430543FE
:1026B0002068C0685B49084028432168C8602068DA
:1026C000406930F44070A16908432168486120687E
:1026D0005549884252D100F020FF814600F01DFF8D
:1026E000804600F01AFF070000F017FF060000F018
:1026F00014FF192101FB09F162689200B1FBF2F1AC
:102700006422B1FBF2F1192202FB08F263689B001C
:10271000B2FBF3F2192303FB07F36768BF00B3FBB7
:10272000F7F36427B3FBF7F3642707FB13221201C7
:1027300032326423B2FBF3F212F0F00212EB011119
:10274000192202FB06F263689B00B2FBF3F2192325
:10275000584363689B00B0FBF3F06423B0FBF3F0D5
:10276000642303FB1020000132306422B0FBF2F03E
:1027700010F00F0040182168886051E000F0C2FEA0
:10278000814600F0BFFE804600F0BCFE070000F06E
:10279000B9FE060000F0B6FE192101FB09F16268DE
:1027A0009200B1FBF2F16422B1FBF2F1192202FBBB
:1027B00008F263689B00B2FBF3F2192303FB07F3F3
:1027C0006768BF00B3FBF7F36427B3FBF7F3642735
:1027D00007FB1322120132326423B2FBF3F212F030
:1027E000F00212EB0111192202FB06F263689B0052
:1027F000B2FBF3F21923584363689B00B0FBF3F07C
:102800006423B0FBF3F0642303FB1020000132309B
:102810006422B0FBF2F010F00F00401821688860CD
:10282000BDE8F183F3E9FFFF0038014080B59E4821
:102830009E4908604FF416509C49486000209B490F
:10284000886000209949C8600020984908610C20E0
:102850009649486100209549886100209349C861E4
:102860009248FFF7DBFB002803D04821904801F095
:10287000A5F901BD80B58F488F4908605FF4E1304C
:102880008D49486000208C49886000208A49C860D2
:102890000020894908610C20874948610020864949
:1028A000886100208449C8618348FFF7B7FB00288E
:1028B00003D05B217E4801F081F901BD80B57F48DE
:1028C0007F4908604FF416507D49486000207C49DC
:1028D000886000207A49C8600020794908610C208E
:1028E0007749486100207649886100207449C861B1
:1028F0007348FFF793FB002803D06E216C4801F06A
:102900005DF901BD10B586B00400206866498842B3
:102910004FD16C48006850F480406A4908606948AB
:10292000006810F48040009000984FF4007001900F
:10293000022002900320049001A9634801F040F9AD
:102940004FF480600190002002900020039001A9C4
:102950005D4801F035F95D485D49086000205C493B
:10296000486000205A49886080205949C86000208A
:102970005749086100205649486100205449886140
:1029800000205349C861524800F0B2F8002803D033
:102990009921474801F012F94D4860634C48446260
:1029A00000220021252001F001FB252001F011FB70
:1029B00077E020683F4988424DD14648006850F48E
:1029C0000030444908604348006810F4003000902B
:1029D000009804200190022002900320049001A995
:1029E000394801F0EDF80820019000200290002005
:1029F000039001A9344801F0E3F8374837490860EB
:102A000000203649486000203449886080203349DE
:102A1000C860002031490861002030494861002029
:102A20002E49886100202D49C8612C4800F060F8CB
:102A3000002803D0C7211E4801F0C0F82748606372
:102A40002648446200220021262001F0AFFA262009
:102A500001F0BFFA25E020681849884221D11D48BD
:102A6000006850F480201B4908601A48006810F480
:102A70008020009000984FF4806001900220029026
:102A80000320049001A9164801F09AF84FF4006061
:102A90000190002002900020039001A9104801F04D
:102AA0008FF806B010BD000000380140141300205C
:102AB000EC6100080044004054130020004800402E
:102AC00094130020181002400008014058000240F2
:102AD0004C1200201C1002406C000240901200209A
:102AE000000C014001480068704700BFF41300204B
:102AF00001000022002901D1012034E00868DFF83C
:102B0000543318181423B0FBF3F080000864DFF886
:102B10004803C863022081F82100086800680200A9
:102B20006FF30D1248688B681843CB6818430B6924
:102B300018434B6918438B691843CB691843024308
:102B400008680260002088620020C86200200863D4
:102B50000020486300208863012081F821000020C4
:102B600081F82000002070472DE9F04104000D009D
:102B700016001F005FF0000894F82000012801D122
:102B800002203BE0012084F8200094F82100012875
:102B90002DD1022084F821000020A0632068006865
:102BA00040084000216808603B00320029002000F6
:102BB00000F062F9E06A002806D02068006850F052
:102BC0000E00216808600BE02068006830F0040007
:102BD000216808602068006850F00A0021680860D9
:102BE0002068006850F001002168086004E00020BF
:102BF00084F82000022080464046C0B2BDE8F08143
:102C0000010000200A68126832F00E020B681A6098
:102C10000A681268520852000B681A6001220B6C95
:102C20009A40CB6B5A60012281F82120002281F862
:102C30002020C0B2704738B50400002594F8210068
:102C4000022804D00420A063012005004AE0206887
:102C5000006830F00E0021680860206800684008B5
:102C60004000216808602068DFF8F011884201D137
:102C7000012028E02068DFF8E811884201D1102007
:102C800021E02068DFF8DC11884202D14FF4807027
:102C900019E02068DFF8D011884202D14FF480504B
:102CA00011E02068DFF8C411884202D15FF480305F
:102CB00009E02068DFF8B811884202D15FF4801083
:102CC00001E05FF08070DFF8AC110860012084F84B
:102CD0002100002084F82000606B002802D0200032
:102CE000616B88472800C0B232BD70B50400E06B4C
:102CF0000568206806680420216C884005423ED0A3
:102D000070073CD520680068800605D420680068FC
:102D100030F004002168086020685049884201D1E1
:102D2000042023E020684E49884201D140201DE064
:102D300020684C49884202D14FF4806016E0206838
:102D40004949884202D14FF480400FE0206847494A
:102D5000884202D15FF4802008E02068444988421C
:102D600002D15FF4800001E05FF0806041490860BB
:102D7000E06A00286DD02000E16A884769E00220FF
:102D8000216C8840054244D0B00742D520680068D5
:102D9000800608D42068006830F00A0021680860C6
:102DA000012084F8210020682C49884201D10220AA
:102DB00023E020682A49884201D120201DE02068B4
:102DC0002849884202D14FF4007016E02068264955
:102DD000884202D14FF400500FE020682349884216
:102DE00002D15FF4003008E020682149884202D116
:102DF0005FF4001001E05FF000701E4908600020E1
:102E000084F82000A06A002823D02000A16A884707
:102E10001FE00820216C884005421AD0300718D5E1
:102E20002068006830F00E00216808600120216CE5
:102E30008840E16B48600120A063012084F82100F4
:102E4000002084F82000206B002802D02000216B95
:102E5000884770BDF8FFFDBF000002400800024037
:102E60001C00024030000240440002405800024072
:102E70006C0002400400024030B40124056CAC40F8
:102E8000C56B6C60046863604468102C04D10468EE
:102E9000A2600468E16003E00468A1600468E26085
:102EA00030BC7047704770477047704770B582B04C
:102EB000040000252078C00740F18480DFF89C06DC
:102EC000006810F00C0004280BD0DFF890060068B2
:102ED00010F00C0008280ED1DFF880060068C0034F
:102EE00009D5DFF87406006880036BD56068002898
:102EF00068D1012004E26068B0F5803F08D1DFF8B6
:102F00005806006850F48030DFF84C16086038E04E
:102F10006068002810D1DFF84006006830F4803087
:102F2000DFF834160860DFF83006006830F48020DF
:102F3000DFF82416086024E06068B0F5A02F10D1F7
:102F4000DFF81406006850F48020DFF80C160860E3
:102F5000DFF80406006850F48030DFF8FC150860E4
:102F60000FE0DFF8F405006830F48030DFF8E81592
:102F70000860DFF8E405006830F48020DFF8D81539
:102F80000860606800280ED0FFF7ACFD0500DFF890
:102F9000C8050068800315D4FFF7A4FD401B652811
:102FA000F5D30320ACE1FFF79DFD0500DFF8A80590
:102FB0000068800306D5FFF795FD401B6528F5D313
:102FC00003209DE1207880075CD5DFF8900500683C
:102FD00010F00C0F0BD0DFF88405006810F00C0027
:102FE00008281AD1DFF874050068C00315D4DFF88B
:102FF00068050068800704D52069012801D00120F8
:103000007EE1DFF85405006830F0F800616950EAAD
:10301000C100DFF84415086034E0206900281ED0A4
:103020000120DFF848150860FFF75CFD0500DFF8B8
:1030300028050068800706D4FFF754FD401B0328CD
:10304000F5D303205CE1DFF81005006830F0F800EC
:10305000616950EAC100DFF80015086012E0002045
:10306000DFF808150860FFF73DFD0500DFF8E8040C
:103070000068800706D5FFF735FD401B0328F5D310
:1030800003203DE1207800072CD5A069002816D048
:103090000120DFF8DC140860FFF724FD0500DFF8ED
:1030A000C8040068800706D4FFF71CFD401B0328F6
:1030B000F5D3032024E1012000F03AFA12E00020C9
:1030C000DFF8AC140860FFF70DFD0500DFF8980489
:1030D0000068800706D5FFF705FD401B0328F5D3E0
:1030E00003200DE12078400740F1A7800026DFF89B
:1030F00084040068C00010D4DFF87804006850F041
:103100008050DFF870140860DFF86804006810F081
:1031100080500090009801200600DFF85C040068F1
:10312000C00516D4DFF85004006850F48070DFF852
:1031300048140860FFF7D6FC0500DFF83C0400687F
:10314000C00506D4FFF7CEFC401B6528F5D303204D
:10315000D6E0E068012808D1DFF82004006850F0CC
:103160000100DFF81814086037E0E068002810D18B
:10317000DFF80804006840084000DFF80014086029
:10318000DFF8F803006830F00400DFF8F01308609F
:1031900023E0E068052810D1DFF8E003006850F074
:1031A0000400DFF8D8130860DFF8D003006850F09F
:1031B0000100DFF8C81308600FE0DFF8C003006803
:1031C00040084000DFF8B4130860DFF8B00300687F
:1031D00030F00400DFF8A4130860E068002810D085
:1031E000FFF780FC0500DFF894030068800719D41E
:1031F000FFF778FC401B41F289318842F3D303206A
:103200007EE0FFF76FFC0500DFF8700300688007C1
:1032100008D5FFF767FC401B41F289318842F3D3A0
:1032200003206DE0F6B2012E07D1DFF848030068F5
:1032300030F08050DFF83C130860E06900285ED071
:10324000DFF81803006810F00C00082855D0E0697A
:1032500002283FD10020DFF828130860FFF742FC66
:103260000500DFF8F4020068800106D5FFF73AFC9C
:10327000401B0328F5D3032042E0206AB0F5803FCD
:1032800009D1DFF8D802006830F40030A1680843A3
:10329000DFF8C8120860DFF8C402006830F4741068
:1032A000216A0843616A0843DFF8B0120860012010
:1032B000DFF8CC120860FFF715FC0500DFF8980274
:1032C000006880011BD4FFF70DFC401B0328F5D3D9
:1032D000032015E00020DFF8A8120860FFF702FCC9
:1032E0000500DFF874020068800108D5FFF7FAFBDB
:1032F000401B0328F5D3032002E0012000E000205A
:1033000076BD70B504000D000026DFF87802006875
:1033100010F00700A84211D2DFF868020068C00868
:10332000C0002843DFF85C120860DFF8580200682C
:1033300010F00700A84201D00120A3E02078800708
:1033400009D5DFF81802006830F0F000A1680843E2
:10335000DFF8081208602078C00758D56068012897
:1033600006D1DFF8F4010068800312D4012089E05F
:103370006068022806D1DFF8E0010068800108D407
:1033800001207FE0DFF8D0010068800701D4012030
:1033900078E0DFF8C80100688008800061680843B1
:1033A0006E490860FFF79EFB0600606801280ED199
:1033B0006A48006810F00C00042828D0FFF792FB40
:1033C000801B41F289318842F2D303205AE06068C1
:1033D00002280ED16148006810F00C00082816D0B1
:1033E000FFF780FB801B41F289318842F2D3032032
:1033F00048E05A48006810F00C0F08D0FFF772FB45
:10340000801B41F289318842F3D303203AE05D48C2
:10341000006810F0070085420ED25A480068C008C4
:10342000C0002843574908605648006810F007005C
:10343000A84201D0012025E02078400707D5474861
:10344000006830F4E060E16808434449086020788F
:10345000000708D54148006830F46050216950EAFF
:10346000C1003E49086000F00EF847493B4A126827
:10347000C2F30312895CC8403A490860002000F09A
:10348000DBFD002070BD70B586B001A83F49102259
:10349000FDF7DEFF3E480088ADF800000021002265
:1034A0000023002400202D4D2D68290011F00C056B
:1034B000042D02D0082D03D01DE0294D28001CE06A
:1034C00001ADC1F38346AD5D2C00CD030DD56D4636
:1034D000224E3668C6F34046AD5D2A00204D05FBFE
:1034E00004F5B5FBF2F52B0003E02A4D05FB04F5CE
:1034F0002B00180001E01A4D280006B070BD1948D5
:103500000068704780B5FFF7FAFF2349134A126835
:10351000C2F30222895CC84002BD80B5FFF7EFFF0D
:103520001D490E4A1268C2F3C222895CC84002BD1E
:1035300081B00C490968C9084FF47A72B1FBF2F105
:1035400001FB00F1009100BF00994A1E0092002982
:10355000F9D101B070470000001002400410024091
:1035600000127A00040000202410024000004242B1
:10357000800442421C1002400070004020100240B3
:103580006000424200200240946300088463000807
:10359000C612000800093D00E46300082DE9F04769
:1035A000B4B000F06FFD00F01EFA00F07FFD00F0F7
:1035B000CDFDFFF783F900F0E9FDFFF75BF9FFF7B9
:1035C00035F900F035FE00F0AFFE002728A8DFF83F
:1035D00038151822FDF73CFF16A8DFF830151CC976
:1035E0001CC00C390C382EA8DFF824151422FDF766
:1035F0002FFF23A8DFF81C151422FDF729FF002652
:1036000000240025DFF81005DFF81015CDE90E01C4
:10361000DFF80C05DFF80C15CDE90C01DFF8080523
:10362000DFF80815CDE90A01DFF80405DFF8041515
:10363000CDE90801DFF80005DFF80015CDE9060146
:10364000DFF8FC04DFF8FC14CDE90401012000F0F0
:10365000B5FE4FF48062DFF8F014DFF8F004FEF7F7
:1036600087FDDFF8E8040068C06850F01000DFF85C
:10367000DC140968C8604FF48062DFF8D414DFF806
:10368000D404FEF775FDDFF8CC040068C06850F084
:103690001000DFF8C0140968C860DFF8BC0400F04F
:1036A00051FF4FF47A73182228A9DFF8A804FEF717
:1036B000F0FC4FF4967001F01FF9012001F030F991
:1036C0004FF47A730B2216A9DFF88804FEF7E1FCA9
:1036D000B42001F011F9DFF884240121012000F069
:1036E000F7FE00200700DFF878043844007923A9AA
:1036F000C95D884201D17F1CF5E7DFF8640440888A
:1037000013280ED1132F0CDADFF8582401210120E1
:1037100000F0DEFE032001F003F94FF4FA6001F03F
:10372000EBF8132FCCDB022001F0FAF8DFF8382495
:103730000121032000F0CCFE4FF4FA6001F0DCF828
:103740000020DFF828140860DFF82404007801283E
:1037500041D100200700442F08DADFF81404384470
:103760000079DFF81014C8557F1CF4E7DFF8041463
:10377000DFF8040401F0B6F9DFF8FC03D0F84600E6
:10378000FEF77AF80022DFF8F433FEF715FA0200AC
:103790000B00DFF8EC131EA801F08CFBDFF8D80358
:1037A000D0F84B00FEF768F80022DFF8D033FEF7C0
:1037B00003FA02000B00DFF8C81319A801F07AFB26
:1037C0004FF4FA785FF00009DFF8A8A34A464146B3
:1037D000504601F089FBDFF8A003D0F8460000282E
:1037E00000F0F0800020002122002B0001F0B0FB4F
:1037F00007D10020DFF88C1304000D00042001F035
:103800008FF8DDE90C01CDE90201DDE90E01CDE91A
:103810000001DFF86403D0F84B00FEF72DF800221A
:10382000D64BFEF7C9F902000B0090469946D248E4
:10383000D0F84600FEF720F80022D04BFEF7BCF986
:1038400042464B4601F09EFB0022CF4BFEF7E2F8CA
:10385000CDE91401DDE90801CDE90201DDE90A0144
:10386000CDE90001C448D0F84B00FEF705F800226E
:10387000C24BFEF7A1F902000B0090469946BE48E4
:10388000D0F84600FDF7F8FF0022BC4BFEF794F994
:1038900042464B4601F076FB0022BB4BFEF7BAF8DE
:1038A000CDE91201DDE90401CDE90201DDE90601FE
:1038B000CDE90001B048D0F84B00FDF7DDFF002254
:1038C000AE4BFEF779F902000B0090469946AA48E4
:1038D000D0F84600FDF7D0FF0022A84BFEF76CF9A8
:1038E00042464B4601F04EFB0022A74BFEF792F8F2
:1038F000CDE91001DDE914010122A44BFDF7D0FE52
:1039000006D2012E04D0062001F00AF8012006009C
:10391000DDE9120101229D4BFDF7C2FE06D2022E07
:1039200004D0072000F0FCFF02200600DDE91001B2
:103930000122964BFDF7B4FE06D2032E04D00820D8
:1039400000F0EEFF03200600012E0DD1874800682D
:10395000032809DB8E4A0121012000F0B9FD8D4AC0
:103960000221012000F0B4FD022E0DD17F48006835
:10397000032809DB864A0121012000F0A9FD864ABF
:103980000221012000F0A4FD032E0DD1774800682C
:10399000032809DB7E4A0121012000F099FD7F4ABE
:1039A0000221012000F094FD70480068032809DA24
:1039B0001EAA0121012000F08BFD19AA022101207D
:1039C00000F086FD6C48D0F8460000287FF4BCAEBD
:1039D000734A0121012000F07BFD724A022101207F
:1039E00000F076FDB0E600B58FB0012005905FF4E1
:1039F00080300690002007900120099002200C9052
:103A00005FF480300D905FF4E0100E9005A8FFF792
:103A10004DFA002804D040F21711634800F0CEF8A8
:103A20000F20009002200190002002904FF480604F
:103A300003900020049002216846FFF762FC0028F2
:103A400004D040F22511584800F0B8F8FFF757FDB0
:103A50004FF47A71B0FBF1F000F0C2FA042000F0EC
:103A6000C5FA002200215FF0FF3000F09FFA0FB08E
:103A700000BD38B5040020680068C00632D50020BB
:103A800000902068006800902068406800900098CE
:103A9000606B0068406805002000FEF7C4FB2068EA
:103AA000424988420DD1D5F58060314948800120D6
:103AB0002F4908704FF4806223492448FEF758FBD1
:103AC00010E020683A4988420CD1D5F5806024493D
:103AD00048800120224908704FF4806235491D4812
:103AE000FEF746FB31BD0168334A91420BD11F49B5
:103AF0000968491C1D4A11601C490968052902DB37
:103B000000211A4A11607047A4620008B4630008DB
:103B1000BC620008D0620008DFC5FB71FB6D43404A
:103B20002B137EA99F605E408B1A4CC3F06D4340FF
:103B300037DE1D19AB605E40E57CB1F7E26D4340B6
:103B4000CD3E8F519E605E4014070020141300206C
:103B50009411002054130020D4120020E4620008C5
:103B6000140B0020F8620008C0630008F013002066
:103B700010070020180F00200C110020D012634104
:103B8000CC6300080000F03F00408F4000003E4042
:103B90000C630008206300083463000848630008D1
:103BA0005C630008706300089461000800380140FD
:103BB00000440040180B0020002C0140FEE70000EC
:103BC0002DE9F84100230024002500265FF0000EB7
:103BD0005FF0000C6246102A80F04D815FF0010C0E
:103BE0001CFA02FC6346D1F800C013EA0C0C6446D0
:103BF0009C4240F03E81D1F804C0BCF1000F3DD0A2
:103C0000BCF1010F24D0BCF1020F2BD0BCF1030F8B
:103C10004CD0BCF1110F1FD0BCF1120F28D0DFF82F
:103C20007082C4452AD0DFF86C82C44526D0DFF804
:103C30006882C44522D0DFF86482C4451ED0DFF814
:103C40006082C4451AD0DFF85C82C44516D031E0EA
:103C5000D1F80CC066462DE0D1F80CC01CF1040C64
:103C6000664627E0D1F80CC01CF1080C664621E03E
:103C7000D1F80CC01CF10C0C66461BE0D1F808C052
:103C8000BCF1000F03D15FF0040C66460DE0D1F8E3
:103C900008C0BCF1010F04D15FF0080C6646036157
:103CA00003E05FF0080C6646436103E05FF0000C40
:103CB0006646FFE7FF2C01D8070000E0071DFF2C38
:103CC00002D85FEA820E03E0B2F1080C5FEA8C0EC4
:103CD000D7F800C05FF00F0818FA0EF83CEA080C9D
:103CE00016FA0EF858EA0C0CC7F800C0D1F804C058
:103CF0005FEACC0C40F1BD80DFF8ACC1DCF800C05D
:103D00005CF0010CDFF8A081C8F800C0DFF898C1B2
:103D1000DCF800C01CF00108CDF80080DDF800C020
:103D2000DFF888C15FEA92085CF828C065465FF05A
:103D30000F0C12F003085FFA88F85FEA88081CFA93
:103D400008FC35EA0C05DFF868C1604502D15FF078
:103D5000000C16E0DFF85CC1604502D15FF0010C99
:103D60000FE0DFF854C1604502D15FF0020C08E0BB
:103D7000DFF848C1604502D15FF0030C01E05FF05D
:103D8000040C12F003085FFA88F85FEA88081CFA4E
:103D900008FC5CEA0505DFF814C15FEA92084CF8FC
:103DA0002850D1F804C05FEACC3C0AD5DFF810C136
:103DB000DCF800C054EA0C0CDFF80481C8F800C03D
:103DC00009E0DFF8FCC0DCF800C03CEA040CDFF8D6
:103DD000F080C8F800C0D1F804C05FEA8C3C0AD576
:103DE000DFF8E0C0DCF800C054EA0C0CDFF8D48047
:103DF000C8F800C009E0DFF8CCC0DCF800C03CEA3D
:103E0000040CDFF8C080C8F800C0D1F804C05FEA35
:103E1000CC2C0AD5DFF8B0C0DCF800C054EA0C0C9A
:103E2000DFF8A480C8F800C009E0DFF89CC0DCF827
:103E300000C03CEA040CDFF89080C8F800C0D1F85C
:103E400004C05FEA8C2C0AD5DFF880C0DCF800C023
:103E500054EA0C0CDFF87480C8F800C009E0DFF801
:103E60006CC0DCF800C03CEA040CDFF86080C8F8E5
:103E700000C0521CAFE6BDE8F181D2B2002A02D0E8
:103E800089B2016102E089B20B040361704700004E
:103E9000000011100000121000002110000022107C
:103EA00000003110000032101810024008000140DC
:103EB00000080140000C01400010014000140140C6
:103EC0000004014004040140080401400C040140C6
:103ED00010F007024D4B1B6819004FF6FF03194005
:103EE0004B4B53EA02231943484B1960704747482C
:103EF0000068C0F302207047012110F01F029140BA
:103F0000444A40B2430942F82310704710B440B20B
:103F1000002808D50A01404B40B210F00F0423449A
:103F200003F8042C03E00A013C4B40B21A5410BCC5
:103F3000704770B4030013F00704D4F10706052E90
:103F400001D3042001E0D4F10700261D072E01D281
:103F5000002500E0E51E012616FA00F0401E08408C
:103F6000A8400121A940491E1140084370BC704778
:103F700010B50400601EB0F1807F01D301200EE077
:103F8000601E274908600F215FF0FF30FFF7BEFF7A
:103F9000002024490860072023490860002010BD44
:103FA00010B504002000FFF793FF10BDF8B5040022
:103FB0000D0016000027FFF79AFF070032002900C6
:103FC0003800FFF7B6FF0100200040B2FFF79EFF68
:103FD000F1BD10B50400200040B2FFF78DFF10BD09
:103FE00010B504002000FFF7C3FF10BD042806D160
:103FF0000D49096851F004010B4A116005E00A49B6
:10400000096831F00401084A116070470CED00E0C6
:104010000000FA0500E100E018ED00E000E400E037
:1040200014E000E018E000E010E000E080B500F0EF
:1040300001F801BD7047000010B504004FF47A701C
:104040000D490978B0FBF1F00C490968B1FBF0F0BB
:10405000FFF7C6FF002801D001200CE0102C09D288
:10406000002221005FF0FF30FFF7A0FF044804604A
:10407000002000E0012010BD080100200400002005
:104080000000002080B50848006850F01000064984
:1040900008600320FFF784FF0020FFF7CDFF01F049
:1040A0000DF8002002BD00000020024000B585B0E0
:1040B0002348006850F0200021490860204800682B
:1040C00010F02000009000981D48006850F0040097
:1040D0001B4908601A48006810F00400009000981E
:1040E0001748006850F00800154908601448006837
:1040F00010F00800009000980022F3211148FFF70B
:10410000BCFE002202211048FFF7B7FEF320019009
:1041100001200290002003900220049001A9094888
:10412000FFF74EFD02200190012002900020039035
:104130000220049001A90448FFF742FD05B000BD2C
:104140001810024000080140000C014080B50E48E4
:10415000006850F001000C4908600B48006810F03E
:10416000010000900098002200210F20FFF71EFFA1
:104170000F20FFF72EFF002200211020FFF716FF6F
:104180001020FFF726FF01BD1410024080B5224821
:104190002249086022482149486000201F49886060
:1041A00000201E49C8604FF480401C49086100206F
:1041B0001A49486100201949886100201749C861DF
:1041C000002016490862154800F0CEFF002803D0F1
:1041D00042211448FFF7F2FC01BD10B586B004007F
:1041E00020680D49884215D1C0200190122002900C
:1041F0000320049001A90C48FFF7E2FC0B4800687B
:1042000050F40010094908600848006810F40010D4
:104210000090009806B010BD00540040F811002036
:10422000A086010068610008000C01401C100240DB
:1042300000B587B038483949086048F69F4037498B
:10424000486000203549886040F2CF703349C8602B
:1042500000203249086100203049486100202F4980
:1042600088612E4800F052F9002803D040212C48E4
:10427000FFF7A4FC4FF48050029002A9274800F0F9
:104280002BFA002803D046212548FFF797FC002091
:104290000090002001906946204801F031F8002884
:1042A00003D04D211E48FFF789FC07B000BD10B5B3
:1042B00082B004002068184988422BD11948006850
:1042C00050F40060174908601648006810F4006058
:1042D00000900098002200211820FFF767FE1820A8
:1042E000FFF777FE002200211920FFF75FFE19205B
:1042F000FFF76FFE002200211A20FFF757FE1A2059
:10430000FFF767FE002200211B20FFF74FFE1B2056
:10431000FFF75FFE13BD0000002C0140D412002007
:10432000C06100081810024080B5002202215D48DB
:10433000FFF7A3FD43F6982000F0DDF800220121ED
:104340005848FFF79AFD032000F062F843F69820E2
:1043500000F0D1F8032000F05BF843F6982000F05D
:10436000CAF8032000F054F8022000F051F8282089
:1043700000F024F844F6206000F0BDF8082000F0BA
:104380001DF844F6206000F0B6F8012000F016F8A1
:1043900044F6206000F0AFF8062000F00FF844F675
:1043A000206000F0A8F80C2000F008F844F6206027
:1043B00000F0A1F8012000F001F801BD10B50400E3
:1043C000002201213748FFF758FD2000C0B2000944
:1043D00000F01EF82000C0B200F01AF842F210708F
:1043E00000F089F810BD10B50400012201212D480C
:1043F000FFF743FD2000C0B2000900F009F82000DB
:10440000C0B200F005F842F2107000F074F810BD70
:1044100010B50400E00705D5012210212148FFF75F
:104420002CFD04E0002210211E48FFF726FDA00706
:1044300005D5012220211B48FFF71FFD04E00022C3
:1044400020211848FFF719FD600705D501224021FA
:104450001448FFF712FD04E0002240211148FFF745
:104460000CFD200705D5012280210E48FFF705FD30
:1044700004E0002280210B48FFF7FFFC012202210B
:104480000948FFF7FAFC4FF4FA6000F034F8002214
:1044900002210548FFF7F1FC4FF4FA6000F02BF819
:1044A00010BD000000080140000C014070B5040080
:1044B0000D00EDB2012D03D114F17F00060002E0E2
:1044C000B4F1410006003000C0B2FFF777FF70BDC5
:1044D00070B504000D0016002900C9B22000C0B25A
:1044E000FFF7E4FF3078002804D03078FFF77BFF37
:1044F000761CF7E770BD01B4009800900098411E4B
:1045000000910028FAD101B07047000010B50400F6
:10451000002C01D1012014E094F83D00002805D1C1
:10452000002084F83C002000FFF7C1FE022084F840
:104530003D00211D206800F05EF9012084F83D0057
:10454000002010BD01000868C06850F001000A6832
:10455000D0600868006850F001000A681060002010
:10456000704710B504002068006980071AD52068DC
:10457000C068800716D57FF002002168086101201D
:1045800020772068806910F0030F03D0200000F02E
:10459000E5FE05E0200000F0E2FE200000F0E0FE75
:1045A000002020772068006940071AD52068C0687D
:1045B000400716D57FF004002168086102202077AB
:1045C0002068806910F4407F03D0200000F0C6FE10
:1045D00005E0200000F0C3FE200000F0C1FE002036
:1045E00020772068006900071AD52068C068000796
:1045F00016D57FF008002168086104202077206824
:10460000C06910F0030F03D0200000F0A7FE05E002
:10461000200000F0A4FE200000F0A2FE0020207781
:1046200020680069C0061AD52068C068C00616D583
:104630007FF0100021680861082020772068C06999
:1046400010F4407F03D0200000F088FE05E0200039
:1046500000F085FE200000F083FE00202077206817
:104660000069C0070AD52068C068C00706D57FF07A
:104670000100216808612000FFF735FA2068006911
:1046800000060AD52068C068000606D57FF08000C5
:1046900021680861200000F064FE2068006940067F
:1046A0000AD52068C068400606D57FF04000216822
:1046B0000861200000F056FE2068006980060AD5D7
:1046C0002068C068800606D57FF020002168086158
:1046D000200000F048FE10BD70B504000D0000265B
:1046E00094F83C00012801D1022083E0012084F8E5
:1046F0003C00022084F83D0020688068060036F007
:10470000770636F47F46206886602868002856D0F1
:10471000102859D020285CD030285FD0402844D0C1
:1047200050282ED0602836D070280DD0B0F5805F8C
:1047300003D0B0F5005F17D055E020688068C0084E
:10474000C000216888604EE0EB686A68A96820684C
:1047500000F0C4F820688068060036F0770656F04E
:104760007706206886603EE0EB686A68A968206882
:1047700000F0B4F82068806850F4804021688860B8
:1047800031E0EA686968206800F070F8502120681C
:1047900000F099F827E0EA686968206800F07CF882
:1047A0006021206800F08FF81DE0EA6869682068E1
:1047B00000F05CF84021206800F085F813E000214B
:1047C000206800F080F80EE01021206800F07BF8EF
:1047D00009E02021206800F076F804E0302120680C
:1047E00000F071F8FFE7012084F83D00002084F814
:1047F0003C00002070BD002203681A00184B98424C
:1048000008D0B0F1804F05D0164B984202D0164B1D
:10481000984203D132F070024B681A43104B984211
:1048200008D0B0F1804F05D00E4B984202D00E4B0D
:10483000984203D132F44072CB681A4332F08002BE
:104840004B691A4302608B68C3620B688362044B36
:10485000984201D10B690363012343617047000053
:10486000002C0140000400400008004030B4002348
:104870000024056A2C00056A6D086D0005628569D3
:104880002B0033F0F00353EA021334F00A040C4314
:104890008361046230BC704730B400230024056A91
:1048A00035F01005056285692B00056A2C0033F48C
:1048B000704353EA023334F0A00454EA01148361D4
:1048C000046230BC7047002283681A0032F0700224
:1048D00089B251F007031A438260704730B4002454
:1048E00085682C0034F47F4452EA010555EA03251B
:1048F0002C43846030BC704770B50400FEF7F2F8BA
:104900000500260016F1010F02D004480078861930
:10491000FEF7E8F8401BB042FAD370BD0801002052
:1049200010B504007E20174908700520154948700D
:1049300041201449887000201249C8701148047140
:10494000002010494871012001000E4A5278C9B276
:10495000914209D20B4949790A4AC0B2125C5140CE
:10496000084A5171401CEFE7EF20064988714FF467
:104970007A73072203490248FDF78BFB10BD000044
:1049800094130020D413002002001300C9B20029A0
:1049900010D010782A2805D01078202802DB107853
:1049A0007B2801DBFF2007E010782C2800D1491E6E
:1049B000521CEBE7D01AC0B27047020001200B0076
:1049C000591EDBB2002B02D0D2B25043F7E770473A
:1049D0002DE9F24F82B08146C8465FF0000A0024FC
:1049E00000270026002598F800002D2803D155F057
:1049F000020518F1010898F800002C2803D098F857
:104A000000002A2800D11DE098F800002E2804D1CB
:104A100055F0010518F101080CE098F800003A285B
:104A200003DA98F80000302804DA0020070000209C
:104A3000060007E0E80701D5761C00E07F1C18F1AE
:104A40000108D0E7A80701D519F101090020834624
:104A500058463900C0B2C9B2884210D2781EB0EBB5
:104A60000B01C9B20A20FFF7A8FF5FFA8BFB19F808
:104A70000B10303901FB00AA1BF1010BE8E7F6B27D
:104A8000062E01DB052006000298067000208346F2
:104A900058463100C0B2C9B2884213D2701EB0EB82
:104AA0000B01C9B20A20FFF788FFFFB25FFA8BFB48
:104AB0001BEB070149444978303901FB00441BF1E5
:104AC000010BE5E73100C9B20A20FFF776FF00FBD2
:104AD0000A400090A80702D5009840420090009834
:104AE000BDE8FE8F2DE9F24F84B00600E7A10498DF
:104AF00000F03AFC8046B8F1000F00F0C3810121BC
:104B00004046FFF741FF0700FFB2FF2F35D069464F
:104B1000FFB208EB0700FFF75BFFC11704000D00B1
:104B200020002900DFF868230023FCF7FDFC86F84D
:104B300041002000290042F210720023FCF7F4FC2F
:104B400064220023FCF7F0FC86F8422020002900B4
:104B500064220023FCF7E8FC64220023FCF7E4FC59
:104B600086F843202000290064220023FCF7DCFCA7
:104B70000A2000FB02F0A6F8440002214046FFF79D
:104B800003FF0700FFB218F8070086F85100032161
:104B90004046FFF7F9FE0700FFB2FF2F65D06946D8
:104BA000FFB208EB0700FFF713FFC11704000D0069
:104BB0009DF80000811CC9B20A20FFF7FEFE02002A
:104BC000002320002900FCF7AFFCC6F846002000B7
:104BD000290004000D009DF80000811CC9B20A20C4
:104BE000FFF7EBFE0200002320002900FCF79CFCED
:104BF0001000190000F0C0FBCDE9020107210A20D6
:104C0000FFF7DBFE82469DF80000D0F10701C9B234
:104C10000A20FFF7D2FE8146D6F846000AFB00F0D4
:104C2000FCF72AFE82468B464846FCF725FEDDE966
:104C30000223FCF7EFFE0022DFF85832FCF7BCFF3E
:104C400052465B46FDF774F9FCF7F6FDC6F84600E0
:104C5000D6F84600FCF710FE0022DFF83C32FCF7E5
:104C6000ABFFC6F86E00C6F8721004214046FFF78D
:104C70008BFE0700FFB2FF2F04D0FFB218F8070029
:104C800086F84A0005214046FFF77EFE0700FFB286
:104C9000FF2F66D06946FFB208EB0700FFF798FECA
:104CA000C11704000D009DF80000811CC9B20A2044
:104CB000FFF783FE0200002320002900FCF734FCEC
:104CC000C6F84B002000290004000D009DF80000EC
:104CD000811CC9B20A20FFF770FE020000232000E9
:104CE0002900FCF721FC1000190000F045FBCDE97C
:104CF000020107210A20FFF760FE82469DF80000AE
:104D0000D0F10701C9B20A20FFF757FE8146D6F855
:104D10004B000AFB00F0FCF7AFFD82468B4648468D
:104D2000FCF7AAFDDDE90223FCF774FE0022DFF8A0
:104D30006431FCF741FF52465B46FDF7F9F8FCF79A
:104D40007BFDC6F84B00D6F84B00FCF795FDDFF86D
:104D50004C21DFF84C31FCF75DFEC6F87600C6F852
:104D60007A1006214046FFF70FFE0700FFB2FF2F23
:104D700004D0FFB218F8070086F84F00072140461C
:104D8000FFF702FE0700FFB2FF2F2DD06946FFB2EA
:104D900008EB0700FFF71CFEC11704000D00200000
:104DA000290000F0E9FA82468B469DF80000C11EFA
:104DB000C9B20A20FFF701FEFCF75EFDDFF8E42030
:104DC000DFF8E430FCF726FE02000B00504659469F
:104DD000FCF7F2FEDFF8D420DFF8D430FCF71AFE3F
:104DE000FCF714FDA6F86C0008214046FFF7CCFD47
:104DF0000700FFB2FF2F15D06946FFB208EB07008E
:104E0000FFF7E6FDC11704000D009DF800100A2011
:104E1000FFF7D3FD0200002320002900FCF784FBEC
:104E2000A6F8660009214046FFF7AEFD0700FFB275
:104E3000FF2F27D06946FFB208EB0700FFF7C8FD38
:104E4000C11704000D002000290042F21072002357
:104E5000FCF76AFB86F8400020002900642200234A
:104E6000FCF762FB64220023FCF75EFB86F83F2020
:104E70002000290064220023FCF756FB12F5FA609B
:104E8000A6F83D0005B0BDE8F08F0000524D43008C
:104E900040420F0000004E40D012634148AFBC9A20
:104EA000F2D77A3ECDCCCCCCCCCC0C406F1283C0A8
:104EB000CAA1FD3F0CB41CB5044604A801900A46E3
:104EC000009401AB6946074878441830FBF70EF9A7
:104ED000009A0021117000285CBF0098001B16BCCE
:104EE0005DF80CFBC3C3FFFF62F30F2262F31F42A6
:104EF000401810F0030308D0C91A1FD3DB0748BFBE
:104F000000F8012D28BF20F8022D130030B41446FC
:104F10001546103928BF20E93C00FAD8490728BFB8
:104F200020E90C0048BF40F8042D890028BF20F874
:104F3000022D48BF00F8012D30BC7047C91818BFBA
:104F400000F8012DCB0728BF00F8012D70470000A5
:104F500090420CD141EA030C50EA4C0C07D0994224
:104F600005D14FF4001C1CEB410F38BF894270473C
:104F700080B54C4A4C4BFCF74DFD00224B4BFCF7E7
:104F80001BFE04BD2DE9F84F0FB488B0DDE9080120
:104F9000FFF7EEFFCDE90201DDE91601FFF7E8FFBB
:104FA000CDE90001DDE90201DDE90023FCF772FC37
:104FB000CDE90601DDE90A01FFF7DAFF04000D0083
:104FC000DDE91801FFF7D4FF02000B0020002900E3
:104FD000FCF760FCCDE90401DDE9060100225FF089
:104FE0008043FCF7E9FD00F0F3F980468946DDE9EE
:104FF000020100F0F0F904000D00DDE9000100F00D
:10500000EAF906000F00DDE9040100225FF08043A9
:10501000FCF7D2FD00F0DCF982468B46404649465B
:1050200042464B46FCF7F6FC8046894632003B0080
:1050300020002900FCF7EEFC04000D005046594604
:1050400052465B46FCF7E6FC22002B00FCF7E2FC34
:1050500042464B46FCF76CFF00F0C0F900F036FA10
:1050600000225FF08043FCF7D5FC04000D001048DF
:10507000104922002B00FCF7CDFC04000D0000209D
:105080000D4922002B00FCF7C5FC00F09BFA002222
:10509000094BFCF791FD04000D00200029000DB024
:1050A000BDE8F08F4AD8124DFB21094000806640D0
:1050B0008D976E1223EAB8400088C34080B5274818
:1050C000006850F00100254908602448006810F08D
:1050D0000100009000982248006850F0805020495C
:1050E00008601F48006810F080500090009803206E
:1050F000FEF756FF002200217FF00B00FEF756FF5F
:10510000002200217FF00A00FEF750FF002200215C
:105110007FF00900FEF74AFF002200217FF0040023
:10512000FEF744FF002200217FF00300FEF73EFF60
:10513000002200217FF00100FEF738FF002200214D
:105140005FF0FF30FEF732FF06490968080030F0D3
:10515000E06050F000700349086001BD1810024083
:105160001C1002400400014070B504000025002618
:10517000002C01D10120BAE094F83D00002805D1AF
:10518000002084F83C002000FFF727F8242084F852
:105190003D00206800684008400021680860FEF774
:1051A000B1F906006068DFF84811884208D2DFF8DC
:1051B0004401864201D2012000E00020C0B207E095
:1051C000DFF83401864201D2012000E00020C0B2A5
:1051D000012801D101208AE0DFF82001B6FBF0F0C0
:1051E0000500206845606068DFF80411884201D23C
:1051F000681C08E04FF4967000FB05F04FF47A71DC
:10520000B0FBF1F0401C216808626068DFF8E01034
:10521000884214D2701E61684900B0FBF1F0401C56
:105220000005000D042801D204203EE0701E6168D4
:105230004900B0FBF1F0401C0005000D35E0A0680E
:10524000002809D1701E616803225143B0FBF1F0C0
:10525000401C0005000D0AE0701E616819225143D0
:10526000B0FBF1F0401C0005000D50F4804000053B
:1052700001D1012019E0A068002809D1701E6168E1
:1052800003225143B0FBF1F0401C0005000D0AE081
:10529000701E616819225143B0FBF1F0401C0005FB
:1052A000000D50F4804050F400402168C861E0696E
:1052B000216A0843216808602069E1680843216881
:1052C00088606069A16908432168C8602068006837
:1052D00050F001002168086000202064202084F83C
:1052E0003D0000202063002084F83E00002070BDB7
:1052F000A186010080841E0000093D0040420F008D
:10530000020092F83C00012801D1022024E0012093
:1053100082F83C00022082F83D001068406830F0BE
:10532000700013685860106840680B681843136871
:1053300058601068806830F08000136898601068CA
:1053400080684B68184313689860012082F83D001C
:10535000002082F83C000020704700007047704732
:10536000704770477047704738B504000D0029003A
:10537000200000F049F932BD094240F10B80F446AB
:105380004942404271F1000100F004F851F000413F
:105390006047000008BFFCF76FBA02460846B0FA43
:1053A00080F150408A40C1F12001C8415040C91EDF
:1053B00001F58461090501EBD021400540EAD220C6
:1053C000520572F1004250F1000041F100017047B6
:1053D000002200F031B9012200F02EB940F2FF7C2A
:1053E0000B0D4DD0634566D230B421EA035141F430
:1053F000801103F2FD3C5FEA5C0C01D300184941C7
:10540000890041EA907180004FF440140023E202C9
:10541000D50AB1F5100107D46D081DD2091B641916
:1054200000184941491BF7D56D080AD20919641BB8
:1054300000184941491BEFD56D08F7D301E0520828
:1054400017D0C01861419B1AAC4100184941801A1D
:10545000A941F4D452080AD0C01AA1419B186C414A
:1054600000184941801AA941E9D45208F4D15B1CC3
:105470006C4161084FEA330001EB0C5130BC7047BE
:1054800050EA0103FBD030B4B1FA81F311B9B0FA9C
:1054900080F41B190B3BB3F120042FBF00FA04F179
:1054A0009940C3F1200420FA04F438BF2143984006
:1054B000D3F101039DE76345E1D011F5801FDED8EC
:1054C00050EA4101DBD0D94300F0CABA2DE9704857
:1054D000C1F30A5240F2FF739A4283B004460D466C
:1054E00010D01AB9C1F3130108430FD02046294642
:1054F00000220023FCF7D4F83ABF85F000450826C7
:10550000002606E0C1F313010843EFD020462946E8
:1055100054E02946224A234BFCF7C2F81AD2DFF89E
:1055200088B00020594622462B46FCF7B3F9CDE956
:10553000000100225B4620462946FCF7F9FCDDE924
:105540000023FCF767FAFFF749FF02460B462046A7
:1055500029461DE00122144BFCF7A2F826D29B46F7
:105560000020594622462B46FCF794F9CDE900016C
:1055700000225B4620462946FCF7DAFCDDE90023E1
:10558000FCF748FAFFF72AFF86F0020622462B4670
:10559000FCF712FB324603B0BDE8704800F068BA71
:1055A000CE3B7F669EA0E63F0000F03F00F050FB40
:1055B000212101604FF0FF306FF0004103B0BDE8E2
:1055C0007088000083B50121684600F047FB401E4B
:1055D000012811D90021684600F040FB60B1019814
:1055E000DDE90023002847BF0020054900200549C8
:1055F000FCF79EFCCDE90001DDE9000103B000BD30
:105600000000F0BF0000F03F70B50C46257829007F
:1056100006D170BD11F8013F1678B34206D0401C88
:105620002946FBF745FE28B10146224612F8013F04
:10563000002BEFD170BD00002DE9F04C04460D4663
:10564000164683B0DFF87803DFF8781322462B463E
:10565000FCF7E0F98B4621F00041DFF86C23DFF81E
:105660006C33FCF71DF8074680F0F18059460022A4
:105670000023FCF72DF8104694BFDFF85413DFF831
:1056800054133A465B46FCF753FCFCF7BFF807009F
:1056900051D0FCF7E7F80022CF4BFCF7BBF982466C
:1056A0008B464FF0A040CD4952465B46FCF7B2F91D
:1056B00002460B4620462946FCF7ECF804460D4608
:1056C0004FF0C040C64952465B46FCF7A3F902467C
:1056D0000B4620462946FCF7DDF804460D464FF000
:1056E0000050C04952465B46FCF794F902460B460F
:1056F00020462946FCF7CEF804460D460020BA495C
:1057000052465B46FCF786F902460B462046294680
:10571000FCF7C0F804460D464FF00050B34952461E
:105720005B46FCF777F902460B4620462946FCF714
:10573000B1F804460D46BE19204629464FF0FF3207
:10574000AB4BFBF7C5FF0BD800224FF07953FBF7AB
:10575000A7FF05D2F00740F12D810024A54D29E1D6
:1057600022462B46FCF756F90746F0078B4631D503
:10577000A148A2493A465B46FCF74CF9A04AA14B26
:10578000FCF7D6FB3A465B46FCF744F99E4A9F4B32
:10579000FCF7CEFB3A465B46FCF73CF99C4A9D4B36
:1057A000FCF7C6FB3A465B46FCF734F99A4A9B4B3A
:1057B000FCF7BEFB3A465B46FCF72CF96FF0510252
:1057C000974BFCF7B5FB3A465B46FCF723F9002202
:1057D000884B37E03A465B4620462946FCF71AF9E3
:1057E000CDE900013A468F488F495B46FCF712F934
:1057F0008E4A8F4BFCF79CFB3A465B46FCF70AF956
:105800008C4A8D4BFCF794FB3A465B46FCF702F959
:105810008A4A8B4BFCF78CFB3A465B46FCF7FAF85E
:10582000884A894BFCF784FB3A465B46FCF7F2F862
:10583000864A874BFCF77CFBDDE90023FCF7EAF89E
:1058400022462B46FCF774FB04460D46B2E0C5F336
:105850000A5240F2FF739A420CD0002A04BFC5F3EB
:10586000130154EA010014D1002E00F0F38000244B
:10587000604DEFE0C5F3130154EA010040F0EA8007
:1058800000F0E6F9212101604FF0FF306FF0004198
:10589000E2E0CDE90045684600F020FADDE9004588
:1058A0008619204629464FF0FF32514BFBF710FF77
:1058B0000AD800224FF07953FBF7F2FE04D2F0072A
:1058C00078D500244B4D75E022462B46FCF7A2F814
:1058D0000746F0078B4631D5474848493A465B466C
:1058E000FCF798F8464A474BFCF722FB3A465B46E2
:1058F000FCF790F8444A454BFCF71AFB3A465B46E6
:10590000FCF788F8424A434BFCF712FB3A465B46E9
:10591000FCF780F8404A414BFCF70AFB3A465B46ED
:10592000FCF778F86FF051023D4BFCF701FB3A466B
:105930005B46FCF76FF800222E4B37E03A465B4699
:1059400020462946FCF766F8CDE900013A4635487D
:1059500035495B46FCF75EF8344A354BFCF7E8FA0C
:105960003A465B46FCF756F8324A334BFCF7E0FA0E
:105970003A465B46FCF74EF8304A314BFCF7D8FA12
:105980003A465B46FCF746F82E4A2F4BFCF7D0FA16
:105990003A465B46FCF73EF82C4A2D4BFCF7C8FA1A
:1059A000DDE90023FCF736F822462B46FCF7C0FA67
:1059B00004460D46B0074DD585F0004120464BE02A
:1059C00083C8C96D305FE43F0000A0FFFFFFDF41E7
:1059D0000000E03F0000E0BF0000303EFB21B94185
:1059E000B410114026A6513E5C14D33C9A833B3B35
:1059F000FFFF3FBE0000F03F09260A1039BA213EE2
:105A00003BA861C6F97D92BE63AC30909F01FA3E1F
:105A1000F6FB51166CC156BFB10255555555A53F01
:105A2000FFFFDFBFB08F2FC310D8E53D8F0C73A1F0
:105A3000E1E55ABE4DADE44FE31DC73E3EE3B51967
:105A4000A0012ABFFAF010111111813F425555559E
:105A50005555C5BF2046294603B0BDE8F08C00006F
:105A60001FB500F0F5F8212101601FBD0000000006
:105A70002DE9F04D1746504A504BFBF729FE0446DE
:105A80000D461CD84E4EDFF83C8132464346FBF7AC
:105A9000C1FF00224C4BFCF74BFA82468B46324644
:105AA000434620462946FCF743FA02460B46504639
:105AB0005946FCF781F804460D4647F00107204699
:105AC00029460022414BFBF7EBFD05D301224FF0A5
:105AD0007953FBF7FDFD53D822462B46FBF79AFF7F
