:020000040800F2
:1000000010040020DD220008692200086B2200088D
:100010006D2200086F220008712200080000000015
:100020000000000000000000000000007322000833
:1000300075220008000000007722000879220008DD
:100040001123000815230008192300081D230008A8
:100050002123000825230008292300082D23000858
:100060003123000835230008392300083D23000808
:100070004123000845230008492300084D230008B8
:1000800051230008552300085923000800000000F0
:100090000000000000000000000000005D230008D8
:1000A0000000000000000000000000000000000050
:1000B0006123000865230008692300086D230008F8
:1000C0007123000875230008792300087D230008A8
:1000D0008123000885230008892300088D23000858
:1000E0009123000895230008000000002DE9F04747
:1000F000040082B00FF2806903D14FF4B87100F0B0
:10010000EAF9206830B110F00F0F03D140F27111FD
:1001100000F0E1F92078DFF83466C00751D5606857
:1001200000281CBFB0F5803FB0F5A02F03D040F2EF
:10013000771100F0D0F9706800F00C00042805D0A9
:1001400000F0C3FA0AD17068C00307D53068800395
:1001500037D56068002834D10120BAE16068B0F575
:10016000803F09D008B930680AE0B0F5A02F3068A8
:1001700006D140F480203060306840F4803005E0E3
:1001800020F480303060306820F480203060606877
:1001900058B100F025FB05463068800311D400F00B
:1001A0001FFB401B6528F7D390E100F019FB0546C3
:1001B0003068800305D500F013FB401B6528F7D39A
:1001C00084E12078DFF89075800726D52069002823
:1001D00018BF012803D040F2AB1100F07CF9606930
:1001E000202803D34FF4D67100F075F9706810F031
:1001F0000C0F05D000F069FA2ED17068C0032BD423
:100200003068800702D520690128A5D1306861696E
:1002100020F0F80040EAC10030602078000747D5A0
:10022000A069DFF83855002878D0012806D04FF4AF
:10023000F67100F050F9A06900286FD00120286005
:1002400000F0CEFA0546706A800722D400F0C8FAA2
:10025000401B0328F7D339E1206968B101203860D9
:1002600000F0BEFA054630688007CFD400F0B8FA37
:10027000401B0328F7D329E1386000F0B1FA0546A6
:1002800030688007C9D500F0ABFA401B0328F7D3CC
:100290001CE1DFF8BC040068C0084FF47A71B0FBC1
:1002A000F1F0009000BF0098411E00280091F9D1A4
:1002B000207840077AD5E06800281CBF012805286F
:1002C0004FF0000803D040F21B2100F004F9F06960
:1002D000C0000AD4F06940F08050F0614FF001088E
:1002E000F06900F0805000900098DFF874A4DAF80C
:1002F0000000C00520D4DAF8000040F48070CAF88D
:10030000000000F06DFA0546DAF80000C00513D4CD
:1003100000F066FA401B6528F6D3D7E0002028607D
:1003200000F05EFA0546706A8007C1D500F058FA01
:10033000401B0328F7D3C9E0E068012808D008B9BA
:10034000306A09E00528306A06D140F004003062C6
:10035000306A40F0010005E0400840003062306A39
:1003600020F00400306241F2893AE06858B100F0B0
:1003700037FA0546306A800711D400F031FA401B85
:100380005045F7D3A2E000F02BFA0546306A80070B
:1003900005D500F025FA401B5045F7D396E0B8F19B
:1003A000000F03D0F06920F08050F061E069002870
:1003B00009D0012818BF022807D040F2B92100F067
:1003C0008AF8E069002800F0838000F07EF93FF4AD
:1003D000C3AEE06902286ED1206A002818BFB0F5CC
:1003E000803F03D040F2C22100F075F8606A002817
:1003F00018BFB0F5802F29D0B0F5002F18BFB0F589
:10040000402F23D0B0F5801F18BFB0F5A01F1DD01E
:10041000B0F5C01F18BFB0F5E01F17D0B0F5001F32
:1004200018BFB0F5101F11D0B0F5201F18BFB0F5E0
:10043000301F0BD0B0F5401F1CBFB0F5501FB0F5FA
:10044000601F03D040F2C32100F045F800F046F8E9
:1004500005463068800105D500F0C2F9401B03282D
:10046000F7D333E0206AB0F5803F0FD1A0680028B1
:1004700018BFB0F5003F03D040F2D92100F02BF8AF
:100480007068A16820F40030084370607068216AC9
:1004900020F474100843616A08437060012000F082
:1004A0001EF805463068800112D400F099F9401B0F
:1004B0000328F7D30AE000F011F805463068800100
:1004C00006D500F08DF9401B0328F7D3032000E088
:1004D0000020BDE8F687484600F0D8B9002038660D
:1004E00000F07EB92DE9F04704000D460FF2882890
:1004F00003D140F22E3100F0E5F8207810F00F0F14
:1005000003D140F22F3100F0DDF8002D1CBF012D8A
:10051000022D03D04FF44C7100F0D4F8DFF8447290
:10052000386800F00700A84202D200F0C1F876D186
:100530002078DFF8186280071BD5A068002818BF54
:10054000802810D0902818BFA0280CD0B02818BF41
:10055000C02808D0D0281CBFE028F02803D040F2E3
:10056000493100F0AFF87068A16820F0F00008434E
:1005700070602078C0074AD5606898B1012808D01B
:1005800002280BD04FF4547100F09CF860680128E9
:1005900002D13068800303E0022803D13068800173
:1005A00003D43CE03068800739D570686168800802
:1005B00041EA8000706041F2893A00F011F9814609
:1005C000606801280BD1706800F00C0004281ED070
:1005D00000F006F9A0EB09005045F4D315E002281D
:1005E00009D100F072F812D000F0FAF8A0EB09007F
:1005F0005045F6D309E0706810F00C0F07D000F0FA
:10060000EFF8A0EB09005045F5D303204EE0386821
:1006100000F00700854204D200F04AF801D0012022
:1006200044E02078400717D5E068002818BFB0F5EF
:10063000806F0BD0B0F5A06F1CBFB0F5C06FB0F5E8
:10064000E06F03D04FF4697100F03CF87068E16826
:1006500020F4E060084370602078000718D5206916
:10066000002818BFB0F5806F0BD0B0F5A06F1CBF8D
:10067000B0F5C06FB0F5E06F03D040F2AB3100F0E1
:1006800021F87068216920F4605040EAC100706070
:1006900000F020F872683449C2F30312895CC84044
:1006A0002B490860002000F0F3F80020BDE8F08737
:1006B0003868C00845EAC0003860386800F00700B4
:1006C000A8427047404600F0E1B8706800F00C00A6
:1006D0000828704710B586B001A80FF2F00110226B
:1006E00000F0F6F80FF2F40020490088ADF80000A1
:1006F0000A68184802F00C03082B10D101ABC2F3B2
:100700008344D2031B5D08D50968C1F340415843B7
:100710001DF80110B0FBF1F001E01548584306B098
:1007200010BD0B48006870470948104A00681268FD
:100730001049C2F3022206E005480C4A006812681C
:100740000C49C2F3C222895CC840704700100240C5
:100750000C00002000127A00000042428004424255
:100760000070004000200240A02100080410024058
:1007700000093D0008230008433A5C557365727315
:100780005C746573745C4465736B746F705C313159
:100790005C433854365C447269766572735C5354BA
:1007A0004D3332463178785F48414C5F4472697608
:1007B00065725C5372635C73746D33326631787842
:1007C0005F68616C5F7263632E630000020304055F
:1007D000060708090A0B0C0D0E0F1010010200008D
:1007E00001484068704700BF0000002080B500F05D
:1007F0009BF800F00BF800F0A9F800F0E9F800F021
:1008000047F900F0A9F900F009FAFEE700B593B046
:100810000220089001200C9010200D9002200F90D3
:10082000002010904FF4E010119008A8FFF75EFC34
:1008300000B1FEE70F200390012102200490002068
:1008400005900690079003A8FFF74CFE00B1FEE765
:10085000022000904FF480400290684600F04AFA6F
:1008600000B1FEE7FFF75DFF4FF47A71B0FBF1F0E6
:1008700000F057FB042000F06CFB002200214FF039
:10088000FF3000F01FFB13B000BDFEE77047000013
:1008900038B50D4D297804464FF47A70B0FBF1F06D
:1008A0000A490968B1FBF0F000F03BFB50B9102C8D
:1008B00008D2002221464FF0FF3000F003FBAC606D
:1008C000002032BD012032BD000000200C000020BD
:1008D000103A07D330B4B1E83810103AA0E8381015
:1008E000F9D230BC530724BFB1E80810A0E80810C3
:1008F00044BF51F8043B40F8043BD20724BF31F811
:10090000022B20F8022B44BF0B7803707047083A83
:1009100007D3B1E80810083A40F8043B40F804CB8C
:10092000F7D25307E4E7000080B50748016841F0BB
:1009300010010160032000F0AAFA0020FFF7A8FFD1
:1009400000F054FB002002BD0020024010B51E48FC
:100950001E4C86B0016841F0200101600022016850
:1009600001F0200100910099016841F0040101604B
:10097000016801F0040100910099016841F008014B
:1009800001601C21006800F00800009000982046DB
:1009900000F0CAFC0C20019001A901200290002067
:1009A000039002200490204600F06EFB102001907E
:1009B00001A901200290039003200490204600F03A
:1009C00063FB06B010BD00BF1810024000080140D4
:1009D0003EB5214C21480FF2900520600020A06018
:1009E000E06060614FF46020E06100206060012001
:1009F0002061204600F0FAFC18B143212846FFF799
:100A000044FF0820009069460120019000200290D8
:100A1000204600F0C5FD18B14D212846FFF735FFEF
:100A200037BD00680D49884200D0704700B50C48BA
:100A300085B0016841F40071016001A9006800F40B
:100A4000007000900098012001900320029005485A
:100A500000F01AFB05B000BDE804002000240140AE
:100A600018100240000C0140433A5C5573657273E4
:100A70005C746573745C4465736B746F705C313166
:100A80005C433854365C5372635C6164632E63006C
:100A900080B52348234901604FF4827141600021F1
:100AA0008160C160016141614FF400718161002189
:100AB000C1610162416281620A21C16200F0CEFE21
:100AC00030B1BDE8044045210FF26400FFF7DDBE00
:100AD00001BD00681349884200D0704710B5124824
:100AE000124C86B0016841F48051016001A9006890
:100AF00000F4805000900098A02001900220029005
:100B000003200490204600F0BFFA4020019001A984
:100B1000002002900390204600F0B6FA06B010BD07
:100B2000100400200030014018100240000801406D
:100B3000433A5C55736572735C746573745C4465A9
:100B4000736B746F705C31315C433854365C537234
:100B5000635C7370692E630080B521482149016090
:100B60004FF4E131416000218160C16001610C21DD
:100B7000416100218161C16100F046FF30B1BDE8F3
:100B8000044042210FF26800FFF77FBE01BD0068FC
:100B90001449884200D0704710B51348134C86B0F2
:100BA000016841F48041016001A9006800F48040BF
:100BB000009000984FF400700190022002900320F2
:100BC0000490204600F060FA4FF48060019001A983
:100BD000002002900390204600F056FA06B010BDA7
:100BE000A80400200038014018100240000801400D
:100BF000433A5C55736572735C746573745C4465E9
:100C0000736B746F705C31315C433854365C537273
:100C1000635C75736172742E630000004FF0804056
:100C200030B5274C0FF2A405206087B0002060602B
:100C3000A060E0602061A061204601F03CF818B19E
:100C400041212846FFF721FE0020009001906946CF
:100C5000204601F0F3F918B148212846FFF715FEA8
:100C60000020029000220120039002A9002004909D
:100C70000590204601F062F818B151212846FFF78F
:100C800004FE07B030BD0068B0F1804F00D070475F
:100C900000B50C4885B0016841F00101016001A96F
:100CA000006800F0010000900098012001900020F1
:100CB00002900390044800F0E7F905B000BD000081
:100CC000680400201C10024000080140433A5C55B3
:100CD000736572735C746573745C4465736B746F75
:100CE000705C31315C433854365C5372635C7469B8
:100CF0006D2E63002DE9F84304460FF2201820788A
:100D000010F0030F03D17C214046FFF7BFFD207890
:100D10003F4EC00760D56068002818BFB0F5807FDF
:100D200009D0B0F5007F18BFB0F5407F03D0822115
:100D30004046FFF7ABFDB0690027C00009D4B06999
:100D400040F08050B0610127B06900F08050009001
:100D50000098304D2868C00510D4286840F4807091
:100D60002860FFF73DFD81462868C00506D4FFF7DF
:100D700037FDA0EB09006528F6D320E0F06910F4F8
:100D800040701EBF616801F44071884219D0224949
:100D9000F06901220A6020F4407000220A60F061CC
:100DA000C0070ED5FFF71CFD0546F069800708D483
:100DB000FFF716FD401B41F289318842F5D303202D
:100DC00024E0F069616820F440700843F0611FB1CD
:100DD000B06920F08050B0612078800715D5A068F8
:100DE000002818BFB0F5804F09D0B0F5004F18BFEC
:100DF000B0F5404F03D0C9214046FFF747FD3068AA
:100E0000A16820F44040084330600020BDE8F28330
:100E1000041002400070004040044242433A5C55D6
:100E2000736572735C746573745C4465736B746F23
:100E3000705C31315C433854365C4472697665725B
:100E4000735C53544D3332463178785F48414C5F80
:100E50004472697665725C5372635C73746D33328D
:100E6000663178785F68616C5F7263635F65782E66
:100E7000630000000901002806D53F4A00F00F007A
:100E8000104400F8041C70473C4A1154704710B5D8
:100E90000446072C18BF062C07D0052C1CBF042CB9
:100EA000032C02D0A22100F050F8354801684FF61B
:100EB000FF021140220202F4E0621143314A114361
:100EC000016010BDF8B51646102E04460D460FF20F
:100ED000C00703D3BA213846FFF7D8FC102D03D33F
:100EE000BB213846FFF7D2FC25480068C0F302203A
:100EF000C0F10701052928BF0421021D072A34BFBC
:100F00000020C01E012202FA01F1491E2940814041
:100F100002FA00F0401E304001432046BDE8F44094
:100F2000A8E710B5401EB0F1807F01D3012010BDAD
:100F3000154C60600F214FF0FF30FFF79BFF002042
:100F4000A06007202060002010BD0FF24400FFF7D2
:100F50009DBC10B504280C4C09D018B140F2D91131
:100F6000FFF7F3FF206820F00400206010BD206828
:100F700040F00400F9E7000018ED00E000E400E0B4
:100F80000CED00E00000FA0510E000E000F02CB8E5
:100F9000433A5C55736572735C746573745C446545
:100FA000736B746F705C31315C433854365C4472DF
:100FB00069766572735C53544D3332463178785F8D
:100FC00048414C5F4472697665725C5372635C732E
:100FD000746D3332663178785F68616C5F636F720D
:100FE0007465782E630000007047000080B52448C7
:100FF000016841F001010160016801F00101009107
:101000000099416841F080514160406800F0805093
:10101000009000980320FFF73AFF002200216FF0B4
:101020000B00FFF74FFF002200216FF00A00FFF7CF
:1010300049FF002200216FF00900FFF743FF002263
:1010400000216FF00400FFF73DFF002200216FF048
:101050000300FFF737FF002200216FF00100FFF7C8
:1010600031FF002200214FF0FF30FFF72BFF054832
:10107000016821F0E06141F08061016001BD00BFC5
:1010800018100240040001402DE9F84F8146002667
:10109000DFF8CC020FF2003A81451CBFDFF8C40232
:1010A00081450D460DD0DFF8C00281451FBFDFF836
:1010B000BC028145DFF8B802814502D0CD2100F0A5
:1010C00030F92868010402D0000C000402D0CE21BF
:1010D00000F027F96868002818BF012822D01128DD
:1010E00018BF02281ED012281CBFDFF888128842C1
:1010F00018D0DFF8841288421CBFDFF880128842C3
:1011000010D0DFF87C1288421CBFDFF878128842CA
:1011100008D0DFF87412884218BF032802D0CF210C
:1011200000F0FFF8B046DFF86442012000FA08FB47
:1011300028680BEA00075F4540F0EB80DFF82002EB
:1011400081451CBFDFF81C0281450DD0DFF8180275
:1011500081451FBFDFF814028145DFF81402814585
:1011600002D0DD2100F0DDF86868002853D00128A6
:1011700020D0022835D0032865D0112825D0122888
:101180003CD0DFF8F01188421CBFDFF8F411884230
:1011900041D0DFF8E41188421CBFDFF8E811884233
:1011A00039D0DFF8D81188421CBFDFF8DC11884243
:1011B00031D049E0E86802281CBF0128032802D08A
:1011C000E52100F0AEF8EE683EE0E86802281CBFBA
:1011D0000128032802D0EC2100F0A3F8E868061DDE
:1011E00032E0E86802281CBF0128032802D0F3215E
:1011F00000F097F8E86800F1080625E0E8680228A2
:101200001CBF0128032802D0FA2100F08AF8E86800
:1012100000F10C0618E0A86848B101280BD002289C
:101220000DD040F2071100F07CF8A86808B9042638
:101230000AE0012803D10826C9F810B004E0082606
:10124000C9F814B000E00026FF2F03D848464FEA43
:10125000880104E0A8F1080109F10400890002688E
:101260000F238B409A4306FA01F11143016068682D
:10127000C0004ED546484649006840F0010008606D
:101280000F230868434900F00100009000984FEADE
:10129000980051F820204FEA880101F00C018B40A2
:1012A0009A432F4B994508BF00230ED02D4B9945EB
:1012B00008BF012309D02C4B994508BF022304D055
:1012C0002A4B99450CBF0323042303FA01F1114370
:1012D000304A42F82010F8436968C90321684CBFBE
:1012E0003943014021606968890361684CBF394313
:1012F000014061606968C902A1684CBF394301407F
:10130000A1606968890247BFE0683843E168084026
:10131000E06008F10108B8F1100FFFF406AFBDE876
:10132000F18F5046FFF7B2BAF8B504460D462800D3
:1013300016460FF2640703D140F2E31100F00DF8F6
:10134000300007D0012E03D04FF4F27100F005F801
:101350002561F1BD28042061F1BD3846FFF796BA3A
:1013600000080140000C0140001001400014014041
:101370000018014000001110000021100000311081
:101380000000121000002210000032100004014082
:101390001810024008000140433A5C5573657273AF
:1013A0005C746573745C4465736B746F705C31312D
:1013B0005C433854365C447269766572735C53548E
:1013C0004D3332463178785F48414C5F44726976DC
:1013D00065725C5372635C73746D33326631787816
:1013E0005F68616C5F6770696F2E6300F8B50446D3
:1013F00000250026002C00F0CE802068DFF8AC131A
:101400000FF20447884203D04FF4C17100F0C5F8D1
:101410006068002818BFB0F5006F03D040F2831158
:1014200000F0BBF8A068002818BFB0F5807F03D09B
:101430004FF4C27100F0B1F8E068002818BF01282D
:1014400003D040F2851100F0A8F8E069002818BF29
:10145000B0F5003F11D0B0F5C02F18BFB0F5002F88
:101460000BD0B0F5202F1CBFB0F5402FB0F5602F8A
:1014700003D04FF4C37100F090F8A068C8B12069A0
:1014800008B1112803D34FF4C57100F086F86069E4
:1014900078B1012805D040F28B1100F07EF8606928
:1014A00038B1A06908B1092803D34FF4C77100F01F
:1014B00074F804F12407786820B9B86038702046C1
:1014C000FFF7AFFA204600F07DF97968C9065ED4CF
:1014D00001005CD1796821F4885141F00201796002
:1014E000E3696168E2681943A368B3F5807F14BFBC
:1014F000012B4FF480756369012B41EA42010FD142
:1015000032B9A269521E520342F40062154307E049
:101510007A6842F020027A60BA6842F00102BA604A
:101520002268536823F469432B4353602268DFF831
:10153000805293682B400B439360A268B2F5807F82
:1015400018BF012A02D12269521E16052268D36AE9
:1015500023F470033343D3622268DFF85832926871
:101560001A408A4208D10021B960796821F002014D
:1015700041F001017960F2BD786820F0020040F08E
:1015800010007860B86840F00100B86003E0786847
:1015900040F0100078600120F2BD3846FFF776B9C0
:1015A0002DE9F04182B00546002400940E462868DB
:1015B000DFF8F8710FF25028B84203D040F2AA6168
:1015C00000F0F1F83068002818BF012823D0022865
:1015D00018BF03281FD0042818BF05281BD00628D1
:1015E00018BF072817D0082818BF092813D00A28C1
:1015F00018BF0B280FD00C2818BF0D280BD00E28B1
:1016000018BF0F2807D0102818BF112803D040F2A8
:10161000AB6100F0C8F87068012818BF02281FD01D
:10162000032818BF04281BD0052818BF062817D088
:10163000072818BF082813D0092818BF0A280FD078
:101640000B2818BF0C280BD00D2818BF0E2807D068
:101650000F2818BF102803D040F2AC6100F0A3F8A7
:10166000B068002818BF01280FD0022818BF03282F
:101670000BD0042818BF052807D0062818BF072854
:1016800003D040F2AD6100F08EF805F1240001783E
:10169000012908BF022000F08480012101701F236E
:1016A000D6F804C031682A68BCF1070F0ED2ACF13D
:1016B000010C0CEB8C0CD2F834E003FA0CF32EEA9C
:1016C000030301FA0CF1194351631FE0BCF10D0F44
:1016D0000ED2ACF1070C0CEB8C0CD2F830E003FA14
:1016E0000CF32EEA030301FA0CF1194311630DE028
:1016F000ACF10D0C0CEB8C0CD2F82CE003FA0CF3D3
:101700002EEA030301FA0CF11943D1624FF0070CE2
:101710003368B1682A680A2B0DD30A3B03EB4303F5
:10172000D2F80CE00CFA03FC2EEA0C0C994041EACA
:101730000C01D1600BE003EB4303D2F810E00CFA8C
:1017400003FC2EEA0C0C994041EA0C01116131684E
:10175000102918BF112921D12968B94219D1174977
:101760000A6812021AD40A6842F400020A60316858
:10177000102913D11049124A0968B1FBF2F10A226B
:1017800051430091009900291CBF0099491EF8D1CE
:1017900004E0416841F02001416001240021017012
:1017A0002046BDE8F6814046FFF770B800240140AE
:1017B000FDF7E1FFFE0E1FFF0C0000200824014092
:1017C00040420F0038B5044620688168C90719D522
:1017D0008168490849008160FFF702F805462068E2
:1017E0008068C0070ED5FEF7FBFF401B0328F6D329
:1017F000A06A40F01000A062E06A40F00100E062E0
:10180000012032BD002032BD433A5C5573657273CE
:101810005C746573745C4465736B746F705C3131B8
:101820005C433854365C447269766572735C535419
:101830004D3332463178785F48414C5F4472697667
:1018400065725C5372635C73746D333266317878A1
:101850005F68616C5F6164632E63000038B50400EB
:1018600001D1012032BD20684D490FF24415884254
:101870001CBF4C49884202D06B2100F095F860688B
:10188000002818BFB0F5827F02D06C2100F08CF8E0
:10189000A06800281CBFB0F5806FB0F5004F02D0E3
:1018A0006D2100F081F8E068B0F5006F18BF0028E6
:1018B00002D06E2100F078F82069002818BF0228B5
:1018C00002D06F2100F070F86069002818BF01286D
:1018D00002D0702100F068F8A069B0F5007F1CBF4D
:1018E0000028B0F5802F02D0712100F05DF8E0698A
:1018F000002818BF08280ED0102818BF18280AD0B2
:10190000202818BF282806D0302818BF382802D031
:10191000722100F049F8206A002818BF802802D000
:10192000732100F041F80020A06294F8510010B932
:101930002046FFF7CEF8022084F8510020680168A5
:1019400021F0400101606068A1680843E168084334
:101950002169084361690843A16901F400710843E2
:10196000E1690843216A0843A16A084321680860C5
:10197000A069616A000C00F0040008432168486017
:101980002168E06A08612068C16921F40061C161D1
:1019900000206065012084F85100002032BD000065
:1019A00000300140003800402846FEF76FBF0000BD
:1019B000433A5C55736572735C746573745C44651B
:1019C000736B746F705C31315C433854365C4472B5
:1019D00069766572735C53544D3332463178785F63
:1019E00048414C5F4472697665725C5372635C7304
:1019F000746D3332663178785F68616C5F737069DB
:101A00005F65782E6300000070B5040001D10120ED
:101A100070BD2068A669DFF8D050DFF8D010DFF87D
:101A2000D020DFF8D030BEB198421CBF904288422F
:101A300003D040F20F1100F048F8A069002818BF49
:101A4000B0F5807F11D0B0F5007F18BFB0F5407FB2
:101A50000BD04FF4887106E098421CBF9042884238
:101A600003D04FF48A7100F030F8A068002818BF46
:101A7000B0F5805F03D04FF48B7100F026F804F1CD
:101A80003805687808B900F00CF800F00EF800F09E
:101A90001FF8C16841F40051C160002000F00FF848
:101AA00070BD28702046FFF772B824206870206847
:101AB000C16821F40051C160204600F01DB8686083
:101AC00020206870A870002070472846FEF7DEBE10
:101AD0002068016921F4904101612068416921F089
:101AE0002A01416120687047341C0008004800400A
:101AF00000440040003801402DE9F04704464A49BF
:101B000060680FF23015884203D340F6A711FFF743
:101B1000DCFFE068002818BFB0F5005F03D040F696
:101B2000A811FFF7D2FF206900281CBFB0F5806F15
:101B3000B0F5C06F03D040F6A911FFF7C6FF60698A
:101B40004FF6F371084200D118B940F6AA11FFF719
:101B5000BCFF20680169E26821F440511143016132
:101B60006425C168314A1140A268114322691143BA
:101B700062691143C16019264169A26921F440716B
:101B8000114341612A4988420ED1FEF7D5FD07462F
:101B9000FEF7D2FD8046FEF7CFFD8146FEF7CCFD75
:101BA0008246FEF7C9FD0DE0FEF7BEFD0746FEF7D3
:101BB000BBFD8046FEF7B8FD8146FEF7B5FD8246C7
:101BC000FEF7B2FD06FB08F361688900B3FBF1F391
:101BD00006FB07F206FB09F7B7FBF1F7B7FBF5F7D2
:101BE00005FB17331B013233B2FBF1F2B3FBF5F304
:101BF000B2FBF5F203F0F00303EB0212704306FBB5
:101C00000AF3B0FBF1F0B3FBF1F3B0FBF5F005FB29
:101C1000103000013230B0FBF5F0216800F00F0009
:101C200080188860BDE8F08721AA4400F3E9FFFF2F
:101C300000380140433A5C55736572735C74657398
:101C4000745C4465736B746F705C31315C43385401
:101C5000365C447269766572735C53544D33324618
:101C60003178785F48414C5F4472697665725C53A5
:101C700072635C73746D3332663178785F68616C5F
:101C80005F756172742E630002206870211D2068E8
:101C900000F042F901206870002032BD04F13C05DB
:101CA000687870472846FEF7F1BD2068DFF8885055
:101CB000B0F1804F704738B5040001D1012032BD2A
:101CC000FFF7F3FF1FBF1A4988421A49884203D021
:101CD00040F2DE51FFF7E6FFA068002818BF102889
:101CE00008D020281CBF4028602803D040F2DF51D4
:101CF000FFF7D8FF206900281CBFB0F5807FB0F542
:101D0000007F03D04FF4BC61FFF7CCFFA06900282F
:101D100018BF802803D040F2E151FFF7C3FFFFF75F
:101D2000BDFF18B928702046FEF7ADFFACE70000F4
:101D30000004004000080040E81F00082DE9F047BB
:101D40000546DFF8D0912868DFF8A0A1DFF8A08170
:101D5000B0F1804F1CBF504548450E46174603D092
:101D600040F6BD3100F0D2F83068002818BF0228D4
:101D700003D040F6BE3100F0C9F8706801281CBFDE
:101D80000228032803D040F6BF3100F0BFF8B06846
:101D9000002818BF042807D0082818BF0C2803D033
:101DA0004FF43C6100F0B2F8F068102803D340F61D
:101DB000C13100F0ABF805F13C042078012808BFE0
:101DC000022000F0908001202070022060702868BE
:101DD00077B9F3687268316800F0C5F828688169DE
:101DE00021F00C01816128688169B26811431BE010
:101DF000042F1BD1B0F1804F1CBF5045484503D084
:101E000040F6D83100F082F8F368726831682868CB
:101E100000F0CCF82868816921F44061816128686C
:101E20008169B26841EA0221816158E0082F2AD114
:101E3000B0F1804F1CBF5045484503D040F6E83113
:101E400000F064F800F05CF822F480720A621B0172
:101E5000D1F81CC00A6A4FEA9C0C47EA8C0727F0AD
:101E6000F00703F0F00300023B4322F4206200F489
:101E7000206000F03FF821F00C01C1612868C169C1
:101E8000B26811432AE0B0F1804F1CBF504548456D
:101E900003D040F6F83100F039F800F031F822F4C0
:101EA00080520A621B03D1F81CC00A6A2CF4407CE1
:101EB0004CEA072727F4704703F4704300033B43C1
:101EC00022F4005200F4005000F014F821F44061B4
:101ED000C1612868C169B26841EA0221C16101207B
:101EE000607000202070BDE8F08700000004004012
:101EF000E81F0008CB61104308622868C169704779
:101F00002968F368776830680A6A70474046FEF7C8
:101F1000BDBC00000008004030B5DFF8C430DFF879
:101F2000C4400268B0F1804F1CBFA042984208D163
:101F30004D6822F070022A43B0F1804F18BFA042D2
:101F400001D0984203D1CB6822F440721A434B6906
:101F500022F080021A4302608A68C26209688162C4
:101F60000121416130BD70B5046A640864000462F7
:101F7000B0F1804F8469056A1FBF1A4EB042184EF7
:101F8000B04203D1A40842EA840201E044F0010215
:101F90001B0122F0F00203F0F0031A43826101F00A
:101FA0000A0125F00A021143016270BD30B5046ACE
:101FB00024F0100404621B038469056A24F440744D
:101FC00044EA022222F4704203F470431A4382610D
:101FD000090125F0A00201F0A0011143016230BD0A
:101FE0000008004000040040433A5C55736572737A
:101FF0005C746573745C4465736B746F705C3131D1
:102000005C433854365C447269766572735C535431
:102010004D3332463178785F48414C5F447269767F
:1020200065725C5372635C73746D333266317878B9
:102030005F68616C5F74696D2E63000070B5044663
:102040000D4600F051F81FBF2549884225498842B6
:1020500003D04FF4C76100F04DF82868002818BF7E
:1020600010280FD0202818BF30280BD0402818BFC8
:10207000502807D0602818BF702803D040F239617B
:1020800000F038F86868802818BF002803D040F2B4
:102090003A6100F02FF804F13C000178012901D1E8
:1020A000022070BD012101700221417021684A683F
:1020B00022F070024A6021684A682B681A434A601D
:1020C00021688A6822F080028A6021688A686B68C9
:1020D0001A438A600121417000210170002070BD07
:1020E000000400400008004020680FF21006B0F124
:1020F000804F70473046FEF7C9BB0000433A5C553D
:10210000736572735C746573745C4465736B746F30
:10211000705C31315C433854365C44726976657268
:10212000735C53544D3332463178785F48414C5F8D
:102130004472697665725C5372635C73746D33329A
:10214000663178785F68616C5F74696D5F65782E61
:10215000630000000E480F4A016841F00101016070
:102160004168114041600C4A0168114001600168FA
:1021700021F480210160416821F4FE0141604FF4A7
:102180001F0181604FF00060044908607047000043
:10219000001002400000FFF8FFFFF6FE08ED00E02F
:1021A0000000000000000000010203040607080907
:1021B00019E050F8041BCB0744BFA9F101035918DB
:1021C000121F0023042A41F8043BF9D25FEA827C03
:1021D0000B4604D54FF0000CA1F800C09B1CD107A2
:1021E00044BF0021197050F8042B002AE1D1704738
:1021F00010B450F8041B79B10268436802440830F7
:10220000DC0744BFA9F10104E31852F8044B43F87A
:10221000044B091FF9D1ECE710BC704710B5074912
:1022200079441831064C7C44163404E00A68081DD1
:10223000114488470146A142F8D110BD08000000B2
:10224000280000006DFFFFFF0801000010040020BF
:10225000000000009DFFFFFF100000009000000044
:1022600000000020000000007047FEE7FEE7FEE7E8
:10227000FEE770477047704780B500F005F8BDE88D
:102280000140FEF783BE0000024841680278511801
:10229000416070470000002000F00BF8002801D0DA
:1022A000FFF7BCFF0020AFF30080FEF79FFA00F0BD
:1022B00002F80120704700F001B8000007463846D8
:1022C00000F002F8FBE7000080B5AFF30080024A9F
:1022D00011001820ABBEFBE7260002000148804732
:1022E0000148004755210008FD22000801000000B8
:1022F000000000001000000000A24A04AFF30080BC
:10230000AFF30080FFF7C8FF0000000001020304E4
:10231000FFF7FEBFFFF7FEBFFFF7FEBFFFF7FEBFF1
:10232000FFF7FEBFFFF7FEBFFFF7FEBFFFF7FEBFE1
:10233000FFF7FEBFFFF7FEBFFFF7FEBFFFF7FEBFD1
:10234000FFF7FEBFFFF7FEBFFFF7FEBFFFF7FEBFC1
:10235000FFF7FEBFFFF7FEBFFFF7FEBFFFF7FEBFB1
:10236000FFF7FEBFFFF7FEBFFFF7FEBFFFF7FEBFA1
:10237000FFF7FEBFFFF7FEBFFFF7FEBFFFF7FEBF91
:10238000FFF7FEBFFFF7FEBFFFF7FEBFFFF7FEBF81
:08239000FFF7FEBFFFF7FEBFDF
:04000005080022FDD0
:00000001FF
