:020000040800F2
:10000000180400205D2000080D1E00080F1E0008C7
:10001000111E0008131E0008151E00080000000035
:10002000000000000000000000000000171E000893
:10003000191E0008000000001B1E00081D1E0008FD
:100040008120000885200008892000088D200008F4
:100050009120000895200008992000089D200008A4
:10006000A1200008A5200008A9200008AD20000854
:10007000B1200008291E0008B5200008B92000089A
:10008000BD200008C1200008C5200008C9200008C4
:10009000CD200008D1200008D5200008D920000874
:1000A000DD200008E1200008E5200008E920000824
:1000B000ED200008F1200008F5200008F9200008D4
:1000C000FD20000801210008052100080921000881
:1000D0000D2100081121000815210008331E000819
:1000E000192100081D2100082121000870B582B0E7
:1000F000040000252078C00740F18480DFF89C06CA
:10010000006810F00C0004280BD0DFF8900600689F
:1001100010F00C0008280ED1DFF880060068C0033C
:1001200009D5DFF87406006880036BD56068002885
:1001300068D1012004E26068B0F5803F08D1DFF8A3
:100140005806006850F48030DFF84C16086038E03C
:100150006068002810D1DFF84006006830F4803075
:10016000DFF834160860DFF83006006830F48020CD
:10017000DFF82416086024E06068B0F5A02F10D1E5
:10018000DFF81406006850F48020DFF80C160860D1
:10019000DFF80406006850F48030DFF8FC150860D2
:1001A0000FE0DFF8F405006830F48030DFF8E81580
:1001B0000860DFF8E405006830F48020DFF8D81527
:1001C0000860606800280ED000F008FB0500DFF82A
:1001D000C8050068800315D400F000FB401B6528AB
:1001E000F5D30320ACE100F0F9FA0500DFF8A8052B
:1001F0000068800306D500F0F1FA401B6528F5D3AE
:1002000003209DE1207880075CD5DFF89005006829
:1002100010F00C0F0BD0DFF88405006810F00C0014
:1002200008281AD1DFF874050068C00315D4DFF878
:1002300068050068800704D52069012801D00120E5
:100240007EE1DFF85405006830F0F800616950EA9B
:10025000C100DFF84415086034E0206900281ED092
:100260000120DFF84815086000F0B8FA0500DFF853
:1002700028050068800706D400F0B0FA401B032868
:10028000F5D303205CE1DFF81005006830F0F800DA
:10029000616950EAC100DFF80015086012E0002033
:1002A000DFF80815086000F099FA0500DFF8E804A7
:1002B0000068800706D500F091FA401B0328F5D3AB
:1002C00003203DE1207800072CD5A069002816D036
:1002D0000120DFF8DC14086000F080FA0500DFF888
:1002E000C8040068800706D400F078FA401B032891
:1002F000F5D3032024E1012000F03AFA12E00020B7
:10030000DFF8AC14086000F069FA0500DFF8980423
:100310000068800706D500F061FA401B0328F5D37A
:1003200003200DE12078400740F1A7800026DFF888
:1003300084040068C00010D4DFF87804006850F02E
:100340008050DFF870140860DFF86804006810F06F
:1003500080500090009801200600DFF85C040068DF
:10036000C00516D4DFF85004006850F48070DFF840
:100370004814086000F032FA0500DFF83C04006819
:10038000C00506D400F02AFA401B6528F5D30320E7
:10039000D6E0E068012808D1DFF82004006850F0BA
:1003A0000100DFF81814086037E0E068002810D179
:1003B000DFF80804006840084000DFF80014086017
:1003C000DFF8F803006830F00400DFF8F01308608D
:1003D00023E0E068052810D1DFF8E003006850F062
:1003E0000400DFF8D8130860DFF8D003006850F08D
:1003F0000100DFF8C81308600FE0DFF8C0030068F1
:1004000040084000DFF8B4130860DFF8B00300686C
:1004100030F00400DFF8A4130860E068002810D072
:1004200000F0DCF90500DFF894030068800719D4B8
:1004300000F0D4F9401B41F289318842F3D3032004
:100440007EE000F0CBF90500DFF87003006880075C
:1004500008D500F0C3F9401B41F289318842F3D33B
:1004600003206DE0F6B2012E07D1DFF848030068E3
:1004700030F08050DFF83C130860E06900285ED05F
:10048000DFF81803006810F00C00082855D0E06968
:1004900002283FD10020DFF82813086000F09EF901
:1004A0000500DFF8F4020068800106D500F096F937
:1004B000401B0328F5D3032042E0206AB0F5803FBB
:1004C00009D1DFF8D802006830F40030A168084391
:1004D000DFF8C8120860DFF8C402006830F4741056
:1004E000216A0843616A0843DFF8B01208600120FE
:1004F000DFF8CC12086000F071F90500DFF898020F
:10050000006880011BD400F069F9401B0328F5D373
:10051000032015E00020DFF8A812086000F05EF963
:100520000500DFF874020068800108D500F056F974
:10053000401B0328F5D3032002E0012000E0002047
:1005400076BD70B504000D000026DFF87802006863
:1005500010F00700A84211D2DFF868020068C00856
:10056000C0002843DFF85C120860DFF8580200681A
:1005700010F00700A84201D00120A3E020788007F6
:1005800009D5DFF81802006830F0F000A1680843D0
:10059000DFF8081208602078C00758D56068012885
:1005A00006D1DFF8F4010068800312D4012089E04D
:1005B0006068022806D1DFF8E0010068800108D4F5
:1005C00001207FE0DFF8D0010068800701D401201E
:1005D00078E0DFF8C801006880088000616808439F
:1005E0006E49086000F0FAF80600606801280ED134
:1005F0006A48006810F00C00042828D000F0EEF8DB
:10060000801B41F289318842F2D303205AE06068AE
:1006100002280ED16148006810F00C00082816D09E
:1006200000F0DCF8801B41F289318842F2D30320CC
:1006300048E05A48006810F00C0F08D000F0CEF8DF
:10064000801B41F289318842F3D303203AE05D48B0
:10065000006810F0070085420ED25A480068C008B2
:10066000C0002843574908605648006810F007004A
:10067000A84201D0012025E02078400707D547484F
:10068000006830F4E060E16808434449086020787D
:10069000000708D54148006830F46050216950EAED
:1006A000C1003E49086000F00EF847493B4A126815
:1006B000C2F30312895CC8403A490860002000F088
:1006C00093F8002070BD70B586B001A83F49102294
:1006D00000F0B0F83E480088ADF80000002100228C
:1006E0000023002400202D4D2D68290011F00C0559
:1006F000042D02D0082D03D01DE0294D28001CE058
:1007000001ADC1F38346AD5D2C00CD030DD56D4623
:10071000224E3668C6F34046AD5D2A00204D05FBEB
:1007200004F5B5FBF2F52B0003E02A4D05FB04F5BB
:100730002B00180001E01A4D280006B070BD1948C2
:100740000068704780B5FFF7FAFF2349134A126823
:10075000C2F30222895CC84002BD80B5FFF7EFFFFB
:100760001D490E4A1268C2F3C222895CC84002BD0C
:1007700081B00C490968C9084FF47A72B1FBF2F1F3
:1007800001FB00F1009100BF00994A1E0092002970
:10079000F9D101B07047000000100240041002407F
:1007A00000127A000400002024100240000042429F
:1007B000800442421C1002400070004020100240A1
:1007C00060004242002002404C2000083C2000080B
:1007D0008A08000800093D007820000801480068E8
:1007E000704700BFF408002010B504004FF47A7081
:1007F0000D490978B0FBF1F00C490968B1FBF0F044
:1008000000F0CCF8002801D001200CE0102C09D217
:10081000002221005FF0FF3000F0A6F804480460D9
:10082000002000E0012010BD100000200400002086
:1008300000000020103A07D330B4B1E83810103A65
:10084000A0E83810F9D230BC530724BFB1E8081033
:10085000A0E8081044BF51F8043B40F8043BD2071D
:1008600024BF31F8022B20F8022B44BF0B78037011
:100870007047083A07D3B1E80810083A40F8043B3B
:1008800040F804CBF7D25307E4E7010210F0070267
:100890004D4B1B6819004FF6FF0319404B4B53EAB1
:1008A00002231943484B1960704747480068C0F35A
:1008B00002207047012110F01F029140444A40B2CB
:1008C000430942F82310704710B440B2002808D5FD
:1008D0000A01404B40B210F00F04234403F8042CEB
:1008E00003E00A013C4B40B21A5410BC704770B48C
:1008F000030013F00704D4F10706052E01D30420EA
:1009000001E0D4F10700261D072E01D2002500E0EA
:10091000E51E012616FA00F0401E0840A8400121FD
:10092000A940491E1140084370BC704710B504002F
:10093000601EB0F1807F01D301200EE0601E2749C8
:1009400008600F215FF0FF30FFF7BEFF0020244951
:100950000860072023490860002010BD10B504007E
:100960002000FFF793FF10BDF8B504000D0016003E
:100970000027FFF79AFF0700320029003800FFF731
:10098000B6FF0100200040B2FFF79EFFF1BD10B599
:100990000400200040B2FFF78DFF10BD10B5040029
:1009A0002000FFF7C3FF10BD042806D10D490968D8
:1009B00051F004010B4A116005E00A49096831F061
:1009C0000401084A116070470CED00E00000FA05D0
:1009D00000E100E018ED00E000E400E014E000E0D9
:1009E00018E000E010E000E080B500F001F801BD83
:1009F0007047000010B50400002C01D1012033E045
:100A0000A0690028FFD194F83900002805D1002002
:100A100084F83800200000F071FB242084F83900AD
:100A20002068C06830F400502168C860200000F0E1
:100A300071FA2068006930F49040216808612068EC
:100A4000406930F02A00216848612068C06850F48D
:100A500000502168C8600020E063202084F839003D
:100A6000202084F83A00002010BD73B50400150062
:100A700094F83A00202851D10198002802D0ADB254
:100A8000002D01D101204AE094F83800012801D15D
:100A9000022044E0012084F838000198A062A58576
:100AA0000020E063222084F83A000FF23120616BCD
:100AB00088620FF26D20616BC8620FF27520616B66
:100AC00008630020616B486301A80600ADB22B00EB
:100AD00032682068011D606B00F0B2FB00200090BE
:100AE000206800680090206840680090009800200E
:100AF00084F838002068C06850F480702168C860AD
:100B00002068406950F00100216848612068406910
:100B100050F0400021684861002000E0022076BDCE
:100B200038B50400002520684069C00910F00100B4
:100B3000050094F83900212810D1002D0ED020682E
:100B4000406930F0800021684861206B002802D0A5
:100B5000206B00F0C1FB200000F018F9206840690C
:100B6000800910F00100050094F83A00222810D105
:100B7000002D0ED02068406930F0400021684861A7
:100B8000606B002802D0606B00F0A6FB200000F034
:100B900007F9002032BD2DE9F843040020680568FC
:100BA0002068C668206847695FF000085FF00009A8
:100BB00015F00F008046B8F1000F07D1A80605D543
:100BC000B00603D5200000F04EF985E0B8F1000F23
:100BD00072D0F80702D416F4907F6DD015F00100A2
:100BE000C0B2002805D0F00503D5E06B50F001003D
:100BF000E063680708D517F00100C0B2002803D0F1
:100C0000E06B50F00200E063A80708D517F0010080
:100C1000C0B2002803D0E06B50F00400E063280766
:100C200008D517F00100C0B2002803D0E06B50F0E7
:100C30000800E063E06B00283DD0A80604D5B006AC
:100C400002D5200000F00FF920684069800910F0FB
:100C500001008146E06B000702D4B9F1000F25D0F6
:100C6000200000F09DF82068406940061AD52068F1
:100C7000406930F0400021684861606B00280DD069
:100C80000FF23D10616B4863606B00F040FB002881
:100C900011D0606B616B496B88470CE0200000F05D
:100CA0006DFC08E0200000F069FC04E0200000F08A
:100CB00065FC0020E0630FE0280605D5300603D56B
:100CC000200000F089F807E0680605D5700603D516
:100CD000200000F0B8F8FFE7BDE8F18338B5040064
:100CE000656A20680068800616D40020E8852868B8
:100CF000C06830F480702968C8602868406940087E
:100D00004000296848612868406930F0400029683F
:100D10004861202085F83A00280000F030FC31BD01
:100D200038B50400656A280000F02AFC31BD0000D7
:100D300070B504000025666A30684069C00910F08B
:100D40000100050096F83900212806D1002D04D0B5
:100D50000020F084300000F019F830684069800904
:100D600010F00100050096F83A00222806D1002D67
:100D700004D00020F085300000F012F8F06B50F045
:100D80001000F063300000F0F9FB70BD0168C96825
:100D900031F0C0010268D160202180F8391070471D
:100DA0000168C96831F490710268D16001684969CD
:100DB0004908490002685161202180F83A107047C3
:100DC00038B50400656A0020E8850020E884280022
:100DD00000F0D4FB31BD0000010091F8390021285A
:100DE0002FD18868B0F5805F11D1086A02001088A1
:100DF000C005C00D0B6858600869002803D1086A57
:100E0000801C086209E0086A401C086205E0086A64
:100E1000431C0B6200780B685860C88C401EC88465
:100E200080B200280BD10868C06830F080000B68E1
:100E3000D8600868C06850F040000B68D860002097
:100E400000E00220704710B504002068C06830F050
:100E500040002168C860202084F83900200000F09C
:100E600090FB002010BD38B5040094F83A00222809
:100E70004ED1A068B0F5805F16D1A06A0500206948
:100E8000002808D120684068C005C00D2880A06AED
:100E9000801CA0621AE02068406800F0FF002880F3
:100EA000A06A401CA06211E02069002806D1A06A57
:100EB000411CA16221684968017007E0A06A411CD9
:100EC000A1622168496811F07F010170E08D401E28
:100ED000E08580B2002819D12068C06830F0200079
:100EE0002168C8602068C06830F480702168C860DC
:100EF000206840694008400021684861202084F84B
:100F00003A00200000F03BFB002002E0002000E05F
:100F1000022032BD2DE9F843040000252068006955
:100F200030F44050E168084321680861A0682169F5
:100F300008436169084305432068C0685B4908406D
:100F400028432168C8602068406930F44070A16976
:100F500008432168486120685549884252D1FFF70B
:100F6000FCFB8146FFF7F9FB8046FFF7F6FB070025
:100F7000FFF7F3FB0600FFF7F0FB192101FB09F176
:100F800062689200B1FBF2F16422B1FBF2F1192226
:100F900002FB08F263689B00B2FBF3F2192303FB28
:100FA00007F36768BF00B3FBF7F36427B3FBF7F3FE
:100FB000642707FB1322120132326423B2FBF3F2DF
:100FC00012F0F00212EB0111192202FB06F2636823
:100FD0009B00B2FBF3F21923584363689B00B0FBFC
:100FE000F3F06423B0FBF3F0642303FB1020000153
:100FF00032306422B0FBF2F010F00F00401821688C
:10100000886051E0FFF79EFB8146FFF79BFB80461F
:10101000FFF798FB0700FFF795FB0600FFF792FB31
:10102000192101FB09F162689200B1FBF2F164221F
:10103000B1FBF2F1192202FB08F263689B00B2FBDC
:10104000F3F2192303FB07F36768BF00B3FBF7F361
:101050006427B3FBF7F3642707FB13221201323234
:101060006423B2FBF3F212F0F00212EB0111192229
:1010700002FB06F263689B00B2FBF3F219235843AC
:1010800063689B00B0FBF3F06423B0FBF3F06423D0
:1010900003FB1020000132306422B0FBF2F010F0AC
:1010A0000F00401821688860BDE8F183F3E9FFFF75
:1010B0000038014080B53D483D4908604FF461402B
:1010C0003B49486000203A49886000203849C860A0
:1010D0000020374908610C20354948610020344917
:1010E000886100203249C8613148FFF783FC00283D
:1010F00003D044212F4800F0D7FA01BD10B586B0C7
:1011000004002068294988424ED12B48006850F4D9
:101110008020294908602848006810F48020009049
:1011200000984FF480600190022002900320049008
:1011300001A9224800F0BAFA4FF4006001900020A3
:1011400002900020039001A91C4800F0AFFA1C484F
:101150001C49086000201B4948600020194988602C
:1011600080201849C86000201649086100201549F0
:10117000486100201349886100201249C861114864
:1011800000F022F8002803D06F210A4800F08CFA02
:101190000C4860630B484462002200212720FFF7BF
:1011A000E3FB2720FFF7F3FB06B010BD004800402B
:1011B000B4080020041F00081C100240000C01406D
:1011C000300002407008002001000022002901D1F7
:1011D000012034E00868DFF8543318181423B0FBFA
:1011E000F3F080000864DFF84803C863022081F848
:1011F00021000868006802006FF30D1248688B68D0
:101200001843CB6818430B6918434B6918438B6923
:101210001843CB69184302430868026000208862C3
:101220000020C86200200863002048630020886313
:10123000012081F82100002081F820000020704763
:101240002DE9F04104000D0016001F005FF00008BA
:1012500094F82000012801D102203BE0012084F80D
:10126000200094F8210001282DD1022084F82100CB
:101270000020A063206800684008400021680860E2
:101280003B0032002900200000F062F9E06A0028EB
:1012900006D02068006850F00E00216808600BE05E
:1012A0002068006830F00400216808602068006849
:1012B00050F00A00216808602068006850F00100C2
:1012C0002168086004E0002084F8200002208046A5
:1012D0004046C0B2BDE8F081010000200A681268F3
:1012E00032F00E020B681A600A6812685208520047
:1012F0000B681A6001220B6C9A40CB6B5A6001227A
:1013000081F82120002281F82020C0B2704738B532
:101310000400002594F82100022804D00420A063D2
:10132000012005004AE02068006830F00E002168C6
:101330000860206800684008400021680860206854
:10134000DFF8F011884201D1012028E02068DFF8A1
:10135000E811884201D1102021E02068DFF8DC117B
:10136000884202D14FF4807019E02068DFF8D01174
:10137000884202D14FF4805011E02068DFF8C41198
:10138000884202D15FF4803009E02068DFF8B811AC
:10139000884202D15FF4801001E05FF08070DFF8D6
:1013A000AC110860012084F82100002084F820009E
:1013B000606B002802D02000616B88472800C0B213
:1013C00032BD70B50400E06B056820680668042033
:1013D000216C884005423ED070073CD520680068EB
:1013E000800605D42068006830F004002168086099
:1013F00020685049884201D1042023E020684E49EA
:10140000884201D140201DE020684C49884202D129
:101410004FF4806016E020684949884202D14FF4B9
:1014200080400FE020684749884202D15FF4802065
:1014300008E020684449884202D15FF4800001E05E
:101440005FF0806041490860E06A00286DD02000AC
:10145000E16A884769E00220216C8840054244D057
:10146000B00742D520680068800608D4206800686C
:1014700030F00A0021680860012084F8210020680B
:101480002C49884201D1022023E020682A49884261
:1014900001D120201DE020682849884202D14FF464
:1014A000007016E020682649884202D14FF40050AF
:1014B0000FE020682349884202D15FF4003008E041
:1014C00020682149884202D15FF4001001E05FF0FA
:1014D00000701E490860002084F82000A06A0028DF
:1014E00023D02000A16A88471FE00820216C884093
:1014F00005421AD0300718D52068006830F00E0079
:10150000216808600120216C8840E16B486001205F
:10151000A063012084F82100002084F82000206BC3
:10152000002802D02000216B884770BDF8FFFDBF66
:1015300000000240080002401C000240300002404F
:1015400044000240580002406C0002400400024087
:1015500030B40124056CAC40C56B6C6004686360FA
:101560004468102C04D10468A2600468E16003E0C0
:101570000468A1600468E26030BC7047704770473F
:101580007047704780B500F019FA00F017F800F0C6
:1015900029FA00F07BFAFFF78DFD00F08FFA4FF487
:1015A00080623C493C48FFF760FA3B480068C068ED
:1015B00050F0100038490968C860FEE700B58FB0E8
:1015C000012005905FF480300690002007900120F4
:1015D000099002200C905FF480300D905FF4E010D1
:1015E0000E9005A8FEF782FD002803D08E212B481F
:1015F00000F05AF80F200090022001900020029085
:101600004FF4806003900020049002216846FEF7AA
:1016100098FF002803D09C21204800F045F8FFF7F0
:101620008EF84FF47A71B0FBF1F0FFF7B7F90420B0
:10163000FFF7BAF9002200215FF0FF30FFF794F9BD
:101640000FB000BD38B5040020680068C00620D582
:10165000002000902068006800902068406800909A
:101660000098606B0068406805002000FFF758FA9A
:1016700020680B4988420CD1D5F580600949488023
:101680000120084908704FF4806202490248FFF7C0
:10169000ECF931BD1C040020B4080020D41E000861
:1016A0000048004018040020FEE700002DE9F84142
:1016B00000230024002500265FF0000E5FF0000CE0
:1016C0006246102A80F04D815FF0010C1CFA02FC8A
:1016D0006346D1F800C013EA0C0C64469C4240F00B
:1016E0003E81D1F804C0BCF1000F3DD0BCF1010F28
:1016F00024D0BCF1020F2BD0BCF1030F4CD0BCF1B5
:10170000110F1FD0BCF1120F28D0DFF87082C44532
:101710002AD0DFF86C82C44526D0DFF86882C44541
:1017200022D0DFF86482C4451ED0DFF86082C44551
:101730001AD0DFF85C82C44516D031E0D1F80CC075
:1017400066462DE0D1F80CC01CF1040C664627E07B
:10175000D1F80CC01CF1080C664621E0D1F80CC091
:101760001CF10C0C66461BE0D1F808C0BCF1000F60
:1017700003D15FF0040C66460DE0D1F808C0BCF15F
:10178000010F04D15FF0080C6646036103E05FF0CF
:10179000080C6646436103E05FF0000C6646FFE715
:1017A000FF2C01D8070000E0071DFF2C02D85FEADC
:1017B000820E03E0B2F1080C5FEA8C0ED7F800C08D
:1017C0005FF00F0818FA0EF83CEA080C16FA0EF84B
:1017D00058EA0C0CC7F800C0D1F804C05FEACC0C82
:1017E00040F1BD80DFF8ACC1DCF800C05CF0010C5A
:1017F000DFF8A081C8F800C0DFF898C1DCF800C0AD
:101800001CF00108CDF80080DDF800C0DFF888C1C9
:101810005FEA92085CF828C065465FF00F0C12F092
:1018200003085FFA88F85FEA88081CFA08FC35EAC2
:101830000C05DFF868C1604502D15FF0000C16E0CE
:10184000DFF85CC1604502D15FF0010C0FE0DFF80A
:1018500054C1604502D15FF0020C08E0DFF848C1D6
:10186000604502D15FF0030C01E05FF0040C12F060
:1018700003085FFA88F85FEA88081CFA08FC5CEA4B
:101880000505DFF814C15FEA92084CF82850D1F83A
:1018900004C05FEACC3C0AD5DFF810C1DCF800C018
:1018A00054EA0C0CDFF80481C8F800C009E0DFF846
:1018B000FCC0DCF800C03CEA040CDFF8F080C8F89B
:1018C00000C0D1F804C05FEA8C3C0AD5DFF8E0C064
:1018D000DCF800C054EA0C0CDFF8D480C8F800C073
:1018E00009E0DFF8CCC0DCF800C03CEA040CDFF80B
:1018F000C080C8F800C0D1F804C05FEACC2C0AD57B
:10190000DFF8B0C0DCF800C054EA0C0CDFF8A480AB
:10191000C8F800C009E0DFF89CC0DCF800C03CEA71
:10192000040CDFF89080C8F800C0D1F804C05FEA6A
:101930008C2C0AD5DFF880C0DCF800C054EA0C0C0F
:10194000DFF87480C8F800C009E0DFF86CC0DCF88C
:1019500000C03CEA040CDFF86080C8F800C0521CEC
:10196000AFE6BDE8F181D2B2002A02D089B20161AE
:1019700002E089B20B0403617047000000001110FF
:101980000000121000002110000022100000311091
:101990000000321018100240080001400008014009
:1019A000000C0140001001400014014000040140FF
:1019B00004040140080401400C04014080B50848BB
:1019C000006850F01000064908600320FEF7C6FFCB
:1019D0000020FEF709FF00F0C3F8002002BD000060
:1019E0000020024000B585B02548006850F0200076
:1019F000234908602248006810F0200000900098F9
:101A00001F48006850F008001D4908601C48006825
:101A100010F00800009000981948006850F0040089
:101A2000174908601648006810F0040000900098FC
:101A300000224FF470411348FFF795FF00224FF446
:101A400070611148FFF78FFF4FF470400190012043
:101A50000290002003900220049001A90948FFF79A
:101A600025FE4FF470600190012002900020039049
:101A70000220049001A90448FFF718FE05B000BD3C
:101A800018100240000C01400008014080B50A48CF
:101A9000006850F00100084908600748006810F02D
:101AA000010000900098002200210D20FEF75CFF4D
:101AB0000D20FEF76CFF01BD1410024080B52248D6
:101AC0002249086022482149486000201F49886057
:101AD00000201E49C8604FF480401C490861002066
:101AE0001A49486100201949886100201749C861D6
:101AF000002016490862154800F088F8002803D035
:101B000042211448FFF7D0FD01BD10B586B0040096
:101B100020680D49884215D1C02001901220029002
:101B20000320049001A90C48FFF7C0FD0B48006892
:101B300050F40010094908600848006810F40010CB
:101B40000090009806B010BD005400401C08002012
:101B5000A0860100A41E0008000C01401C100240D9
:101B600080B52748006850F00100254908602448E6
:101B7000006810F00100009000982248006850F0C2
:101B80008050204908601F48006810F08050009085
:101B900000980320FEF7E2FE002200217FF00B00F8
:101BA000FEF7E2FE002200217FF00A00FEF7DCFED5
:101BB000002200217FF00900FEF7D6FE002200215E
:101BC0007FF00400FEF7D0FE002200217FF003002A
:101BD000FEF7CAFE002200217FF00100FEF7C4FEDE
:101BE000002200215FF0FF30FEF7BEFE06490968C3
:101BF000080030F0E06050F000700349086001BD5B
:101C0000181002401C1002400400014070B504008E
:101C100000250026002C01D10120BAE094F83D00F7
:101C2000002805D1002084F83C002000FFF76DFF5C
:101C3000242084F83D0020680068400840002168A6
:101C40000860FEF77FFD06006068DFF848118842F3
:101C500008D2DFF84401864201D2012000E00020D2
:101C6000C0B207E0DFF83401864201D2012000E073
:101C70000020C0B2012801D101208AE0DFF8200154
:101C8000B6FBF0F00500206845606068DFF80411DD
:101C9000884201D2681C08E04FF4967000FB05F002
:101CA0004FF47A71B0FBF1F0401C21680862606863
:101CB000DFF8E010884214D2701E61684900B0FB62
:101CC000F1F0401C0005000D042801D204203EE084
:101CD000701E61684900B0FBF1F0401C0005000D6A
:101CE00035E0A068002809D1701E616803225143C5
:101CF000B0FBF1F0401C0005000D0AE0701E6168A9
:101D000019225143B0FBF1F0401C0005000D50F4C6
:101D10008040000501D1012019E0A068002809D108
:101D2000701E616803225143B0FBF1F0401C0005B6
:101D3000000D0AE0701E616819225143B0FBF1F0FA
:101D4000401C0005000D50F4804050F40040216814
:101D5000C861E069216A0843216808602069E16878
:101D60000843216888606069A16908432168C860E8
:101D70002068006850F0010021680860002020649D
:101D8000202084F83D0000202063002084F83E00DD
:101D9000002070BDA186010080841E0000093D0066
:101DA00040420F001348006850F0010011490860DC
:101DB00011480068114908400F4908600D48006843
:101DC0000F4908400B4908600A48006830F4802039
:101DD000084908600848006830F4FE0006490860B9
:101DE0005FF41F00074908605FF000600649086063
:101DF0007047000000100240041002400000FFF88D
:101E0000FFFFF6FE0810024008ED00E07047FEE715
:101E1000FEE7FEE7FEE770477047704780B500F0C9
:101E200015F8FEF7E1FD01BD80B50648FFF7C9FAD8
:101E300001BD80B50448FFF705FC0348FEF7ABFE83
:101E400001BD000070080020B408002003480068AD
:101E5000034909780818014908607047F408002010
:101E60001000002019E050F8041BCB0744BFA9F173
:101E700001035918121F0023042A41F8043BF9D228
:101E80005FEA827C0B4604D54FF0000CA1F800C03D
:101E90009B1CD10744BF0021197050F8042B002A65
:101EA000E1D17047433A5C55736572735C74657336
:101EB000745C4465736B746F705C31315C7A686913
:101EC00077656E73756F5C5372635C6932632E6302
:101ED00000000000433A5C55736572735C7465736F
:101EE000745C4465736B746F705C31315C7A6869E3
:101EF00077656E73756F5C5372635C6D61696E2E8E
:101F000063000000433A5C55736572735C746573DB
:101F1000745C4465736B746F705C31315C7A6869B2
:101F200077656E73756F5C5372635C757361727401
:101F30002E63000080B500F015F802000023DB439B
:101F40001068984204D011000220ABBE002010603F
:101F50005068984204D0111D0220ABBE0020506092
:101F600001BD0000004870470800002010B450F880
:101F7000041B79B10268436802440830DC0744BF9F
:101F8000A9F10104E31852F8044B43F8044B091F6C
:101F9000F9D1ECE710BC704710B507497944183106
:101FA000064C7C44163404E00A68081D1144884736
:101FB0000146A142F8D110BD080000002800000031
:101FC000A5FEFFFFE0040000180400200000000050
:101FD0009DFFFFFF140000005000000000000020E3
:101FE0000000000000F00BF8002801D0FFF7D4FF3C
:101FF0000020AFF30080FFF7C5FA00F002F80120DF
:10200000704700F001B800000746384600F002F8BB
:10201000FBE7000080B5FFF78DFF024A1100182092
:10202000ABBEFBE7260002001000000000A24A043D
:10203000FFFFFFFFFFFFFFFF010000000203040599
:10204000060708090A0B0C0D0E0F10100000000007
:102050000000000001020304060708090148804748
:1020600001480047A51D00086D200008AFF300805F
:10207000AFF30080FFF7B6FF000000000102030489
:10208000FFF7FEBFFFF7FEBFFFF7FEBFFFF7FEBF84
:10209000FFF7FEBFFFF7FEBFFFF7FEBFFFF7FEBF74
:1020A000FFF7FEBFFFF7FEBFFFF7FEBFFFF7FEBF64
:1020B000FFF7FEBFFFF7FEBFFFF7FEBFFFF7FEBF54
:1020C000FFF7FEBFFFF7FEBFFFF7FEBFFFF7FEBF44
:1020D000FFF7FEBFFFF7FEBFFFF7FEBFFFF7FEBF34
:1020E000FFF7FEBFFFF7FEBFFFF7FEBFFFF7FEBF24
:1020F000FFF7FEBFFFF7FEBFFFF7FEBFFFF7FEBF14
:10210000FFF7FEBFFFF7FEBFFFF7FEBFFFF7FEBF03
:10211000FFF7FEBFFFF7FEBFFFF7FEBFFFF7FEBFF3
:04212000FFF7FEBF08
:040000050800206D62
:00000001FF
