:020000040800F2
:100000001004002001010008A7090008A309000846
:10001000A5090008490100088D0A00080000000039
:10002000000000000000000000000000CB090008F4
:100030004B01000800000000C9090008CD090008B4
:100040001B0100081B0100081B0100081B01000820
:100050001B0100081B0100081B0100081B01000810
:100060001B0100081B0100081B0100081B01000800
:100070001B0100081B0100081B0100081B010008F0
:100080001B0100081B0100081B0100081B010008E0
:100090001B0100081B0100081B0100081B010008D0
:1000A0001B0100081B0100081B0100081B010008C0
:1000B0001B0100081B0100081B0100081B010008B0
:1000C0001B0100081B0100081B0100081B010008A0
:1000D0001B0100081B0100081B0100081B01000890
:1000E0001B0100081B0100081B010008DFF80CD0F1
:1000F00000F018F800480047AD0A0008100400207E
:100100000648804706480047FEE7FEE7FEE7FEE7B1
:10011000FEE7FEE7FEE7FEE7FEE7FEE7450A00082A
:10012000ED000008064C074D06E0E06840F00103D2
:1001300094E8070098471034AC42F6D3FFF7DAFF93
:10014000140B0008340B0008FEE770472DE9F84F48
:10015000DFF890A100220AF1040B144601274FF0AA
:100160000F090BF1040E00BF0B6807FA04F52B40D2
:10017000AB4274D1DFF870C14E68A6EB0C0866453F
:100180002BD00DDC032E34D005DC36B3012E19D074
:10019000022E2FD11BE0112E16D0122E2AD119E0DB
:1001A000B8F5881F19D006DCB8F5803F15D0B8F532
:1001B000801F1FD111E0B8F5001F0ED0B8F5041F45
:1001C00018D10AE0CA6815E0CA68121D12E0CA68B0
:1001D00008320FE0CA680C320CE08A682AB1012AA2
:1001E0004FF0080203D0456104E0042202E00561FB
:1001F00000E00022FF2B01D8064601E000F10406D2
:100200004FEA840501D9A5F12005D6F800C009FA06
:1002100005F82CEA080C02FA05F54CEA050CC6F8BC
:1002200000C04D68ED0057D5304DAE6946F001066F
:10023000AE61AD6924F0030605F0010500952C4D73
:1002400006EB050CDCF80850A6074FEA167809FA09
:1002500008F6B543274EB04202D1002610E03BE03D
:10026000254EB04201D101260AE0244EB04201D110
:10027000022605E0224EB04201D1032600E004260A
:1002800006FA08F62E43CCF808604D68DAF80060EC
:10029000ED03554601D51E4300E09E432E604D6898
:1002A000DBF80060AD035D4601D51E4300E09E43D0
:1002B0002E604D68DEF80060ED02754601D51E43E4
:1002C00000E09E432E604D68AD020E4D2E6801D5B4
:1002D0001E4300E09E432E60641C102CFFF444AFCC
:1002E000BDE8F88F0004014000001110001002402A
:1002F0000000014000080140000C014000100140D6
:10030000001401400C0401400AB101617047090466
:10031000FBE70000014880687047000000000020F3
:100320000248816802781144816070470000002013
:10033000074810B5016841F010010160032000F08A
:1003400091F8002000F006F800F024F8002010BD1D
:100350000020024070B50D4D04464FF47A712878A4
:10036000B1FBF0F00A490968B1FBF0F000F001FBC5
:1003700048B9102C07D200222146501E00F052F836
:1003800000206C6070BD012070BD000000000020E6
:100390000C000020214808B5816941F0010181610C
:1003A000816901F001010091C16941F08051C16191
:1003B000C06900F080500090032000F053F8002244
:1003C00011466FF00B0000F02DF8002211466FF07F
:1003D0000A0000F027F8002211466FF0090000F033
:1003E00021F800221146501F00F01CF8002211468F
:1003F000101F00F017F800221146901E00F012F8AE
:1004000000221146501E00F00DF80548416821F009
:10041000E06141F00071416008BD00000010024041
:1004200000000140F0B40E4B1B680C46C3F30223DE
:10043000C3F10705042D00D90425191D072901D290
:10044000002300E0DB1E012606FA05F1491E2140CB
:1004500099409E40761E16403143F0BC00F0A4BA8D
:100460000CED00E0064900F0070208684FF6FF03B4
:10047000184040EA0220034A104308607047000019
:100480000CED00E00000FA052DE9F047DFF83C81B3
:1004900005460E46D8F8000000F00700B0420CD226
:1004A000D8F8001021F007013143C8F80010D8F83F
:1004B000000000F00700B04263D12878444C800768
:1004C00005D56068A96820F0F000084360602878CE
:1004D000C00745D06868012816D02168022816D0C8
:1004E000890700294DDA616821F003010143616049
:1004F000FFF710FF6968074641F2883001290FD0E5
:100500000229814619D027E021688903E9E789019A
:10051000E7E700BFFFF7FEFEC11B494501D918E020
:1005200081466068C0F381000128F3D118E000BF64
:10053000FFF7F0FEC11B49450BD86068C0F381008E
:100540000228F5D10CE000BFFFF7E4FEC11B4945CE
:1005500002D90320BDE8F087606810F00C0FF3D1DA
:10056000D8F80010404601F00701B1420BD90168EC
:1005700021F0070131430160006800F00700B0423C
:1005800001D00120E6E72878400705D56068E968D2
:1005900020F4E060084360602878000706D56068B2
:1005A000296920F4605040EAC100606000F01CF846
:1005B0006168084AC1F30311515CC84006490860EC
:1005C0000020FFF7C7FE0020C4E700000020024023
:1005D00000100240040B00080C00002001480068D5
:1005E000704700000C00002012A185B00FC98DE8F3
:1005F0000F0014A0144A006804905168134801F0D9
:100600000C03042B10D0082B0ED1C1F38343C90374
:100610001DF803000AD5516804AAC1F34041515C9A
:100620000A4A5043B0FBF1F005B07047084948430F
:10063000FAE7000002030405060708090A0B0C0D7F
:100640000E0F1010010200000010024000127A008C
:1006500000093D002DE9F84F04460078B94DC00768
:1006600048D06868C0F38100012807D06868C0F3EB
:100670008100022809D16868C00306D52868800374
:1006800038D5606800286FD034E06068B0F5803FEE
:100690000BD010B1B0F5A02F11D0286820F4803015
:1006A0002860286820F4802002E0286840F4803028
:1006B0002860606888B1FFF72DFE064609E02868CB
:1006C00040F480202860F0E7FFF724FE801B6428B8
:1006D00075D828688003F7D50CE0FFF71BFE0646A7
:1006E00005E000BFFFF716FE801B6428F0D82868DD
:1006F0008003F7D42078944E80074FF001094FF023
:1007000000083BD5686810F00C0F07D06868C0F38C
:100710008100022809D16868C00306D428688007D0
:1007200014D5206901281FD110E02069B0B1C6F8A6
:100730000090FFF7EFFD074605E000BFFFF7EAFD79
:10074000C01B0228C4D828688007F7D528686169CB
:1007500020F0F80040EAC10028600FE0C6F80080F1
:10076000FFF7D8FD074606E0E9E000BFFFF7D2FD3E
:10077000C01B022823D828688007F7D420780007F8
:100780002CD57248A169D9B1C0F80090FFF7C2FD1D
:10079000074604E0FFF7BEFDC01B02280FD8686AB9
:1007A0008007F7D56A484FF4FA510068B0FBF1F0C2
:1007B000009000BF0098411E0091FAD20EE080E048
:1007C000C0F80080FFF7A6FD074604E0FFF7A2FD92
:1007D000C01B022875D8686A8007F7D420784007C4
:1007E00060D5E8690027C00008D4E86940F080506F
:1007F000E861E869012700F08050009055480168E1
:10080000C90513D40168834641F480710160FFF784
:1008100081FD824606E000BFFFF77CFDA0EB0A00E9
:1008200064284ED8DBF80000C005F5D5E068012843
:100830000AD008B1052813D0286A20F001002862E8
:10084000286A20F0040002E0286A40F001002862D3
:10085000E06841F2883B98B1FFF75CFD82460BE00F
:10086000286A40F004002862EEE700BFFFF752FD5F
:10087000A0EB0A0159455AD8286A8007F6D50CE042
:10088000FFF748FD824605E0FFF744FDA0EB0A01B3
:1008900059454CD8286A8007F6D41FB1E86920F082
:1008A0008050E861E06988B36968C1F38101022979
:1008B00045D00228C6F8608004D0FFF72BFD04461F
:1008C00038E034E0FFF726FD074604E0FFF722FD9D
:1008D000C01B02282BD828688001F7D4206AB0F505
:1008E000803F05D16868A16820F400300843686043
:1008F000D4E908010843696821F474110843686069
:10090000C6F86090FFF706FD044606E015E000BF5C
:10091000FFF700FD001B022809D828688001F7D5E1
:100920000BE000BFFFF7F6FC001B022802D90320F2
:10093000BDE8F88F28688001F4D40020F8E7012092
:10094000F6E70000001002400000424280044242EC
:100950000C000020007000404FF0E02104280869DE
:1009600003D020F004000861704740F00400FAE76B
:10097000704710B5401EB0F1807F01D3012010BD3B
:100980004FF0E02460610F21601700F00DF80020A7
:10099000A06107202061002010BD10B5FFF7E8FF1F
:1009A00010BDFEE7FEE770470907090E002806DACA
:1009B00000F00F0000F1E02080F8141D704700F1F6
:1009C000E02080F8001470477047704710B5FFF7BB
:1009D000A7FCBDE81040FFF7E0BF30B58FB00120A5
:1009E0004FF4A02100248DE8130004900225000498
:1009F000CDE907504FF4E01009906846FFF72AFE52
:100A000000B1FEE70F20CDE90A054FF48060CDE983
:100A10000C4002210AA80E94FFF736FD00B1FEE754
:100A2000FFF7DCFD4FF47A71B0FBF1F0FFF7A1FFA7
:100A30000420FFF791FF00221146501EFFF7F2FC41
:100A40000FB030BD0D48016841F0010101604168FF
:100A50000B4A1140416001680A4A11400160016877
:100A600021F480210160416821F4FE0141604FF4CE
:100A70001F0181600449C0030860704700100240F4
:100A80000000FFF8FFFFF6FE08ED00E0FEE702E0E1
:100A900008C8121F08C1002AFAD170477047002009
:100AA00001E001C1121F002AFBD1704786B0FFF799
:100AB0003FFCFFF792FF1148816941F020018161FD
:100AC000816901F020010491816941F00401816193
:100AD00080690B4C00F0040004900122082120469C
:100AE000FFF712FC08200121CDE900010220CDE929
:100AF000021069462046FFF729FBFEE7001002407E
:100B00000008014000000000000000000102030492
:100B100006070809340B0008000000201000000040
:100B20008E0A0008440B000810000020000400009A
:100B30009E0A0008010000001000000000000000F4
:040B400000A24A04C1
:04000005080000ED02
:00000001FF
