:020000040800F2
:10000000D0050020853B00086D3A00086F3A0008D3
:10001000713A0008733A0008753A000800000000C1
:10002000000000000000000000000000773A000817
:10003000793A0008000000007B3A00087D3A000889
:10004000A93B0008AD3B0008B13B0008B53B0008E8
:10005000B93B0008BD3B0008C13B0008C53B000898
:10006000C93B0008CD3B0008D13B0008D53B000848
:10007000D93B0008DD3B0008E13B0008E53B0008F8
:10008000E93B0008ED3B0008F13B0008F53B0008A8
:10009000F93B0008FD3B0008013C0008053C000856
:1000A000093C00080D3C0008113C0008153C000804
:1000B000193C00081D3C0008213C0008253C0008B4
:1000C000293C00082D3C0008313C0008353C000864
:1000D000393C00088B3A00083D3C0008913A000882
:1000E000413C0008453C0008493C00084D3C0008E4
:1000F000513C0008553C0008593C00085D3C000894
:10010000613C0008653C0008693C00086D3C000843
:10011000713C0008753C0008793C00087D3C0008F3
:10012000813C0008853C0008893C00088D3C0008A3
:10013000913C0008953C0008993C00089D3C000853
:10014000A13C0008A53C0008A93C0008AD3C000803
:10015000B13C0008B53C0008B93C0008BD3C0008B3
:10016000C13C0008C53C0008C93C0008CD3C000863
:10017000D13C0008D53C0008D93C00080000000034
:10018000DD3C0008E13C0008E53C0008E93C0008D3
:10019000ED3C0008F13C0008F53C0008F93C000883
:1001A000FD3C0008013D0008053D0008093D000830
:1001B0000D3D0008113D0008153D0008193D0008DF
:1001C0001D3D0008213D00082DE9F04F82460FF249
:1001D0005860A5B015461E46D0E90023CDE912238C
:1001E00003AF00207960B8620DF1500900E045448A
:1001F0000020ADF8020012AB4FF0FF3229460DF19E
:10020000020001F0AEF88046B8F1010F08DA287854
:10021000B0F1010868EB08086FEA08004FEAD078EF
:10022000BDF8020025280CBFA8F1010BC346BBF1A5
:10023000010F0EDB2C4614F8011B7868D04700280C
:10024000786000F0F880B86A401CBBF1010BB8621E
:10025000F1D1BDF80200252807D10020386178616E
:10026000B861F8613862786205E00028BFD1B86AE9
:10027000E2E240F0010015F8011F2029F9D02329FE
:100280000DD02B2904D02D2906D030290AD00CE01E
:1002900040F0020080B2EEE740F00400FAE740F0E0
:1002A0000800F7E740F01000F4E72A290ED1316882
:1002B000316051F8042B3160002A3A6304D5514271
:1002C00040F00400396380B26D1C13E000213963F3
:1002D0000BE0396B6FF00043994205D001EB8103CD
:1002E00002EB4301303939636D1C2A78A2F13001E9
:1002F0000A29EED329782E2903D04FF0FF31F96275
:100300001FE015F8011F2A2907D1316831606D1CE3
:1003100051F8042B3160FA6213E00021F9620BE01E
:10032000F96A6FF00043994205D001EB810302EBBB
:1003300043013039F9626D1C2A78A2F130010A2993
:10034000EED3B8860FF2E840297801F01BF808B127
:1003500015F8010B8DF842009DF84200682802BF95
:1003600029786829622005D06C2804BF28786C2879
:1003700003D171208DF842006D1C14A8F86015F8A7
:10038000014BB4F125002AD01C3800F0DB80001F9F
:10039000022840F2D780133800F0FB80093800F0C3
:1003A000D180801E00F06581401E00F03C81401E1F
:1003B000022840F2C780001F00F03581401F00F086
:1003C0009280401E00F0E580401E37D0C01E0BD04A
:1003D000801E00F0DE80C01E00F0DB806CE1252076
:1003E0008DF85000012070E19DF842006C283068C3
:1003F000306016D050F8048B3060C7F80880FC6A73
:10040000002C04D5404600F0C9FF044607E0224610
:100410000021404600F0DEFF08B1A0EB08047C613B
:1004200054E150F8042B306002A9504600F03EFA27
:10043000002840F14B814FF0FF30FDE13168316021
:10044000002251F8040B31604FF03C0E0021CDE941
:10045000020114A8B860DDE902019142FC6808BFFE
:10046000904201D1FA6AC2B100F00F033033DBB21F
:100470003A2BA8BF2733AEF101020009A3549646D8
:1004800040EA017009090022914208BF904204D05D
:10049000BA6804EB0E039A42E6D304EB0E01B9608E
:1004A000CEF13C00F96A7861884207DA081AF861EF
:1004B0004FF6EF71B88E0840B88607E1002940F189
:1004C000058197F8341001F01401102940F0FE80E6
:1004D000396B3A69891AFA69891A081A0128C0F22F
:1004E000F580F861F2E09DF8420062281AD0682891
:1004F00006D06A280CD06C281CD0712808D019E0CE
:100500003068306050F8041B3060B86A0880DDE065
:100510003068306050F8042B3060B86AC117C2E907
:100520000001D3E03068306050F8041B3060B86AD6
:100530000870CBE03068306050F8041B3060B86A57
:100540000860C3E03068C01D20F007023260D2E9C5
:10055000000108323260CDE90201002902D5386974
:100560002D2109E0B88E810702D538692B2103E0DF
:10057000C00705D53869202109F80010401C3861F2
:1005800014A839690844B860214602A800F09AFB13
:100590009CE09DF842006C280DD0712818BF6A2895
:1005A00009D13068C01D20F007023260D2E9000195
:1005B0000832326005E03168316051F8040B316077
:1005C0000021CDE902019DF84200682803D1DDE950
:1005D000020180B20BE0622803D1DDE90201C0B262
:1005E00005E0742818BF7A2804D1DDE90201002152
:1005F000CDE9020197F83400000731D5DDE9022387
:100600000020834208BF82422AD044F0200078288C
:1006100026D13869302109F80010401C411C39618D
:1006200009F800401CE09DF84200314600F007F94F
:10063000CDE90201DDE9022300218B4202DA3869AB
:100640002D2109E0B88E810702D538692B2103E0FE
:10065000C00705D53869202109F80010401C386111
:1006600014A839690844B860214602A800F0A4FA29
:100670002CE09DF842006C2809D0012038613068D8
:10068000306050F8041B30608DF850101EE0306868
:10069000306001AA50F8041B3060ADF8041000204F
:1006A000ADF8060002A94FF0FF30F862504600F0A6
:1006B000FDF800280AD5BEE625208DF8500001205F
:1006C00038611CB189F8014002203861386B396902
:1006D000401AF969401A7969401A396A401AB969A9
:1006E000401A796AA0EB010897F83400400711D44A
:1006F0002020B8F1010F8DF800000BDB44460123E8
:100700006A4602A9504600F007FE00287FF493AE27
:10071000641EF4D1D7F810B0BBF1000F14AC0DD0AB
:1007200014F8011B7868D047002878603FF483AE46
:10073000B86A401CBBF1010BB862F1D130208DF8D2
:100740000000FC69012C0ADB01236A4602A950461D
:1007500000F0E2FD00287FF46EAE641EF4D1D7F8FD
:1007600014B0BC68BBF1000F0DD014F8011B786801
:10077000D047002878603FF45EAEB86A401CBBF1F9
:10078000010BB862F1D130208DF800003C6A012CD9
:100790000ADB01236A4602A9504600F0BDFD00288D
:1007A0007FF449AE641EF4D1B8687969D7F818B0FF
:1007B0004418BBF1000F0DD014F8011B7868D04726
:1007C000002878603FF437AEB86A401CBBF1010BDB
:1007D000B862F1D130208DF800007C6A012C0ADB70
:1007E00001236A4602A9504600F096FD00287FF4D6
:1007F00022AE641EF4D197F8340040077FF5F8ACC0
:100800002020B8F1010F8DF80000FFF6F1AC0123B4
:100810006A4602A9504600F07FFD00287FF40BAE27
:10082000B8F10108F3D1E3E400000000000000008B
:10083000686A6C747A4C000025B0BDE8F08F6228BD
:1008400026D068281DD06A2808D06C2827D07128A7
:1008500004D0742823D07A280CD020E00868C01D6A
:1008600020F007000860D0E900230830086019462E
:10087000104670470A680A6052F8040B0A600021AB
:1008800070470A680A6052F8040B0A6000B20BE075
:100890000A680A6052F8040B0A6040B204E00A6871
:1008A0000A6052F8040B0A60C11770472DE9F44F33
:1008B0000D4694B0D5F830A0BAF1000F804648BF7D
:1008C0006FF0004A00F0B2FD696B401801900FF61E
:1008D0007820D0E90023CDE9022395F838004007BD
:1008E00002D40198412805D240200DF11009019051
:1008F000002609E000F0A0FD5FEA0009F8D14FF002
:10090000FF3056E1AAEB040ABAF1010FC0F2CE8023
:100910001498018802AA0DF1010000F0E5FD0028FD
:10092000044600F1DE801498008810B9641E00F1BE
:10093000D880A245C0F2BA80686901992218914214
:1009400080F0A2806E634042296A401AA969401A69
:10095000696A401AE969401AA96A461A95F8380086
:10096000400710D42020012E8DF800000BDB374605
:1009700001236A462946404600F0CEFC002840F09C
:10098000B0807F1EF4D1D5F814B0BBF1000F4F46F4
:100990000DD017F8011BA868C0470028A86000F018
:1009A000A080E86A401CBBF1010BE862F1D1302065
:1009B0008DF800002F6A012F0ADB01236A462946C1
:1009C000404600F0A9FC002840F08B807F1EF4D147
:1009D000D5F818B0EF68BBF1000F0CD017F8011B69
:1009E000A868C0470028A8607BD0E86A401CBBF11B
:1009F000010BE862F2D130208DF800006F6A012F00
:100A000009DB01236A462946404600F085FC0028A0
:100A100067D17F1EF5D1E868A969D5F81CB04718E1
:100A2000BBF1000F0CD017F8011BA868C0470028C5
:100A3000A86056D0E86A401CBBF1010BE862F2D115
:100A400030208DF80000AF6A012F09DB01236A46D0
:100A50002946404600F060FC002842D17F1EF5D1B7
:100A600095F8380040070DD52020012E8DF80000A4
:100A700008DB01236A462946404600F04DFC80BB56
:100A8000761EF6D100266E61224668690DF10101DD
:100A9000484400F037FD6869201868611498801C8C
:100AA0001490801E008800287FF42CAF686B696961
:100AB000401A296A401AA969401A696A401AE96904
:100AC000401AA96AA0EB010A95F83800400710D433
:100AD000BAF1010F0DDB5446A8682021C047A86079
:100AE00010B94FF0FF365DE0E86A401C641EE86212
:100AF000F2D16B694A462946404600F00DFC0028B9
:100B0000EFD12C6A012C0ADBA8683021C0470028ED
:100B1000A860E6D0E86A401C641EE862F4D1AB69C4
:100B2000EA682946404600F0F7FB0028D9D16C6AF4
:100B3000012C0ADBA8683021C0470028A860D0D06B
:100B4000E86A401C641EE862F4D1E868A969EB69B0
:100B500042182946404600F0DFFB0028C1D1AC6AAC
:100B6000012C0ADBA8683021C0470028A860B8D053
:100B7000E86A401C641EE862F4D195F8380040072A
:100B80000ED5BAF1010F0BDBA8682021C047002861
:100B9000A860A6D0E86A401CBAF1010AE862F3D165
:100BA0006E616E6304A881451CBF484600F0E6FCF8
:100BB000304615B0BDE8F08F2DE9F34305460846F1
:100BC0002F696F2808BF082405D041F0200178293B
:100BD00014BF0A2410243C26D5E90023642818BF3A
:100BE00069289046994606D100218B4203DAD8F154
:100BF000000869EB49090020814508BF80450CD1F8
:100C0000286B50B9082C38D195F83800000734D536
:100C100030203B2687F83B002FE0701E00900646F0
:100C2000404649462246E31700F0E8FC02F1300056
:100C3000C0B23A2803DB9DF8041051390818B855A2
:100C4000494640462246E31700F0D8FC80468946D4
:100C50000020814508BF804503D0E868B919884263
:100C6000DBD3082C09D195F83800000705D5B85D0D
:100C7000302802D0761E3020B855B919E960C6F187
:100C80003C00296BA861884208DA081A28624FF6EE
:100C9000EF71288F08402887BDE8F38300290ED51F
:100CA00095F8381001F01401102908D1696B6A69B0
:100CB000891A2A6A891A0E1A012EA8BF2E62BDE867
:100CC000F38300002DE9F24F04468EB0D4E9000111
:100CD000CDE9020104AF9DF8380040F0200BBBF1D4
:100CE000610F0AD0206B002848BF062004D408BF3B
:100CF000BBF1670F01D1012020636168C1F30A5085
:100D000040F2FF7290421CD1080304BF2068002803
:100D100009D10320A0619DF8380061381A2835D325
:100D20000FF2386108E00320A0619DF838006138B7
:100D30001A2828D30FF21C61E068032200F0E2FBBE
:100D4000BDE1012815DA204600F0CFFC012810DBB8
:100D500000250020BBF1610F1FD1E16830220A702D
:100D60008A1CE2609DF83820612A0CBF7822582244
:100D70000FE0626840F2FE3161F31E52451A626074
:100D80004FF0FF30E6E70FF2C851D5E70FF2C85138
:100D9000D2E74A706169891C616110B9002600259B
:100DA00084E1BBF1610F40F09880206BD4E900AB87
:100DB00000284CBF2126461CDDE902010022002349
:100DC00000F0B6FC36B23ABF8BF00040CDE902A08D
:100DD000CDE902AB06F101082D1FB8F1010F8DF826
:100DE00010200DF1110736DBDDE90201002200239E
:100DF00000F0B6FC2FD21C2102A800F0C9FCDDE9EE
:100E0000020100F04FFDA8F10708B8F1010F81467B
:100E100009DB00F073FD02460B46DDE9020100F03C
:100E200085FDCDE90201F81D072105E009F00F025B
:100E300000F8012D4FEA2919B9F1010F01DB491E14
:100E4000F4D5491E5CBF002200F8012DF9D5C71D5D
:100E5000B8F1010FC8DA0DF11100391AB142B8BF6B
:100E60000E4636B230000DF111072FD4884206DA53
:100E700004A9014449780829A8BF0F2100DA0021FC
:100E800004AA024400E0761E12F80139401E8B428B
:100E9000F9D00F2904D104A901444A78521C4A70A0
:100EA000002802D504AF761C2D1D36B2701E0DD45D
:100EB00039180A783032D2B23A2A03DB9DF838303A
:100EC0003A3B9A18401E01F80129F2D5206B002800
:100ED00040F1EC80701E2063E8E0DDE902010022B1
:100EE000002300F025FC3CBF81F00041CDE9020168
:100EF0002DB247F2975068434B49DFF8309190FB91
:100F0000F1F52DB2C5F1070ABAF1010F90461CDBCD
:100F1000DDE902675FEACA7007D542464B463046B4
:100F2000394600F0C3FD06460F4640464946424654
:100F30004B464FEA6A0A00F0B9FDBAF1000F80464D
:100F40008946E7D1CDE9026724E0CAF1000A00260C
:100F5000374F14E05FEACA7007D542464B46304629
:100F6000394600F0A3FD06460F4640464946424634
:100F70004B4600F09BFD4FEA6A0A80468946BAF16B
:100F8000000FE7D1DDE9020132463B4600F060FE8A
:100F9000CDE90201BBF1660F216BDFF898900CBF21
:100FA00005F10A0006204618142EA8BF132630208B
:100FB0008DF810000DF11107012E3DDBDDE9020176
:100FC00000F086FC07F1080104220A23B0FBF3F3CA
:100FD00003EB8307A0EB4700303001F8010C0A2037
:100FE000B3FBF0F000EB8007A3EB47033033521E56
:100FF00001F8023DE9D1083E012E01F10807DBDBD3
:10100000DDE9020100F064FC00F082FC02460B46C0
:10101000DDE9020100F08AFC00224B4600F046FDAB
:10102000CDE90201CAE700BFA0860100000024400C
:101030000000F03F84D797410DF11100381A0DF1EF
:10104000110702E0401E6D1E7F1C39783029F9D04F
:10105000BBF1660F08BF691C04D0BBF1650F0CBF64
:1010600001210021226B8E1836B2B042B8BF06466D
:1010700036B231001AD4814204DA785C3528A8BF30
:10108000392000DA30207A18521E00E0761E12F85D
:101090000139491E8342F9D0392802D1785C401CBD
:1010A0007854002902D57F1E761C6D1C2DB29DF848
:1010B0003810009533B23A46204600F003F80FB0DE
:1010C000BDE8F08F2DE9F04786B006468A46904687
:1010D0001D4600F006FF012D406A376B90F8009026
:1010E00002DA01250FF278284AF02000BDF93840D5
:1010F000662808BF641C12D0672878D114F1040F49
:101100007BDBBC4279DA96F83800641C000702D415
:10111000BD42B8BF2F4624B23F1B48BF002724B2B0
:10112000F068B169012C23DA4A1C30234354012FA3
:1011300003DA96F83800000703D5F06800F802904B
:10114000521CE742B8BF7C4224B260427062E71989
:10115000AF42B261B8BF3D46F068B3692DB2F561E8
:101160002A464146184400F0CDF9781BB062BCE035
:1011700022469542084416DA2A46414600F0C2F952
:10118000B1696918601B012FB161706203DA96F8CA
:101190003800000705D5F06800F80190F069401CA0
:1011A000F061B762A1E0414600F0ACF9B0692018E7
:1011B0002D1B012F03DA96F83810090703D5F168C3
:1011C00001F80090401CB0612DB2AF42B8BF3D465F
:1011D000F068B3692DB22A4608EB0401184400F008
:1011E00091F9B0692818B061781B70627DE0BAF19E
:1011F000610F14D14FF0700A16E0BD4204DA96F880
:101200003810090758BF2F467F1E48BF0027BAF184
:10121000670F14BF4FF0450A4FF0650A04E0BAF1BA
:10122000410F08BF4FF0500AB169F368481CB06124
:10123000012F18F8012B5A5403DA96F838100907D1
:1012400017D5F168431CB36101F80090012F10DB42
:101250006D1E2DB2AF42B8BF3D46F0682DB22A4692
:101260004146184400F04EF9B0692818B061781B67
:101270007062F068B1690144200081F800A004D4D4
:101280002B20487001F1020804E02D224A7001F180
:1012900002086442002502AF08E00A22684600F016
:1012A00039FE019807F8010B6D1C009C21B2012941
:1012B000F3DA022D06DA4AF02000652804BF302058
:1012C00008F8010B4DB9302008F8010B07E06D1E3E
:1012D00002A8405D303008F8010B012DF7DAF06804
:1012E000B1690844A8EB0000F06196F8380000F0FE
:1012F000140010280DD17069B1690818716A0818B6
:10130000F1690818B16A0818716B8842BCBF081AE5
:10131000306206B0BDE8F087F8B504460D461646C3
:101320001F46002077B116F8011BA868A047A860E7
:1013300030B1E86A401CE86200207F1EF3D1F2BDA4
:101340004FF0FF30F2BD0000000000000000000080
:101350006E616E004E414E00696E6600494E460059
:101360003000F8B504460D4616461F4600F0DAFD7B
:101370003B4632462946204601B0BDE8F04000F029
:10138000E8BD00000278C9B28A421AB11CBF10F849
:10139000012FF9E718BF00207047000000F101039A
:1013A000810704D010F8011B89B18107FAD10268C6
:1013B000B2F10131914311F0803F04BF50F8042F86
:1013C000F6E710F8011B11B110F8011BFBE7C01A7A
:1013D00070470000C9B2830706D0521E22D310F80E
:1013E000013B9942F7D11FE0083A13D302F10402FE
:1013F00041EA012141EA014150F8043B121F21BF9B
:101400004B40A3F1013C2CEA030C1CF0803FF3D0CD
:10141000C9B2001F083210F8013B521E28BF91EAE2
:10142000030FF8D818BF0120401E704780B500F0A8
:1014300079FD012002BD000070B5054605F10F00E1
:10144000C408AFF30080E400A54232D2082C04D2D5
:10145000082402E0083000F091F8224802681100E8
:101460000CD1011D0A6802B31368A34238BF111DD5
:10147000F8D310E01D68A5420DD2191D0B68002B92
:10148000F8D11268011D00E0191D0B6893420CD0C1
:101490001D68A542F8D361B10D682A68A2F108035E
:1014A000A3420AD26A680A600FE000F075FD0028C6
:1014B000D0D1AFF30080002070BD2B190B60121B40
:1014C0006E685E600B681A602C60096800291DBF99
:1014D0004A68002A091D00210160AFF3008005F170
:1014E000080070BD9410002070B504460D461646E5
:1014F00000F018FD324629462046BDE8704000F055
:101500001BBD000062B38B0708D0521E11F8013BCF
:1015100000F8013B00F024808B07F6D1830740F0F0
:10152000208000BF103A07D330B4B1E83810103A29
:10153000A0E83810F9D230BC530724BFB1E8081036
:10154000A0E8081044BF51F8043B40F8043BD20720
:1015500024BF31F8022B20F8022B44BF0B78037014
:101560007047083A07D3B1E80810083A40F8043B3E
:1015700040F804CBF7D25307E4E7000000B9704706
:1015800038B5A0F108042068082833D310F0070FFD
:1015900030D1AFF300801848416809B18C4203D2C2
:1015A0006160446017E019464B680BB1A342FAD35F
:1015B0000B68CD18AC421BD3A54204D12268D218C7
:1015C0000A600C4607E04A681AB1236823449A422D
:1015D0000ED362604C60616851B12268A3188B42DF
:1015E00006D10023036008688018206048686060A6
:1015F000AFF3008031BD0000941000201B4213D1D6
:10160000094236D12AB18446B0FBF2F002FB10C287
:10161000704700F0D7BCFCD30022002370470B00BA
:101620000200002100207047904271EB030CF6D3BA
:1016300070B5B1FA81F4B3FA83F52C1BA340C4F161
:10164000200532FA05F63343A2405FF00046E6403B
:1016500002E05B085FEA3202841A71EB030524BFE3
:10166000204629467641F4D302000B0030000021C9
:1016700070BD012ACFD970B5140C20D0B1FA81F415
:10168000B2FA82F5C4F120046419B4F12006D6D36D
:10169000B2405FF00044F440002502E052085FEAE7
:1016A0003303C61A71EB020E24BF30467146644103
:1016B0006D41F3D302000B002000290070BD0C46E1
:1016C000B1FBF2F102FB11452D0445EA1045B5FBD3
:1016D000F2F402FB145580B240EA0545B5FBF2F086
:1016E00002FB105240EA044070BD30B4436803F07E
:1016F00000420121C3F313034360002B04BF0368BE
:10170000002B08D10DE00368DD0F45EA4404446076
:101710005B000360491E4468E302F4D5C4F313037D
:10172000436043681A434260084630BC704700007B
:101730004FF4001C1CEB410F94BF1CEB430F09E05E
:1017400041EA030C50EA4C0C52EA0C0C03D29942C9
:1017500008BF9042704714BF8B428242704700001E
:101760004FF4001C1CEB410F94BF1CEB430F09E02E
:1017700041EA030C50EA4C0C52EA0C0C03D28B42A7
:1017800008BF8242704714BF9942904270470000E0
:1017900070B504460D466068C0F30A5040F2FF7110
:1017A000884207D16068000304BF2068002817D072
:1017B000022070BD20B92046FFF797FF012866DAA6
:1017C000012D0FDB40F2FF71091A8D420AD36068C8
:1017D00000284CBF9FED2F0B9FED300B84ED000BCD
:1017E000012070BD4142A942616806DA6FF31E51C3
:1017F000401941EA0050606040E0401E63684519AE
:10180000012205F1350062F31F53352801F0004134
:10181000636003D361600020206070BD002015F17B
:101820001F0F04DA206823600022203562606A42BC
:1018300012D0401E25688041C2F12003C0439D4064
:1018400045EAD07025686668D54006FA03F32B4355
:1018500023606368D340636062680A43B0F1004F5D
:10186000626003D80DD12078C0070AD52068401CDB
:101870002060206828B96068401C60604FF0FF302D
:1018800070BD6068884204BF20680028F6D100203F
:1018900070BD00BF000000000000F0FF000000006D
:1018A0000000F07FF446400D40EAC120490006D216
:1018B00000F014F8004248BF6FF00040604700F0AD
:1018C0000DF84FF0004188428CBF08464042604707
:1018D000400D40EAC120490080F00D8040F00040FA
:1018E000490DA1F58061491C05D4D1F11F0154BFF8
:1018F000C840C01770474FF000007047010040F12A
:101900000980F446404200F005F851F0004160477C
:10191000010000BF09D0B0FA80F18840C91CC1F5B0
:101920008461090501EBD02140057047F0B44FF008
:10193000004591EA030F44BF6B4000F045BB00BF78
:10194000841A71EB030604D26E40001BB1411219D8
:1019500073414FF4001C1CEB410F34BF7CEB43067A
:1019600084E00C0DA4EB1356362E7DDC012E43DCF7
:1019700045EAC32343EA525312BFD20292025B08E4
:10198000240545EAC12141EA5051D2EBC0209941DA
:1019900025D407D1B0FA80F610FA06F164D0002001
:1019A000203608E0B1FA81F6B140C6F1200220FAF3
:1019B00002F21143B0404FEAF474B4EB465434F0F1
:1019C00001064FEA74040AD8D6F50016760D04F025
:1019D0000044F04061FA06F25040F1404840C00A2D
:1019E00040EA415021F0004128BF5FEA500550F124
:1019F000000044EBD12137E045EAC323DB0A45EA86
:101A0000C121C90AB6F120050EDD42EA0242120CDC
:101A1000C5F1200603FA06F6EB4042EA06056D42E0
:101A2000984161F100010DE062FA06F5F24055407F
:101A300063FA06FC82EA0C02F3405A406D42904180
:101A400061EB030111F4801F05D1641E620502D011
:101A50006D004041494121F48011430875F1004374
:101A600050F1000041EB0451F0BC70471CEB410FFA
:101A700015D223F0004352EA43060BD04FEA4C0C38
:101A8000BCEB410F04D80C0D661E342EB7DDEBE71E
:101A9000801A994150EA410608BF0021E4E708BFD7
:101AA0001CEB430F28BF6FF00001DDE7B0B581EA02
:101AB000030C0CF0004C40F2FF7515EA11541DBFE9
:101AC00015EA1357AC42AF4239E0E41923EA455313
:101AD00043F48013C90241F0004141EA505EC7025D
:101AE0001100A7FB020200284FF00000EEFB0120CE
:101AF0004FF00001E3FB072118BF42F0010240183C
:101B000000214941E3FB0E01A4F580640F0302D2DA
:101B100052004041494154F101046CDD470872F123
:101B2000004250F1000051EB0451A1F580115CBF5F
:101B300041EA0C01B0BD4CEA05510020B0BD05EAF8
:101B40001357AC4214BFAF4241E050EA410E1CBFF4
:101B500052EA430E02E061460020B0BD24423C44FC
:101B60001BD15FEA070EF6D0090302BF0146002031
:101B7000AEF1140EB1FA81F7AEEB070401FA07FEDD
:101B80000C37C7F1200100FA07F7C8404EEA000EF3
:101B900023EA455343F48013A2E733F00043B3FA3A
:101BA00083F704BFB2FA82FE77440B3FE41BB7F120
:101BB000200E2FBF02FA0EF3BB40C7F1200E22FA0F
:101BC0000EFE38BF43EA0E03BA40641C82E750EAB7
:101BD000410E14BF52EA430E6FF000014FF400179C
:101BE00017EB430F8ABF194617EB410FB5E74CEAD5
:101BF00005510020B0BDD4F10104B4F120070FDA83
:101C0000C4F12007520828BF42F0010210FA07F57C
:101C100001FA07F7E1BF2A43E0403843E1400FE013
:101C2000352C98DCC7F1200452EA400220FA07F272
:101C300018BF42F0010231FA07F0A1400A43002127
:101C400072F1004250F1000051EB0C01B0BD0000F8
:101C50002DE9F04140F2FF7581EA030C0CF0004CD5
:101C600015EA11541DBF15EA1357AC42AF42E9E023
:101C7000BC41C1F31301C3F31303801A994143F428
:101C8000801304D2641E4000494180185941C902A2
:101C900041EA5051B1FBF3F603FB1611A2FB0675A6
:101CA000D7EBC020A94102D2761E80185941C90243
:101CB00041EA5051B1FBF3FE03FB1E11A2FB0E756E
:101CC000D7EBC020A94103D2AEF1010E80185941D3
:101CD000890241EA9051760546EA8E2EB1FBF3F671
:101CE00003FB1611A2FB0675D7EB8020A94102D297
:101CF000761E80185941C90241EA50514EEA060E3B
:101D0000B1FBF3F603FB1611A2FB0675D7EBC0205F
:101D1000A94102D2761E80185941C90241EA5051A8
:101D2000B1FBF3F703FB1711A2FB0735D3EBC02080
:101D3000A94167F100070CBF004247F0010766F3B5
:101D4000D5274FEA1E31B80814F5806414DDBD07AD
:101D500075F1004250EB0E5051EB045111F5801F0C
:101D60005CBF41EA0C01BDE8F0814CF07F6141F0BD
:101D7000E0410020BDE8F081BD076D0840EA0E504B
:101D800041F48011D4F10104B4F120060ADAC4F15F
:101D900020060200E04001FA06F3E1401843B24099
:101DA00015430EE0342C14DCC6F1200445EA40054E
:101DB0006D0820FA06F2154321FA06F0A1400D4302
:101DC000002175F1004250F1000051EB0C01BDE81B
:101DD000F08100205FEA0C01BDE8F081CFB99218D4
:101DE0005B41B3FA83F704BFB2FA82F6BF190B3F27
:101DF000B7F120062FBF02FA06F3BB40C7F1200659
:101E000022FA06F638BF3343BA401CB1E419641E07
:101E10002FE77F4231F00041B1FA81F404BFB0FAFC
:101E200080F6A4190B3CB4F120062FBF00FA06F18E
:101E3000A140C4F1200620FA06F638BF3143A04085
:101E40003C1B16E7AC421ABF05EA1357AF4214E039
:101E500050EA41061CBF52EA4306BFE750EA410779
:101E6000304661461CBF41EA0551BDE8F08152EAA7
:101E7000430C08BFC143BDE8F08100204FF40016B9
:101E800016EB410F98BF16EB430F08BF16EB410F3F
:101E900024BFC14305E016EB430F0CBF61464CEA7B
:101EA0000551BDE8F081000080B5134800F0F6F858
:101EB0000FF24C020FF244010160426241600FF2E6
:101EC0004402826381600FF24402C160016141619A
:101ED00081618162C16201634163C26301644164E3
:101EE00001BD10B5044800F0D9F80446206808B9CF
:101EF000FFF7DAFF204610BDD000002000000000F0
:101F00002E00000066616C736500000074727565D8
:101F10000000000091FBF2F303FB1211C0E9003155
:101F20007047000080B5DFF80C0000F0B7F880695A
:101F300002BD00006001002030B430B90FF248004B
:101F4000D0E90045C2E900451BE00170012030BC2A
:101F5000704730B431B90FF23800D0E90045C3E919
:101F600000450EE01AB930BC6FF00100704708B1AF
:101F70000A7802800978481E804130BCC043C00FF7
:101F80007047002030BC70470000000000000000D7
:101F900000000000000000000749086808B10020A8
:101FA00070470648C008C00008600549C908C90054
:101FB000091A0160704700BFA0100020D70500205B
:101FC000D007002070470000841A71EB030603D28B
:101FD000001BB141121973414FF4001C1CEB410F5F
:101FE00034BF7CEB430443E00C0DA4EB1356352EB9
:101FF00050DC45EAC323DB0A45EAC121C912B6F128
:1020000020050DDD63FA05F6EB4086EA0305124272
:1020100018BF45F00105C01851F100010CD213E0C2
:1020200062FA06F5F2405540F3415A40B340F3409E
:102030005A408018594107D349085FEA30005FEAE7
:10204000350528BF45F0010501F58011420875F1FD
:10205000004250F1000041EB0451F0BC4FF4001C71
:102060001CEB410F38BF70470020090D0905704770
:102070001CEB410F10D252EA43060BD0BCEB410FD0
:1020800005D80C0DAB43661E342EB5DD02E0AB4324
:1020900080185941F0BC7047F0BC70477047000091
:1020A00038B5040009D004F16805687808B900F073
:1020B00033F800F027F8012801D1012032BD606A11
:1020C00008B100F014F800F00AF821F02A01FFE747
:1020D000816000F010F8BDE8324000F082BB20685B
:1020E000416821F490414160206881687047204632
:1020F00000F014BB01602068016841F0010101603B
:10210000204670472420687020680168490849000B
:102110000160204600F0F0B92870204600F0C3BBF3
:102120002DE9F843044604F15005687E88461646BA
:102130001F46202841D1B8F1000F01D0300001D155
:1021400001203BE0287E012837D00120287600209E
:10215000E8612120687600F0F9FB2E8081466E80D0
:1021600001E0216888626888C0B168884B46002217
:102170008021401E68802046009700F03DF9A8B9F4
:10218000A068B0F5805F04BF2069002812BF18F86E
:10219000010B38F8020BC0F30800E2E700974B464A
:1021A00000224021204600F027F908B1032005E075
:1021B000202068760020287600E00220BDE8F28327
:1021C00010B500F150035C7E202C17D109B114002A
:1021D00001D1012010BD1C7E012C0FD001241C76E2
:1021E000C16400211A805A80D961212159760021C9
:1021F00019760068016841F0800140E0022010BDBE
:1022000010B500F158039C7C202C36D109B1140084
:1022100001D1012010BD1C7C012C2ED001241C7486
:1022200041651A805A808168FF22B1F5805F04D130
:10223000016929B940F2FF110EE029B9016909B914
:102240009A800AE07F2107E0B1F1805F05D1016942
:1022500000290CBF7F213F21998000215961222153
:1022600099740021197401688A6842F001028A6039
:102270000068016841F4907101E0022010BD016026
:10228000002010BD70B5044604F164052068C169E2
:102290000268836811F00F0607D18B066DD593068F
:1022A0006BD52046BDE87040DEE0DE0702D412F4B4
:1022B000907F62D0CE0707D5D60505D501260662E8
:1022C000A86840F00100A860880708D5D80706D59F
:1022D000266802203062A86840F00400A860480721
:1022E00008D5D80706D5266804203062A86840F0D3
:1022F0000200A86008070AD5900601D4D80706D5C1
:10230000236808201862A86840F00800A860A86840
:10231000002870D0880604D5900644BF204600F0FF
:10232000A3F8A868000703D42068806840061ED57B
:10233000204600F0D3F820688168490612D58168EC
:1023400021F040018160286860B10FF20D11016534
:10235000286800F001FB00284DD02868016DBDE819
:10236000704008472046BDE8704000F007BB20469B
:1023700000F004FB0020A86070BD0B062CD51306EE
:102380002AD56979212936D1B4F8521049B90168A2
:1023900021F0800101602068016841F04001016086
:1023A00070BDA168B1F5805F04BF2169002908D123
:1023B000E16C0988C1F308018162E06C801CE06473
:1023C00004E0E16C4A1CE26409788162B4F85200CE
:1023D000401EA4F8520070BD49060CD551060AD51E
:1023E000016821F040010160202068712046BDE8AD
:1023F000704000F0C4BA70BD2DE9F04104460D46AE
:1024000090461F46069E2068C0692840A8420CBF1F
:102410000120002040451BD116F1010FF3D026B159
:1024200000F094FAC01BB042EDD32068016821F49B
:10243000D07101602068816849084900816004F119
:10244000680020214170817000210170032000E0AC
:102450000020BDE8F0810000806B002200F15201F5
:102460000A810A8000F08ABA10B500F15A014A8840
:102470000B7C222B2BD18368B3F5805F04BF0369EB
:10248000002B08D103685B6A1A40436D1A80426DC5
:10249000921C426506E0436D5C1C44650468646AF6
:1024A00022401A700A88521E0A8092B26AB90268E3
:1024B000136823F490731360026893685B085B00F1
:1024C000936020220A7400F07CFB002010BD00689D
:1024D000816941F008018161022010BD01680A682C
:1024E00022F490720A6001688A68520852008A6079
:1024F000202180F86A10704770B504467D4E206830
:1025000010210022002503683340A6683343266962
:10251000334366693343E669334303604368E668DF
:1025200023F44053334343608368A66923F4306344
:102530003343266A3343704EB04283606F4B0AD1F7
:102540001B6803F00303032B23D8DFE803F06012BA
:10255000022102211DE06A4EB0420CD11B6813F02B
:102560000C0376D0042B04D0082BF2D00C2B0FD008
:102570000FE004210DE0634EB0421BD11B6813F045
:10258000300366D0102BF4D0202BE2D0302B00D1BA
:102590000821E369B3F5004F7DD141B101295AD03B
:1025A00002295BD0042960D0082965D06BE000F0D7
:1025B00081FD5CE0544EB04209D11B6813F0C003AA
:1025C00047D0402BD5D0802BC3D0C02BCFE74F4E68
:1025D000B0420CD11B6813F440733AD0B3F5807F3E
:1025E000C7D0B3F5007FB4D0B3F5407FBFE7484E06
:1025F000B0420ED11B6813F4406308D0B3F5806F6E
:10260000B7D0B3F5006FA4D0B3F5406FAFE70121A9
:10261000BFE7404EB0420CD11B6813F4405318D0B2
:10262000B3F5805FA5D0B3F5005F92D0B3F5405FFE
:102630009DE7394EB042ACD11B6813F4404308D03B
:10264000B3F5804F95D0B3F5004F82D0B3F5404F2E
:102650008DE700219DE700F035FD08E0616848083E
:1026600000F1F47000F590400AE000F0FAFC6168B7
:102670004A0802EB400003E06168480800F580303A
:10268000B0FBF1F200E001254FF6F0701040C2F30C
:10269000420108431EE041B1012909D002290AD0B4
:1026A00004290FD0082918D020E000F003FD0BE02A
:1026B00000F008FD08E061684A0802F5740202F5BE
:1026C00010520EE000F0CDFC616800EB5100B0FB51
:1026D000F1F080B22168C86009E061684A0802F53B
:1026E0000042B2FBF1F189B2C16000E00125284649
:1026F00070BD0000F369FFEF001001409038024008
:102700000044004000480040004C004000500040A1
:102710000014014000780040007C004090F8241034
:10272000C90706D501684A68836A22F400321A4351
:102730004A6090F82410890706D501684A68C36A80
:1027400022F480321A434A6090F82410490706D5D3
:1027500001684A68036B22F480221A434A6090F8A9
:102760002410090706D501684A68436B22F4004229
:102770001A434A6090F82410C90606D501688A6891
:10278000836B22F480521A438A6090F824108906E1
:1027900006D501688A68C36B22F400521A438A6026
:1027A00090F82410490610D501684A68036C22F499
:1027B00080121A434A60026CB2F5801F05D14A6844
:1027C000436C22F4C0021A434A6090F824100906B0
:1027D00006D501684A68806C22F4002210434860E4
:1027E000704738B5054605F168040020606000F0C8
:1027F000ADF82968096809070CD56FF07E410346DA
:10280000009100224FF400112846FFF7F5FD08B1B2
:10281000032032BD20206070A0700020207032BDE7
:1028200080B54548016841F080510160016801F0C0
:10283000805100910099416841F4804141604068B5
:1028400000F4804000900098032000F066FC002215
:1028500003216FF00B0000F06DFC002203216FF0EC
:102860000A0000F067FC002203216FF0090000F06D
:1028700061FC002203216FF0040000F05BFC0022E9
:1028800003216FF0030000F055FC002203216FF0DC
:10289000010000F04FFC002203214FF0FF30BDE8A3
:1028A000084000F047BC00B587B000F040F816D1F2
:1028B000486840F010004860486801A900F0100026
:1028C00000900098C02000F028F81C4800F088FC18
:1028D00000220021252000F02DFC252019E0184AB7
:1028E000904218D1086840F480200860086801A967
:1028F00000F48020009000984FF4406000F00DF844
:10290000104800F06DFC00220021272000F012FC8E
:10291000272000F02CFC07B000BD0190022002909F
:102920000020039003200490072005907047006862
:10293000054A014990427047403802400004024075
:102940000048004000080240001001400148406873
:10295000704700BF8000002090F83510022903D096
:102960008021416501207047052180F835100068FD
:1029700001684908490001600020704770477047AE
:1029800001B54FF6FF7301226946A548FFF7C8FB62
:10299000009802BD2DE9F04186B0A24D00F018FD6F
:1029A00000F0AFF8A04800220168A04C41F01001EF
:1029B0000160016801F0100100F090F841F0800121
:1029C0000160016801F0800100F088F841F0010128
:1029D0000160016801F0010100F080F841F004019C
:1029E0000160016801F0040100F078F841F0020193
:1029F00001600068182100F002000090009828464D
:102A000000F0C8FC00F077F8182000F06BF82846BA
:102A100000F0E6FB4FF4807000F064F8204600F010
:102A2000DFFB8F4C824820604FF41650606000201E
:102A3000A060E06020610C2060610020A061E06186
:102A4000206260622046FFF72BFB00B1FEE7744D69
:102A5000784828604FF4E13068600020A860E860A2
:102A600028610C2068610020A861E8612862686222
:102A70002846FFF715FB00B1FEE76F4E01223146F5
:102A80002046FFF7BDFB0122711C28460FF2F81506
:102A9000FFF7B6FB00F0DCF80FF2E410DFF89C81E2
:102AA00000F0A2FC5DA410E018F8071028467F1C77
:102AB00000F09AFC71888F42F6DB404600F0A6FCDD
:102AC000204600F091FC002070804FF4FA6000F086
:102AD000A1FC70880028F8D00027EBE7009100994E
:102AE0000168704701A90190012002900020039025
:102AF000049070474D4C00224FF48071204600F046
:102B000049BC00B5B3B04E48016841F08051016046
:102B1000006800F08050009000984A48016841F435
:102B200040410160006800F440400090009802209D
:102B300006900120099010200A9002200C9000209D
:102B40000D9008200E90D8200F9002201090119028
:102B500006A800F09DF800B1FEE700F06FFC00B1A0
:102B6000FEE70F2007210190022002900020039031
:102B70004FF4A05004904FF48050059001A800F04D
:102B8000EBF900B1FEE74FF4A07012900020239003
:102B9000259012A800F08EFC00B1FEE700F087FA45
:102BA0004FF47A71B0FBF1F000F0EBFA042000F082
:102BB000FCFA002203214FF0FF3000F0BBFA33B0E3
:102BC00000BD70B50646204886424FF6FF741A4D88
:102BD0000ED101222946FFF713FB68882978174A8E
:102BE0001154401C688080B2A04204BF002068805D
:102BF0000B48864211D10122691CFFF701FB1348E3
:102C00006A78B0F800144254491CA0F8001489B244
:102C1000A14204BF0021A0F8001470BD0D0A0000FD
:102C2000D40F002000100240303802400000024063
:102C300000100140004800409C100020D40B0020F0
:102C4000403802400070004000000020D007002003
:102C500010B5FFF74FFF0A2000F0DCFB004801E051
:102C600000000020072200F17801FFF7A9FA0122F5
:102C7000FFF742FF3220BDE8104000F0CBBB000060
:102C80007465737400000000253032582000000085
:102C90002DE9F041040082B04FF0000817D02078F1
:102CA000DFF83454C00747D5A86800F00C000428AA
:102CB00007D0A86800F00C0008280AD16868400214
:102CC00007D52868800337D56068002834D10120F3
:102CD00040E16068B0F5803F09D008B928680AE093
:102CE000B0F5A02F286806D140F48020286028681D
:102CF00040F4803005E020F480302860286820F41B
:102D000080202860606858B1FFF720FE07462868D9
:102D1000800311D4FFF71AFEC01B6528F7D316E114
:102D2000FFF714FE07462868800305D5FFF70EFE5F
:102D3000C01B6528F7D30AE12078800718D5A8685A
:102D400010F00C0F07D0A86800F00C00082825D15F
:102D50006868400222D42868800702D5E06801280C
:102D6000B5D12868216920F0F80040EAC100286048
:102D70002078000743D560690028686F30D040F0A4
:102D800001006867FFF7E2FD0746686F800736D4E9
:102D9000FFF7DCFDC01B0328F7D3D8E0E06800286C
:102DA00028680ED040F001002860FFF7CFFD0746ED
:102DB00028688007D5D4FFF7C9FDC01B0328F7D3C7
:102DC000C5E0400840002860FFF7C0FD07462868BE
:102DD0008007CDD5FFF7BAFDC01B0328F7D3B6E0B7
:102DE000400840006867FFF7B1FD0746686F80073D
:102DF00005D5FFF7ABFDC01B0328F7D3A7E020786C
:102E000040075CD5286CC0000AD4286C4FF001083C
:102E100040F080502864286C00F0805000900098AA
:102E2000DFF8C0623068C0050FD4306840F48070AD
:102E30003060FFF78BFD07463068C00505D4FFF70B
:102E400085FDC01B6528F7D381E0A068012808D064
:102E500008B9286F09E00528286F06D140F0040062
:102E60002867286F40F0010005E04008400028670F
:102E7000286F20F004002867A06841F2893658B115
:102E8000FFF764FD0746286F800711D4FFF75EFD4A
:102E9000C01BB042F7D35AE0FFF758FD0746286F32
:102EA000800705D5FFF752FDC01BB042F7D34EE0B7
:102EB000B8F1000F03D0286C20F080502864A0697E
:102EC000002846D0A96801F00C0108293FF4FFAEA4
:102ED0000228286820F0807028602DD1FFF736FD89
:102EE00007462868800105D5FFF730FDC01B032881
:102EF000F7D32CE0E069216A0843616A40EA811057
:102F0000A16A891EC903090C40EA0140E16A40EA4E
:102F1000016040F000506860286840F080702860D0
:102F2000FFF714FD07462868800112D4FFF70EFD55
:102F3000C01B0328F7D30AE0FFF708FD07462868FF
:102F4000800106D5FFF702FDC01B0328F7D303203D
:102F500000E00020BDE8F6812DE9F041040088463C
:102F600050D0614E306800F00F00404502D200F0B2
:102F70006EF847D12068584F810712D5400703D516
:102F8000B86840F4E050B8602078000703D5B8680E
:102F900040F46040B860B868A16820F0F0000843D1
:102FA000B8602078C00725D56068012802D139684B
:102FB000890303E00228396802D1890102D421E0A3
:102FC00089071FD5B968890840EA8100B860FFF712
:102FD000BDFC0546B868616800F00C00B0EB810FDD
:102FE00008D0FFF7B3FC401B41F289318842F1D38E
:102FF00003202AE0306800F00F00804504D200F082
:1030000026F801D0012020E02078400705D5B868D7
:10301000E16820F4E0500843B8602078000706D546
:10302000B868216920F4604040EAC100B86000F04F
:1030300018F8BA682D49C2F30312895CC8402749C1
:103040000860032000F06CFC0020BDE8F0813068CF
:10305000000948EA00103060306800F00F00404579
:10306000704710B5234C606800F00C00042802D0B3
:10307000082802D019E0204810BD2068002300F085
:103080003F02206840022068C0F388104CBF1A49F4
:103090001349A1FB0001FEF7B1FA2168C1F3014118
:1030A000491C4900B0FBF1F010BD0D4810BD0B48A4
:1030B0000068704709480E4A006812680F49C2F359
:1030C000822206E005480A4A006812680B49C2F3EA
:1030D0004232895CC8407047003802408C000020B2
:1030E0000024F40000700040003C0240E439000875
:1030F000083802400438024040787D01A03B0008B7
:103100000901002806D52E4A00F00F00104400F8EF
:10311000041C70472B4A115470472B494FF6FF038C
:103120000A68000200F4E0601A401043274A104386
:103130000860704738B5244B1B68C3F30223C3F102
:103140000704052C28BF04241D1D072D34BF0023B0
:10315000DB1E012505FA04F4641E2140994005FA9E
:1031600003F35B1E1A401143BDE83440C8E7012158
:1031700000F01F029140164AFFE7400942F8201074
:103180007047401EB0F1807F10B501D3012010BD03
:10319000104C0F2160604FF0FF30FFF7B1FF0020AF
:1031A000A06007202060002010BD0A49042808689C
:1031B0000CBF40F0040020F00400086070470000DD
:1031C00018ED00E000E400E00CED00E00000FA057E
:1031D00000E100E010E000E000F000B870470000FF
:1031E0002DE9F84F02460023DFF8B081DFF8B091F7
:1031F000DFF8B0A14FF00F0B0C680120984000EAF7
:10320000040E864540F0C0804D689C00022D18BF1A
:10321000122D0FD1DD0802EB850C04F01C050BFA12
:1032200005F7DCF82060BE430F6907FA05F5354362
:10323000CCF8205016680F794FEA430C032505FAA5
:103240000CF5ED432E4007F0030707FA0CF73E4359
:1032500016604E68012E18BF022E03D0112E18BF23
:10326000122E0FD19668CF682E4007FA0CF73E4316
:103270009660566826EA00004E68C6F300169E4027
:1032800030435060D06828408D6805FA0CF528431B
:10329000D0604868C00077D5DAF8000004F00C066A
:1032A0000BFA06F440F48040CAF80000DAF8000097
:1032B00000F4804000900098980859F8205025EAC2
:1032C0000404394DAA4208BF00252CD0374DAA422C
:1032D00008BF012527D0364DAA4208BF022522D0BB
:1032E000344DAA4208BF03251DD0334DAA4208BF62
:1032F000042518D0314DAA4208BF052513D0304D02
:10330000AA4208BF06250ED02E4DAA4208BF0725A7
:1033100009D02D4DAA4208BF082504D02B4DAA4242
:103320000CBF09250A25B5402C4349F82040D8F8A0
:1033300000406FEA0E0000EA040C4C68E40348BF4A
:103340004EEA0C0CC8F800C0D8F8044000EA040C9F
:103350004C68A40348BF4EEA0C0CC8F804C0D8F867
:10336000084000EA040C4C68E40248BF4EEA0C0C2A
:10337000C8F808C0D8F80C4020404C68A40248BFE8
:103380004EEA0000C8F80C005B1C102BFFF434AFB1
:10339000BDE8F18F02B9090481617047003C01402A
:1033A0000838014044380240000002400004024056
:1033B00000080240000C02400010024000140240CD
:1033C00000180240001C024000200240002402407D
:1033D00080B50320FFF7A1FE032000F0A1FAFFF75C
:1033E0001FFA002002BD00000EB400B582B003A990
:1033F000009102466B460121034878440A30FCF7ED
:10340000E3FE06BC5DF810FB59070000002200F047
:10341000A7BA000038B50446FFF798FA14F1010F77
:10342000054602D0044800782418FFF78FFA401BA5
:10343000A042FAD331BD00BF8000002070B582B039
:1034400000F020F840F4803000F030F80646606864
:10345000C00305D4FFF77AFA801BA842F7D30DE02A
:10346000206840F4003000F021F8064660688003D0
:1034700006D4FFF76BFA801BA842F7D3032076BD72
:10348000002076BD08480168064C40F2E93541F05D
:1034900080510160006800F0805000900098206822
:1034A0007047000000700040403802402060FFF785
:1034B0004DBA00002DE9F04782B00446207800277D
:1034C000B846DFF84C64C0070AD5B06820F40000A5
:1034D000B060B068616B0843B060606B00B90127F1
:1034E0002068DFF8305400030ED5A868E16B20F4A3
:1034F00040100843A860E06BB0F5801F08BF0127AB
:1035000002D008B94FF001082068C0020ED5A868A3
:10351000216C20F440000843A860206CB0F5800FB7
:1035200008BF012702D008B94FF001082068C10187
:1035300048BF012780065DD5306CDFF8DC9340F092
:1035400080503064306C00F0805000900098D9F8C2
:10355000000040F48070C9F80000FFF7F7F98246D8
:10356000D9F80000C00506D4FFF7F0F9A0EB0A0077
:103570006528F5D3A6E1306F10F440701EBF216BB3
:1035800001F4407188421DD0306F316F41F48031B9
:103590003167316F20F4407021F48031316730673A
:1035A000306FC0070ED5FFF7D1F98246306F800724
:1035B00008D4FFF7CBF9A0EB0A0041F28931884229
:1035C000F4D37FE1206B00F44071B1F5407F07D167
:1035D000B168DFF84823104021F4F811084302E0F5
:1035E000B06820F4F810B060306F216BC1F30B01AC
:1035F000084330672078C00607D5A86820F080709F
:10360000A860A868A16B0843A8602068400405D59D
:10361000E868616E20F440300843E86020680004E8
:1036200005D5E868A16E20F440200843E8602068D2
:10363000C00305D5E868E16E20F440100843E86057
:103640002068800305D5E868216F20F44000084316
:10365000E8602078400605D5E868616C800841EA9A
:103660008000E8602078000605D5E868A16C20F0AD
:103670000C000843E8602068C00505D5E868E16CE7
:1036800020F030000843E8602068800505D5E86830
:10369000216D20F0C0000843E8602068400505D592
:1036A000E868616D20F440700843E8602068000518
:1036B00005D5E868A16D20F440600843E860206803
:1036C000C00405D5E868E16D20F440500843E86087
:1036D0002068800405D5E868216E20F44040084346
:1036E000E8602068400205D5E868A16F20F080609E
:1036F0000843E860206880020BD5E868E16F20F09D
:1037000000600843E860E06FB0F1006F08BF4FF061
:1037100001082068010748BF4FF00108400305D5A4
:10372000E868616F20F040700843E860206800029C
:1037300006D5E868D4F8801020F080500843E8608F
:103740001FB92068B0F1007F5BD1306820F0806045
:1037500000F0D5F807463068000105D5FFF7F6F808
:10376000C01B6528F7D3ADE02078C0070AD5606B91
:1037700040B900F0BCF801F070610843A16840EA6C
:10378000017028602068010303D5E16BB1F5801F4B
:1037900005D0C00210D5206CB0F5800F0CD100F020
:1037A000A6F8E26800F093F82860A868616A40090A
:1037B000491E41EA4010A8602068C00106D528686B
:1037C00029682369626800F088F828602068800111
:1037D00008D521696068090441EA8010E16800F0B9
:1037E00091F82860306840F0806000F088F8074663
:1037F0003068000105D4FFF7A9F8C01B6528F7D38E
:1038000060E0B8F1000F5FD0306820F0805000F029
:1038100076F807463068800005D5FFF797F8C01B9B
:103820006528F7D34EE02068010301D5E16B19B19B
:10383000C00214D5206C90B968686968626900F4A8
:10384000403040EA8210A26900F041F86860A86840
:10385000A16A20F4F850491E40EA0120A8602068BF
:1038600080020AD5E06FB0F1006F06D16868696820
:10387000236A626900F031F868602078000713D588
:1038800068686968626901F4403141EA821100F0B8
:1038900070600843E16940EA01706860A868E16A05
:1038A00020F440300843A860306840F0805000F0B9
:1038B00026F804463068800006D4FFF747F8001B5E
:1038C0006528F7D3032000E00020BDE8F68701F06B
:1038D000E04140EA0260084370471B0443EA821259
:1038E00000F0706001F0E041104308437047286821
:1038F0002968626800F4403040EA82107047306006
:10390000FFF724B840EA0160A16840EA01707047FF
:10391000003802408438024000700040FFFCFF0F76
:1039200038B50D4D044629784FF47A70B0FBF1F0AC
:103930000A490968B1FBF0F0FFF723FC50B9102CDD
:1039400008D2002221464FF0FF30FFF7F3FBAC60B6
:10395000002032BD012032BD800000208C000020FC
:1039600000B500BF130096469446103928BFA0E862
:103970000C50FAD85FEA417C28BF0CC048BF40F821
:10398000042BC90728BF20F8022B48BF00F8012BE1
:1039900000BD00000E480F4A016841F4700101604B
:1039A0000D48016841F0010101600021816001685A
:1039B0001140016009494160016821F480210160E2
:1039C0000021C1604FF000600549086070470000A9
:1039D00088ED00E0FFFFF6FE0038024010300024C2
:1039E00008ED00E0000000000000000001020304F8
:1039F0000607080919E050F8041BCB0744BFA9F1DA
:103A000001035918121F0023042A41F8043BF9D27C
:103A10005FEA827C0B4604D54FF0000CA1F800C091
:103A20009B1CD10744BF0021197050F8042B002AB9
:103A3000E1D1704730B5016842688468014401EB08
:103A40005203D20748BF4C44994201D10C3030BDDB
:103A500011F9012B11F8015B002A04F8015B02D572
:103A6000521CF9D1F0E7521EF4D5EDE77047FEE79E
:103A7000FEE7FEE7FEE770477047704780B500F04D
:103A80000FF8BDE80140FFF7A7BB0348FEF7FABBFC
:103A90000248FEF7F7BB000000000020D40F002012
:103AA0000248416802788918416070478000002010
:103AB00010B5074979441831064C7C44163404E0AB
:103AC0000A68081D114488470146A142F8D110BD7B
:103AD0002C000000480000004EF68851CEF2000194
:103AE000086840F470000860BFF34F8FBFF36F8F1A
:103AF0004FF00070E1EE100A70470000F9FEFFFF82
:103B0000D4080000D00700200000000029FFFFFFBC
:103B100014020000940000000000002000F00BF8E8
:103B2000002801D0FFF7C4FF0020AFF30080FEF7AC
:103B300031FF00F002F80120704700F001B80000EA
:103B40000746384600F002F8FBE7000080B5AFF307
:103B50000080024A11001820ABBEFBE726000200DD
:103B600038B504460D46284600F006F8A84218BFAE
:103B70000024204632BD00000149FEF701BF00BF0E
:103B8000900000200148804701480047953900080F
:103B9000953B0008AFF30080FFF79EFFFFF7BEFFE5
:103BA0000000000001020304FFF7FEBFFFF7FEBFA5
:103BB000FFF7FEBFFFF7FEBFFFF7FEBFFFF7FEBF39
:103BC000FFF7FEBFFFF7FEBFFFF7FEBFFFF7FEBF29
:103BD000FFF7FEBFFFF7FEBFFFF7FEBFFFF7FEBF19
:103BE000FFF7FEBFFFF7FEBFFFF7FEBFFFF7FEBF09
:103BF000FFF7FEBFFFF7FEBFFFF7FEBFFFF7FEBFF9
:103C0000FFF7FEBFFFF7FEBFFFF7FEBFFFF7FEBFE8
:103C1000FFF7FEBFFFF7FEBFFFF7FEBFFFF7FEBFD8
:103C2000FFF7FEBFFFF7FEBFFFF7FEBFFFF7FEBFC8
:103C3000FFF7FEBFFFF7FEBFFFF7FEBFFFF7FEBFB8
:103C4000FFF7FEBFFFF7FEBFFFF7FEBFFFF7FEBFA8
:103C5000FFF7FEBFFFF7FEBFFFF7FEBFFFF7FEBF98
:103C6000FFF7FEBFFFF7FEBFFFF7FEBFFFF7FEBF88
:103C7000FFF7FEBFFFF7FEBFFFF7FEBFFFF7FEBF78
:103C8000FFF7FEBFFFF7FEBFFFF7FEBFFFF7FEBF68
:103C9000FFF7FEBFFFF7FEBFFFF7FEBFFFF7FEBF58
:103CA000FFF7FEBFFFF7FEBFFFF7FEBFFFF7FEBF48
:103CB000FFF7FEBFFFF7FEBFFFF7FEBFFFF7FEBF38
:103CC000FFF7FEBFFFF7FEBFFFF7FEBFFFF7FEBF28
:103CD000FFF7FEBFFFF7FEBFFFF7FEBFFFF7FEBF18
:103CE000FFF7FEBFFFF7FEBFFFF7FEBFFFF7FEBF08
:103CF000FFF7FEBFFFF7FEBFFFF7FEBFFFF7FEBFF8
:103D0000FFF7FEBFFFF7FEBFFFF7FEBFFFF7FEBFE7
:103D1000FFF7FEBFFFF7FEBFFFF7FEBFFFF7FEBFD7
:103D2000FFF7FEBF900010AAFAD23689CAC000AAD7
:103D3000FAD219DE50800001F9000010FC002224A4
:103D4000F4000204010144100020941000204410EB
:103D500000204410002044100020CD000020B400BA
:0E3D60000020C400F8FFDC00FAFF8100D10053
:0400000508003B951F
:00000001FF
