:020000040800F2
:10000000C00400202D2C00083D2B00083F2B0008C9
:10001000412B0008432B0008452B0008000000007E
:10002000000000000000000000000000472B000856
:10003000492B0008000000004B2B00084D2B000846
:10004000492C00084D2C0008512C0008552C0008A4
:10005000592C00085D2C0008612C0008652C000854
:10006000692C00086D2C0008712C0008752C000804
:10007000792C00087D2C0008812C0008852C0008B4
:10008000892C00088D2C0008912C0008952C000864
:10009000992C00089D2C0008A12C0008A52C000814
:1000A000A92C0008AD2C0008B12C0008B52C0008C4
:1000B000592B0008B92C0008BD2C0008C12C0008E1
:1000C000C52C0008C92C0008CD2C0008D12C000834
:1000D000D52C0008D92C0008DD2C0008E12C0008E4
:1000E000E52C0008E92C0008ED2C000870B582B062
:1000F000040000252078C00740F18480DFF87006F6
:10010000006810F00C0004280BD0DFF864060068CB
:1001100010F00C0008280ED1DFF854060068C00368
:1001200009D5DFF84806006880036BD560680028B1
:1001300068D1012004E26068B0F5803F08D1DFF8A3
:100140002C06006850F48030DFF82016086038E094
:100150006068002810D1DFF81406006830F48030A1
:10016000DFF808160860DFF80406006830F4802025
:10017000DFF8F815086024E06068B0F5A02F10D112
:10018000DFF8E805006850F48020DFF8E01508602B
:10019000DFF8D805006850F48030DFF8D01508602B
:1001A0000FE0DFF8C805006830F48030DFF8BC15D8
:1001B0000860DFF8B805006830F48020DFF8AC157F
:1001C0000860606800280ED000F0F0FA0500DFF843
:1001D0009C050068800315D400F0E8FA401B6528F0
:1001E000F5D30320ACE100F0E1FA0500DFF87C056F
:1001F0000068800306D500F0D9FA401B6528F5D3C6
:1002000003209DE1207880075CD5DFF86405006855
:1002100010F00C0F0BD0DFF85805006810F00C0040
:1002200008281AD1DFF848050068C00315D4DFF8A4
:100230003C050068800704D52069012801D0012011
:100240007EE1DFF82805006830F0F800616950EAC7
:10025000C100DFF81815086034E0206900281ED0BE
:100260000120DFF81C15086000F0A0FA0500DFF897
:10027000FC040068800706D400F098FA401B0328AD
:10028000F5D303205CE1DFF8E404006830F0F80007
:10029000616950EAC100DFF8D414086012E0002060
:1002A000DFF8DC14086000F081FA0500DFF8BC0418
:1002B0000068800706D500F079FA401B0328F5D3C3
:1002C00003203DE1207800072CD5A069002816D036
:1002D0000120DFF8B014086000F068FA0500DFF8CC
:1002E0009C040068800706D400F060FA401B0328D5
:1002F000F5D3032024E1012000F024FA12E00020CD
:10030000DFF88014086000F051FA0500DFF86C0493
:100310000068800706D500F049FA401B0328F5D392
:1003200003200DE12078400740F1A7800026DFF888
:1003300058040068C00010D4DFF84C04006850F086
:100340008050DFF844140860DFF83C04006810F0C7
:1003500080500090009801200600DFF8300400680B
:10036000C00516D4DFF82404006850F48070DFF86C
:100370001C14086000F01AFA0500DFF81004006889
:10038000C00506D400F012FA401B6528F5D30320FF
:10039000D6E0E068012808D1DFF8F403006850F0E7
:1003A0000100DFF8EC13086037E0E068002810D1A6
:1003B000DFF8DC03006840084000DFF8D413086071
:1003C000DFF8CC03006830F00400DFF8C4130860E5
:1003D00023E0E068052810D1DFF8B403006850F08E
:1003E0000400DFF8AC130860DFF8A403006850F0E5
:1003F0000100DFF89C1308600FE0DFF89403006849
:1004000040084000DFF888130860DFF884030068C4
:1004100030F00400DFF878130860E068002810D09E
:1004200000F0C4F90500DFF868030068800719D4FC
:1004300000F0BCF9401B41F289318842F3D303201C
:100440007EE000F0B3F90500DFF8440300688007A0
:1004500008D500F0ABF9401B41F289318842F3D353
:1004600003206DE0F6B2012E07D1DFF81C0300680F
:1004700030F08050DFF810130860E06900285ED08B
:10048000DFF8EC02006810F00C00082855D0E06995
:1004900002283FD10020DFF8FC12086000F086F946
:1004A0000500DFF8C8020068800106D500F07EF97B
:1004B000401B0328F5D3032042E0206AB0F5803FBB
:1004C00009D1DFF8AC02006830F40030A1680843BD
:1004D000DFF89C120860DFF89802006830F47410AE
:1004E000216A0843616A0843DFF88412086001202A
:1004F000DFF8A012086000F059F90500DFF86C027F
:10050000006880011BD400F051F9401B0328F5D38B
:10051000032015E00020DFF87C12086000F046F9A7
:100520000500DFF848020068800108D500F03EF9B8
:10053000401B0328F5D3032002E0012000E0002047
:1005400076BD70B504000D000026DFF84C0200688F
:1005500010F00700A84211D2DFF83C020068C00882
:10056000C0002843DFF830120860DFF82C02006872
:1005700010F00700A84201D00120A3E020788007F6
:1005800009D5DFF8EC01006830F0F000A1680843FD
:10059000DFF8DC1108602078C00758D560680128B2
:1005A00006D1DFF8C8010068800312D4012089E079
:1005B0006068022806D1DFF8B4010068800108D421
:1005C00001207FE0DFF8A4010068800701D401204A
:1005D00078E0DFF89C0100688008800061680843CB
:1005E0006349086000F0E2F80600606801280ED157
:1005F0005F48006810F00C00042828D000F0D6F8FE
:10060000801B41F289318842F2D303205AE06068AE
:1006100002280ED15648006810F00C00082816D0A9
:1006200000F0C4F8801B41F289318842F2D30320E4
:1006300048E04F48006810F00C0F08D000F0B6F802
:10064000801B41F289318842F3D303203AE05248BB
:10065000006810F0070085420ED24F480068C008BD
:10066000C00028434C4908604B48006810F0070060
:10067000A84201D0012025E02078400707D53C485A
:10068000006830F4E060E168084339490860207888
:10069000000708D53648006830F46050216950EAF8
:1006A000C1003349086000F00EF83C49304A126836
:1006B000C2F30312895CC8402F490860002000F093
:1006C0007BF8002070BD70B586B001A834491022B7
:1006D00000F098F833480088ADF8000000210022AF
:1006E000002300240020224D2D68290011F00C0564
:1006F000042D02D0082D03D01DE01E4D28001CE063
:1007000001ADC1F38346AD5D2C00CD030DD56D4623
:10071000174E3668C6F34046AD5D2A00154D05FB01
:1007200004F5B5FBF2F52B0003E01F4D05FB04F5C6
:100730002B00180001E00F4D280006B070BD0E48D8
:100740000068704781B00C490968C9084FF47A7293
:10075000B1FBF2F101FB00F1009100BF00994A1ECC
:1007600000920029F9D101B070470000001002404A
:100770000410024000127A000400002024100240FD
:1007800000004242800442421C10024000700040BF
:100790002010024060004242002002401C2C000851
:1007A0000C2C00085A08000800093D0001480068A8
:1007B000704700BF0807002010B504004FF47A709E
:1007C0000D490978B0FBF1F00C490968B1FBF0F074
:1007D00000F0CCF8002801D001200CE0102C09D248
:1007E000002221005FF0FF3000F0A6F8044804600A
:1007F000002000E0012010BDBC000020040000200B
:1008000000000020103A07D330B4B1E83810103A95
:10081000A0E83810F9D230BC530724BFB1E8081063
:10082000A0E8081044BF51F8043B40F8043BD2074D
:1008300024BF31F8022B20F8022B44BF0B78037041
:100840007047083A07D3B1E80810083A40F8043B6B
:1008500040F804CBF7D25307E4E7010210F0070297
:100860004D4B1B6819004FF6FF0319404B4B53EAE1
:1008700002231943484B1960704747480068C0F38A
:1008800002207047012110F01F029140444A40B2FB
:10089000430942F82310704710B440B2002808D52D
:1008A0000A01404B40B210F00F04234403F8042C1B
:1008B00003E00A013C4B40B21A5410BC704770B4BC
:1008C000030013F00704D4F10706052E01D304201A
:1008D00001E0D4F10700261D072E01D2002500E01B
:1008E000E51E012616FA00F0401E0840A84001212E
:1008F000A940491E1140084370BC704710B5040060
:10090000601EB0F1807F01D301200EE0601E2749F8
:1009100008600F215FF0FF30FFF7BEFF0020244981
:100920000860072023490860002010BD10B50400AE
:100930002000FFF793FF10BDF8B504000D0016006E
:100940000027FFF79AFF0700320029003800FFF761
:10095000B6FF0100200040B2FFF79EFFF1BD10B5C9
:100960000400200040B2FFF78DFF10BD10B5040059
:100970002000FFF7C3FF10BD042806D10D49096808
:1009800051F004010B4A116005E00A49096831F091
:100990000401084A116070470CED00E00000FA0500
:1009A00000E100E018ED00E000E400E014E000E009
:1009B00018E000E010E000E080B500F001F801BDB3
:1009C0007047000010B50400002C01D1012014E094
:1009D00094F83D00002805D1002084F83C00200058
:1009E00000F022FA022084F83D00211D206800F06A
:1009F0005EF9012084F83D00002010BD0100086868
:100A0000C06850F001000A68D0600868006850F0C3
:100A100001000A6810600020704710B504002068CB
:100A2000006980071AD52068C068800716D57FF056
:100A3000020021680861012020772068806910F099
:100A4000030F03D0200000F011FA05E0200000F0B1
:100A50000EFA200000F00CFA0020207720680069D0
:100A600040071AD52068C068400716D57FF00400FB
:100A700021680861022020772068806910F4407F97
:100A800003D0200000F0F2F905E0200000F0EFF9BB
:100A9000200000F0EDF900202077206800690007B1
:100AA0001AD52068C068000716D57FF008002168B5
:100AB0000861042020772068C06910F0030F03D07C
:100AC000200000F0D3F905E0200000F0D0F920006C
:100AD00000F0CEF90020207720680069C0061AD502
:100AE0002068C068C00616D57FF010002168086134
:100AF000082020772068C06910F4407F03D02000D0
:100B000000F0B4F905E0200000F0B1F9200000F099
:100B1000AFF90020207720680069C0070AD5206857
:100B2000C068C00706D57FF0010021680861200079
:100B300000F0B6FA2068006900060AD52068C0688F
:100B4000000606D57FF0800021680861200000F0D3
:100B5000DAFA2068006940060AD52068C0684006B5
:100B600006D57FF0400021680861200000F0CCFA33
:100B70002068006980060AD52068C068800606D50E
:100B80007FF0200021680861200000F0BEFA10BD4F
:100B900070B504000D00002694F83C00012801D136
:100BA000022083E0012084F83C00022084F83D000C
:100BB00020688068060036F0770636F47F462068A5
:100BC00086602868002856D0102859D020285CD08C
:100BD00030285FD0402844D050282ED0602836D00E
:100BE00070280DD0B0F5805F03D0B0F5005F17D04E
:100BF00055E020688068C008C000216888604EE029
:100C0000EB686A68A968206800F0C4F8206880680A
:100C1000060036F0770656F07706206886603EE0DC
:100C2000EB686A68A968206800F0B4F820688068FA
:100C300050F480402168886031E0EA686968206883
:100C400000F070F85021206800F099F827E0EA6879
:100C50006968206800F07CF86021206800F08FF857
:100C60001DE0EA686968206800F05CF840212068AF
:100C700000F085F813E00021206800F080F80EE015
:100C80001021206800F07BF809E02021206800F0A6
:100C900076F804E03021206800F071F8FFE70120C9
:100CA00084F83D00002084F83C00002070BD002244
:100CB00003681A00184B984208D0B0F1804F05D055
:100CC000164B984202D0164B984203D132F0700274
:100CD0004B681A43104B984208D0B0F1804F05D0B2
:100CE0000E4B984202D00E4B984203D132F4407220
:100CF000CB681A4332F080024B691A4302608B685A
:100D0000C3620B688362044B984201D10B69036391
:100D10000123436170470000002C014000040040A3
:100D20000008004030B400230024056A2C00056A46
:100D30006D086D00056285692B0033F0F00353EAFE
:100D4000021334F00A040C438361046230BC704720
:100D500030B400230024056A35F01005056285696A
:100D60002B00056A2C0033F4704353EA023334F04D
:100D7000A00454EA01148361046230BC704700226D
:100D800083681A0032F0700289B251F007031A43E7
:100D90008260704730B4002485682C0034F47F44AE
:100DA00052EA010555EA03252C43846030BC7047A4
:100DB00000B587B05FF08040294908604720284986
:100DC000486000202649886040F2E7302449C86026
:100DD0000020234908610020214988612048FFF74D
:100DE000F1FD002803D03F211E4800F08BF94FF49D
:100DF0008050029002A91A48FFF7CAFE002803D0CB
:100E00004521184800F07EF9002000900020019054
:100E10006946134800F07AF9002803D04C211148A4
:100E200000F070F907B000BD10B582B00400206872
:100E3000B0F1804F13D10C48006850F001000A490E
:100E400008600948006810F0010000900098002236
:100E500000211C20FFF770FD1C20FFF780FD13BD53
:100E6000C0060020102B00081C100240704770477D
:100E7000704700002DE9F04D90B00026002700F0EB
:100E800073F900F0C9F800F083F9FFF791FF944877
:100E9000FFF7B4FD00F0EAFA00F08AFA049000F0DF
:100EA00096FA059000F0A3FA069000F0AFFA0790CA
:100EB00000F0BCFA401E089000F0C8FA64300990B7
:100EC00000200C900DF11008404600F0E3FA0021DC
:100ED00004000D00684600F09AFB02985FF0424162
:100EE00000F008FC00F048FC7E4A7F4B00F06CFCF0
:100EF00001227E4B00F094FD04D8012210217C4891
:100F000000F00FFF7B48007801281AD100224FF42F
:100F10000051794800F005FF01224FF480417648E6
:100F200000F0FFFE01224FF40041734800F0F9FE8B
:100F3000FFB2002F03D1A246AB46012007000A20D2
:100F400006006C480078022813D100224FF40051AB
:100F5000694800F0E6FE00224FF48041664800F048
:100F6000E0FE01224FF40041634800F0DAFE142055
:100F7000060060480078032813D100224FF4005186
:100F80005D4800F0CEFE00224FF480415A4800F048
:100F9000C8FE00224FF40041574800F0C2FE1E2058
:100FA0000600FFB2012F11D1B4EB0A0275EB0B035F
:100FB0003000F1178B4209D301D8824206D31021A9
:100FC0004B4800F0B8FE04204A49087049480078B0
:100FD00004287FF461AF0020070000200021824632
:100FE0008B4600200600002042490870FFB2002F07
:100FF00005D101224FF400513F4800F092FE01223A
:101000004FF480413C4800F08CFE01224FF4004137
:10101000394800F086FE3FE700B58FB0012005900B
:101020005FF4803006900020079001200990022094
:101030000C905FF480300D905FF4E0100E9005A8E6
:10104000FFF754F8002803D0D1212C4800F05AF8BB
:101050000F20009002200190002002904FF4806049
:1010600003900020049002216846FFF76AFA0028E6
:1010700003D0DF21214800F045F8FFF760FB4FF473
:101080007A71B0FBF1F0FFF771FC0420FFF774FCFC
:10109000002200215FF0FF30FFF74EFC0FB000BDD3
:1010A00010B504002068B0F1804F18D14FF4805182
:1010B000114800F02AFE01280ED111480078401C8A
:1010C0000F4908700E480078322808D10948007886
:1010D000401C0849087002E000200949087010BD52
:1010E000C0060020CDCCCCCCCCCCFC3F00003440A2
:1010F0000008014011070020000C0140E42A00080C
:1011000010070020FEE7704770477047020092F812
:101110003C00012801D1022024E0012082F83C009B
:10112000022082F83D001068406830F070001368BB
:101130005860106840680B6818431368586010685E
:10114000806830F0800013689860106880684B6891
:10115000184313689860012082F83D00002082F84F
:101160003C0000207047000080B50848006850F03F
:101170001000064908600320FFF7D8FB0020FFF7A6
:101180001BFB00F0FDFD002002BD0000002002401E
:1011900000B585B02A48006850F020002849086052
:1011A0002748006810F0200000900098244800684C
:1011B00050F00400224908602148006810F0040043
:1011C000009000981E48006850F008001C49086014
:1011D0001B48006810F008000090009800221F21B2
:1011E000184800F09EFD01224FF46041164800F0BF
:1011F00098FD1F2001900120029000200390022002
:10120000049001A90F4800F023FC4FF48050019096
:10121000002002900020039001A90B4800F018FC68
:101220004FF46040019001200290002003900220C2
:10123000049001A9044800F00BFC05B000BD00BFFC
:101240001810024000080140000C014000B585B0B4
:10125000022000900020019000200290694653482F
:1012600000F0F6FB05B000BD00B585B0022000908F
:1012700001200190002002900220039069464B4813
:1012800000F0E6FB05B000BD38B500240025FFF7EF
:10129000DDFF00200400E4B2082C15DAEDB26D0881
:1012A0000221424800F031FD012801D155F08005AE
:1012B000012201213D4800F034FD002201213B487C
:1012C00000F02FFD641CE6E72800C0B232BD70B507
:1012D000040000252600FFF7C7FF00200500EDB23F
:1012E000082D1ADAF00705D5012202212F4800F057
:1012F00018FD04E0002202212C4800F012FD01221A
:1013000001212A4800F00DFD00220121274800F0AC
:1013100008FDF6B276086D1CE1E7012202212348A0
:1013200000F0FFFC70BD38B504000025002201214B
:101330001E4800F0F6FC012204211C4800F0F1FCDC
:1013400054F00100C0B2FFF7C2FFFFF79DFF050098
:1013500001220121154800F0E4FC00220421134879
:1013600000F0DFFC2800C0B232BD38B504000D002B
:10137000002201210D4800F0D4FC012204210B4879
:1013800000F0CFFC2000C0B2FFF7A1FF2800C0B2E0
:10139000FFF79DFF01220121044800F0C2FC00225A
:1013A0000421024800F0BDFC31BD000000080140EE
:1013B00080B58020FFF7B7FFC0F30211C9B20A223F
:1013C000C0B210F00F0002FB0100C0B202BD80B538
:1013D0008220FFF7A8FF0100C9B20909C9B20A2299
:1013E000C0B210F00F0002FB0100C0B202BD80B518
:1013F0008420FFF798FFC0F30111C9B20A22C0B2DE
:1014000010F00F0002FB0100C0B202BD80B58620C3
:10141000FFF789FF0100C9B20909C9B20A22C0B2A7
:1014200010F00F0002FB0100C0B202BD80B58820A1
:10143000FFF779FF0100C9B20909C9B20A22C0B297
:1014400010F00F0002FB0100C0B202BD80B58C207D
:10145000FFF769FF0100C9B20909C9B20A22C0B287
:1014600010F00F0002FB0100C0B202BD10B5002158
:101470008E20FFF77AFF8120FFF755FF040014F05C
:101480007F018020FFF771FF80218E20FFF76DFF25
:1014900010BD00002DE9F04104460C21206990FBAD
:1014A000F1F202EB4201B0EB810144BF0C31521E5C
:1014B000002A47D56069C2F1004398424ADB60695F
:1014C0001518284600F0B2FC40F26D1808FB050024
:1014D000A168E56862682368DFF880C0DFF87CE017
:1014E00018274FF4B46691FBF7F7281892FBF6F62D
:1014F000381893FBFCFC30186044194D281807EB92
:101500004705A1EBC5014FF4616569430EFB00106F
:101510004FF4B46101FB1621C1EB011200EB820014
:1015200018180EFB1C05226A2946204600F09BFC79
:10153000206A0128A8BFA5F5616500F03BFD281AC7
:10154000BDE8F081012ABADB6FF000406369801AC0
:101550009842B4DA4FF0FF30BDE8F08180510100CD
:10156000209CFFFF80B2002808D000221100C9B2E1
:101570000A2901DA491CFAE7401EF3E7704700B573
:1015800085B008200090002001900120029069465B
:10159000564800F05DFA05B000BD00B585B00820E2
:1015A0000090012001900320039069464F4800F00D
:1015B0004FFA05B000BD38B5002500200400E4B2A4
:1015C000082C21DA0821494800F09FFB0028F9D0B7
:1015D0002820FFF7C7FF0821444800F096FB0128A8
:1015E0000BD10821414800F090FB0128F9D00120DF
:1015F000D4F107018840054304E00120D4F107013C
:1016000088408543641CDAE72800C0B232BD70B55B
:101610000400FFF7C2FF00220821344800F081FBDC
:10162000122000F015FD01220821304800F079FB5E
:101630001E20FFF797FFFFF7A2FF08212B4800F0BD
:1016400064FB00284ED10821284800F05EFB0028EA
:10165000F9D00821254800F058FB0128F9D0FFF700
:10166000AAFF2070FFF7A7FF6070FFF7A4FFA0702C
:10167000FFF7A1FFE070FFF79EFF2071FFF78DFFDE
:1016800001220821194800F04CFB2078642162787F
:1016900001FB00200600B6B2300000F0EDFC14495A
:1016A00000F0FAFCA060A0786421E27801FB002041
:1016B0000600B6B2300000F0DFFC0D4900F0ECFC93
:1016C000E060207861780818A1780818E178081897
:1016D000050020792900C9B2884201D1012002E029
:1016E000002000E0002070BD000000000008014064
:1016F0000000C84290EA010F44BF81F0004100F0B1
:1017000049BD00BF421A3CBF801A89184FF0004CF7
:10171000C0F3C752FF2A24D0C1F3C75313B3D21A60
:10172000D2F1190327DD4CEA01214CFA03F321EA37
:101730000303D140C20D4CEA0020401834BF20EA18
:101740000C004CEA5000D20553EA006373EB0C0C1A
:1017500052EB1020420012F1807F38BF7047C00D5D
:10176000C0057047490212BF9A4200EB5120F8E7CA
:10177000D2F11703D9D570475FF0FF0C1CEAD051A6
:1017800014BF614506E0C110400721F0E04101F1BE
:101790006051704779B900F0004100020AD0B0FAF8
:1017A00080FC00FA0CF001F16051A1EB0C5101EB4F
:1017B000D0214005704741020CBF40F4E0016FF0BA
:1017C00000010020704700002DE9F04140F2FF7554
:1017D00081EA030C0CF0004C15EA11541DBF15EA08
:1017E0001357AC42AF42E9E0BC41C1F31301C3F36C
:1017F0001303801A994143F4801304D2641E4000FD
:10180000494180185941C90241EA5051B1FBF3F6F0
:1018100003FB1611A2FB0675D7EBC020A94102D22B
:10182000761E80185941C90241EA5051B1FBF3FEBE
:1018300003FB1E11A2FB0E75D7EBC020A94103D2FA
:10184000AEF1010E80185941890241EA90517605A6
:1018500046EA8E2EB1FBF3F603FB1611A2FB0675CA
:10186000D7EB8020A94102D2761E80185941C902C7
:1018700041EA50514EEA060EB1FBF3F603FB161196
:10188000A2FB0675D7EBC020A94102D2761E8018B4
:101890005941C90241EA5051B1FBF3F703FB17115B
:1018A000A2FB0735D3EBC020A94167F100070CBFAD
:1018B000004247F0010766F3D5274FEA1E31B8080A
:1018C00014F5806414DDBD0775F1004250EB0E5035
:1018D00051EB045111F5801F5CBF41EA0C01BDE8DA
:1018E000F0814CF07F6141F0E0410020BDE8F081E3
:1018F000BD076D0840EA0E5041F48011D4F1010497
:10190000B4F120060ADAC4F120060200E04001FA30
:1019100006F3E1401843B24015430EE0342C14DCCA
:10192000C6F1200445EA40056D0820FA06F2154389
:1019300021FA06F0A1400D43002175F1004250F15B
:10194000000051EB0C01BDE8F08100205FEA0C01C2
:10195000BDE8F081CFB992185B41B3FA83F704BFB9
:10196000B2FA82F6BF190B3FB7F120062FBF02FA79
:1019700006F3BB40C7F1200622FA06F638BF334310
:10198000BA401CB1E419641E2FE77F4231F00041D8
:10199000B1FA81F404BFB0FA80F6A4190B3CB4F19B
:1019A00020062FBF00FA06F1A140C4F1200620FA5C
:1019B00006F638BF3143A0403C1B16E7AC421ABFC5
:1019C00005EA1357AF4214E050EA41061CBF52EA41
:1019D0004306BFE750EA4107304661461CBF41EA73
:1019E0000551BDE8F08152EA430C08BFC143BDE890
:1019F000F08100204FF4001616EB410F98BF16EB54
:101A0000430F08BF16EB410F24BFC14305E016EB9F
:101A1000430F0CBF61464CEA0551BDE8F081000060
:101A20004FF4001C1CEB410F94BF1CEB430F09E06B
:101A300041EA030C50EA4C0C52EA0C0C03D28B42E4
:101A400008BF8242704714BF99429042704700001D
:101A50002DE9F84100230024002500265FF0000E48
:101A60005FF0000C6246102A80F04D815FF0010C9F
:101A70001CFA02FC6346D1F800C013EA0C0C644661
:101A80009C4240F03E81D1F804C0BCF1000F3DD033
:101A9000BCF1010F24D0BCF1020F2BD0BCF1030F1D
:101AA0004CD0BCF1110F1FD0BCF1120F28D0DFF8C1
:101AB0009082C4452AD0DFF88C82C44526D0DFF856
:101AC0008882C44522D0DFF88482C4451ED0DFF866
:101AD0008082C4451AD0DFF87C82C44516D031E03C
:101AE000D1F80CC066462DE0D1F80CC01CF1040CF6
:101AF000664627E0D1F80CC01CF1080C664621E0D0
:101B0000D1F80CC01CF10C0C66461BE0D1F808C0E3
:101B1000BCF1000F03D15FF0040C66460DE0D1F874
:101B200008C0BCF1010F04D15FF0080C66460361E8
:101B300003E05FF0080C6646436103E05FF0000CD1
:101B40006646FFE7FF2C01D8070000E0071DFF2CC9
:101B500002D85FEA820E03E0B2F1080C5FEA8C0E55
:101B6000D7F800C05FF00F0818FA0EF83CEA080C2E
:101B700016FA0EF858EA0C0CC7F800C0D1F804C0E9
:101B80005FEACC0C40F1BD80DFF8CCC1DCF800C0CE
:101B90005CF0010CDFF8C081C8F800C0DFF8B8C104
:101BA000DCF800C01CF00108CDF80080DDF800C0B2
:101BB000DFF8A8C15FEA92085CF828C065465FF0CC
:101BC0000F0C12F003085FFA88F85FEA88081CFA25
:101BD00008FC35EA0C05DFF888C1604502D15FF0EA
:101BE000000C16E0DFF87CC1604502D15FF0010C0B
:101BF0000FE0DFF874C1604502D15FF0020C08E02D
:101C0000DFF868C1604502D15FF0030C01E05FF0CE
:101C1000040C12F003085FFA88F85FEA88081CFADF
:101C200008FC5CEA0505DFF834C15FEA92084CF86D
:101C30002850D1F804C05FEACC3C0AD5DFF830C1A7
:101C4000DCF800C054EA0C0CDFF82481C8F800C0AE
:101C500009E0DFF81CC1DCF800C03CEA040CDFF846
:101C60001081C8F800C0D1F804C05FEA8C3C0AD5E6
:101C7000DFF800C1DCF800C054EA0C0CDFF8F48097
:101C8000C8F800C009E0DFF8ECC0DCF800C03CEAAE
:101C9000040CDFF8E080C8F800C0D1F804C05FEAA7
:101CA000CC2C0AD5DFF8D0C0DCF800C054EA0C0C0C
:101CB000DFF8C480C8F800C009E0DFF8BCC0DCF879
:101CC00000C03CEA040CDFF8B080C8F800C0D1F8CE
:101CD00004C05FEA8C2C0AD5DFF8A0C0DCF800C095
:101CE00054EA0C0CDFF89480C8F800C009E0DFF873
:101CF0008CC0DCF800C03CEA040CDFF88080C8F837
:101D000000C0521CAFE6BDE8F1810200936889B2C1
:101D10000B4202D00123180001E000231800C0B2DA
:101D20007047D2B2002A02D089B2016102E089B2C2
:101D30000B0403617047C26889B24A40C2607047B1
:101D400000001110000012100000211000002210ED
:101D5000000031100000321018100240080001404D
:101D600000080140000C0140001001400014014037
:101D70000004014004040140080401400C04014037
:101D800080B52748006850F00100254908602448C4
:101D9000006810F00100009000982248006850F0A0
:101DA0008050204908601F48006810F08050009063
:101DB00000980320FEF7BAFD002200217FF00B00FF
:101DC000FEF7BAFD002200217FF00A00FEF7B4FD05
:101DD000002200217FF00900FEF7AEFD0022002165
:101DE0007FF00400FEF7A8FD002200217FF0030031
:101DF000FEF7A2FD002200217FF00100FEF79CFD0E
:101E0000002200215FF0FF30FEF796FD06490968C9
:101E1000080030F0E06050F000700349086001BD38
:101E2000181002401C10024004000140012804DB8D
:101E3000421E531002EB937205E010F1030F04DA17
:101E4000421000EB9272921000E0002210F0030F9B
:101E500000D110B90FF2441001E00FF2281030F950
:101E60001100801870472DE9F84F04464248401889
:101E7000154600901CB9414800F0F7F90446256268
:101E80004FF461650098DFF8F8A00FF210160FF21A
:101E9000F4076FF0020840F26D1902E0009800F5B7
:101EA00061605146B0FBF1F14B1C4FF0070C93FB06
:101EB000FCFCCCEBCC0CA3EB0C03A3614B4691FBDD
:101EC000F3F300E05B1E012B05DB5A1E4FEA620EA6
:101ED00002EB9E7204E0434505DA5A1003EB92725E
:101EE0004FEAA20C01E04FF0000C13F0030F02D1F7
:101EF0000BB1BE4600E0B646BEF90020944409FB93
:101F000003CC6145DEDBA1EB0C0213F0030F636130
:101F1000E26100D10BB9334600E03B464FF00C0CB8
:101F200003F1180E3EF902BD5A45ACF1010CF9DB84
:101F3000C4F810C00AFB110033F91C302946D21A2C
:101F4000B0FBF1F1521CA160E26005FB11003C21E5
:101F5000B0FBF1F1C1EB01126160A0EB82002060E7
:101F6000206A002805D5204600F080F9012820626B
:101F700094DA2046BDE8F28F807EAA83100000200C
:101F80008051010000001F003C005B0079009800B8
:101F9000B600D500F400120131014F0100001F000E
:101FA0003B005A0078009700B500D400F3001101FF
:101FB00030014E01F0B5244E83B0304600F055F9A3
:101FC0000446224D284600F050F9006808B900F098
:101FD000E7F9284600F049F90546301D00F045F9BB
:101FE000064628682168814228D0007810B900F0A0
:101FF000F9F928606A462868022100F0F8F90746D6
:1020000000230A2201A900F013FA30600199009A16
:10201000C91B914205D100F2135040F62721884296
:1020200001D3002030606421306890FBF1F101EBB6
:102030008102C0EBC2003060286820603068A0EBED
:102040000011880003B0F0BD080000203C00002013
:1020500070B50400FEF7AAFB0500260016F1010F7B
:1020600002D0044800788619FEF7A0FB401BB0425E
:10207000FAD370BDBC000020002800BF0AD0B0FA1F
:1020800080F18840D1F19D01C905020672F100423C
:1020900041EB10207047000010B5FF2313EAD05425
:1020A0001DBF13EAD1529C429A4239E0A41ADA07C2
:1020B00080EA0103134042EA012142EA0020421A69
:1020C0003CBF641E01EB4202090AB2FBF1FE01FBB8
:1020D0001E221202B2FBF1F001FB10226EF30F2060
:1020E0001202B2FBF1FE4EEA00207F3406DDFE2C28
:1020F00024DA53EA500050EBC45010BDD4F102046E
:1021000001FB1E2240F08071192C1DDC21FA04F025
:10211000C4F12004A140114371F10042584110BDA7
:102120009C421ABF03EAD1529A420FE080EA010EA4
:102130000EF00043400004D0490016D143F0FF40A8
:1021400010BD490008BFD343180010BD9C4205D103
:10215000D21AF7D001F00041484010BD4A0212BF28
:102160000846484000F0004010BD4AB90902B1FAE3
:1021700081F2914044B1A418C00140F000409EE7B4
:10218000C90141F0004152420002B0FA80F4A0407F
:10219000141B94E7431A4FF000423EBF5340C01A4D
:1021A000C91800BFD3095FEAD05C13EB400F34BFFE
:1021B000B3EB410F40E07CEBD1530CD342EA012159
:1021C00022D8D1EB402009D3400A28BF5FEA500152
:1021D00040EBCC507047401A15D04002B0FA80F264
:1021E000521C9040400A4FEA3C23B3EB026384BF89
:1021F00000EB730007E040F400001A16DB07C2F1A1
:102200000102D04018437047182BFCDC31FA03F26E
:1022100002FA03F3591A38BF42F00102D2EB402010
:102220003CBF4000ACF1010C5FEACC5CC20572F12E
:1022300000414CEB5020704713EB400F0FD24B0086
:1022400009D0ACEBD153022B03DB4902172BDDDDA8
:1022500070479143401A4300D5D10020704713EBDB
:10226000410FD0D36FF00000704770472DE9F8435D
:1022700004464748474FFFF7F8FF80464648FFF7B8
:10228000F4FF05463846FFF7F0FF006808B900F094
:1022900087F83846FFF7E9FF06464048FFF7E5FFB5
:1022A0000746D8F800103868814220D0007878B905
:1022B0003068007810B900F095F830606A463068F0
:1022C000032100F094F83860017809B1401E3860AD
:1022D000386800F007F9060008BF4FF0FF3054D00F
:1022E000286800F099F92E603868C8F800000021CD
:1022F0006069FFF79BFD8046E169A0682D6801EBEE
:10230000410200EBC207606940F26D1101FB0080E1
:10231000401C072190FBF1F1C1EBC101401A4FF0C5
:10232000000900F10E0600E06D1D2878FF282BD073
:10233000606929798842F7DBE978FFF777FDA978AA
:10234000A0EB0800081829780A000DD03218521A9C
:10235000072392FBF3F3C3EBC303D21A1CBFC01DC8
:10236000801A0829B8BFC01F00EB4001687800EB55
:10237000C100874208DB2879697A88420CBF89F05E
:1023800001094FF00009CFE74846BDE8F28300BFDE
:10239000B00000203C000020B800002040000020D9
:1023A00038B5DFF834402046FFF75FFF006848B9D2
:1023B0002046FFF75AFF0FF228050560201DFFF7A2
:1023C00054FF056031BD10B50446DFF81000FFF77B
:1023D0004CFF50F8240010BD3C00002044000020B9
:1023E000000000000FF20400704700003A00F8B54A
:1023F00004460D462078002816460CBF002714F826
:10240000017B01E06D1E441C3946204600F044F972
:1024100018B9204600F04CF92044012D03DA001BC6
:1024200030602046F2BD01780029EBD13160F2BD69
:102430002DE9F84380460E0091461D4608BF6E46C2
:10244000474600E07F1C387800F04DF90028F9D1AC
:1024500038782D2816BF2B2817F8014B2B242B4634
:102460004A463146384600F049F931688F4208BF84
:10247000C6F800803168884514D120B92D2C16D1BA
:10248000B0F1004F15D900F003FA222101600DB11F
:10249000012028602D2C14BF6FF000404FF0004049
:1024A000BDE8F2832B2CE9D1B0F1004FEBD2BDE8AF
:1024B000F2834042BDE8F2830022491E0CD4037827
:1024C000303B0A2B08D202EB820310F8012B02EBFF
:1024D0004302303A491EF2D5002958BF4FF0FF326F
:1024E000104670472DE9F041054615F8018BB8F10B
:1024F000000F00F08D802846022601E0401C761C6B
:10250000414600F0C9F80028F8D106EB860000F03B
:10251000C5F906007CD00027344600E0641D287809
:1025200028280BD10421681CFFF7C6FFA0F26C77A6
:10253000002F6AD46879292867D1AD1D277102213F
:102540002846FFF7B9FF401EE070AD1C2846002169
:1025500001220378303B0A2B08D201EB810310F8EB
:10256000011B01EB43013039521EF2D5002A54BF42
:10257000FE20481EA07015F8020F30380A2813D22A
:102580002846002101220378303B0A2B08D201EBB8
:10259000810310F8011B01EB43013039521EF2D5C3
:1025A000002A03D4FF2101E0002100E0AD1C61708E
:1025B000E0780C28BFBFA07864286078642824DA0B
:1025C00028782B2818BF2D2802D00020207010E07A
:1025D0006878A0F13001072917D230280CBF0720F6
:1025E0003038207028782B2802D12078C01D207028
:1025F000AD1C287828B9FF20607167723046BDE8AD
:10260000F08115F8010B404588D0304600F004F801
:102610000020BDE8F081000000B9704738B5A0F196
:1026200008042068082833D310F0070F30D1AFF327
:1026300000801848416809B18C4203D2616044604F
:1026400017E019464B680BB1A342FAD30B68CD18BB
:10265000AC421BD3A54204D12268D2180A600C46B2
:1026600007E04A681AB1236823449A420ED3626095
:102670004C60616851B12268A3188B4206D10023D7
:10268000036008688018206048686060AFF30080CD
:1026900031BD0000000700200278C9B28A421AB199
:1026A0001CBF10F8012FF9E718BF00207047000089
:1026B00000F10103810704D010F8011B89B18107E3
:1026C000FAD10268B2F10131914311F0803F04BFA9
:1026D00050F8042FF6E710F8011B11B110F8011B98
:1026E000FBE7C01A704710B504460120FFF76BFEE8
:1026F0002046BDE8104000F029B900002DE9F04F58
:1027000085B004461E000D4690461CBF0020306078
:10271000A14601E009F1010999F80000FFF7E3FF84
:102720000028F7D199F800002D2816BF2B2819F89A
:10273000017B2B27B8F1000F55D4B8F1010F52D00F
:10274000B8F1250F4FDAB8F1010F0DDBB8F1100F1A
:1027500004BF99F80000302802BF99F8010040F04A
:102760002000782814D10EE099F80000302818BF16
:102770004FF00A080CD199F8010040F020007828A9
:1027800004D14FF0100809F1020901E04FF00808E8
:10279000CDF8109001E009F1010999F80000302806
:1027A000F9D00FF29C0B4FF0000ACDF80C908DF889
:1027B00008B00AE09DF80810CDF804A0401AC0B295
:1027C000009008FB0A0A09F1010999F8000000F0DD
:1027D000C7F801464246584600F0CCF80028E9D137
:1027E0000498484503D105B12C60002025E00FF284
:1027F0007801039811F80810A9EB0000401A14D4CE
:10280000012808DA0098BAEB000004D30199B0FB64
:10281000F8F0884209D000F03BF8222101600EB1A7
:10282000012030604FF0FF3A03E02D2F08BFCAF1BE
:10283000000A0DB1C5F80090504605B0BDE8F08F14
:102840003031323334353637383961626364656626
:102850006768696A6B6C6D6E6F7071727374757690
:102860007778797A0000000000002115110E0D0C18
:102870000B0B0A0A090909090908080808080808C9
:1028800007070707070707070707070707000000ED
:102890000148FFF7EABC0000B400002070B505460F
:1028A00005F10F00C408AFF30080E400A54232D266
:1028B000082C04D2082402E00830FFF7ADFE2248BD
:1028C000026811000CD1011D0A6802B31368A3420B
:1028D00038BF111DF8D310E01D68A5420DD2191D97
:1028E0000B68002BF8D11268011D00E0191D0B6860
:1028F00093420CD01D68A542F8D361B10D682A68D7
:10290000A2F10803A3420AD26A680A600FE000F04D
:102910005DF80028D0D1AFF30080002070BD2B19E6
:102920000B60121B6E685E600B681A602C60096891
:1029300000291DBF4A68002A091D00210160AFF36C
:10294000008005F1080070BD00070020A0F109011A
:10295000052901D3202801D10120704700207047AC
:1029600010B504460120FFF72EFD2046BDE81040BB
:1029700000F042B8C9B2830706D0521E22D310F825
:10298000013B9942F7D11FE0083A13D302F1040248
:1029900041EA012141EA014150F8043B121F21BFE5
:1029A0004B40A3F1013C2CEA030C1CF0803FF3D018
:1029B000C9B2001F083210F8013B521E28BF91EA2D
:1029C000030FF8D818BF0120401E70470749086858
:1029D00008B1002070470648C008C00008600549DB
:1029E000C908C900091A0160704700BF0C07002020
:1029F000C7040020C0060020A0F141011A2938BFF9
:102A0000203070471348006850F0010011490860F9
:102A100011480068114908400F4908600D480068D6
:102A20000F4908400B4908600A48006830F48020CC
:102A3000084908600848006830F4FE00064908604C
:102A40005FF41F00074908605FF0006006490860F6
:102A50007047000000100240041002400000FFF820
:102A6000FFFFF6FE0810024008ED00E019E050F804
:102A7000041BCB0744BFA9F101035918121F0023FF
:102A8000042A41F8043BF9D25FEA827C0B4604D564
:102A90004FF0000CA1F800C09B1CD10744BF0021DF
:102AA000197050F8042B002AE1D1704730B5016845
:102AB00042688468014401EB5203D20748BF4C448A
:102AC000994201D10C3030BD11F9012B11F8015B95
:102AD000002A04F8015B02D5521CF9D1F0E7521E1E
:102AE000F4D5EDE7433A5C55736572735C746573B6
:102AF000745C4465736B746F705C31315C64696ED7
:102B0000677368695C5372635C6D61696E2E630004
:102B1000433A5C55736572735C746573745C4465A9
:102B2000736B746F705C31315C64696E6773686974
:102B30005C5372635C74696D2E6300007047FEE73E
:102B4000FEE7FEE7FEE770477047704780B500F08C
:102B50000BF8FDF731FF01BD80B50248FDF75DFFC1
:102B600001BD0000C0060020034800680349097841
:102B7000081801490860704708070020BC000020C1
:102B800010B5074979441831064C7C44163404E0EA
:102B90000A68081D114488470146A142F8D110BDBA
:102BA0000800000024000000C5FEFFFF54000000E4
:102BB000C006002000000000F5FEFFFF3401000009
:102BC0001C0000000000002000F00BF8002801D0DD
:102BD000FFF7D6FF0020AFF30080FEF74BF900F0BF
:102BE00002F80120704700F001B80000074638469F
:102BF00000F002F8FBE7000080B5AFF30080024A66
:102C000011001820ABBEFBE72600020002030405FA
:102C1000060708090A0B0C0D0E0F1010000000002B
:102C2000000000000102030406070809014880476C
:102C300001480047052A00083D2C0008AFF300803A
:102C4000AFF30080FFF7C0FFFFF7FEBFFFF7FEBF47
:102C5000FFF7FEBFFFF7FEBFFFF7FEBFFFF7FEBFA8
:102C6000FFF7FEBFFFF7FEBFFFF7FEBFFFF7FEBF98
:102C7000FFF7FEBFFFF7FEBFFFF7FEBFFFF7FEBF88
:102C8000FFF7FEBFFFF7FEBFFFF7FEBFFFF7FEBF78
:102C9000FFF7FEBFFFF7FEBFFFF7FEBFFFF7FEBF68
:102CA000FFF7FEBFFFF7FEBFFFF7FEBFFFF7FEBF58
:102CB000FFF7FEBFFFF7FEBFFFF7FEBFFFF7FEBF48
:102CC000FFF7FEBFFFF7FEBFFFF7FEBFFFF7FEBF38
:102CD000FFF7FEBFFFF7FEBFFFF7FEBFFFF7FEBF28
:102CE000FFF7FEBFFFF7FEBFFFF7FEBFFFF7FEBF18
:0E2CF0000010FC0002A24A048100CB0000018B
:0400000508002C3D86
:00000001FF
