:020000040800F2
:10000000B005002081460008994500089B4500087E
:100010009D4500089F450008A1450008000000001C
:10002000000000000000000000000000A3450008E0
:10003000A545000800000000A7450008A9450008E4
:10004000A5460008A9460008AD460008B1460008CC
:10005000B5460008B9460008BD460008C14600087C
:10006000C5460008C9460008CD460008D14600082C
:10007000D5460008D9460008DD460008E1460008DC
:10008000E5460008E9460008ED460008F14600088C
:10009000F5460008F9460008FD460008014700083B
:1000A00005470008094700080D47000811470008E8
:1000B00015470008194700081D4700082147000898
:1000C00025470008294700082D470008B7450008C4
:1000D0003147000835470008394700083D47000808
:1000E0004147000845470008494700084D470008B8
:1000F0005147000855470008594700085D47000868
:100100006147000865470008694700086D47000817
:100110007147000875470008794700087D470008C7
:100120008147000885470008894700088D47000877
:100130002DE9F04F82460FF25860A5B015461E46D5
:10014000D0E90023CDE9122303AF00207960B86223
:100150000DF1500900E045440020ADF8020012AB5B
:100160004FF0FF3229460DF1020001F0AEF8804653
:10017000B8F1010F08DA2878B0F1010868EB080837
:100180006FEA08004FEAD078BDF8020025280CBFBE
:10019000A8F1010BC346BBF1010F0EDB2C4614F88E
:1001A000011B7868D0470028786000F0F880B86AB2
:1001B000401CBBF1010BB862F1D1BDF8020025284B
:1001C00007D1002038617861B861F86138627862DF
:1001D00005E00028BFD1B86AE2E240F0010015F85E
:1001E000011F2029F9D023290DD02B2904D02D2936
:1001F00006D030290AD00CE040F0020080B2EEE7D1
:1002000040F00400FAE740F00800F7E740F0100083
:10021000F4E72A290ED13168316051F8042B31609E
:10022000002A3A6304D5514240F00400396380B299
:100230006D1C13E0002139630BE0396B6FF0004354
:10024000994205D001EB810302EB43013039396358
:100250006D1C2A78A2F130010A29EED329782E29C3
:1002600003D04FF0FF31F9621FE015F8011F2A2972
:1002700007D1316831606D1C51F8042B3160FA628E
:1002800013E00021F9620BE0F96A6FF00043994234
:1002900005D001EB810302EB43013039F9626D1C9B
:1002A0002A78A2F130010A29EED3B8860FF2E8408D
:1002B000297801F01BF808B115F8010B8DF8420000
:1002C0009DF84200682802BF29786829622005D07D
:1002D0006C2804BF28786C2803D171208DF8420067
:1002E0006D1C14A8F86015F8014BB4F125002AD054
:1002F0001C3800F0DB80001F022840F2D780133842
:1003000000F0FB80093800F0D180801E00F065818C
:10031000401E00F03C81401E022840F2C780001FB2
:1003200000F03581401F00F09280401E00F0E58013
:10033000401E37D0C01E0BD0801E00F0DE80C01ED5
:1003400000F0DB806CE125208DF85000012070E189
:100350009DF842006C283068306016D050F8048B4D
:100360003060C7F80880FC6A002C04D5404600F0D5
:10037000C9FF044607E022460021404600F0DEFFA8
:1003800008B1A0EB08047C6154E150F8042B306004
:1003900002A9504600F03EFA002840F14B814FF090
:1003A000FF30FDE131683160002251F8040B31600B
:1003B0004FF03C0E0021CDE9020114A8B860DDE940
:1003C00002019142FC6808BF904201D1FA6AC2B1B1
:1003D00000F00F033033DBB23A2BA8BF2733AEF166
:1003E00001020009A354964640EA0170090900225F
:1003F000914208BF904204D0BA6804EB0E039A42BF
:10040000E6D304EB0E01B960CEF13C00F96A7861E5
:10041000884207DA081AF8614FF6EF71B88E084083
:10042000B88607E1002940F1058197F8341001F002
:100430001401102940F0FE80396B3A69891AFA6973
:10044000891A081A0128C0F2F580F861F2E09DF8D7
:10045000420062281AD0682806D06A280CD06C287E
:100460001CD0712808D019E03068306050F8041BA7
:100470003060B86A0880DDE03068306050F8042BE6
:100480003060B86AC117C2E90001D3E0306830605B
:1004900050F8041B3060B86A0870CBE030683060F8
:1004A00050F8041B3060B86A0860C3E03068C01DB3
:1004B00020F007023260D2E9000108323260CDE953
:1004C0000201002902D538692D2109E0B88E810783
:1004D00002D538692B2103E0C00705D538692021F2
:1004E00009F80010401C386114A839690844B86044
:1004F000214602A800F09AFB9CE09DF842006C287F
:100500000DD0712818BF6A2809D13068C01D20F0AD
:1005100007023260D2E900010832326005E031683A
:10052000316051F8040B31600021CDE902019DF8E2
:100530004200682803D1DDE9020180B20BE06228A5
:1005400003D1DDE90201C0B205E0742818BF7A28A2
:1005500004D1DDE902010021CDE9020197F8340060
:10056000000731D5DDE902230020834208BF824223
:100570002AD044F02000782826D13869302109F8A3
:100580000010401C411C396109F800401CE09DF836
:100590004200314600F007F9CDE90201DDE902230E
:1005A00000218B4202DA38692D2109E0B88E8107DB
:1005B00002D538692B2103E0C00705D53869202111
:1005C00009F80010401C386114A839690844B86063
:1005D000214602A800F0A4FA2CE09DF842006C2805
:1005E00009D0012038613068306050F8041B306059
:1005F0008DF850101EE03068306001AA50F8041BDE
:100600003060ADF804100020ADF8060002A94FF0EC
:10061000FF30F862504600F0FDF800280AD5BEE62B
:1006200025208DF85000012038611CB189F8014067
:1006300002203861386B3969401AF969401A7969C2
:10064000401A396A401AB969401A796AA0EB010860
:1006500097F83400400711D42020B8F1010F8DF82D
:1006600000000BDB444601236A4602A9504600F015
:1006700007FE00287FF493AE641EF4D1D7F810B0C3
:10068000BBF1000F14AC0DD014F8011B7868D047F3
:10069000002878603FF483AEB86A401CBBF1010BC0
:1006A000B862F1D130208DF80000FC69012C0ADB22
:1006B00001236A4602A9504600F0E2FD00287FF4BB
:1006C0006EAE641EF4D1D7F814B0BC68BBF1000F55
:1006D0000DD014F8011B7868D047002878603FF4EB
:1006E0005EAEB86A401CBBF1010BB862F1D130209C
:1006F0008DF800003C6A012C0ADB01236A4602A93E
:10070000504600F0BDFD00287FF449AE641EF4D1D0
:10071000B8687969D7F818B04418BBF1000F0DD04C
:1007200014F8011B7868D047002878603FF437AE92
:10073000B86A401CBBF1010BB862F1D130208DF8D2
:1007400000007C6A012C0ADB01236A4602A950469C
:1007500000F096FD00287FF422AE641EF4D197F8D5
:10076000340040077FF5F8AC2020B8F1010F8DF878
:100770000000FFF6F1AC01236A4602A9504600F0E2
:100780007FFD00287FF40BAEB8F10108F3D1E3E45C
:100790000000000000000000686A6C747A4C0000E1
:1007A00025B0BDE8F08F622826D068281DD06A28C1
:1007B00008D06C2827D0712804D0742823D07A2838
:1007C0000CD020E00868C01D20F007000860D0E9C8
:1007D0000023083008601946104670470A680A600E
:1007E00052F8040B0A60002170470A680A6052F848
:1007F000040B0A6000B20BE00A680A6052F8040BAE
:100800000A6040B204E00A680A6052F8040B0A6009
:10081000C11770472DE9F44F0D4694B0D5F830A0BC
:10082000BAF1000F804648BF6FF0004A00F0B2FDF9
:10083000696B401801900FF67820D0E90023CDE9CC
:10084000022395F83800400702D40198412805D2C8
:1008500040200DF110090190002609E000F0A0FDF4
:100860005FEA0009F8D14FF0FF3056E1AAEB040A25
:10087000BAF1010FC0F2CE801498018802AA0DF1DE
:10088000010000F0E5FD0028044600F1DE80149828
:10089000008810B9641E00F1D880A245C0F2BA8069
:1008A000686901992218914280F0A2806E634042EB
:1008B000296A401AA969401A696A401AE969401A06
:1008C000A96A461A95F83800400710D42020012E56
:1008D0008DF800000BDB374601236A462946404667
:1008E00000F0CEFC002840F0B0807F1EF4D1D5F897
:1008F00014B0BBF1000F4F460DD017F8011BA868CC
:10090000C0470028A86000F0A080E86A401CBBF146
:10091000010BE862F1D130208DF800002F6A012F21
:100920000ADB01236A462946404600F0A9FC00285C
:1009300040F08B807F1EF4D1D5F818B0EF68BBF182
:10094000000F0CD017F8011BA868C0470028A8604A
:100950007BD0E86A401CBBF1010BE862F2D1302089
:100960008DF800006F6A012F09DB01236A462946D2
:10097000404600F085FC002867D17F1EF5D1E8686D
:10098000A969D5F81CB04718BBF1000F0CD017F8B7
:10099000011BA868C0470028A86056D0E86A401C20
:1009A000BBF1010BE862F2D130208DF80000AF6A94
:1009B000012F09DB01236A462946404600F060FC0E
:1009C000002842D17F1EF5D195F8380040070DD59B
:1009D0002020012E8DF8000008DB01236A462946FD
:1009E000404600F04DFC80BB761EF6D100266E61BD
:1009F000224668690DF10101484400F037FD68693D
:100A0000201868611498801C1490801E00880028AB
:100A10007FF42CAF686B6969401A296A401AA9698A
:100A2000401A696A401AE969401AA96AA0EB010AEA
:100A300095F83800400710D4BAF1010F0DDB544689
:100A4000A8682021C047A86010B94FF0FF365DE0CC
:100A5000E86A401C641EE862F2D16B694A46294686
:100A6000404600F00DFC0028EFD12C6A012C0ADB77
:100A7000A8683021C0470028A860E6D0E86A401C7A
:100A8000641EE862F4D1AB69EA682946404600F08A
:100A9000F7FB0028D9D16C6A012C0ADBA868302149
:100AA000C0470028A860D0D0E86A401C641EE862F5
:100AB000F4D1E868A969EB6942182946404600F07C
:100AC000DFFB0028C1D1AC6A012C0ADBA868302109
:100AD000C0470028A860B8D0E86A401C641EE862DD
:100AE000F4D195F8380040070ED5BAF1010F0BDBB1
:100AF000A8682021C0470028A860A6D0E86A401C4A
:100B0000BAF1010AE862F3D16E616E6304A881450F
:100B10001CBF484600F0E6FC304615B0BDE8F08F3B
:100B20002DE9F343054608462F696F2808BF0824BE
:100B300005D041F02001782914BF0A2410243C2656
:100B4000D5E90023642818BF69289046994606D144
:100B500000218B4203DAD8F1000869EB4909002033
:100B6000814508BF80450CD1286B50B9082C38D17D
:100B700095F83800000734D530203B2687F83B0035
:100B80002FE0701E00900646404649462246E31775
:100B900000F0E8FC02F13000C0B23A2803DB9DF817
:100BA000041051390818B855494640462246E31703
:100BB00000F0D8FC804689460020814508BF80456A
:100BC00003D0E868B9198842DBD3082C09D195F81D
:100BD0003800000705D5B85D302802D0761E3020D9
:100BE000B855B919E960C6F13C00296BA861884283
:100BF00008DA081A28624FF6EF71288F0840288714
:100C0000BDE8F38300290ED595F8381001F01401E2
:100C1000102908D1696B6A69891A2A6A891A0E1A19
:100C2000012EA8BF2E62BDE8F38300002DE9F24F2C
:100C300004468EB0D4E90001CDE9020104AF9DF86D
:100C4000380040F0200BBBF1610F0AD0206B002868
:100C500048BF062004D408BFBBF1670F01D10120B3
:100C600020636168C1F30A5040F2FF7290421CD1C8
:100C7000080304BF2068002809D10320A0619DF863
:100C8000380061381A2835D30FF2386108E00320A4
:100C9000A0619DF8380061381A2828D30FF21C6132
:100CA000E068032200F0E2FBBDE1012815DA2046EE
:100CB00000F0CFFC012810DB00250020BBF1610F04
:100CC0001FD1E16830220A708A1CE2609DF838204A
:100CD000612A0CBF782258220FE0626840F2FE3190
:100CE00061F31E52451A62604FF0FF30E6E70FF2E3
:100CF000C851D5E70FF2C851D2E74A706169891C23
:100D0000616110B90026002584E1BBF1610F40F05C
:100D10009880206BD4E900AB00284CBF2126461CEC
:100D2000DDE902010022002300F0B6FC36B23ABF32
:100D30008BF00040CDE902A0CDE902AB06F101083D
:100D40002D1FB8F1010F8DF810200DF1110736DBC2
:100D5000DDE902010022002300F0B6FC2FD21C21A5
:100D600002A800F0C9FCDDE9020100F04BFDA8F18A
:100D70000708B8F1010F814609DB00F06FFD02465C
:100D80000B46DDE9020100F081FDCDE90201F81D0D
:100D9000072105E009F00F0200F8012D4FEA29199B
:100DA000B9F1010F01DB491EF4D5491E5CBF0022D9
:100DB00000F8012DF9D5C71DB8F1010FC8DA0DF102
:100DC0001100391AB142B8BF0E4636B230000DF1EB
:100DD00011072FD4884206DA04A90144497808296A
:100DE000A8BF0F2100DA002104AA024400E0761E09
:100DF00012F80139401E8B42F9D00F2904D104A901
:100E000001444A78521C4A70002802D504AF761C6F
:100E10002D1D36B2701E0DD439180A783032D2B278
:100E20003A2A03DB9DF838303A3B9A18401E01F805
:100E30000129F2D5206B002840F1EC80701E206360
:100E4000E8E0DDE902010022002300F025FC3CBFC0
:100E500081F00041CDE902012DB247F2975068437D
:100E60004B49DFF8309190FBF1F52DB2C5F1070A3F
:100E7000BAF1010F90461CDBDDE902675FEACA7038
:100E800007D542464B463046394600F0BFFD064680
:100E90000F464046494642464B464FEA6A0A00F032
:100EA000B5FDBAF1000F80468946E7D1CDE902676A
:100EB00024E0CAF1000A0026374F14E05FEACA7046
:100EC00007D542464B463046394600F09FFD064660
:100ED0000F464046494642464B4600F097FD4FEAD2
:100EE0006A0A80468946BAF1000FE7D1DDE90201BE
:100EF00032463B4600F05CFECDE90201BBF1660FD5
:100F0000216BDFF898900CBF05F10A000620461807
:100F1000142EA8BF132630208DF810000DF11107F4
:100F2000012E3DDBDDE9020100F082FC07F1080142
:100F300004220A23B0FBF3F303EB8307A0EB470083
:100F4000303001F8010C0A20B3FBF0F000EB800711
:100F5000A3EB47033033521E01F8023DE9D1083EAE
:100F6000012E01F10807DBDBDDE9020100F060FC86
:100F700000F07EFC02460B46DDE9020100F086FC33
:100F800000224B4600F042FDCDE90201CAE700BF56
:100F9000A0860100000024400000F03F84D7974164
:100FA0000DF11100381A0DF1110702E0401E6D1EFF
:100FB0007F1C39783029F9D0BBF1660F08BF691C56
:100FC00004D0BBF1650F0CBF01210021226B8E18EC
:100FD00036B2B042B8BF064636B231001AD48142AA
:100FE00004DA785C3528A8BF392000DA30207A1876
:100FF000521E00E0761E12F80139491E8342F9D0D4
:10100000392802D1785C401C7854002902D57F1E13
:10101000761C6D1C2DB29DF83810009533B23A46FF
:10102000204600F003F80FB0BDE8F08F2DE9F0473F
:1010300086B006468A4690461D4600F002FF012D06
:10104000406A376B90F8009002DA01250FF2782899
:101050004AF02000BDF93840662808BF641C12D051
:10106000672878D114F1040F7BDBBC4279DA96F85B
:101070003800641C000702D4BD42B8BF2F4624B21A
:101080003F1B48BF002724B2F068B169012C23DA66
:101090004A1C30234354012F03DA96F83800000726
:1010A00003D5F06800F80290521CE742B8BF7C42BA
:1010B00024B260427062E719AF42B261B8BF3D46E8
:1010C000F068B3692DB2F5612A464146184400F034
:1010D000CDF9781BB062BCE022469542084416DA8E
:1010E0002A46414600F0C2F9B1696918601B012F18
:1010F000B161706203DA96F83800000705D5F06830
:1011000000F80190F069401CF061B762A1E041462F
:1011100000F0ACF9B06920182D1B012F03DA96F806
:101120003810090703D5F16801F80090401CB06140
:101130002DB2AF42B8BF3D46F068B3692DB22A4622
:1011400008EB0401184400F091F9B0692818B06167
:10115000781B70627DE0BAF1610F14D14FF0700A14
:1011600016E0BD4204DA96F83810090758BF2F463A
:101170007F1E48BF0027BAF1670F14BF4FF0450A22
:101180004FF0650A04E0BAF1410F08BF4FF0500A72
:10119000B169F368481CB061012F18F8012B5A544B
:1011A00003DA96F83810090717D5F168431CB361C4
:1011B00001F80090012F10DB6D1E2DB2AF42B8BFB9
:1011C0003D46F0682DB22A464146184400F04EF9DB
:1011D000B0692818B061781B7062F068B169014489
:1011E000200081F800A004D42B20487001F10208EF
:1011F00004E02D224A7001F102086442002502AF8A
:1012000008E00A22684600F035FE019807F8010B55
:101210006D1C009C21B20129F3DA022D06DA4AF096
:101220002000652804BF302008F8010B4DB930209C
:1012300008F8010B07E06D1E02A8405D303008F889
:10124000010B012DF7DAF068B1690844A8EB000042
:10125000F06196F8380000F0140010280DD1706984
:10126000B1690818716A0818F1690818B16A081894
:10127000716B8842BCBF081A306206B0BDE8F087C7
:10128000F8B504460D4616461F46002077B116F8FD
:10129000011BA868A047A86030B1E86A401CE8625A
:1012A00000207F1EF3D1F2BD4FF0FF30F2BD0000F1
:1012B00000000000000000006E616E004E414E0014
:1012C000696E6600494E46003000F8B504460D468A
:1012D00016461F4600F0D6FD3B46324629462046BC
:1012E00001B0BDE8F04000F0E4BD00000278C9B2F2
:1012F0008A421AB11CBF10F8012FF9E718BF00206D
:101300007047000000F10103810704D010F8011BB1
:1013100089B18107FAD10268B2F10131914311F02C
:10132000803F04BF50F8042FF6E710F8011B11B1FD
:1013300010F8011BFBE7C01A70470000C9B2830711
:1013400006D0521E22D310F8013B9942F7D11FE07C
:10135000083A13D302F1040241EA012141EA0141B2
:1013600050F8043B121F21BF4B40A3F1013C2CEA73
:10137000030C1CF0803FF3D0C9B2001F083210F8F4
:10138000013B521E28BF91EA030FF8D818BF012075
:10139000401E704780B500F075FD012002BD0000C1
:1013A00070B5054605F10F00C408AFF30080E400F6
:1013B000A54232D2082C04D2082402E0083000F002
:1013C00091F82248026811000CD1011D0A6802B38D
:1013D0001368A34238BF111DF8D310E01D68A54261
:1013E0000DD2191D0B68002BF8D11268011D00E009
:1013F000191D0B6893420CD01D68A542F8D361B14A
:101400000D682A68A2F10803A3420AD26A680A603A
:101410000FE000F071FD0028D0D1AFF30080002074
:1014200070BD2B190B60121B6E685E600B681A6032
:101430002C60096800291DBF4A68002A091D002187
:101440000160AFF3008005F1080070BD00110020BD
:1014500070B504460D46164600F014FD3246294686
:101460002046BDE8704000F017BD000062B38B0756
:1014700008D0521E11F8013B00F8013B00F0248017
:101480008B07F6D1830740F0208000BF103A07D3C6
:1014900030B4B1E83810103AA0E83810F9D230BCB6
:1014A000530724BFB1E80810A0E8081044BF51F862
:1014B000043B40F8043BD20724BF31F8022B20F84C
:1014C000022B44BF0B7803707047083A07D3B1E88A
:1014D0000810083A40F8043B40F804CBF7D2530711
:1014E000E4E7000000B9704738B5A0F108042068AF
:1014F000082833D310F0070F30D1AFF3008018481D
:10150000416809B18C4203D26160446017E019461A
:101510004B680BB1A342FAD30B68CD18AC421BD376
:10152000A54204D12268D2180A600C4607E04A6836
:101530001AB1236823449A420ED362604C606168FA
:1015400051B12268A3188B4206D1002303600868BA
:101550008018206048686060AFF3008031BD0000F3
:10156000001100201B4213D1094236D12AB1844612
:10157000B0FBF2F002FB10C2704700F0D3BCFCD30A
:101580000022002370470B0002000021002070475A
:10159000904271EB030CF6D370B5B1FA81F4B3FA53
:1015A00083F52C1BA340C4F1200532FA05F6334322
:1015B000A2405FF00046E64002E05B085FEA3202CC
:1015C000841A71EB030524BF204629467641F4D3E3
:1015D00002000B003000002170BD012ACFD970B588
:1015E000140C20D0B1FA81F4B2FA82F5C4F12004CF
:1015F0006419B4F12006D6D3B2405FF00044F44041
:10160000002502E052085FEA3303C61A71EB020EAE
:1016100024BF3046714664416D41F3D302000B0094
:101620002000290070BD0C46B1FBF2F102FB114510
:101630002D0445EA1045B5FBF2F402FB145580B2C7
:1016400040EA0545B5FBF2F002FB105240EA0440C7
:1016500070BD30B4436803F000420121C3F31303AB
:101660004360002B04BF0368002B08D10DE0036822
:10167000DD0F45EA440444605B000360491E446892
:10168000E302F4D5C4F31303436043681A43426092
:10169000084630BC704700004FF4001C1CEB410FA3
:1016A00094BF1CEB430F09E041EA030C50EA4C0CD9
:1016B00052EA0C0C03D2994208BF9042704714BF03
:1016C0008B428242704700004FF4001C1CEB410F1C
:1016D00094BF1CEB430F09E041EA030C50EA4C0CA9
:1016E00052EA0C0C03D28B4208BF8242704714BFEF
:1016F000994290427047000070B504460D466068FC
:10170000C0F30A5040F2FF71884207D160680003BD
:1017100004BF2068002817D0022070BD20B92046E1
:10172000FFF797FF012866DA012D0FDB40F2FF710A
:10173000091A8D420AD36068002847BF00202F494C
:1017400000202F49C4E90001012070BD4142A94297
:10175000616806DA6FF31E51401941EA005060607B
:1017600040E0401E63684519012205F1350062F32F
:101770001F53352801F00041636003D361600020EE
:10178000206070BD002015F11F0F04DA206823606F
:101790000022203562606A4212D0401E25688041D6
:1017A000C2F12003C0439D4045EAD07025686668B9
:1017B000D54006FA03F32B4323606368D34063608C
:1017C00062680A43B0F1004F626003D80DD12078FF
:1017D000C0070AD52068401C2060206828B96068CE
:1017E000401C60604FF0FF3070BD6068884204BFED
:1017F00020680028F6D1002070BD00BF0000F0FF77
:101800000000F07FF446400D40EAC120490006D2B6
:1018100000F014F8004248BF6FF00040604700F04D
:101820000DF84FF0004188428CBF084640426047A7
:10183000400D40EAC120490080F00D8040F000409A
:10184000490DA1F58061491C05D4D1F11F0154BF98
:10185000C840C01770474FF000007047010040F1CA
:101860000980F446404200F005F851F0004160471D
:10187000010000BF09D0B0FA80F18840C91CC1F551
:101880008461090501EBD02140057047F0B44FF0A9
:10189000004591EA030F44BF6B4000F045BB00BF19
:1018A000841A71EB030604D26E40001BB141121979
:1018B00073414FF4001C1CEB410F34BF7CEB43061B
:1018C00084E00C0DA4EB1356362E7DDC012E43DC98
:1018D00045EAC32343EA525312BFD20292025B0885
:1018E000240545EAC12141EA5051D2EBC02099417B
:1018F00025D407D1B0FA80F610FA06F164D00020A2
:10190000203608E0B1FA81F6B140C6F1200220FA93
:1019100002F21143B0404FEAF474B4EB465434F091
:1019200001064FEA74040AD8D6F50016760D04F0C5
:101930000044F04061FA06F25040F1404840C00ACD
:1019400040EA415021F0004128BF5FEA500550F1C4
:10195000000044EBD12137E045EAC323DB0A45EA26
:10196000C121C90AB6F120050EDD42EA0242120C7D
:10197000C5F1200603FA06F6EB4042EA06056D4281
:10198000984161F100010DE062FA06F5F240554020
:1019900063FA06FC82EA0C02F3405A406D42904121
:1019A00061EB030111F4801F05D1641E620502D0B2
:1019B0006D004041494121F48011430875F1004315
:1019C00050F1000041EB0451F0BC70471CEB410F9B
:1019D00015D223F0004352EA43060BD04FEA4C0CD9
:1019E000BCEB410F04D80C0D661E342EB7DDEBE7BF
:1019F000801A994150EA410608BF0021E4E708BF78
:101A00001CEB430F28BF6FF00001DDE7B0B581EAA2
:101A1000030C0CF0004C40F2FF7515EA11541DBF89
:101A200015EA1357AC42AF4239E0E41923EA4553B3
:101A300043F48013C90241F0004141EA505EC702FD
:101A40001100A7FB020200284FF00000EEFB01206E
:101A50004FF00001E3FB072118BF42F001024018DC
:101A600000214941E3FB0E01A4F580640F0302D27B
:101A700052004041494154F101046CDD470872F1C4
:101A8000004250F1000051EB0451A1F580115CBF00
:101A900041EA0C01B0BD4CEA05510020B0BD05EA99
:101AA0001357AC4214BFAF4241E050EA410E1CBF95
:101AB00052EA430E02E061460020B0BD24423C449D
:101AC0001BD15FEA070EF6D0090302BF01460020D2
:101AD000AEF1140EB1FA81F7AEEB070401FA07FE7E
:101AE0000C37C7F1200100FA07F7C8404EEA000E94
:101AF00023EA455343F48013A2E733F00043B3FADB
:101B000083F704BFB2FA82FE77440B3FE41BB7F1C0
:101B1000200E2FBF02FA0EF3BB40C7F1200E22FAAF
:101B20000EFE38BF43EA0E03BA40641C82E750EA57
:101B3000410E14BF52EA430E6FF000014FF400173C
:101B400017EB430F8ABF194617EB410FB5E74CEA75
:101B500005510020B0BDD4F10104B4F120070FDA23
:101B6000C4F12007520828BF42F0010210FA07F51D
:101B700001FA07F7E1BF2A43E0403843E1400FE0B4
:101B8000352C98DCC7F1200452EA400220FA07F213
:101B900018BF42F0010231FA07F0A1400A430021C8
:101BA00072F1004250F1000051EB0C01B0BD000099
:101BB0002DE9F04140F2FF7581EA030C0CF0004C76
:101BC00015EA11541DBF15EA1357AC42AF42E9E0C4
:101BD000BC41C1F31301C3F31303801A994143F4C9
:101BE000801304D2641E4000494180185941C90243
:101BF00041EA5051B1FBF3F603FB1611A2FB067547
:101C0000D7EBC020A94102D2761E80185941C902E3
:101C100041EA5051B1FBF3FE03FB1E11A2FB0E750E
:101C2000D7EBC020A94103D2AEF1010E8018594173
:101C3000890241EA9051760546EA8E2EB1FBF3F611
:101C400003FB1611A2FB0675D7EB8020A94102D237
:101C5000761E80185941C90241EA50514EEA060EDB
:101C6000B1FBF3F603FB1611A2FB0675D7EBC02000
:101C7000A94102D2761E80185941C90241EA505149
:101C8000B1FBF3F703FB1711A2FB0735D3EBC02021
:101C9000A94167F100070CBF004247F0010766F356
:101CA000D5274FEA1E31B80814F5806414DDBD074E
:101CB00075F1004250EB0E5051EB045111F5801FAD
:101CC0005CBF41EA0C01BDE8F0814CF07F6141F05E
:101CD000E0410020BDE8F081BD076D0840EA0E50EC
:101CE00041F48011D4F10104B4F120060ADAC4F100
:101CF00020060200E04001FA06F3E1401843B2403A
:101D000015430EE0342C14DCC6F1200445EA4005EE
:101D10006D0820FA06F2154321FA06F0A1400D43A2
:101D2000002175F1004250F1000051EB0C01BDE8BB
:101D3000F08100205FEA0C01BDE8F081CFB9921874
:101D40005B41B3FA83F704BFB2FA82F6BF190B3FC7
:101D5000B7F120062FBF02FA06F3BB40C7F12006F9
:101D600022FA06F638BF3343BA401CB1E419641EA8
:101D70002FE77F4231F00041B1FA81F404BFB0FA9D
:101D800080F6A4190B3CB4F120062FBF00FA06F12F
:101D9000A140C4F1200620FA06F638BF3143A04026
:101DA0003C1B16E7AC421ABF05EA1357AF4214E0DA
:101DB00050EA41061CBF52EA4306BFE750EA41071A
:101DC000304661461CBF41EA0551BDE8F08152EA48
:101DD000430C08BFC143BDE8F08100204FF400165A
:101DE00016EB410F98BF16EB430F08BF16EB410FE0
:101DF00024BFC14305E016EB430F0CBF61464CEA1C
:101E00000551BDE8F081000080B5134800F0F6F8F8
:101E10000FF24C020FF244010160426241600FF286
:101E20004402826381600FF24402C160016141613A
:101E300081618162C16201634163C2630164416483
:101E400001BD10B5044800F0D9F80446206808B96F
:101E5000FFF7DAFF204610BDB000002000000000B0
:101E60002E00000066616C73650000007472756579
:101E70000000000091FBF2F303FB1211C0E90031F6
:101E80007047000080B5DFF80C0000F0B7F88069FB
:101E900002BD00004001002030B430B90FF248000C
:101EA000D0E90045C2E900451BE00170012030BCCB
:101EB000704730B431B90FF23800D0E90045C3E9BA
:101EC00000450EE01AB930BC6FF00100704708B150
:101ED0000A7802800978481E804130BCC043C00F98
:101EE0007047002030BC7047000000000000000078
:101EF00000000000000000000749086808B1002049
:101F000070470648C008C00008600549C908C900F4
:101F1000091A0160704700BF08110020B7050020B2
:101F2000B007002070470000841A71EB030603D24B
:101F3000001BB141121973414FF4001C1CEB410FFF
:101F400034BF7CEB430443E00C0DA4EB1356352E59
:101F500050DC45EAC323DB0A45EAC121C912B6F1C8
:101F600020050DDD63FA05F6EB4086EA0305124213
:101F700018BF45F00105C01851F100010CD213E063
:101F800062FA06F5F2405540F3415A40B340F3403F
:101F90005A408018594107D349085FEA30005FEA88
:101FA000350528BF45F0010501F58011420875F19E
:101FB000004250F1000041EB0451F0BC4FF4001C12
:101FC0001CEB410F38BF70470020090D0905704711
:101FD0001CEB410F10D252EA43060BD0BCEB410F71
:101FE00005D80C0DAB43661E342EB5DD02E0AB43C5
:101FF00080185941F0BC7047F0BC70477047000032
:102000002DE9F8430446DFF868542078C00747D527
:10201000686800F00C00042807D0686800F00C0025
:1020200008280AD16868C00307D52868800337D517
:102030006068002834D1012049E16068B0F5803F34
:1020400009D008B928680AE0B0F5A02F286806D1A1
:1020500040F480202860286840F4803005E020F4B7
:1020600080302860286820F480202860606858B19B
:1020700000F01EFA07462868800311D400F018FA11
:10208000C01B6528F7D31FE100F012FA0746286845
:10209000800305D500F00CFAC01B6528F7D313E1C7
:1020A0002078DFF8D863800718D5686810F00C0F27
:1020B00007D0686800F00C00082825D16868C003C4
:1020C00022D42868800702D520690128B3D1286866
:1020D000616920F0F80040EAC1002860207800071C
:1020E0003ED5A169DFF89803002965D00121016080
:1020F00000F0DEF90746686A800722D400F0D8F9BC
:10210000C01B0328F7D3DFE0206968B101203060ED
:1021100000F0CEF9074628688007D8D400F0C8F947
:10212000C01B0328F7D3CFE0306000F0C1F90746A9
:1021300028688007D2D500F0BBF9C01B0328F7D36D
:10214000C2E0DFF830030068C0084FF47A71B0FBDA
:10215000F1F0009000BF0098411E00280091F9D1D5
:10216000207840076FD5E869C0004FF000080AD416
:10217000E86940F08050E8614FF00108E86900F03C
:10218000805000900098DFF8FC92D9F80000C0055C
:102190001FD4D9F8000040F48070C9F8000000F0A6
:1021A00087F90746D9F80000C00512D400F080F97D
:1021B000C01B6528F6D387E0016000F079F9074677
:1021C000686A8007CCD500F073F9C01B0328F7D3E9
:1021D0007AE0E068012808D008B9286A09E00528F3
:1021E000286A06D140F004002862286A40F0010005
:1021F00005E0400840002862286A20F004002862B8
:1022000041F28939E06858B100F052F90746286A6E
:10221000800711D400F04CF9C01B4845F7D353E0B8
:1022200000F046F90746286A800705D500F040F916
:10223000C01B4845F7D347E0B8F1000F03D0E86969
:1022400020F08050E861E06900283FD0696801F023
:102250000C0108293FF4EFAE02282AD100F039F82A
:1022600007462868800105D500F022F9C01B032825
:10227000F7D329E0206AB0F5803F05D16868A168EE
:1022800020F40030084368606868216A20F4741004
:102290000843616A08436860012000F01BF80746A4
:1022A0002868800112D400F003F9C01B0328F7D37B
:1022B0000AE000F00EF807462868800106D500F015
:1022C000F7F8C01B0328F7D3032000E00020BDE887
:1022D000F2830020306600F0EBB82DE9F8436A4E37
:1022E00004463068884600F00700404502D200F0FE
:1022F00079F852D120785E4F800705D57868A168BB
:1023000020F0F000084378602078C0073DD5606871
:10231000012802D13968890303E00228396802D113
:10232000890102D439E0890737D57968890840EAFC
:102330008100786041F2893900F0BAF8054660689A
:1023400001280AD1786800F00C0004281DD000F0A4
:10235000AFF8401B4845F5D315E002280AD178684C
:1023600000F00C00082810D000F0A2F8401B4845EF
:10237000F5D308E0786810F00C0F06D000F098F85C
:10238000401B4845F6D303202AE0306800F00700E0
:10239000804504D200F026F801D0012020E020780A
:1023A000400705D57868E16820F4E060084378606C
:1023B0002078000706D57868216920F4605040EA4B
:1023C000C100786000F018F87A683049C2F303124F
:1023D000895CC84027490860002000F06FF80020A1
:1023E000BDE8F2833068C00848EAC0003060306859
:1023F00000F007004045704710B586B001A80FF205
:102400009C011022FFF742F80FF2A000204900883B
:10241000ADF800000A68184802F00C03082B10D130
:1024200001ABC2F38344D2031B5D08D50968C1F335
:10243000404158431DF80110B0FBF1F001E0154890
:10244000584306B010BD0B48006870470948104A51
:10245000006812681049C2F3022206E005480C4ADF
:10246000006812680C49C2F3C222895CC8407047F8
:10247000001002400C00002000127A0000004242CE
:1024800080044242007000400020024010450008D5
:102490000410024000093D009C46000802030405A8
:1024A000060708090A0B0C0D0E0F101001020000A0
:1024B00001484068704700BF0000002038B50D4D4E
:1024C000297804464FF47A70B0FBF1F00A490968A4
:1024D000B1FBF0F000F053F850B9102C08D20022F4
:1024E00021464FF0FF3000F023F8AC60002032BDF1
:1024F000012032BD000000200C000020090100284E
:1025000006D52E4A00F00F00104400F8041C704756
:102510002B4A115470472B490A684FF6FF030002FB
:102520001A4000F4E0601043274A104308607047E7
:1025300038B5244B1B68C3F30223C3F10704052CF1
:1025400028BF04241D1D072D34BF0023DB1E0125D9
:1025500005FA04F4641E2140994005FA03F35B1E5A
:102560001A401143BDE83440C8E7012100F01F02C2
:102570009140164AFFE7400942F82010704710B515
:10258000401EB0F1807F01D3012010BD104C60606F
:102590000F214FF0FF30FFF7B1FF0020A0600720B0
:1025A0002060002010BD0A49042808680CBF40F0D4
:1025B000040020F0040008607047000018ED00E0FF
:1025C00000E400E00CED00E00000FA0500E100E0AE
:1025D00010E000E000F000B87047000010B5DFF830
:1025E0001443002200F0D4F80A2000F019FA00F099
:1025F000CEF8BDE810404FF4C86000F011BA70B5D5
:10260000DFF8F44282B000F0BCF8DFF8F0520422A8
:102610002946A01DFEF72AFF0422291D00F09EF87E
:10262000042205F1080100F095F8042205F11001DB
:1026300004F11200FEF71AFF287B0FF2D0260128C2
:1026400004BF304600F000FA287B022824D100F0B5
:1026500043F9207F002801BF607F0828A07FDC2885
:1026600014D10FF2C82000F0EFF9042204F1220186
:10267000A01DFEF7FBFE042204F1260100F06EF817
:10268000042204F12A0100F065F805E00FF2B02001
:1026900000F0DAF900F015F9287B012825D1687BD4
:1026A00001281BD10FF2D020954E00F0CDF9042265
:1026B000B11DA01DFEF7DAFE042206F10A0100F0AA
:1026C0004DF8042206F10E0100F044F8042206F150
:1026D000120104F11200FEF7C9FE06E00FF2A82075
:1026E00000F0B2F9304600F0AFF90120A0760020EA
:1026F000E07604F10A0000F0C9F904F10E0000F0E0
:10270000B9F9A01D00F0CEF9284600F0D7F9E87815
:10271000AB786A78297800900FF28C2000F094F959
:10272000281D00F0C5F9E879AB796A79297900901C
:102730000FF2942000F088F905F1080000F0A0F9EC
:10274000E87AAB7A6A7A297A00900FF29C2000F03E
:102750007BF973BD04F10E00FEF788BE04F10A0098
:10276000FEF784BE10B5644C00F00BF8204600F074
:1027700093F904F13001BDE8104006226048FEF7ED
:1027800075BE062204F130012046FEF77FBE01220D
:102790000421204600F040BB01460A000CBF002285
:1027A0000129544802D1102100F036BB704700B512
:1027B00083B001238DF8050001AA6FF07F400090DF
:1027C0000DF105014F4800F049FB10B1FF208DF8D5
:1027D00004009DF804000EBD38B504460D4600F017
:1027E00047F800F047F800F040F800F039F82846C4
:1027F000FFF7DDFFBDE832400120CDE710B504460C
:1028000000F036F800F036F800F02FF804F0F80089
:10281000FFF7CDFF0020FFF7CAFF04460120FFF7B6
:10282000BBFF204610BDF8B50446164600270D46EE
:10283000300004BF0FF2D01000F006F900F018F8D5
:1028400000F018F800F011F800F00AF804E0BFB248
:10285000E85DFFF7ACFF7F1CB8B2B042F7D32BE0C6
:1028600004F0F800001DC0B2A1E72004000E9EE7AE
:10287000002091E72002000E99E7F8B504461646BD
:1028800000270D46300004BF0FF27C1000F0DCF88A
:10289000FFF7EEFFFFF7EEFFFFF7E7FF04F0F800AA
:1028A000FFF785FF05E00020FFF781FFBFB2E85585
:1028B0007F1CB8B2B042F6D30120FFF76DFF30465F
:1028C000F2BD80B5122200210B4800F09AFDBDE850
:1028D00002400A2000F0CEBD80B500F055FD122266
:1028E0000021094800F05BFDBDE802400A2000F02D
:1028F000C3BD000000080140200000205800002057
:10290000E8100020B00F00203C00002020CAB9D3FE
:10291000C3B6A8D2E5B5C44950D0C5CFA2C5E4D648
:10292000C357353530300D0A0000000020495020D3
:1029300066726F6D20454550524F4D0D0A000000E4
:1029400020454550524F4DCEB4C5E4D6C32CCAB92C
:10295000D3C3B6A8D2E5B5C44950D0C5CFA2C5E40B
:10296000D6C357353530302CB2A2D0B4C8EB45456C
:1029700050524F4D0D0A00002049502066726F6D75
:1029800020444843500D0A002044484350D7D3B355
:10299000CCD0F2CEB4D4CBD0D02CBBF2D5DFB2BBEE
:1029A000B3C9B9A60D0A000020573535303020498B
:1029B00050B5D8D6B72020203A2025642E25642E85
:1029C00025642E25640D0A0020573535303020D778
:1029D000D3CDF8D1DAC2EB203A2025642E25642E1F
:1029E00025642E25640D0A0020573535303020CD62
:1029F000F8B9D820202020203A2025642E25642EE6
:102A000025642E25640D0A00556E65787065637423
:102A1000656432206C656E67746820300D0A0000B2
:102A200038B50446FFF744FD14F1010F054602D006
:102A3000044800780419FFF73BFD401BA042FAD37D
:102A400031BD00BF000000200EB400B582B003A964
:102A5000009102466B460121034878440A30FDF795
:102A600067FB06BC5DF810FBF51B0000744931F8EC
:102A700010007047014604224FF48070FFF7D3BE68
:102A8000014604224FF48070FFF7F7BE014604228E
:102A90004FF4A060FFF7C7BE014606224FF4106056
:102AA000FFF7C1BE014604224FF47060FFF7BBBEC2
:102AB000014604224FF4A060FFF7DFBE0146042266
:102AC0004FF47060FFF7D9BE400100F50270FFF7C8
:102AD00095BE400100F50270FFF77EBE400100F593
:102AE0004270FFF78BBEF8B5400100F5045500F5C4
:102AF000005605E0F8B5400100F51C5500F51856E4
:102B000000240835083600F034F8074600F02CF8A9
:102B100000EB0727BFB237B100F02BF8044600F0F6
:102B200023F800EB0424A4B2BC42ECD12046F2BD51
:102B30002DE9F8431400884606D1BDE8F443014668
:102B40000FF20010FFF780BF470107F5105500F0A6
:102B50000AF807F5145600F00AF800F033F81030C0
:102B6000FFF761FE22E008352846FFF747BE8146A1
:102B700008363046FFF742BE2DE9F8431400884678
:102B800006D1BDE8F44301460FF2D800FFF75CBF61
:102B9000470107F52055FFF7E6FF07F52456FFF735
:102BA000E6FF00F00FF81830FFF767FE4C44A4B2C0
:102BB000210A2846FFF710FEE1B23046BDE8F44393
:102BC000FFF70ABE00EB09201FFA80F907EB092086
:102BD0002246414670472DE9F84F002604460D462F
:102BE000B046002744F20109DFF854A04FEA471B22
:102BF000E15D0BF5F8500830FFF7EEFDE95D0BF5F0
:102C0000F0500830FFF7E8FD00202AF817000021F7
:102C10000AEB47004E45018203DAE15D89022AF89A
:102C20001710C84502DAE95D890201823AF81710E7
:102C3000008A8E197F1C082F8044D7DBBDE8F18FF6
:102C4000C810002043483A20256420556E657870EE
:102C5000656374656431206C656E67746820300D3F
:102C60000A00000043483A20256420556E657870BC
:102C7000656374656432206C656E67746820300D1E
:102C80000A0000002DE9F8474FF0000E0022644BC7
:102C9000DFF89081DFF890914FF00F0A012707FAD3
:102CA00002F60F683740B74240F0AA804C685CB328
:102CB000012C1AD0022C1FD0032C31D0112C17D08C
:102CC000122C1DD0594DAC421CBF594DAC421BD0EB
:102CD000584DAC421CBF584DAC4215D0574DAC427C
:102CE0001CBF574DAC420FD01CE0D1F80CE019E0EE
:102CF000CC6804F1040E15E0CC6804F1080E11E074
:102D0000CC6804F10C0E0DE08C6814B94FF0040E81
:102D100008E0012C4FF0080E14BF4661066101E087
:102D20004FF0000EFF2F02D88446940004E0A2F179
:102D3000080400F1040CA400DCF800500AFA04F6C0
:102D4000B5430EFA04F42C43CCF800404C68E40080
:102D500056D5D9F8004044F00104C9F800404FEAC4
:102D6000920CD9F8005005F001040094009C58F82A
:102D70002C50940004F00C040AFA04F6B543314ECA
:102D8000B04208BF002618D02F4EB04208BF01261F
:102D900013D02E4EB04208BF02260ED02C4EB042A9
:102DA00008BF032609D02B4EB04208BF042604D02A
:102DB000294EB0420CBF0526062606FA04F42C4321
:102DC00048F82C40FD434C68E4031C684CBF3C436E
:102DD0002C401C604C68A4035C684CBF3C432C40F6
:102DE0005C604C68E4029C684CBF3C432C409C6097
:102DF0004C68A40247BFDC682743DF682F40DF60D0
:102E0000521C102AFFF44AAFBDE8F18780680840E1
:102E100018BF0120C0B2704702B9090401617047B0
:102E20000004014008000140181002400000111089
:102E300000001210000021100000221000003110CC
:102E40000000321000080140000C01400010014059
:102E50000014014000180140001C01402DE9F84F0A
:102E6000064606F1500501272878002401288946E6
:102E700090469B4608BF022000F0B5802F70FFF7F8
:102E800017FB82466878012809D07168B1F5827F06
:102E900002BFB1680029042801D00224A1E0B9F1E1
:102EA000000F1CBFB8F1000FBBF1000F01D10124CE
:102EB00097E06878012804BF052068706C60C6F848
:102EC0003880A6F83EB0A6F83CB0C6F83090A6F818
:102ED00036B0A6F834B03464746400F0B2F801D4AB
:102EE00000F0AAF8F068DDF828B0B0F5006F70685F
:102EF00031D100281CBFF08E012805D1316839F886
:102F0000020BC86000F07CF8F08E002804BFF08F40
:102F1000002852D0002F1CBFF08E002807D000F0F0
:102F200077F804D539F8021BC16000F068F8F08F1B
:102F300038B100F069F804D5C06828F8020B00F039
:102F400054F81BF1010FDFD0FFF7B2FAA0EB0A0033
:102F50005845D9D337E000281CBFF08E012805D191
:102F6000316819F8010B087300F04AF8F08E002858
:102F700004BFF08F002820D0002F1CBFF08E002847
:102F800007D000F045F804D519F8011B017300F0D3
:102F900036F8F08F38B100F037F804D5C06808F87B
:102FA000010B00F022F81BF1010FDFD0FFF780FAD0
:102FB000A0EB0A005845D9D305E0CDF800A05B4648
:102FC00000F018F808B103240BE052465946304689
:102FD00000F0FFF818B120200124686001E000F043
:102FE00021F800F019F8BDE8F28F0127F08F401E9C
:102FF000F087704701220221304600F0A5B8002773
:10300000F08E401EF086704730688168C9077047AF
:103010003068816889077047012068700020287037
:1030200020467047B06830B900903068C1680091A0
:103030008068009000987047016841F0400101608D
:10304000704730680168490670472068016821F0C0
:10305000400101607047206841688908890041602B
:10306000704738B5044620684168826802F0410321
:10307000012B06D14B0604D5216C2046BDE8344017
:103080000847930706D50B0604D5616C2046BDE8BA
:103090003440084712F0600F4ED08B064CD55306D3
:1030A0000ED594F85130032B39D0636D43F00403EF
:1030B000636500230093C368009383680093009BBB
:1030C00092060CD5626D42F0010262650022009208
:1030D00082680092026822F0400202600098606DEF
:1030E00050B32068426822F0E0024260012011F0F3
:1030F000030F84F851001AD020680FF24105FFF742
:10310000ABFFE06C18B14563E06C00F0CBF9A06C4C
:1031100090B14563A06CBDE8324000F0C3B9002116
:103120000091C168009180680090009831BD2046F0
:10313000BDE8324000F044BA31BD0000406A0021D1
:10314000C187C18600F03CBA2DE9F041069E0446D5
:103150000D4690461F46206880682840A8420CBF54
:1031600001200020404531D017F1010FF3D027B1E5
:10317000FFF79EF9801BB842EDD32068416821F02B
:10318000E00141606068B0F5827F08D1A068B0F5C9
:10319000004F18BFB0F5806F01D1FFF756FFA06A4E
:1031A000B0F5005F0AD1206801684DF6FF7211404A
:1031B00001602068016841F40051016004F1500091
:1031C0000121417000210170032000E00020BDE8D2
:1031D000F08110B582B00B46009204460022802197
:1031E000FFF7B2FF20B1606D40F020006065032062
:1031F00016BD0000704710B500F084F80122402190
:1032000000F083F8FFF7F6FF0022802187E010B579
:103210005B4C002200F078F8012267E070B50446AC
:103220000025574E20064CBF012200228021304647
:10323000FFF7F2FDFFF7DEFF00F02BF8FFF7DAFFF4
:10324000002200F027F8072D04D10122802130460A
:10325000FFF7E2FDFFF7CEFF64006D1C082DE1DBF8
:1032600070BD70B500240825454E00F012F8FFF738
:10327000C1FF80213046FFF7C9FD640000B1641C26
:10328000002200F007F8FFF7B5FF6D1EEDD1E0B2A8
:1032900070BD012240213046FFF7BEBD38B500F0B9
:1032A00031F8FFF7A7FF0122402100F02EF8FFF7C9
:1032B000A1FF80212046FFF7A9FD050018BF0125C9
:1032C0000022402100F021F8FFF794FF284632BD8C
:1032D00010B52B4C002200F017F8FFF78BFF0122EE
:1032E000402100F012F8FFF785FF0022402100F096
:1032F0000CF8FFF77FFF2046BDE810400122802137
:10330000FFF78ABD1E4C012280212046FFF784BDB5
:1033100010B5FFF7F7FFFFF76DFF01224021FFF720
:10332000F4FFFFF767FF00224021FFF7EEFFBDE843
:1033300010405FE710B50446124886B0016841F0BE
:103340000801016001A9006800F0080000900098E1
:10335000C020019011200290012004900848FFF73E
:1033600091FCFFF754FFFFF746FF2046FFF756FF9B
:10337000FFF794FF0446FFF74AFF204606B010BD52
:10338000000C01401810024080B5A020FFF7D2FFCA
:1033900008B9012002BDFFF73AFF002002BD70B559
:1033A00004460D461646FFF726FFA020FFF736FF1E
:1033B000FFF774FF08BBE8B2FFF730FFFFF76EFFBF
:1033C000D8B9FFF718FFA120FFF728FFFFF766FF26
:1033D00098B9002502E0FFF79BFF6D1CB54208DAA3
:1033E000FFF73FFF6055701E8542F4D0FFF770FF76
:1033F000F3E7FFF70CFF012070BDFFF708FF002087
:1034000070BD2DE9F04104460D469046002725E0A9
:10341000002F1CBF0720054218D1FFF7F8FE002639
:10342000FFF7E9FEA020FFF7F9FEFFF737FF20B115
:10343000761CB6B2B6F57A7FF2DBB6F57A7F13D09A
:10344000E8B2FFF7EBFEFFF729FF68B9E05DFFF791
:10345000E5FEFFF723FF38B96D1C7F1C4745D7DB1E
:10346000FFF7D5FE012002E0FFF7D1FE0020BDE806
:10347000F0810000FFF7D4BA094A08491278504396
:1034800048600020886001200860086800F0011092
:103490000128FAD0002008608860704710E000E042
:1034A0000C110020F8B590F821200024022A00F128
:1034B000340103D004204860012462E00268DFF890
:1034C000CC70136823F00E0313604FF4805502682C
:1034D00013685B085B0013604FF480320368BB42E3
:1034E0004FF4807619D3DFF8A070BB4208BF0122E9
:1034F00010D0DFF89C70BB4208BF10220AD0DFF862
:103500009470BB4208BF324604D0DFF88C60B342EF
:1035100008BF2A46DFF8843029E0DFF88470BB4218
:103520001ED0DFF88070BB421CD0DFF87C70BB423D
:103530001AD0DFF87860B3420EBF2A46DFF8705029
:10354000AB4212D0DFF86C50AB4208BF4FF4801290
:103550000BD0DFF86450AB4207D14FF0807204E02B
:10356000012202E0102200E03246DFF850301A60FB
:10357000012280F8212080F8204009680A0018BF45
:1035800088472046F2BD0000080402408100024046
:103590001C0402403004024044040240040402407F
:1035A000080002401C00024030000240440002407B
:1035B000580002406C0002408000024004000240BB
:1035C000704700005A490A685206FCD5C2B24A60E8
:1035D000704710B586B000F06BF900F0C4F855489C
:1035E000554C016841F0040101600022016801F0BE
:1035F000040104910499016841F00801016010215F
:10360000006800F00800049004982046FFF704FCCE
:103610000820009069460020019001200290204679
:10362000FFF730FB102000F097F8022003902046AF
:10363000FFF728FB414C424820604FF482706060E5
:103640000020A060E06002202061012060614FF452
:103650000070A0610020E06120626062A0620A2028
:10366000E062204600F036F900B1FEE73548A0657B
:10367000002020666066E0664FF4602060670020EE
:10368000E0650120A06604F1580000F065F900B182
:10369000FEE7082000F060F804F1580000F0E4F9BB
:1036A00000B1FEE704F18800214901604FF4E131E7
:1036B000416000218160C16001610C2141610021F4
:1036C0008161C16100F0B2FA00B1FEE704F1580077
:1036D00000F056FB0FF20810FFF7B6F9FEF77EFF79
:1036E000FFF740F8FEF78BFF17491848FFF773FA0A
:1036F0000FF20C10FFF7A8F91548C17883784278CB
:10370000009101780FF22C10FFF79EF91148018803
:103710000FF23810FFF798F90FF24010FFF794F905
:103720000FF27410FFF790F900F096FBFCE7000031
:10373000003801401810024000080140B00F00207E
:10374000003001400024014018000020100000203B
:103750006C000020AE01002000906946012001901D
:1037600000200290704700B595B002200B90012018
:103770000F9010201090002012900BA8FEF740FC34
:1037800000B1FEE70F200090002100200190029080
:103790004FF480600390002004906846FEF79DFD82
:1037A00000B1FEE7022005904FF44040079005A8C5
:1037B00000F0AAFB00B1FEE7FEF745FE4FF47A7178
:1037C000B0FBF1F0FEF7DBFE0420FEF7ECFE00227A
:1037D00000214FF0FF30FEF7ABFE15B000BD00003A
:1037E000205735353030CDF8C2E7CDA8D0C5B2E28C
:1037F000CAD42044656D6F2056312E30200D0A004A
:1038000020B5E7C4D4D7F7CEAA544350B7FECEF1C3
:10381000C6F72CC8C35735353030D7F7CEAA205459
:103820004350BFCDBBA7B6CBC8A5C1ACBDD3200A02
:103830000000000020B7FECEF1C6F749503A2564DB
:103840002E25642E25642E25640A000020BCE0CCC1
:10385000FDB6CBBFDA3A2564200A000020C1ACBD1A
:10386000D3B3C9B9A6BAF3A3ACB7FECEF1C6F7B7C6
:10387000A2CBCDCAFDBEDDB8F85735353030A3AC8C
:103880005735353030BDABB7B5BBD8B6D4D3A6CAE3
:10389000FDBEDD200A00000020D3A6D3C3B3CCD0E8
:1038A000F2D6B4D0D0D6D0A1ADA1AD0A00000000B0
:1038B00080B50748016841F0100101600320FEF760
:1038C0002AFE0020FEF7FAFD00F006FC002002BDF3
:1038D0000020024010B5040001D1012010BD0020DD
:1038E000A06294F8510010B9204600F059FC022063
:1038F00084F851002068016821F04001016060688F
:10390000A1680843E16808432169084361690843E5
:10391000A16901F400710843E1690843216A084381
:10392000A16A084321680860A069616A000C00F080
:1039300004000843216848602168E06A0861206843
:10394000C16921F40061C16100206065012084F833
:103950005100002010BD0000F8B5044600250026E7
:10396000002C7AD004F12407786820B9B860387048
:10397000204600F0FAFB204600F036F97968C906C7
:103980006CD401006AD17968DFF8402221F48851B3
:1039900041F0020179602168D4F804C0E3689142E3
:1039A000E26904BFB2F5402F4FF4002242EA0C0254
:1039B000D4F808C0BCF5807F14BFBCF1010F4FF4F0
:1039C0008075D4F814C0BCF1010F42EA43020FD154
:1039D00033B9A3695B1E5B0343F400631D4307E037
:1039E0007B6843F020037B60BB6843F00103BB604E
:1039F0004B6823F469432B434B602168DFF8D051B7
:103A00008B682B4013438B60A168B1F5807F18BF92
:103A1000012902D12169491E0E052168CB6A23F4D0
:103A200070033343CB622168DFF8A83189681940FD
:103A3000914208D10021B960796821F0020141F07A
:103A400001017960F2BD786820F0020040F01000BA
:103A50007860B86840F00100B86003E0786840F032
:103A6000100078600120F2BDF8B50A46002100F18F
:103A7000240300911C78012C01D10220F2BD012405
:103A80001C701F26576814680568072F08D27F1E10
:103A900007EB8707D5F834C000F05DF86C6312E0DF
:103AA0000D2F08D2FF1F07EB8707D5F830C000F0B5
:103AB00052F82C6307E00D3F07EB8707D5F82CC0C1
:103AC00000F049F8EC6207271668956804680A2E2A
:103AD00008D30A3E06EB4606D4F80CC000F035F8D1
:103AE000E56006E006EB4606D4F810C000F02DF8BD
:103AF00025611468102C18BF112C22D10068374C96
:103B0000A04219D13648046824021AD4046844F447
:103B1000000404601068102813D12F48314A00684F
:103B2000B0FBF2F00A2250430090009800281CBF1E
:103B30000098401EF8D104E0586840F0200058601A
:103B40000121002018700846F2BDB7402CEA070793
:103B5000B5403D437047BE402CEA0606BC403443A6
:103B6000704738B504460020009020688168C90776
:103B700029D4816841F00101816017481949006822
:103B8000B0FBF1F001E00098401E00900098002882
:103B9000F9D1FEF78DFC054620688068C00712D475
:103BA000FEF786FC401B0328F6D304F1240041688D
:103BB00041F010014160816841F001018160002104
:103BC0000170012032BD002032BD0000003C0140E8
:103BD000FDF7E1FFFE0E1FFF0C0000200024014056
:103BE0000824014040420F0038B50446206881682F
:103BF000C90719D58168490849008160FEF758FC5A
:103C0000054620688068C0070ED5FEF751FC401BB2
:103C10000328F6D3A06A40F01000A062E06A40F0EA
:103C20000100E062012032BD002032BD38B5050040
:103C300001D1012032BD05F13804607808B900F0E7
:103C400013F800F015F800F007F821F02A01FFE75B
:103C5000416100F017F832BD2868016921F49041F4
:103C600001612868416970472070284600F0BBBA9E
:103C7000242060702868C16821F40051C160284682
:103C800000F00CB82868C16841F40051C160002000
:103C9000606020206070A070002070472DE9F04720
:103CA0000446642520680169E26821F4405111430B
:103CB00001611926C168304A1140A2681143226986
:103CC000114362691143C1604169A26921F44071E5
:103CD00011434161294988420ED1FEF7BFFB0746D7
:103CE000FEF7BCFB8046FEF7B9FB8146FEF7B6FB4C
:103CF0008246FEF7B3FB0DE0FEF7A8FB0746FEF792
:103D0000A5FB8046FEF7A2FB8146FEF79FFB82469D
:103D1000FEF79CFB06FB08F361688900B3FBF1F337
:103D200006FB07F206FB09F7B7FBF1F7B7FBF5F760
:103D300005FB17331B013233B2FBF1F2B3FBF5F392
:103D4000B2FBF5F203F0F00303EB0212704306FB43
:103D50000AF3B0FBF1F0B3FBF1F3B0FBF5F005FBB8
:103D6000103000013230B0FBF5F0216800F00F0098
:103D700080188860BDE8F087F3E9FFFF0038014054
:103D8000F8B504460020009000F053F801D102205D
:103D9000F2BD00F05AF8060046D1686820F4885059
:103DA00040F002006860022000F01CF9DFF8A41067
:103DB0000968B1FBF0F0400001E00098401E00905F
:103DC00000980028F9D12046FFF7CBFE20688168D3
:103DD00041F008018160FEF76BFB074620688168AF
:103DE000090705D5FEF764FBC01B0B28F6D30FE0CF
:103DF000816841F004018160FEF75AFB07462068A4
:103E0000806840070AD5FEF753FBC01B0B28F6D38A
:103E1000686820F0020000F011F8F2BD686820F038
:103E2000020040F001006860002028703046F2BDBA
:103E3000044604F1240528780128704740F010005A
:103E400068600020287001207047012028702046FB
:103E5000FFF7CABE0C00002038B50120FEF73EFE79
:103E600030B1132810D0172816D01C2831D031BDFE
:103E70001B48028801B0511C01802023BDE830405E
:103E80000121012000F0EAB9174818490288BDE86D
:103E90003840012000F039BA0120FEF715FEC007B6
:103EA00003D501210120FEF714FE0120FEF722FEBA
:103EB000040013D00B4D22462946012000F0D4FA0D
:103EC00000F016F822462946BDE83840012000F0EF
:103ED0007FBABDE83240012000F004BA31BD0000D5
:103EE000AC010020B0070020AE0100206C000020D3
:103EF0000020285529460FF20800FEF7A5BD000056
:103F000025730D0A000000002DE9F041044682B03F
:103F10002078664DC00750D5A8690026C00009D496
:103F2000A86940F08050A8610126A86900F080507F
:103F3000009000985E4F3868C00510D4386840F48F
:103F400080703860FEF7B4FA80463868C00506D441
:103F5000FEF7AEFAA0EB08006528F6D320E0E8698A
:103F600010F440701EBF616801F44071884219D09E
:103F70005049E86901220A6020F4407000220A607A
:103F8000E861C0070ED5FEF793FA0746E869800797
:103F900008D4FEF78DFAC01B41F289318842F5D36F
:103FA00003201DE0E869616820F440700843E8617F
:103FB0001EB1A86920F08050A8612078800705D53F
:103FC0002868A16820F44040084328602078C00693
:103FD00005D52868616920F4800008432860002026
:103FE000BDE8F68130B585B0054601A80FF2D401D1
:103FF000314C1022FDF74AFA0FF2D8000088ADF8D4
:1040000000000020012D26D0022D44D0042D18BF21
:10401000082D1DD0102D47D161682268D20143D5EB
:1040200001A8C1F38342C903805C09D56168234AB2
:10403000C1F340411DF80110B2FBF1F1484301E02A
:104040001F494843616849022ED44000032129E0FA
:10405000FEF7D2F928E0216A40F202320A40B2F5B6
:10406000817F08BF4FF400401ED001F44072B2F5CA
:10407000007F05D1616A890716D549F6404013E0F3
:1040800001F44071B1F5407F0ED1216889030BD551
:104090004FF2244008E0FEF7E1F96168C1F3813195
:1040A000491C4900B0FBF1F005B030BD04100240DE
:1040B00000700040400442420010024000127A00AA
:1040C00000093D0002030405060708090A0B0C0D50
:1040D0000E0F10100102000080B55948016841F030
:1040E00001010160016801F001010091009941683E
:1040F00041F080514160406800F08050009000988D
:104100000320FEF708FA002200216FF00B00FEF7F3
:104110000FFA002200216FF00A00FEF709FA0022D0
:1041200000216FF00900FEF703FA002200216FF072
:104130000400FEF7FDF9002200216FF00300FEF7F6
:10414000F7F9002200216FF00100FEF7F1F90022DB
:1041500000214FF0FF30FEF7EBF93A48016821F0FB
:10416000E06141F00071016001BD0068364988429C
:1041700000D0704700B5324885B0016841F4007145
:10418000016001A9006800F400700090009801200F
:104190000190032002902D48FEF774FD05B000BD8C
:1041A00000682B49884200D0704710B52448294C3C
:1041B00086B0016841F48051016001A9006800F4F3
:1041C000805000900098A02000F032F8402000F0CD
:1041D00027F8002200212320FEF7AAF92320FEF76A
:1041E000C4F906B010BD00681B49884200D0704772
:1041F00010B51348174C86B0016841F48041016046
:1042000001A9006800F48040009000984FF400700D
:1042100000F00EF84FF4806000F002F806B010BD18
:10422000019001A90020029003902046FEF72ABDCC
:10423000019002200290032004902046FEF722BD48
:10424000181002400400014000240140000C01400D
:10425000003001400008014000380140F8B50E462A
:1042600006F00F01012918BF0229054614461F4612
:1042700006D003291EBF042906F00F0005282CD103
:10428000284600F02FF86D0147EA060105F1080005
:10429000FEF7A2FA210005F5A16605F5816004D0BC
:1042A000210AFEF799FAE1B209E00D4C2188491C78
:1042B00021800904090EFEF78FFA2188C9B2304621
:1042C000FEF78AFA05F58474012100F0E8F800F0A1
:1042D000DFF80028FBD10120F2BD0020F2BD000074
:1042E000AC01002038B5440104F58475102128463E
:1042F000FEF772FA00F069F80028FBD104F50270AD
:10430000BDE83440FF21FEF767BA2DE9F0410E46C3
:1043100004463178FF2904BF7078FF28154605D17F
:10432000B078FF2804BFF078FF284AD0080004BF07
:104330007078002805D1B078002804BFF0780028F4
:104340003FD028003DD04FEA441808F60840FEF759
:1043500043FA717808F60850FEF73EFAB17808F68D
:104360000860FEF739FAF17808F60870FEF734FABB
:1043700008F58050290A00F08EF808F58850E9B257
:1043800000F089F808F5847504212846FEF724FA20
:10439000012700F01AF80028FBD108F5427500F05B
:1043A00014F815280ED000F010F817280AD020466F
:1043B000FEF78AFB0007F0D5082108F50270FEF72A
:1043C0000BFA00273846BDE8F0812846FEF716BAFA
:1043D0002DE9F843044688461546FEF747FBA842F8
:1043E00003D22046FEF742FB05462046FEF77BFB44
:1043F0006601814606F542773846FEF7FFF9172831
:1044000018BF1C2801D0002501E0A945EDDB2A4694
:1044100041462046FEF78CFB06F58478202100F00B
:1044200042F84046FEF7EAF90028FAD106F502788C
:104430004046FEF7E3F9C0060FD43846FEF7DEF932
:10444000172818BF1C28F1D00FF26400FEF7FCFA01
:104450002046FFF747FF002004E000F023F800F0BB
:1044600021F82846BDE8F28338B5044615460020F9
:104470002A000CD02046FEF77FFB600100F5847413
:1044800000F00CF800F004F80028FBD1284632BDFB
:104490002046FEF7B3B90830FEF79EB9402120460A
:1044A000FEF79AB910214046FEF796B900000000C9
:1044B00053454E445F4F4B2050726F626C656D21C7
:1044C000210D0A000E480F4A016841F00101016008
:1044D0004168114041600C4A016811400160016867
:1044E00021F480210160416821F4FE0141604FF414
:1044F0001F0181604FF000600449086070470000B0
:10450000001002400000FFF8FFFFF6FE08ED00E09B
:104510000000000000000000010203040607080973
:1045200019E050F8041BCB0744BFA9F10103591847
:10453000121F0023042A41F8043BF9D25FEA827C6F
:104540000B4604D54FF0000CA1F800C09B1CD1070E
:1045500044BF0021197050F8042B002AE1D17047A4
:1045600030B5016842688468014401EB5203D20708
:1045700048BF4C44994201D10C3030BD11F9012B98
:1045800011F8015B002A04F8015B02D5521CF9D135
:10459000F0E7521EF4D5EDE77047FEE7FEE7FEE7D1
:1045A000FEE770477047704780B500F009F8BDE836
:1045B0000140FEF70FB80148FEF753BDB00F0020D1
:1045C000024841680278511841607047000000209D
:1045D00010B5074979441831064C7C44163404E080
:1045E0000A68081D114488470146A142F8D110BD50
:1045F000080000002400000029FFFFFF6009000000
:10460000B00700200000000059FFFFFF84010000F8
:10461000BC0000000000002000F00BF8002801D0D2
:10462000FFF7D6FF0020AFF30080FEF7D2FF00F0C7
:1046300002F80120704700F001B800000746384634
:1046400000F002F8FBE7000080B5AFF30080024AFB
:1046500011001820ABBEFBE72600020038B5044667
:104660000D46284600F006F8A84218BF0024204650
:1046700032BD00000149FEF7A5BF00BF7000002059
:104680000148804701480047C5440008914600089A
:10469000AFF30080AFF30080FFF7BEFF0000000023
:1046A00001020304FFF7FEBFFFF7FEBFFFF7FEBFE7
:1046B000FFF7FEBFFFF7FEBFFFF7FEBFFFF7FEBF2E
:1046C000FFF7FEBFFFF7FEBFFFF7FEBFFFF7FEBF1E
:1046D000FFF7FEBFFFF7FEBFFFF7FEBFFFF7FEBF0E
:1046E000FFF7FEBFFFF7FEBFFFF7FEBFFFF7FEBFFE
:1046F000FFF7FEBFFFF7FEBFFFF7FEBFFFF7FEBFEE
:10470000FFF7FEBFFFF7FEBFFFF7FEBFFFF7FEBFDD
:10471000FFF7FEBFFFF7FEBFFFF7FEBFFFF7FEBFCD
:10472000FFF7FEBFFFF7FEBFFFF7FEBFFFF7FEBFBD
:10473000FFF7FEBFFFF7FEBFFFF7FEBFFFF7FEBFAD
:10474000FFF7FEBFFFF7FEBFFFF7FEBFFFF7FEBF9D
:10475000FFF7FEBFFFF7FEBFFFF7FEBFFFF7FEBF8D
:10476000FFF7FEBFFFF7FEBFFFF7FEBFFFF7FEBF7D
:10477000FFF7FEBFFFF7FEBFFFF7FEBFFFF7FEBF6D
:10478000FFF7FEBFFFF7FEBFFFF7FEBFFFF7FEBF5D
:104790000001F9000010FC0002A24A04F002CF0060
:1047A0000108DCFD11050000C0A8646BFDFF0400DA
:1047B000C0A86401FC00FC7223C0A8646502040167
:1047C0000178100020C81000207810002078100018
:1047D0002078100020AD00002094000020C400F8D4
:0E47E000FFDC00FAFF8100D100038813901F58
:040000050800469118
:00000001FF
