:020000040800F2
:100000001006002015450008F5420008F7420008D8
:10001000F9420008FB420008FD4200080000000011
:10002000000000000000000000000000FF42000887
:1000300001430008000000000343000805430008D6
:10004000394500083D450008414500084545000880
:10005000494500084D450008514500085545000830
:10006000594500085D4500086145000865450008E0
:1000700069450008114300086D45000871450008F6
:1000800075450008794500087D4500088145000850
:1000900085450008894500088D4500089145000800
:1000A00095450008994500089D450008A1450008B0
:1000B000A5450008A9450008AD450008B145000860
:1000C000B5450008B9450008BD450008C145000810
:1000D000C5450008C9450008CD4500081B43000878
:1000E000D1450008D5450008D94500082DE9F04F55
:1000F00082460FF25860A5B015461E46D0E900238F
:10010000CDE9122303AF00207960B8620DF15009E8
:1001100000E045440020ADF8020012AB4FF0FF3282
:1001200029460DF1020001F0AEF88046B8F1010F4A
:1001300008DA2878B0F1010868EB08086FEA0800CF
:100140004FEAD078BDF8020025280CBFA8F1010BBA
:10015000C346BBF1010F0EDB2C4614F8011B786877
:10016000D0470028786000F0F880B86A401CBBF1E6
:10017000010BB862F1D1BDF80200252807D100209B
:1001800038617861B861F8613862786205E000280A
:10019000BFD1B86AE2E240F0010015F8011F202942
:1001A000F9D023290DD02B2904D02D2906D03029B0
:1001B0000AD00CE040F0020080B2EEE740F004000C
:1001C000FAE740F00800F7E740F01000F4E72A29CA
:1001D0000ED13168316051F8042B3160002A3A6346
:1001E00004D5514240F00400396380B26D1C13E025
:1001F000002139630BE0396B6FF00043994205D061
:1002000001EB810302EB4301303939636D1C2A781D
:10021000A2F130010A29EED329782E2903D04FF01C
:10022000FF31F9621FE015F8011F2A2907D1316853
:1002300031606D1C51F8042B3160FA6213E000212B
:10024000F9620BE0F96A6FF00043994205D001EBC7
:10025000810302EB43013039F9626D1C2A78A2F167
:1002600030010A29EED3B8860FF2E840297801F070
:100270001BF808B115F8010B8DF842009DF84200FB
:10028000682802BF29786829622005D06C2804BF3D
:1002900028786C2803D171208DF842006D1C14A8B9
:1002A000F86015F8014BB4F125002AD01C3800F095
:1002B000DB80001F022840F2D780133800F0FB805B
:1002C000093800F0D180801E00F06581401E00F0EA
:1002D0003C81401E022840F2C780001F00F035819B
:1002E000401F00F09280401E00F0E580401E37D095
:1002F000C01E0BD0801E00F0DE80C01E00F0DB8030
:100300006CE125208DF85000012070E19DF842003D
:100310006C283068306016D050F8048B3060C7F815
:100320000880FC6A002C04D5404600F0C9FF044652
:1003300007E022460021404600F0DEFF08B1A0EBB6
:1003400008047C6154E150F8042B306002A9504647
:1003500000F03EFA002840F14B814FF0FF30FDE104
:1003600031683160002251F8040B31604FF03C0ECF
:100370000021CDE9020114A8B860DDE90201914233
:10038000FC6808BF904201D1FA6AC2B100F00F03C5
:100390003033DBB23A2BA8BF2733AEF1010200099C
:1003A000A354964640EA017009090022914208BF11
:1003B000904204D0BA6804EB0E039A42E6D304EBF1
:1003C0000E01B960CEF13C00F96A7861884207DA23
:1003D000081AF8614FF6EF71B88E0840B88607E149
:1003E000002940F1058197F8341001F0140110291B
:1003F00040F0FE80396B3A69891AFA69891A081A3D
:100400000128C0F2F580F861F2E09DF84200622810
:100410001AD0682806D06A280CD06C281CD0712805
:1004200008D019E03068306050F8041B3060B86ABA
:100430000880DDE03068306050F8042B3060B86A26
:10044000C117C2E90001D3E03068306050F8041BE6
:100450003060B86A0870CBE03068306050F8041B38
:100460003060B86A0860C3E03068C01D20F0070241
:100470003260D2E9000108323260CDE90201002980
:1004800002D538692D2109E0B88E810702D5386977
:100490002B2103E0C00705D53869202109F8001099
:1004A000401C386114A839690844B860214602A884
:1004B00000F09AFB9CE09DF842006C280DD071285A
:1004C00018BF6A2809D13068C01D20F007023260C9
:1004D000D2E900010832326005E03168316051F83C
:1004E000040B31600021CDE902019DF8420068282B
:1004F00003D1DDE9020180B20BE0622803D1DDE91E
:100500000201C0B205E0742818BF7A2804D1DDE9E1
:1005100002010021CDE9020197F83400000731D52E
:10052000DDE902230020834208BF82422AD044F042
:100530002000782826D13869302109F80010401CA5
:10054000411C396109F800401CE09DF84200314629
:1005500000F007F9CDE90201DDE9022300218B4219
:1005600002DA38692D2109E0B88E810702D5386991
:100570002B2103E0C00705D53869202109F80010B8
:10058000401C386114A839690844B860214602A8A3
:1005900000F0A4FA2CE09DF842006C2809D001205C
:1005A00038613068306050F8041B30608DF85010AE
:1005B0001EE03068306001AA50F8041B3060ADF8CE
:1005C00004100020ADF8060002A94FF0FF30F862D9
:1005D000504600F0FDF800280AD5BEE625208DF82B
:1005E0005000012038611CB189F8014002203861B7
:1005F000386B3969401AF969401A7969401A396AC1
:10060000401AB969401A796AA0EB010897F83400DA
:10061000400711D42020B8F1010F8DF800000BDB4A
:10062000444601236A4602A9504600F007FE00280E
:100630007FF493AE641EF4D1D7F810B0BBF1000F75
:1006400014AC0DD014F8011B7868D04700287860EE
:100650003FF483AEB86A401CBBF1010BB862F1D124
:1006600030208DF80000FC69012C0ADB01236A466A
:1006700002A9504600F0E2FD00287FF46EAE641E31
:10068000F4D1D7F814B0BC68BBF1000F0DD014F84A
:10069000011B7868D047002878603FF45EAEB86AE6
:1006A000401CBBF1010BB862F1D130208DF8000085
:1006B0003C6A012C0ADB01236A4602A9504600F07D
:1006C000BDFD00287FF449AE641EF4D1B868796995
:1006D000D7F818B04418BBF1000F0DD014F8011B67
:1006E0007868D047002878603FF437AEB86A401C7D
:1006F000BBF1010BB862F1D130208DF800007C6AAB
:10070000012C0ADB01236A4602A9504600F096FD3F
:1007100000287FF422AE641EF4D197F8340040071D
:100720007FF5F8AC2020B8F1010F8DF80000FFF63E
:10073000F1AC01236A4602A9504600F07FFD002873
:100740007FF40BAEB8F10108F3D1E3E40000000040
:1007500000000000686A6C747A4C000025B0BDE8A7
:10076000F08F622826D068281DD06A2808D06C280F
:1007700027D0712804D0742823D07A280CD020E008
:100780000868C01D20F007000860D0E90023083089
:1007900008601946104670470A680A6052F8040B50
:1007A0000A60002170470A680A6052F8040B0A6068
:1007B00000B20BE00A680A6052F8040B0A6040B20B
:1007C00004E00A680A6052F8040B0A60C117704717
:1007D0002DE9F44F0D4694B0D5F830A0BAF1000FD2
:1007E000804648BF6FF0004A00F0B2FD696B4018C8
:1007F00001900FF67820D0E90023CDE9022395F887
:100800003800400702D40198412805D240200DF15C
:1008100010090190002609E000F0A0FD5FEA000940
:10082000F8D14FF0FF3056E1AAEB040ABAF1010FFC
:10083000C0F2CE801498018802AA0DF1010000F0E8
:10084000E5FD0028044600F1DE801498008810B908
:10085000641E00F1D880A245C0F2BA80686901998F
:100860002218914280F0A2806E634042296A401AA9
:10087000A969401A696A401AE969401AA96A461AC0
:1008800095F83800400710D42020012E8DF8000084
:100890000BDB374601236A462946404600F0CEFC72
:1008A000002840F0B0807F1EF4D1D5F814B0BBF121
:1008B000000F4F460DD017F8011BA868C04700284D
:1008C000A86000F0A080E86A401CBBF1010BE86260
:1008D000F1D130208DF800002F6A012F0ADB0123AF
:1008E0006A462946404600F0A9FC002840F08B806B
:1008F0007F1EF4D1D5F818B0EF68BBF1000F0CD013
:1009000017F8011BA868C0470028A8607BD0E86AD8
:10091000401CBBF1010BE862F2D130208DF80000E1
:100920006F6A012F09DB01236A462946404600F021
:1009300085FC002867D17F1EF5D1E868A969D5F844
:100940001CB04718BBF1000F0CD017F8011BA868AA
:10095000C0470028A86056D0E86A401CBBF1010BD4
:10096000E862F2D130208DF80000AF6A012F09DB78
:1009700001236A462946404600F060FC002842D127
:100980007F1EF5D195F8380040070DD52020012EA7
:100990008DF8000008DB01236A462946404600F036
:1009A0004DFC80BB761EF6D100266E61224668693A
:1009B0000DF10101484400F037FD686920186861B5
:1009C0001498801C1490801E008800287FF42CAF9F
:1009D000686B6969401A296A401AA969401A696AEC
:1009E000401AE969401AA96AA0EB010A95F8380093
:1009F000400710D4BAF1010F0DDB5446A86820213E
:100A0000C047A86010B94FF0FF365DE0E86A401CAF
:100A1000641EE862F2D16B694A462946404600F0FE
:100A20000DFC0028EFD12C6A012C0ADBA8683021CC
:100A3000C0470028A860E6D0E86A401C641EE8624F
:100A4000F4D1AB69EA682946404600F0F7FB00287C
:100A5000D9D16C6A012C0ADBA8683021C047002874
:100A6000A860D0D0E86A401C641EE862F4D1E8684F
:100A7000A969EB6942182946404600F0DFFB0028CF
:100A8000C1D1AC6A012C0ADBA8683021C04700281C
:100A9000A860B8D0E86A401C641EE862F4D195F8FA
:100AA000380040070ED5BAF1010F0BDBA8682021F2
:100AB000C0470028A860A6D0E86A401CBAF1010A25
:100AC000E862F3D16E616E6304A881451CBF48469D
:100AD00000F0E6FC304615B0BDE8F08F2DE9F34399
:100AE000054608462F696F2808BF082405D041F045
:100AF0002001782914BF0A2410243C26D5E90023BC
:100B0000642818BF69289046994606D100218B4277
:100B100003DAD8F1000869EB49090020814508BFD4
:100B200080450CD1286B50B9082C38D195F8380085
:100B3000000734D530203B2687F83B002FE0701E9D
:100B400000900646404649462246E31700F0E8FC7E
:100B500002F13000C0B23A2803DB9DF8041051398D
:100B60000818B855494640462246E31700F0D8FC1D
:100B7000804689460020814508BF804503D0E8684B
:100B8000B9198842DBD3082C09D195F83800000741
:100B900005D5B85D302802D0761E3020B855B91979
:100BA000E960C6F13C00296BA861884208DA081A9E
:100BB00028624FF6EF71288F08402887BDE8F3833D
:100BC00000290ED595F8381001F01401102908D12C
:100BD000696B6A69891A2A6A891A0E1A012EA8BFD6
:100BE0002E62BDE8F38300002DE9F24F04468EB07B
:100BF000D4E90001CDE9020104AF9DF8380040F0CE
:100C0000200BBBF1610F0AD0206B002848BF0620E3
:100C100004D408BFBBF1670F01D1012020636168D4
:100C2000C1F30A5040F2FF7290421CD1080304BF86
:100C30002068002809D10320A0619DF838006138A0
:100C40001A2835D30FF2386108E00320A0619DF81F
:100C5000380061381A2828D30FF21C61E06803229B
:100C600000F0E2FBBDE1012815DA204600F0CFFCE0
:100C7000012810DB00250020BBF1610F1FD1E168C6
:100C800030220A708A1CE2609DF83820612A0CBF6D
:100C9000782258220FE0626840F2FE3161F31E5262
:100CA000451A62604FF0FF30E6E70FF2C851D5E712
:100CB0000FF2C851D2E74A706169891C616110B9AD
:100CC0000026002584E1BBF1610F40F09880206B85
:100CD000D4E900AB00284CBF2126461CDDE9020107
:100CE0000022002300F0B6FC36B23ABF8BF0004081
:100CF000CDE902A0CDE902AB06F101082D1FB8F144
:100D0000010F8DF810200DF1110736DBDDE902012E
:100D10000022002300F0B6FC2FD21C2102A800F014
:100D2000C9FCDDE9020100F04BFDA8F10708B8F1AC
:100D3000010F814609DB00F06FFD02460B46DDE93D
:100D4000020100F081FDCDE90201F81D072105E057
:100D500009F00F0200F8012D4FEA2919B9F1010F2E
:100D600001DB491EF4D5491E5CBF002200F8012DAD
:100D7000F9D5C71DB8F1010FC8DA0DF11100391A04
:100D8000B142B8BF0E4636B230000DF111072FD474
:100D9000884206DA04A9014449780829A8BF0F212E
:100DA00000DA002104AA024400E0761E12F801399C
:100DB000401E8B42F9D00F2904D104A901444A787E
:100DC000521C4A70002802D504AF761C2D1D36B285
:100DD000701E0DD439180A783032D2B23A2A03DBA9
:100DE0009DF838303A3B9A18401E01F80129F2D597
:100DF000206B002840F1EC80701E2063E8E0DDE904
:100E000002010022002300F025FC3CBF81F00041DC
:100E1000CDE902012DB247F2975068434B49DFF804
:100E2000309190FBF1F52DB2C5F1070ABAF1010F2F
:100E300090461CDBDDE902675FEACA7007D54246CF
:100E40004B463046394600F0BFFD06460F46404649
:100E5000494642464B464FEA6A0A00F0B5FDBAF1F0
:100E6000000F80468946E7D1CDE9026724E0CAF148
:100E7000000A0026374F14E05FEACA7007D54246E1
:100E80004B463046394600F09FFD06460F46404629
:100E9000494642464B4600F097FD4FEA6A0A8046B3
:100EA0008946BAF1000FE7D1DDE9020132463B463F
:100EB00000F05CFECDE90201BBF1660F216BDFF8AB
:100EC00098900CBF05F10A0006204618142EA8BF02
:100ED000132630208DF810000DF11107012E3DDB97
:100EE000DDE9020100F082FC07F1080104220A2377
:100EF000B0FBF3F303EB8307A0EB4700303001F8BE
:100F0000010C0A20B3FBF0F000EB8007A3EB4703D2
:100F10003033521E01F8023DE9D1083E012E01F1A5
:100F20000807DBDBDDE9020100F060FC00F07EFC7D
:100F300002460B46DDE9020100F086FC00224B462A
:100F400000F042FDCDE90201CAE700BFA086010022
:100F5000000024400000F03F84D797410DF11100BC
:100F6000381A0DF1110702E0401E6D1E7F1C397802
:100F70003029F9D0BBF1660F08BF691C04D0BBF162
:100F8000650F0CBF01210021226B8E1836B2B042D2
:100F9000B8BF064636B231001AD4814204DA785C12
:100FA0003528A8BF392000DA30207A18521E00E018
:100FB000761E12F80139491E8342F9D0392802D130
:100FC000785C401C7854002902D57F1E761C6D1C6D
:100FD0002DB29DF83810009533B23A46204600F005
:100FE00003F80FB0BDE8F08F2DE9F04786B0064654
:100FF0008A4690461D4600F002FF012D406A376B7D
:1010000090F8009002DA01250FF278284AF02000CB
:10101000BDF93840662808BF641C12D0672878D113
:1010200014F1040F7BDBBC4279DA96F83800641CBB
:10103000000702D4BD42B8BF2F4624B23F1B48BFB1
:10104000002724B2F068B169012C23DA4A1C30234E
:101050004354012F03DA96F83800000703D5F068EF
:1010600000F80290521CE742B8BF7C4224B26042B2
:101070007062E719AF42B261B8BF3D46F068B3692C
:101080002DB2F5612A464146184400F0CDF9781B8F
:10109000B062BCE022469542084416DA2A46414630
:1010A00000F0C2F9B1696918601B012FB16170626B
:1010B00003DA96F83800000705D5F06800F80190CB
:1010C000F069401CF061B762A1E0414600F0ACF964
:1010D000B06920182D1B012F03DA96F83810090784
:1010E00003D5F16801F80090401CB0612DB2AF4209
:1010F000B8BF3D46F068B3692DB22A4608EB04013B
:10110000184400F091F9B0692818B061781B70623A
:101110007DE0BAF1610F14D14FF0700A16E0BD42C4
:1011200004DA96F83810090758BF2F467F1E48BFCB
:101130000027BAF1670F14BF4FF0450A4FF0650A58
:1011400004E0BAF1410F08BF4FF0500AB169F368EB
:10115000481CB061012F18F8012B5A5403DA96F895
:101160003810090717D5F168431CB36101F80090E6
:10117000012F10DB6D1E2DB2AF42B8BF3D46F068A7
:101180002DB22A464146184400F04EF9B06928189D
:10119000B061781B7062F068B1690144200081F889
:1011A00000A004D42B20487001F1020804E02D2295
:1011B0004A7001F102086442002502AF08E00A22E9
:1011C000684600F035FE019807F8010B6D1C009C85
:1011D00021B20129F3DA022D06DA4AF0200065284F
:1011E00004BF302008F8010B4DB9302008F8010B7E
:1011F00007E06D1E02A8405D303008F8010B012D9C
:10120000F7DAF068B1690844A8EB0000F06196F8DD
:10121000380000F0140010280DD17069B169081869
:10122000716A0818F1690818B16A0818716B884268
:10123000BCBF081A306206B0BDE8F087F8B50446B6
:101240000D4616461F46002077B116F8011BA86808
:10125000A047A86030B1E86A401CE86200207F1E09
:10126000F3D1F2BD4FF0FF30F2BD000000000000EE
:10127000000000006E616E004E414E00696E660017
:10128000494E46003000F8B504460D4616461F4646
:1012900000F0D6FD3B4632462946204601B0BDE867
:1012A000F04000F0E4BD01020278C9B28A421AB1EE
:1012B0001CBF10F8012FF9E718BF0020704700008D
:1012C00000F10103810704D010F8011B89B18107E7
:1012D000FAD10268B2F10131914311F0803F04BFAD
:1012E00050F8042FF6E710F8011B11B110F8011B9C
:1012F000FBE7C01A70470000C9B2830706D0521E30
:1013000022D310F8013B9942F7D11FE0083A13D3DA
:1013100002F1040241EA012141EA014150F8043B93
:10132000121F21BF4B40A3F1013C2CEA030C1CF01F
:10133000803FF3D0C9B2001F083210F8013B521EA3
:1013400028BF91EA030FF8D818BF0120401E70474C
:1013500080B500F075FD012002BD000070B50546A6
:1013600005F10F00C408AFF30080E400A54232D2BB
:10137000082C04D2082402E0083000F091F822483A
:10138000026811000CD1011D0A6802B31368A34260
:1013900038BF111DF8D310E01D68A5420DD2191DEC
:1013A0000B68002BF8D11268011D00E0191D0B68B5
:1013B00093420CD01D68A542F8D361B10D682A682C
:1013C000A2F10803A3420AD26A680A600FE000F0A3
:1013D00071FD0028D0D1AFF30080002070BD2B1923
:1013E0000B60121B6E685E600B681A602C600968E7
:1013F00000291DBF4A68002A091D00210160AFF3C2
:10140000008005F1080070BD1C0E002070B5044678
:101410000D46164600F014FD324629462046BDE82A
:10142000704000F017BD000062B38B0708D0521E59
:1014300011F8013B00F8013B00F024808B07F6D146
:10144000830740F0208000BF103A07D330B4B1E8E2
:101450003810103AA0E83810F9D230BC530724BF36
:10146000B1E80810A0E8081044BF51F8043B40F868
:10147000043BD20724BF31F8022B20F8022B44BFD3
:101480000B7803707047083A07D3B1E80810083AA0
:1014900040F8043B40F804CBF7D25307E4E70000E0
:1014A00000B9704738B5A0F108042068082833D384
:1014B00010F0070F30D1AFF300801848416809B130
:1014C0008C4203D26160446017E019464B680BB14F
:1014D000A342FAD30B68CD18AC421BD3A54204D16A
:1014E0002268D2180A600C4607E04A681AB12368DD
:1014F00023449A420ED362604C60616851B1226805
:10150000A3188B4206D1002303600868801820606E
:1015100048686060AFF3008031BD00001C0E002001
:101520001B4213D1094236D12AB18446B0FBF2F0F6
:1015300002FB10C2704700F0D3BCFCD30022002392
:1015400070470B000200002100207047904271EBB1
:10155000030CF6D370B5B1FA81F4B3FA83F52C1B02
:10156000A340C4F1200532FA05F63343A2405FF0F0
:101570000046E64002E05B085FEA3202841A71EB43
:10158000030524BF204629467641F4D302000B0010
:101590003000002170BD012ACFD970B5140C20D0C5
:1015A000B1FA81F4B2FA82F5C4F120046419B4F1FD
:1015B0002006D6D3B2405FF00044F440002502E09C
:1015C00052085FEA3303C61A71EB020E24BF30469D
:1015D000714664416D41F3D302000B0020002900E5
:1015E00070BD0C46B1FBF2F102FB11452D0445EA3A
:1015F0001045B5FBF2F402FB145580B240EA0545F4
:10160000B5FBF2F002FB105240EA044070BD30B46A
:10161000436803F000420121C3F313034360002B2E
:1016200004BF0368002B08D10DE00368DD0F45EA15
:10163000440444605B000360491E4468E302F4D53F
:10164000C4F31303436043681A434260084630BC46
:10165000704700004FF4001C1CEB410F94BF1CEBC3
:10166000430F09E041EA030C50EA4C0C52EA0C0C1F
:1016700003D2994208BF9042704714BF8B42824206
:10168000704700004FF4001C1CEB410F94BF1CEB93
:10169000430F09E041EA030C50EA4C0C52EA0C0CEF
:1016A00003D28B4208BF8242704714BF99429042D6
:1016B0007047000070B504460D466068C0F30A50DC
:1016C00040F2FF71884207D16068000304BF2068C0
:1016D000002817D0022070BD20B92046FFF797FFE1
:1016E000012866DA012D0FDB40F2FF71091A8D42E5
:1016F0000AD36068002847BF00202F4900202F49E7
:10170000C4E90001012070BD4142A942616806DAC6
:101710006FF31E51401941EA0050606040E0401EE6
:1017200063684519012205F1350062F31F5335281E
:1017300001F00041636003D361600020206070BD50
:10174000002015F11F0F04DA2068236000222035E5
:1017500062606A4212D0401E25688041C2F12003B7
:10176000C0439D4045EAD07025686668D54006FABA
:1017700003F32B4323606368D340636062680A43CA
:10178000B0F1004F626003D80DD12078C0070AD5B0
:101790002068401C2060206828B96068401C606098
:1017A0004FF0FF3070BD6068884204BF2068002899
:1017B000F6D1002070BD00BF0000F0FF0000F07FF8
:1017C000F446400D40EAC120490006D200F014F86A
:1017D000004248BF6FF00040604700F00DF84FF046
:1017E000004188428CBF084640426047400D40EAB5
:1017F000C120490080F00D8040F00040490DA1F566
:101800008061491C05D4D1F11F0154BFC840C017E5
:1018100070474FF000007047010040F10980F44626
:10182000404200F005F851F000416047010000BF60
:1018300009D0B0FA80F18840C91CC1F5846109055E
:1018400001EBD02140057047F0B44FF0004591EA1C
:10185000030F44BF6B4000F045BB00BF841A71EB1F
:10186000030604D26E40001BB141121973414FF4BC
:10187000001C1CEB410F34BF7CEB430684E00C0DD5
:10188000A4EB1356362E7DDC012E43DC45EAC32340
:1018900043EA525312BFD20292025B08240545EA82
:1018A000C12141EA5051D2EBC020994125D407D142
:1018B000B0FA80F610FA06F164D00020203608E075
:1018C000B1FA81F6B140C6F1200220FA02F21143CA
:1018D000B0404FEAF474B4EB465434F001064FEADA
:1018E00074040AD8D6F50016760D04F00044F040D2
:1018F00061FA06F25040F1404840C00A40EA4150C7
:1019000021F0004128BF5FEA500550F1000044EB90
:10191000D12137E045EAC323DB0A45EAC121C90AE0
:10192000B6F120050EDD42EA0242120CC5F1200696
:1019300003FA06F6EB4042EA06056D42984161F172
:1019400000010DE062FA06F5F240554063FA06FC2C
:1019500082EA0C02F3405A406D42904161EB030170
:1019600011F4801F05D1641E620502D06D00404154
:10197000494121F48011430875F1004350F1000002
:1019800041EB0451F0BC70471CEB410F15D223F022
:10199000004352EA43060BD04FEA4C0CBCEB410F1C
:1019A00004D80C0D661E342EB7DDEBE7801A994182
:1019B00050EA410608BF0021E4E708BF1CEB430FD3
:1019C00028BF6FF00001DDE7B0B581EA030C0CF031
:1019D000004C40F2FF7515EA11541DBF15EA13576C
:1019E000AC42AF4239E0E41923EA455343F4801393
:1019F000C90241F0004141EA505EC7021100A7FB55
:101A0000020200284FF00000EEFB01204FF0000121
:101A1000E3FB072118BF42F00102401800214941B1
:101A2000E3FB0E01A4F580640F0302D25200404193
:101A3000494154F101046CDD470872F1004250F154
:101A4000000051EB0451A1F580115CBF41EA0C018B
:101A5000B0BD4CEA05510020B0BD05EA1357AC42B9
:101A600014BFAF4241E050EA410E1CBF52EA430EA0
:101A700002E061460020B0BD24423C441BD15FEA35
:101A8000070EF6D0090302BF01460020AEF1140E86
:101A9000B1FA81F7AEEB070401FA07FE0C37C7F184
:101AA000200100FA07F7C8404EEA000E23EA45532A
:101AB00043F48013A2E733F00043B3FA83F704BF83
:101AC000B2FA82FE77440B3FE41BB7F1200E2FBF22
:101AD00002FA0EF3BB40C7F1200E22FA0EFE38BF09
:101AE00043EA0E03BA40641C82E750EA410E14BF79
:101AF00052EA430E6FF000014FF4001717EB430F4B
:101B00008ABF194617EB410FB5E74CEA0551002093
:101B1000B0BDD4F10104B4F120070FDAC4F12007FD
:101B2000520828BF42F0010210FA07F501FA07F740
:101B3000E1BF2A43E0403843E1400FE0352C98DC18
:101B4000C7F1200452EA400220FA07F218BF42F01F
:101B5000010231FA07F0A1400A43002172F100426C
:101B600050F1000051EB0C01B0BD00002DE9F04137
:101B700040F2FF7581EA030C0CF0004C15EA115499
:101B80001DBF15EA1357AC42AF42E9E0BC41C1F3B7
:101B90001301C3F31303801A994143F4801304D251
:101BA000641E4000494180185941C90241EA505120
:101BB000B1FBF3F603FB1611A2FB0675D7EBC020B1
:101BC000A94102D2761E80185941C90241EA5051FA
:101BD000B1FBF3FE03FB1E11A2FB0E75D7EBC02079
:101BE000A94103D2AEF1010E80185941890241EAA0
:101BF0009051760546EA8E2EB1FBF3F603FB1611E3
:101C0000A2FB0675D7EB8020A94102D2761E801870
:101C10005941C90241EA50514EEA060EB1FBF3F6B2
:101C200003FB1611A2FB0675D7EBC020A94102D217
:101C3000761E80185941C90241EA5051B1FBF3F7B1
:101C400003FB1711A2FB0735D3EBC020A94167F1B5
:101C500000070CBF004247F0010766F3D5274FEAA3
:101C60001E31B80814F5806414DDBD0775F100421B
:101C700050EB0E5051EB045111F5801F5CBF41EA4F
:101C80000C01BDE8F0814CF07F6141F0E0410020A3
:101C9000BDE8F081BD076D0840EA0E5041F48011A7
:101CA000D4F10104B4F120060ADAC4F120060200DE
:101CB000E04001FA06F3E1401843B24015430EE05C
:101CC000342C14DCC6F1200445EA40056D0820FAE6
:101CD00006F2154321FA06F0A1400D43002175F1EB
:101CE000004250F1000051EB0C01BDE8F0810020F2
:101CF0005FEA0C01BDE8F081CFB992185B41B3FAFD
:101D000083F704BFB2FA82F6BF190B3FB7F1200682
:101D10002FBF02FA06F3BB40C7F1200622FA06F6EF
:101D200038BF3343BA401CB1E419641E2FE77F4229
:101D300031F00041B1FA81F404BFB0FA80F6A41981
:101D40000B3CB4F120062FBF00FA06F1A140C4F10C
:101D5000200620FA06F638BF3143A0403C1B16E7A8
:101D6000AC421ABF05EA1357AF4214E050EA4106ED
:101D70001CBF52EA4306BFE750EA410730466146BE
:101D80001CBF41EA0551BDE8F08152EA430C08BF8F
:101D9000C143BDE8F08100204FF4001616EB410F5F
:101DA00098BF16EB430F08BF16EB410F24BFC1438A
:101DB00005E016EB430F0CBF61464CEA0551BDE848
:101DC000F081000080B5134800F0F6F80FF24C02E5
:101DD0000FF244010160426241600FF244028263EB
:101DE00081600FF24402C1600161416181618162E1
:101DF000C16201634163C2630164416401BD10B506
:101E0000044800F0D9F80446206808B9FFF7DAFF63
:101E1000204610BD08010020000000002E00000038
:101E200066616C73650000007472756500000000E7
:101E300091FBF2F303FB1211C0E90031704700007F
:101E400080B5DFF80C0000F0B7F8806902BD000033
:101E50009801002030B430B90FF24800D0E90045B5
:101E6000C2E900451BE00170012030BC704730B46E
:101E700031B90FF23800D0E90045C3E900450EE062
:101E80001AB930BC6FF00100704708B10A780280BF
:101E90000978481E804130BCC043C00F7047002005
:101EA00030BC70470000000000000000000000008F
:101EB000000000000749086808B100207047064884
:101EC000C008C00008600549C908C900091A0160B6
:101ED000704700BF280E00201706002010080020C1
:101EE00070470000841A71EB030603D2001BB14156
:101EF000121973414FF4001C1CEB410F34BF7CEBF3
:101F0000430443E00C0DA4EB1356352E50DC45EA98
:101F1000C323DB0A45EAC121C912B6F120050DDD54
:101F200063FA05F6EB4086EA0305124218BF45F056
:101F30000105C01851F100010CD213E062FA06F558
:101F4000F2405540F3415A40B340F3405A408018A4
:101F5000594107D349085FEA30005FEA350528BFD9
:101F600045F0010501F58011420875F1004250F17C
:101F7000000041EB0451F0BC4FF4001C1CEB410F7E
:101F800038BF70470020090D090570471CEB410F51
:101F900010D252EA43060BD0BCEB410F05D80C0D12
:101FA000AB43661E342EB5DD02E0AB4380185941C9
:101FB000F0BC7047F0BC70477047000010B50400DB
:101FC000002C01D1012033E0A0690028FFD194F852
:101FD0003900002805D1002084F83800200000F0E6
:101FE00019FC242084F839002068C06830F40050BF
:101FF0002168C860200000F019FB2068006930F4F7
:102000009040216808612068406930F02A0021680A
:1020100048612068C06850F400502168C860002002
:10202000E063202084F83900202084F83A00002062
:1020300010BD2DE9F84304000D0016001F005FF0ED
:10204000000994F8390020285FD1002D02D0B6B2E3
:10205000002E01D1012059E094F83800012801D167
:10206000022053E0012084F838000020E0632120A2
:1020700084F8390000F036FC8146A684E684E08CC2
:1020800000282FD0E08C401EE084A068B0F5805F6F
:1020900018D100974B4600228021200000F0CAF999
:1020A000002801D0032031E0A846B8F80000C005A0
:1020B000C00D216848602069002801D1AD1CDEE711
:1020C0006D1CDCE700974B4600228021200000F0C9
:1020D000B1F9002801D0032018E028782168486071
:1020E0006D1CCCE700974B4600224021200000F0F9
:1020F000A1F9002801D0032008E0202084F839004D
:10210000002084F83800002000E00220BDE8F283BF
:1021100073B50400150094F83A00202851D10198B5
:10212000002802D0ADB2002D01D101204AE094F880
:102130003800012801D1022044E0012084F8380051
:102140000198A062A5850020E063222084F83A006F
:102150000FF23120616B88620FF26D20616BC862F3
:102160000FF27520616B08630020616B486301A862
:102170000600ADB22B0032682068011D606B00F0D4
:10218000F3FB002000902068006800902068406801
:1021900000900098002084F838002068C06850F44F
:1021A00080702168C8602068406950F00100216893
:1021B00048612068406950F0400021684861002073
:1021C00000E0022076BD38B5040000252068406993
:1021D000C00910F00100050094F83900212810D141
:1021E000002D0ED02068406930F0800021684861E1
:1021F000206B002802D0206B00F002FC200000F0D1
:1022000051F920684069800910F00100050094F838
:102210003A00222810D1002D0ED02068406930F0FD
:10222000400021684861606B002802D0606B00F0BC
:10223000E7FB200000F040F9002032BD2DE9F84313
:102240000400206805682068C668206847695FF058
:1022500000085FF0000915F00F008046B8F1000F8C
:1022600007D1A80605D5B00603D5200000F087F9F0
:1022700085E0B8F1000F72D0F80702D416F4907F11
:102280006DD015F00100C0B2002805D0F00503D5CF
:10229000E06B50F00100E063680708D517F001001B
:1022A000C0B2002803D0E06B50F00200E063A80742
:1022B00008D517F00100C0B2002803D0E06B50F041
:1022C0000400E063280708D517F00100C0B2002819
:1022D00003D0E06B50F00800E063E06B00283DD0D5
:1022E000A80604D5B00602D5200000F048F9206801
:1022F0004069800910F001008146E06B000702D4BC
:10230000B9F1000F25D0200000F0D6F82068406910
:1023100040061AD52068406930F0400021684861C5
:10232000606B00280DD00FF2B110616B4863606BD9
:1023300000F081FB002811D0606B616B496B88470E
:102340000CE0200000F0AEFC08E0200000F0AAFC49
:1023500004E0200000F0A6FC0020E0630FE0280667
:1023600005D5300603D5200000F0C2F807E0680666
:1023700005D5700603D5200000F0F1F8FFE7BDE8B1
:10238000F183000038B50400656A206800688006A3
:1023900016D40020E8852868C06830F48070296869
:1023A000C86028684069400840002968486128687A
:1023B000406930F0400029684861202085F83A00E3
:1023C000280000F070FC31BD38B50400656A2800B3
:1023D00000F06AFC31BD000070B504000025666A9B
:1023E00030684069C00910F00100050096F8390016
:1023F000212806D1002D04D00020F084300000F008
:1024000051F830684069800910F00100050096F825
:102410003A00222806D1002D04D00020F08530009B
:1024200000F04AF8F06B50F01000F063300000F05C
:1024300039FC70BD2DE9F04104000D0016001F00AD
:10244000DDF81880206800682840A84201D10120EA
:1024500000E00020F6B2B04221D118F1010FF1D016
:10246000B8F1000F04D000F03DFAC01B8045E9D25E
:102470002068C06830F4D0702168C8602068406966
:102480004008400021684861202084F8390020205D
:1024900084F83A00002084F83800032000E000208F
:1024A000BDE8F0810168C96831F0C0010268D160FF
:1024B000202180F8391070470168C96831F49071A3
:1024C0000268D160016849694908490002685161A0
:1024D000202180F83A10704738B50400656A002062
:1024E000E8850020E884280000F0DCFB31BD000016
:1024F000010091F8390021282FD18868B0F5805F5C
:1025000011D1086A02001088C005C00D0B68586020
:102510000869002803D1086A801C086209E0086A7B
:10252000401C086205E0086A431C0B6200780B68D7
:102530005860C88C401EC88480B200280BD108683F
:10254000C06830F080000B68D8600868C06850F040
:1025500040000B68D860002000E00220704710B5F2
:1025600004002068C06830F040002168C860202066
:1025700084F83900200000F098FB002010BD38B529
:10258000040094F83A0022284ED1A068B0F5805F8C
:1025900016D1A06A05002069002808D1206840688B
:1025A000C005C00D2880A06A801CA0621AE02068C7
:1025B000406800F0FF002880A06A401CA06211E083
:1025C0002069002806D1A06A411CA16221684968DF
:1025D000017007E0A06A411CA1622168496811F0FE
:1025E0007F010170E08D401EE08580B2002819D186
:1025F0002068C06830F020002168C8602068C0688A
:1026000030F480702168C86020684069400840004C
:1026100021684861202084F83A00200000F043FB44
:10262000002002E0002000E0022032BD2DE9F84346
:10263000040000252068006930F44050E168084338
:1026400021680861A068216908436169084305435E
:102650002068C0685B49084028432168C86020683A
:10266000406930F44070A1690843216848612068DE
:102670005549884252D100F050FE814600F04DFE8F
:10268000804600F04AFE070000F047FE060000F01A
:1026900044FE192101FB09F162689200B1FBF2F1DD
:1026A0006422B1FBF2F1192202FB08F263689B007D
:1026B000B2FBF3F2192303FB07F36768BF00B3FB18
:1026C000F7F36427B3FBF7F3642707FB1322120128
:1026D00032326423B2FBF3F212F0F00212EB01117A
:1026E000192202FB06F263689B00B2FBF3F2192386
:1026F000584363689B00B0FBF3F06423B0FBF3F036
:10270000642303FB1020000132306422B0FBF2F09E
:1027100010F00F0040182168886051E000F0F2FDD1
:10272000814600F0EFFD804600F0ECFD070000F070
:10273000E9FD060000F0E6FD192101FB09F16268E0
:102740009200B1FBF2F16422B1FBF2F1192202FB1B
:1027500008F263689B00B2FBF3F2192303FB07F353
:102760006768BF00B3FBF7F36427B3FBF7F3642795
:1027700007FB1322120132326423B2FBF3F212F090
:10278000F00212EB0111192202FB06F263689B00B2
:10279000B2FBF3F21923584363689B00B0FBF3F0DC
:1027A0006423B0FBF3F0642303FB102000013230FC
:1027B0006422B0FBF2F010F00F004018216888602E
:1027C000BDE8F183F3E9FFFF0038014080B53E48E2
:1027D0003E4908604FF461403C49486000203B4955
:1027E000886000203949C8600020384908610C2001
:1027F0003649486100203549886100203349C86165
:102800003248FFF7DBFB002803D04421304800F0BA
:10281000BBFE01BD10B586B0040020682A4988427D
:102820004FD12C48006850F480202A49086029487C
:10283000006810F48020009000984FF480600190B0
:10284000022002900320049001A9234800F09EFE7C
:102850004FF400600190002002900020039001A935
:102860001D4800F093FE1D481D49086000201C49CA
:10287000486000201A49886080201949C8600020FB
:1028800017490861002016494861002014498861F1
:102890004FF440501249C861114800F029F800284F
:1028A00003D06F210A4800F06FFE0D4860630C48AA
:1028B000446200220021272001F05EF8272001F069
:1028C0006EF806B010BD000000480040DC0D00208E
:1028D000F84300081C100240000C01403000024088
:1028E000980D002001480068704700BF240E0020AA
:1028F00001000022002901D1012034E00868DFF83E
:10290000543318181423B0FBF3F080000864DFF888
:102910004803C863022081F82100086800680200AB
:102920006FF30D1248688B681843CB6818430B6926
:1029300018434B6918438B691843CB69184302430A
:1029400008680260002088620020C86200200863D6
:102950000020486300208863012081F821000020C6
:1029600081F82000002070472DE9F04104000D009F
:1029700016001F005FF0000894F82000012801D124
:1029800002203BE0012084F8200094F82100012877
:102990002DD1022084F821000020A0632068006867
:1029A00040084000216808603B00320029002000F8
:1029B00000F062F9E06A002806D02068006850F054
:1029C0000E00216808600BE02068006830F0040009
:1029D000216808602068006850F00A0021680860DB
:1029E0002068006850F001002168086004E00020C1
:1029F00084F82000022080464046C0B2BDE8F08145
:102A0000010000200A68126832F00E020B681A609A
:102A10000A681268520852000B681A6001220B6C97
:102A20009A40CB6B5A60012281F82120002281F864
:102A30002020C0B2704738B50400002594F821006A
:102A4000022804D00420A063012005004AE0206889
:102A5000006830F00E0021680860206800684008B7
:102A60004000216808602068DFF8F011884201D139
:102A7000012028E02068DFF8E811884201D1102009
:102A800021E02068DFF8DC11884202D14FF4807029
:102A900019E02068DFF8D011884202D14FF480504D
:102AA00011E02068DFF8C411884202D15FF4803061
:102AB00009E02068DFF8B811884202D15FF4801085
:102AC00001E05FF08070DFF8AC110860012084F84D
:102AD0002100002084F82000606B002802D0200034
:102AE000616B88472800C0B232BD70B50400E06B4E
:102AF0000568206806680420216C884005423ED0A5
:102B000070073CD520680068800605D420680068FE
:102B100030F004002168086020685049884201D1E3
:102B2000042023E020684E49884201D140201DE066
:102B300020684C49884202D14FF4806016E020683A
:102B40004949884202D14FF480400FE0206847494C
:102B5000884202D15FF4802008E02068444988421E
:102B600002D15FF4800001E05FF0806041490860BD
:102B7000E06A00286DD02000E16A884769E0022001
:102B8000216C8840054244D0B00742D520680068D7
:102B9000800608D42068006830F00A0021680860C8
:102BA000012084F8210020682C49884201D10220AC
:102BB00023E020682A49884201D120201DE02068B6
:102BC0002849884202D14FF4007016E02068264957
:102BD000884202D14FF400500FE020682349884218
:102BE00002D15FF4003008E020682149884202D118
:102BF0005FF4001001E05FF000701E4908600020E3
:102C000084F82000A06A002823D02000A16A884709
:102C10001FE00820216C884005421AD0300718D5E3
:102C20002068006830F00E00216808600120216CE7
:102C30008840E16B48600120A063012084F82100F6
:102C4000002084F82000206B002802D02000216B97
:102C5000884770BDF8FFFDBF000002400800024039
:102C60001C00024030000240440002405800024074
:102C70006C0002400400024030B40124056CAC40FA
:102C8000C56B6C60046863604468102C04D10468F0
:102C9000A2600468E16003E00468A1600468E26087
:102CA00030BC7047704770477047704770B582B04E
:102CB000040000252078C00740F18480DFF89C06DE
:102CC000006810F00C0004280BD0DFF890060068B4
:102CD00010F00C0008280ED1DFF880060068C00351
:102CE00009D5DFF87406006880036BD5606800289A
:102CF00068D1012004E26068B0F5803F08D1DFF8B8
:102D00005806006850F48030DFF84C16086038E050
:102D10006068002810D1DFF84006006830F4803089
:102D2000DFF834160860DFF83006006830F48020E1
:102D3000DFF82416086024E06068B0F5A02F10D1F9
:102D4000DFF81406006850F48020DFF80C160860E5
:102D5000DFF80406006850F48030DFF8FC150860E6
:102D60000FE0DFF8F405006830F48030DFF8E81594
:102D70000860DFF8E405006830F48020DFF8D8153B
:102D80000860606800280ED0FFF7ACFD0500DFF892
:102D9000C8050068800315D4FFF7A4FD401B652813
:102DA000F5D30320ACE1FFF79DFD0500DFF8A80592
:102DB0000068800306D5FFF795FD401B6528F5D315
:102DC00003209DE1207880075CD5DFF8900500683E
:102DD00010F00C0F0BD0DFF88405006810F00C0029
:102DE00008281AD1DFF874050068C00315D4DFF88D
:102DF00068050068800704D52069012801D00120FA
:102E00007EE1DFF85405006830F0F800616950EAAF
:102E1000C100DFF84415086034E0206900281ED0A6
:102E20000120DFF848150860FFF75CFD0500DFF8BA
:102E300028050068800706D4FFF754FD401B0328CF
:102E4000F5D303205CE1DFF81005006830F0F800EE
:102E5000616950EAC100DFF80015086012E0002047
:102E6000DFF808150860FFF73DFD0500DFF8E8040E
:102E70000068800706D5FFF735FD401B0328F5D312
:102E800003203DE1207800072CD5A069002816D04A
:102E90000120DFF8DC140860FFF724FD0500DFF8EF
:102EA000C8040068800706D4FFF71CFD401B0328F8
:102EB000F5D3032024E1012000F03AFA12E00020CB
:102EC000DFF8AC140860FFF70DFD0500DFF898048B
:102ED0000068800706D5FFF705FD401B0328F5D3E2
:102EE00003200DE12078400740F1A7800026DFF89D
:102EF00084040068C00010D4DFF87804006850F043
:102F00008050DFF870140860DFF86804006810F083
:102F100080500090009801200600DFF85C040068F3
:102F2000C00516D4DFF85004006850F48070DFF854
:102F300048140860FFF7D6FC0500DFF83C04006881
:102F4000C00506D4FFF7CEFC401B6528F5D303204F
:102F5000D6E0E068012808D1DFF82004006850F0CE
:102F60000100DFF81814086037E0E068002810D18D
:102F7000DFF80804006840084000DFF8001408602B
:102F8000DFF8F803006830F00400DFF8F0130860A1
:102F900023E0E068052810D1DFF8E003006850F076
:102FA0000400DFF8D8130860DFF8D003006850F0A1
:102FB0000100DFF8C81308600FE0DFF8C003006805
:102FC00040084000DFF8B4130860DFF8B003006881
:102FD00030F00400DFF8A4130860E068002810D087
:102FE000FFF780FC0500DFF894030068800719D420
:102FF000FFF778FC401B41F289318842F3D303206C
:103000007EE0FFF76FFC0500DFF8700300688007C3
:1030100008D5FFF767FC401B41F289318842F3D3A2
:1030200003206DE0F6B2012E07D1DFF848030068F7
:1030300030F08050DFF83C130860E06900285ED073
:10304000DFF81803006810F00C00082855D0E0697C
:1030500002283FD10020DFF828130860FFF742FC68
:103060000500DFF8F4020068800106D5FFF73AFC9E
:10307000401B0328F5D3032042E0206AB0F5803FCF
:1030800009D1DFF8D802006830F40030A1680843A5
:10309000DFF8C8120860DFF8C402006830F474106A
:1030A000216A0843616A0843DFF8B0120860012012
:1030B000DFF8CC120860FFF715FC0500DFF8980276
:1030C000006880011BD4FFF70DFC401B0328F5D3DB
:1030D000032015E00020DFF8A8120860FFF702FCCB
:1030E0000500DFF874020068800108D5FFF7FAFBDD
:1030F000401B0328F5D3032002E0012000E000205C
:1031000076BD70B504000D000026DFF87802006877
:1031100010F00700A84211D2DFF868020068C0086A
:10312000C0002843DFF85C120860DFF8580200682E
:1031300010F00700A84201D00120A3E0207880070A
:1031400009D5DFF81802006830F0F000A1680843E4
:10315000DFF8081208602078C00758D56068012899
:1031600006D1DFF8F4010068800312D4012089E061
:103170006068022806D1DFF8E0010068800108D409
:1031800001207FE0DFF8D0010068800701D4012032
:1031900078E0DFF8C80100688008800061680843B3
:1031A0006E490860FFF79EFB0600606801280ED19B
:1031B0006A48006810F00C00042828D0FFF792FB42
:1031C000801B41F289318842F2D303205AE06068C3
:1031D00002280ED16148006810F00C00082816D0B3
:1031E000FFF780FB801B41F289318842F2D3032034
:1031F00048E05A48006810F00C0F08D0FFF772FB47
:10320000801B41F289318842F3D303203AE05D48C4
:10321000006810F0070085420ED25A480068C008C6
:10322000C0002843574908605648006810F007005E
:10323000A84201D0012025E02078400707D5474863
:10324000006830F4E060E168084344490860207891
:10325000000708D54148006830F46050216950EA01
:10326000C1003E49086000F00EF847493B4A126829
:10327000C2F30312895CC8403A490860002000F09C
:10328000C1FB002070BD70B586B001A83F49102277
:10329000FEF7DAF83E480088ADF800000021002271
:1032A0000023002400202D4D2D68290011F00C056D
:1032B000042D02D0082D03D01DE0294D28001CE06C
:1032C00001ADC1F38346AD5D2C00CD030DD56D4638
:1032D000224E3668C6F34046AD5D2A00204D05FB00
:1032E00004F5B5FBF2F52B0003E02A4D05FB04F5D0
:1032F0002B00180001E01A4D280006B070BD1948D7
:103300000068704780B5FFF7FAFF2349134A126837
:10331000C2F30222895CC84002BD80B5FFF7EFFF0F
:103320001D490E4A1268C2F3C222895CC84002BD20
:1033300081B00C490968C9084FF47A72B1FBF2F107
:1033400001FB00F1009100BF00994A1E0092002984
:10335000F9D101B070470000001002400410024093
:1033600000127A001C00002024100240000042429B
:10337000800442421C1002400070004020100240B5
:10338000600042420020024004450008F444000866
:10339000A612000800093D003045000880B500F085
:1033A00057FB00F044F800F067FB00F0AFFBFFF7BD
:1033B0000DFA4FF48062DFF8A811DFF8A801FEF7DC
:1033C000A7FEDFF8A0010068C06850F01000DFF829
:1033D00094110968C860DFF89001007800280CD1CA
:1033E0004FF6FF730922DFF88411DFF87801FEF74A
:1033F00020FE052000F0A2FBEDE70020DFF86811B9
:10340000087001224FF40071DFF8640100F01BFA2C
:103410004FF47A7000F092FB00224FF40071DFF855
:10342000500100F010FA684600F06FF8FBE700B5B5
:103430008FB0012005905FF4803006900020079047
:103440000120099002200C905FF480300D905FF411
:10345000E0100E9005A8FFF729FC002804D0B82141
:10346000DFF8100100F090F80F200090022001908A
:10347000002002904FF4806003900020049002210D
:103480006846FFF73EFE002804D0C621DFF8E400BE
:1034900000F07AF8FFF733FF4FF47A71B0FBF1F0E8
:1034A00000F084FA042000F087FA002200215FF087
:1034B000FF3000F061FA0FB000BD38B5040020689D
:1034C0000068C00620D500200090206800680090A9
:1034D0002068406800900098606B006840680500B4
:1034E0002000FEF770FE2068234988420CD1D5F5F4
:1034F00080601D49488001201B4908704FF480629C
:103500001E491848FEF704FE31BD38B504004FF6D9
:10351000FF730C221A491348FEF78BFDC82000F0F8
:103520000DFB11480078012809D10F48407B0500A8
:103530000D48807B0C49C97B0818208001E0FF20E2
:103540000500EDB2002D07D10748807B0649C97BF5
:1035500009180C4800F006FB2800C0B232BD00007C
:10356000940C0020DC0D002010080020000000203A
:10357000000C0140C443000800480040140800202B
:103580000C000020E0440008FEE700002DE9F841AF
:1035900000230024002500265FF0000E5FF0000CE1
:1035A0006246102A80F04D815FF0010C1CFA02FC8B
:1035B0006346D1F800C013EA0C0C64469C4240F00C
:1035C0003E81D1F804C0BCF1000F3DD0BCF1010F29
:1035D00024D0BCF1020F2BD0BCF1030F4CD0BCF1B6
:1035E000110F1FD0BCF1120F28D0DFF87082C44534
:1035F0002AD0DFF86C82C44526D0DFF86882C44543
:1036000022D0DFF86482C4451ED0DFF86082C44552
:103610001AD0DFF85C82C44516D031E0D1F80CC076
:1036200066462DE0D1F80CC01CF1040C664627E07C
:10363000D1F80CC01CF1080C664621E0D1F80CC092
:103640001CF10C0C66461BE0D1F808C0BCF1000F61
:1036500003D15FF0040C66460DE0D1F808C0BCF160
:10366000010F04D15FF0080C6646036103E05FF0D0
:10367000080C6646436103E05FF0000C6646FFE716
:10368000FF2C01D8070000E0071DFF2C02D85FEADD
:10369000820E03E0B2F1080C5FEA8C0ED7F800C08E
:1036A0005FF00F0818FA0EF83CEA080C16FA0EF84C
:1036B00058EA0C0CC7F800C0D1F804C05FEACC0C83
:1036C00040F1BD80DFF8ACC1DCF800C05CF0010C5B
:1036D000DFF8A081C8F800C0DFF898C1DCF800C0AE
:1036E0001CF00108CDF80080DDF800C0DFF888C1CB
:1036F0005FEA92085CF828C065465FF00F0C12F094
:1037000003085FFA88F85FEA88081CFA08FC35EAC3
:103710000C05DFF868C1604502D15FF0000C16E0CF
:10372000DFF85CC1604502D15FF0010C0FE0DFF80B
:1037300054C1604502D15FF0020C08E0DFF848C1D7
:10374000604502D15FF0030C01E05FF0040C12F061
:1037500003085FFA88F85FEA88081CFA08FC5CEA4C
:103760000505DFF814C15FEA92084CF82850D1F83B
:1037700004C05FEACC3C0AD5DFF810C1DCF800C019
:1037800054EA0C0CDFF80481C8F800C009E0DFF847
:10379000FCC0DCF800C03CEA040CDFF8F080C8F89C
:1037A00000C0D1F804C05FEA8C3C0AD5DFF8E0C065
:1037B000DCF800C054EA0C0CDFF8D480C8F800C074
:1037C00009E0DFF8CCC0DCF800C03CEA040CDFF80C
:1037D000C080C8F800C0D1F804C05FEACC2C0AD57C
:1037E000DFF8B0C0DCF800C054EA0C0CDFF8A480AD
:1037F000C8F800C009E0DFF89CC0DCF800C03CEA73
:10380000040CDFF89080C8F800C0D1F804C05FEA6B
:103810008C2C0AD5DFF880C0DCF800C054EA0C0C10
:10382000DFF87480C8F800C009E0DFF86CC0DCF88D
:1038300000C03CEA040CDFF86080C8F800C0521CED
:10384000AFE6BDE8F181D2B2002A02D089B20161AF
:1038500002E089B20B040361704700000000111000
:103860000000121000002110000022100000311092
:10387000000032101810024008000140000801400A
:10388000000C014000100140001401400004014000
:1038900004040140080401400C04014010F0070238
:1038A0004D4B1B6819004FF6FF0319404B4B53EA71
:1038B00002231943484B1960704747480068C0F31A
:1038C00002207047012110F01F029140444A40B28B
:1038D000430942F82310704710B440B2002808D5BD
:1038E0000A01404B40B210F00F04234403F8042CAB
:1038F00003E00A013C4B40B21A5410BC704770B44C
:10390000030013F00704D4F10706052E01D30420A9
:1039100001E0D4F10700261D072E01D2002500E0AA
:10392000E51E012616FA00F0401E0840A8400121BD
:10393000A940491E1140084370BC704710B50400EF
:10394000601EB0F1807F01D301200EE0601E274988
:1039500008600F215FF0FF30FFF7BEFF0020244911
:103960000860072023490860002010BD10B504003E
:103970002000FFF793FF10BDF8B504000D001600FE
:103980000027FFF79AFF0700320029003800FFF7F1
:10399000B6FF0100200040B2FFF79EFFF1BD10B559
:1039A0000400200040B2FFF78DFF10BD10B50400E9
:1039B0002000FFF7C3FF10BD042806D10D49096898
:1039C00051F004010B4A116005E00A49096831F021
:1039D0000401084A116070470CED00E00000FA0590
:1039E00000E100E018ED00E000E400E014E000E099
:1039F00018E000E010E000E080B500F001F801BD43
:103A00007047000010B504004FF47A700D49097832
:103A1000B0FBF1F00C490968B1FBF0F0FFF7C6FF0D
:103A2000002801D001200CE0102C09D20022210036
:103A30005FF0FF30FFF7A0FF04480460002000E0C3
:103A4000012010BD080200201C00002018000020EA
:103A500080B50848006850F010000649086003204F
:103A6000FFF784FF0020FFF7CDFF00F08DF8002066
:103A700002BD00000020024000B585B0214800686A
:103A800050F020001F4908601E48006810F0200018
:103A9000009000981B48006850F008001949086021
:103AA0001848006810F00800009000981548006859
:103AB00050F00400134908601248006810F0040038
:103AC0000090009800224FF400710F48FFF7BBFEF2
:103AD00002200190002002900220039001A90A48D0
:103AE000FFF754FD4FF40070019001200290002078
:103AF00003900220049001A90348FFF747FD05B099
:103B000000BD00BF18100240000C014080B50A48FB
:103B1000006850F00100084908600748006810F08C
:103B2000010000900098002200210D20FFF724FFE3
:103B30000D20FFF734FF01BD1410024070B50400E2
:103B4000FEF7D0FE0500260016F1010F02D0044852
:103B500000788619FEF7C6FE401BB042FAD370BD4E
:103B6000080200200EB400B582B003A900910246FD
:103B70006B460121034878440A30FCF7B7FA06BCCB
:103B80005DF810FB3909000080B52748006850F047
:103B90000100254908602448006810F001000090E9
:103BA00000982248006850F08050204908601F4863
:103BB000006810F08050009000980320FFF7D6FEB8
:103BC000002200217FF00B00FFF7D6FE002200212B
:103BD0007FF00A00FFF7D0FE002200217FF00900ED
:103BE000FFF7CAFE002200217FF00400FFF7C4FEA9
:103BF000002200217FF00300FFF7BEFE002200211B
:103C00007FF00100FFF7B8FE002200215FF0FF30D7
:103C1000FFF7B2FE06490968080030F0E06050F096
:103C200000700349086001BD181002401C100240DA
:103C3000040001402DE9F04104460D46207803219F
:103C4000084216461F4632D0204600F09AF870BB54
:103C500015B1D5E900018619012F30D12088C004A3
:103C600016D5A16904F13D02204600F0A7F8626A6A
:103C7000804602B92269E168204600F09FF8A6EB71
:103C800008010E1AA26AE168204600F097F8361A79
:103C90001EB94FB916F1010F09D094F903003A4645
:103CA000314600F091F8064616F1010F0AD100F0F6
:103CB000B1F8232101604FF0FF30BDE8F081022F01
:103CC000E7D1EAE720884FF4405108420ED06068FF
:103CD000E0602061A06260616068E06204F13D0024
:103CE000A06104F12400E061002060622DB1D5E9FB
:103CF000020104F13002C2E9000120884CF6FF61A4
:103D0000084020800020BDE8F081000038B500F0B8
:103D100087F80446208880042ED5656809E04A1B90
:103D2000294600F07FF810F1010F18BF00280CD0D1
:103D30000544E16894F903008D42F0D3002200218C
:103D400000F070F810F1010F0DD16068E060606163
:103D5000E062208840F400702080204600F061F886
:103D60004FF0FF3032BD6568E5606561E5624DF694
:103D7000FF71208808402080204600F052F8002083
:103D800032BDF8B5A0B9AFF3008000240A4D082673
:103D90004FF0FF37286820B1FFF7B8FF002848BF71
:103DA0003C462D1D761EF5D1AFF300802046F2BDB6
:103DB000BDE8F240AAE70000E0000020914201D2F5
:103DC000501A70470020704730B583B004000D00D2
:103DD000012A02D100F073F807E0022A07D100940B
:103DE0000020019069460C20ABBE2D1801E0002A8E
:103DF0000CD10094019569460A20ABBE002805D17C
:103E000000222100280000F037F801E00020C04324
:103E100003B030BD0148FEF7CFB800000402002017
:103E20007047704780B5002802D400F069F802BDE1
:103E3000002002BD10B4314A002113461C688442A0
:103E400005D1002342F8313002EBC10111E09C683A
:103E5000491C84421EBF491C1C6984421EBF491C68
:103E60009C698442EDD0491C20331029E6D310BC54
:103E700070474B6010BC704770B4204C002325463F
:103E80002E688E4209D1014604EBC303012A04BF08
:103E90005A685118596070BC7047AE685B1C8E42FE
:103EA0001EBF5B1C2E698E421EBF5B1CAE698E421C
:103EB000E9D05B1C2035102BE2D370BC704710B4E6
:103EC0000E4A002113461C68844204D102EBC10053
:103ED000406810BC70479C68491C84421EBF491C46
:103EE0001C6984421EBF491C9C698442EED0491C57
:103EF00020331029E7D310BC00207047140C002099
:103F000080B5002901D1002002BD012801D002287E
:103F100002D100F004F802BD00F011F802BD30B586
:103F200083B00C001500012000F032F800900194DD
:103F3000029569460520ABBE281A03B030BD10B506
:103F400084B0030014000093019102946946052097
:103F5000ABBE01221900201AFFF78EFF04B010BD7E
:103F600080B500F033F802000023DB43106898426C
:103F700004D011000220ABBE0020106050689842AF
:103F800004D0111D0220ABBE0020506001BD000016
:103F900010B584B0040000F019F8A10042181068B0
:103FA0000021C94388420DD107A00090002C01D107
:103FB000002000E0042001900320029069460120C7
:103FC000ABBE106004B010BD3A7474000048704776
:103FD0000001002010B50446E0686169884253D3AF
:103FE000218849F202020A40022A08D008044CBF84
:103FF0004FF400704FF48440084320803DE001F40A
:10400000C041B1F5C04F06D1A168884203D3204614
:10401000FFF7B7FE88BB20884FF44061084202BF1B
:10402000606804F13D01884218D14FF40070FDF73B
:1040300095F9606030B904F13D006060E060401CBB
:10404000A0600BE0218841F040012180E060A06287
:104050004FF4007101446068A160E0626068206113
:10406000A0686061207840070AD50222002120461E
:1040700000F00CF810F1010F02D14FF0FF3010BD2D
:10408000208840F4C0402080002010BD70B50C4650
:104090001546FFF7C5FE06462B4622460021FFF7D0
:1040A000C9FD04463046FFF7BCFE204670BD000047
:1040B0000178090626D51D4A13680021834203D1E1
:1040C000002342F821301BE05368012183421EBFC8
:1040D000022193688342F3D0D368032183421EBF39
:1040E000042113698342EBD05369052183421EBF2B
:1040F0000621936983421EBF0721D3698342DFD023
:10410000FDF7CEB9002101804FF0FF31C17000F101
:104110003D014160C160016181624161C1628161B3
:1041200000F12401C161704700000000E0000020A0
:1041300038B5044603212078084202D06056002892
:1041400009D5AFF300802046FFF7B2FFAFF3008040
:104150004FF0FF3527E02046FFF713FE0546AFF38B
:1041600000802078400644BF6068FDF799F9002080
:10417000606094F90300022804D900F016F808B131
:104180004FF0FF35A06B48B100F01CF808B14FF0BC
:10419000FF35A06BFDF784F90020A0632046FFF7F0
:1041A00087FFAFF30080284632BD10B582B0020011
:1041B000009269460220ABBE04001000FFF73AFEF1
:1041C000200016BD00B583B00090FDF779F801908E
:1041D00069460E20ABBE03B000BD00001348006866
:1041E00050F0010011490860114800681149084069
:1041F0000F4908600D4800680F4908400B490860E6
:104200000A48006830F480200849086008480068BF
:1042100030F4FE00064908605FF41F00074908609B
:104220005FF000600649086070470000001002401F
:10423000041002400000FFF8FFFFF6FE08100240E5
:1042400008ED00E010B5144C206808B1FFF770FFCE
:10425000606808B1FFF76CFFA06808B1FFF768FF5E
:10426000E06808B1FFF764FF206908B1FFF760FF5D
:10427000606908B1FFF75CFFA06908B1FFF758FF5C
:10428000E06908B1FFF754FFBDE8104000220021AB
:104290004FF0FF30FFF7C6BDE000002038B50546FF
:1042A0000846FFF7BDFD0446E0686169884204D313
:1042B0002046FFF78FFE002810D4E068401CE06025
:1042C00000F8015D2088010504D440050CD5EDB24D
:1042D0000A2D09D12046FFF754FD28B12046FFF7EB
:1042E000A0FD4FF0FF3032BD2046FFF79AFDE8B247
:1042F00032BD00007047FEE7FEE7FEE7FEE77047CD
:104300007047704780B500F015F8FFF775FB01BDE9
:1043100080B50648FEF7E9FB01BD80B50448FFF70C
:10432000CCF80348FDF78AFF01BD0000980D00207E
:10433000DC0D00200348006803490978081801498A
:1043400008607047240E00200802002019E050F891
:10435000041BCB0744BFA9F101035918121F002306
:10436000042A41F8043BF9D25FEA827C0B4604D56B
:104370004FF0000CA1F800C09B1CD10744BF0021E6
:10438000197050F8042B002AE1D1704730B501684C
:1043900042688468014401EB5203D20748BF4C4491
:1043A000994201D10C3030BD11F9012B11F8015B9C
:1043B000002A04F8015B02D5521CF9D1F0E7521E25
:1043C000F4D5EDE7433A5C55736572735C746573BD
:1043D000745C4465736B746F705C31315C7A6869CE
:1043E00077656E6D6F6B7561695C5372635C6D614F
:1043F000696E2E6300000000433A5C55736572736A
:104400005C746573745C4465736B746F705C31319C
:104410005C7A686977656E6D6F6B7561695C537204
:10442000635C75736172742E6300000010B50749F8
:1044300079441831064C7C44163404E00A68081D9F
:10444000114488470146A142F8D110BD0800000080
:1044500024000000F9FEFFFF1C06000010080020E9
:104460000000000029FFFFFF74010000460100006A
:104470000000002000F00BF8002801D0FFF7D6FF65
:104480000020AFF30080FEF789FF00F002F8012062
:10449000704700F001B800000746FFF7D3FE38462A
:1044A00000F002F8FBE7000080B5FFF759FD024A73
:1044B00011001820ABBEFBE72600020038B5044609
:1044C0000D46284600F006F8A84218BF00242046F2
:1044D00032BD00000149FFF7E1BE00BF60000020CF
:1044E0000D0AD3D0D0A7D6B8CEC6B8F6CAFD3D25A2
:1044F0006400000002030405060708090A0B0C0DFE
:104500000E0F101000000000000000000102030464
:10451000060708090148804701480047DD410008B7
:1045200025450008AFF30080AFF30080FFF7A2FF3E
:104530000000000001020304FFF7FEBFFFF7FEBF0B
:10454000FFF7FEBFFFF7FEBFFFF7FEBFFFF7FEBF9F
:10455000FFF7FEBFFFF7FEBFFFF7FEBFFFF7FEBF8F
:10456000FFF7FEBFFFF7FEBFFFF7FEBFFFF7FEBF7F
:10457000FFF7FEBFFFF7FEBFFFF7FEBFFFF7FEBF6F
:10458000FFF7FEBFFFF7FEBFFFF7FEBFFFF7FEBF5F
:10459000FFF7FEBFFFF7FEBFFFF7FEBFFFF7FEBF4F
:1045A000FFF7FEBFFFF7FEBFFFF7FEBFFFF7FEBF3F
:1045B000FFF7FEBFFFF7FEBFFFF7FEBFFFF7FEBF2F
:1045C000FFF7FEBFFFF7FEBFFFF7FEBFFFF7FEBF1F
:1045D000FFF7FEBFFFF7FEBFFFF7FEBF01EF01FCD5
:1045E000FF0001FB0001EF01FCFF060100031D00BD
:1045F0002110FC0022A24A04010400005D000020FA
:104600005E0000205D0000205D0000205D000020B5
:104610005D00002044000020E0001F02040101486A
:104620000D0020980D0020480D0020480D00204866
:104630000D00209D00002084000020E0001F0208E3
:104640000202F80C0020480D0020F80C0020F80CA5
:104650000020F80C0020DD000020C4000020E00055
:104660000B2000002060000020A0000020EC00F8DB
:0F467000FFE400F8FFDC00FAFF8100CD0000013D
:040000050800452585
:00000001FF
