:020000040800F2
:10000000B8050020FD4B0008754A0008774A000833
:10001000794A00087B4A00087D4A00080000000079
:100020000000000000000000000000007F4A0008FF
:10003000814A000800000000834A0008854A000841
:10004000214C0008254C0008294C00082D4C0008C4
:10005000314C0008354C0008394C00083D4C000874
:10006000414C0008454C0008494C00084D4C000824
:10007000514C0008554C0008594C00085D4C0008D4
:10008000614C0008654C0008694C00086D4C000884
:10009000714C0008754C0008794C00087D4C000834
:1000A000814C0008854C0008894C00088D4C0008E4
:1000B000934A0008914C0008954C0008994C0008A0
:1000C0009D4C0008A14C0008A54C0008A94C000854
:1000D000AD4C0008994A00089F4A0008A54A00084C
:1000E000B14C0008B54C0008B94C0008BD4C0008E4
:1000F000C14C0008C54C0008C94C0008CD4C000894
:10010000D14C0008D54C0008D94C0008DD4C000843
:10011000AB4A0008E14C0008E54C0008E94C000837
:10012000ED4C0008F14C0008F54C0008F94C0008B3
:100130002DE9F04F82460FF25860A5B015461E46D5
:10014000D0E90023CDE9122303AF00207960B86223
:100150000DF1500900E045440020ADF8020012AB5B
:100160004FF0FF3229460DF1020001F0AEF8804653
:10017000B8F1010F08DA2878B0F1010868EB080837
:100180006FEA08004FEAD078BDF8020025280CBFBE
:10019000A8F1010BC346BBF1010F0EDB2C4614F88E
:1001A000011B7868D0470028786000F0F880B86AB2
:1001B000401CBBF1010BB862F1D1BDF8020025284B
:1001C00007D1002038617861B861F86138627862DF
:1001D00005E00028BFD1B86AE2E240F0010015F85E
:1001E000011F2029F9D023290DD02B2904D02D2936
:1001F00006D030290AD00CE040F0020080B2EEE7D1
:1002000040F00400FAE740F00800F7E740F0100083
:10021000F4E72A290ED13168316051F8042B31609E
:10022000002A3A6304D5514240F00400396380B299
:100230006D1C13E0002139630BE0396B6FF0004354
:10024000994205D001EB810302EB43013039396358
:100250006D1C2A78A2F130010A29EED329782E29C3
:1002600003D04FF0FF31F9621FE015F8011F2A2972
:1002700007D1316831606D1C51F8042B3160FA628E
:1002800013E00021F9620BE0F96A6FF00043994234
:1002900005D001EB810302EB43013039F9626D1C9B
:1002A0002A78A2F130010A29EED3B8860FF2E8408D
:1002B000297801F01BF808B115F8010B8DF8420000
:1002C0009DF84200682802BF29786829622005D07D
:1002D0006C2804BF28786C2803D171208DF8420067
:1002E0006D1C14A8F86015F8014BB4F125002AD054
:1002F0001C3800F0DB80001F022840F2D780133842
:1003000000F0FB80093800F0D180801E00F065818C
:10031000401E00F03C81401E022840F2C780001FB2
:1003200000F03581401F00F09280401E00F0E58013
:10033000401E37D0C01E0BD0801E00F0DE80C01ED5
:1003400000F0DB806CE125208DF85000012070E189
:100350009DF842006C283068306016D050F8048B4D
:100360003060C7F80880FC6A002C04D5404600F0D5
:10037000C9FF044607E022460021404600F0DEFFA8
:1003800008B1A0EB08047C6154E150F8042B306004
:1003900002A9504600F03EFA002840F14B814FF090
:1003A000FF30FDE131683160002251F8040B31600B
:1003B0004FF03C0E0021CDE9020114A8B860DDE940
:1003C00002019142FC6808BF904201D1FA6AC2B1B1
:1003D00000F00F033033DBB23A2BA8BF2733AEF166
:1003E00001020009A354964640EA0170090900225F
:1003F000914208BF904204D0BA6804EB0E039A42BF
:10040000E6D304EB0E01B960CEF13C00F96A7861E5
:10041000884207DA081AF8614FF6EF71B88E084083
:10042000B88607E1002940F1058197F8341001F002
:100430001401102940F0FE80396B3A69891AFA6973
:10044000891A081A0128C0F2F580F861F2E09DF8D7
:10045000420062281AD0682806D06A280CD06C287E
:100460001CD0712808D019E03068306050F8041BA7
:100470003060B86A0880DDE03068306050F8042BE6
:100480003060B86AC117C2E90001D3E0306830605B
:1004900050F8041B3060B86A0870CBE030683060F8
:1004A00050F8041B3060B86A0860C3E03068C01DB3
:1004B00020F007023260D2E9000108323260CDE953
:1004C0000201002902D538692D2109E0B88E810783
:1004D00002D538692B2103E0C00705D538692021F2
:1004E00009F80010401C386114A839690844B86044
:1004F000214602A800F09AFB9CE09DF842006C287F
:100500000DD0712818BF6A2809D13068C01D20F0AD
:1005100007023260D2E900010832326005E031683A
:10052000316051F8040B31600021CDE902019DF8E2
:100530004200682803D1DDE9020180B20BE06228A5
:1005400003D1DDE90201C0B205E0742818BF7A28A2
:1005500004D1DDE902010021CDE9020197F8340060
:10056000000731D5DDE902230020834208BF824223
:100570002AD044F02000782826D13869302109F8A3
:100580000010401C411C396109F800401CE09DF836
:100590004200314600F007F9CDE90201DDE902230E
:1005A00000218B4202DA38692D2109E0B88E8107DB
:1005B00002D538692B2103E0C00705D53869202111
:1005C00009F80010401C386114A839690844B86063
:1005D000214602A800F0A4FA2CE09DF842006C2805
:1005E00009D0012038613068306050F8041B306059
:1005F0008DF850101EE03068306001AA50F8041BDE
:100600003060ADF804100020ADF8060002A94FF0EC
:10061000FF30F862504600F0FDF800280AD5BEE62B
:1006200025208DF85000012038611CB189F8014067
:1006300002203861386B3969401AF969401A7969C2
:10064000401A396A401AB969401A796AA0EB010860
:1006500097F83400400711D42020B8F1010F8DF82D
:1006600000000BDB444601236A4602A9504600F015
:1006700007FE00287FF493AE641EF4D1D7F810B0C3
:10068000BBF1000F14AC0DD014F8011B7868D047F3
:10069000002878603FF483AEB86A401CBBF1010BC0
:1006A000B862F1D130208DF80000FC69012C0ADB22
:1006B00001236A4602A9504600F0E2FD00287FF4BB
:1006C0006EAE641EF4D1D7F814B0BC68BBF1000F55
:1006D0000DD014F8011B7868D047002878603FF4EB
:1006E0005EAEB86A401CBBF1010BB862F1D130209C
:1006F0008DF800003C6A012C0ADB01236A4602A93E
:10070000504600F0BDFD00287FF449AE641EF4D1D0
:10071000B8687969D7F818B04418BBF1000F0DD04C
:1007200014F8011B7868D047002878603FF437AE92
:10073000B86A401CBBF1010BB862F1D130208DF8D2
:1007400000007C6A012C0ADB01236A4602A950469C
:1007500000F096FD00287FF422AE641EF4D197F8D5
:10076000340040077FF5F8AC2020B8F1010F8DF878
:100770000000FFF6F1AC01236A4602A9504600F0E2
:100780007FFD00287FF40BAEB8F10108F3D1E3E45C
:100790000000000000000000686A6C747A4C0000E1
:1007A00025B0BDE8F08F622826D068281DD06A28C1
:1007B00008D06C2827D0712804D0742823D07A2838
:1007C0000CD020E00868C01D20F007000860D0E9C8
:1007D0000023083008601946104670470A680A600E
:1007E00052F8040B0A60002170470A680A6052F848
:1007F000040B0A6000B20BE00A680A6052F8040BAE
:100800000A6040B204E00A680A6052F8040B0A6009
:10081000C11770472DE9F44F0D4694B0D5F830A0BC
:10082000BAF1000F804648BF6FF0004A00F0B2FDF9
:10083000696B401801900FF67820D0E90023CDE9CC
:10084000022395F83800400702D40198412805D2C8
:1008500040200DF110090190002609E000F0A0FDF4
:100860005FEA0009F8D14FF0FF3056E1AAEB040A25
:10087000BAF1010FC0F2CE801498018802AA0DF1DE
:10088000010000F0E5FD0028044600F1DE80149828
:10089000008810B9641E00F1D880A245C0F2BA8069
:1008A000686901992218914280F0A2806E634042EB
:1008B000296A401AA969401A696A401AE969401A06
:1008C000A96A461A95F83800400710D42020012E56
:1008D0008DF800000BDB374601236A462946404667
:1008E00000F0CEFC002840F0B0807F1EF4D1D5F897
:1008F00014B0BBF1000F4F460DD017F8011BA868CC
:10090000C0470028A86000F0A080E86A401CBBF146
:10091000010BE862F1D130208DF800002F6A012F21
:100920000ADB01236A462946404600F0A9FC00285C
:1009300040F08B807F1EF4D1D5F818B0EF68BBF182
:10094000000F0CD017F8011BA868C0470028A8604A
:100950007BD0E86A401CBBF1010BE862F2D1302089
:100960008DF800006F6A012F09DB01236A462946D2
:10097000404600F085FC002867D17F1EF5D1E8686D
:10098000A969D5F81CB04718BBF1000F0CD017F8B7
:10099000011BA868C0470028A86056D0E86A401C20
:1009A000BBF1010BE862F2D130208DF80000AF6A94
:1009B000012F09DB01236A462946404600F060FC0E
:1009C000002842D17F1EF5D195F8380040070DD59B
:1009D0002020012E8DF8000008DB01236A462946FD
:1009E000404600F04DFC80BB761EF6D100266E61BD
:1009F000224668690DF10101484400F037FD68693D
:100A0000201868611498801C1490801E00880028AB
:100A10007FF42CAF686B6969401A296A401AA9698A
:100A2000401A696A401AE969401AA96AA0EB010AEA
:100A300095F83800400710D4BAF1010F0DDB544689
:100A4000A8682021C047A86010B94FF0FF365DE0CC
:100A5000E86A401C641EE862F2D16B694A46294686
:100A6000404600F00DFC0028EFD12C6A012C0ADB77
:100A7000A8683021C0470028A860E6D0E86A401C7A
:100A8000641EE862F4D1AB69EA682946404600F08A
:100A9000F7FB0028D9D16C6A012C0ADBA868302149
:100AA000C0470028A860D0D0E86A401C641EE862F5
:100AB000F4D1E868A969EB6942182946404600F07C
:100AC000DFFB0028C1D1AC6A012C0ADBA868302109
:100AD000C0470028A860B8D0E86A401C641EE862DD
:100AE000F4D195F8380040070ED5BAF1010F0BDBB1
:100AF000A8682021C0470028A860A6D0E86A401C4A
:100B0000BAF1010AE862F3D16E616E6304A881450F
:100B10001CBF484600F0E6FC304615B0BDE8F08F3B
:100B20002DE9F343054608462F696F2808BF0824BE
:100B300005D041F02001782914BF0A2410243C2656
:100B4000D5E90023642818BF69289046994606D144
:100B500000218B4203DAD8F1000869EB4909002033
:100B6000814508BF80450CD1286B50B9082C38D17D
:100B700095F83800000734D530203B2687F83B0035
:100B80002FE0701E00900646404649462246E31775
:100B900000F0E8FC02F13000C0B23A2803DB9DF817
:100BA000041051390818B855494640462246E31703
:100BB00000F0D8FC804689460020814508BF80456A
:100BC00003D0E868B9198842DBD3082C09D195F81D
:100BD0003800000705D5B85D302802D0761E3020D9
:100BE000B855B919E960C6F13C00296BA861884283
:100BF00008DA081A28624FF6EF71288F0840288714
:100C0000BDE8F38300290ED595F8381001F01401E2
:100C1000102908D1696B6A69891A2A6A891A0E1A19
:100C2000012EA8BF2E62BDE8F38300002DE9F24F2C
:100C300004468EB0D4E90001CDE9020104AF9DF86D
:100C4000380040F0200BBBF1610F0AD0206B002868
:100C500048BF062004D408BFBBF1670F01D10120B3
:100C600020636168C1F30A5040F2FF7290421CD1C8
:100C7000080304BF2068002809D10320A0619DF863
:100C8000380061381A2835D30FF2386108E00320A4
:100C9000A0619DF8380061381A2828D30FF21C6132
:100CA000E068032200F0E2FBBDE1012815DA2046EE
:100CB00000F0CFFC012810DB00250020BBF1610F04
:100CC0001FD1E16830220A708A1CE2609DF838204A
:100CD000612A0CBF782258220FE0626840F2FE3190
:100CE00061F31E52451A62604FF0FF30E6E70FF2E3
:100CF000C851D5E70FF2C851D2E74A706169891C23
:100D0000616110B90026002584E1BBF1610F40F05C
:100D10009880206BD4E900AB00284CBF2126461CEC
:100D2000DDE902010022002300F0B6FC36B23ABF32
:100D30008BF00040CDE902A0CDE902AB06F101083D
:100D40002D1FB8F1010F8DF810200DF1110736DBC2
:100D5000DDE902010022002300F0B6FC2FD21C21A5
:100D600002A800F0C9FCDDE9020100F04BFDA8F18A
:100D70000708B8F1010F814609DB00F06FFD02465C
:100D80000B46DDE9020100F081FDCDE90201F81D0D
:100D9000072105E009F00F0200F8012D4FEA29199B
:100DA000B9F1010F01DB491EF4D5491E5CBF0022D9
:100DB00000F8012DF9D5C71DB8F1010FC8DA0DF102
:100DC0001100391AB142B8BF0E4636B230000DF1EB
:100DD00011072FD4884206DA04A90144497808296A
:100DE000A8BF0F2100DA002104AA024400E0761E09
:100DF00012F80139401E8B42F9D00F2904D104A901
:100E000001444A78521C4A70002802D504AF761C6F
:100E10002D1D36B2701E0DD439180A783032D2B278
:100E20003A2A03DB9DF838303A3B9A18401E01F805
:100E30000129F2D5206B002840F1EC80701E206360
:100E4000E8E0DDE902010022002300F025FC3CBFC0
:100E500081F00041CDE902012DB247F2975068437D
:100E60004B49DFF8309190FBF1F52DB2C5F1070A3F
:100E7000BAF1010F90461CDBDDE902675FEACA7038
:100E800007D542464B463046394600F0BFFD064680
:100E90000F464046494642464B464FEA6A0A00F032
:100EA000B5FDBAF1000F80468946E7D1CDE902676A
:100EB00024E0CAF1000A0026374F14E05FEACA7046
:100EC00007D542464B463046394600F09FFD064660
:100ED0000F464046494642464B4600F097FD4FEAD2
:100EE0006A0A80468946BAF1000FE7D1DDE90201BE
:100EF00032463B4600F05CFECDE90201BBF1660FD5
:100F0000216BDFF898900CBF05F10A000620461807
:100F1000142EA8BF132630208DF810000DF11107F4
:100F2000012E3DDBDDE9020100F082FC07F1080142
:100F300004220A23B0FBF3F303EB8307A0EB470083
:100F4000303001F8010C0A20B3FBF0F000EB800711
:100F5000A3EB47033033521E01F8023DE9D1083EAE
:100F6000012E01F10807DBDBDDE9020100F060FC86
:100F700000F07EFC02460B46DDE9020100F086FC33
:100F800000224B4600F042FDCDE90201CAE700BF56
:100F9000A0860100000024400000F03F84D7974164
:100FA0000DF11100381A0DF1110702E0401E6D1EFF
:100FB0007F1C39783029F9D0BBF1660F08BF691C56
:100FC00004D0BBF1650F0CBF01210021226B8E18EC
:100FD00036B2B042B8BF064636B231001AD48142AA
:100FE00004DA785C3528A8BF392000DA30207A1876
:100FF000521E00E0761E12F80139491E8342F9D0D4
:10100000392802D1785C401C7854002902D57F1E13
:10101000761C6D1C2DB29DF83810009533B23A46FF
:10102000204600F003F80FB0BDE8F08F2DE9F0473F
:1010300086B006468A4690461D4600F002FF012D06
:10104000406A376B90F8009002DA01250FF2782899
:101050004AF02000BDF93840662808BF641C12D051
:10106000672878D114F1040F7BDBBC4279DA96F85B
:101070003800641C000702D4BD42B8BF2F4624B21A
:101080003F1B48BF002724B2F068B169012C23DA66
:101090004A1C30234354012F03DA96F83800000726
:1010A00003D5F06800F80290521CE742B8BF7C42BA
:1010B00024B260427062E719AF42B261B8BF3D46E8
:1010C000F068B3692DB2F5612A464146184400F034
:1010D000CDF9781BB062BCE022469542084416DA8E
:1010E0002A46414600F0C2F9B1696918601B012F18
:1010F000B161706203DA96F83800000705D5F06830
:1011000000F80190F069401CF061B762A1E041462F
:1011100000F0ACF9B06920182D1B012F03DA96F806
:101120003810090703D5F16801F80090401CB06140
:101130002DB2AF42B8BF3D46F068B3692DB22A4622
:1011400008EB0401184400F091F9B0692818B06167
:10115000781B70627DE0BAF1610F14D14FF0700A14
:1011600016E0BD4204DA96F83810090758BF2F463A
:101170007F1E48BF0027BAF1670F14BF4FF0450A22
:101180004FF0650A04E0BAF1410F08BF4FF0500A72
:10119000B169F368481CB061012F18F8012B5A544B
:1011A00003DA96F83810090717D5F168431CB361C4
:1011B00001F80090012F10DB6D1E2DB2AF42B8BFB9
:1011C0003D46F0682DB22A464146184400F04EF9DB
:1011D000B0692818B061781B7062F068B169014489
:1011E000200081F800A004D42B20487001F10208EF
:1011F00004E02D224A7001F102086442002502AF8A
:1012000008E00A22684600F035FE019807F8010B55
:101210006D1C009C21B20129F3DA022D06DA4AF096
:101220002000652804BF302008F8010B4DB930209C
:1012300008F8010B07E06D1E02A8405D303008F889
:10124000010B012DF7DAF068B1690844A8EB000042
:10125000F06196F8380000F0140010280DD1706984
:10126000B1690818716A0818F1690818B16A081894
:10127000716B8842BCBF081A306206B0BDE8F087C7
:10128000F8B504460D4616461F46002077B116F8FD
:10129000011BA868A047A86030B1E86A401CE8625A
:1012A00000207F1EF3D1F2BD4FF0FF30F2BD0000F1
:1012B00000000000000000006E616E004E414E0014
:1012C000696E6600494E46003000F8B504460D468A
:1012D00016461F4600F0D6FD3B46324629462046BC
:1012E00001B0BDE8F04000F0E4BD00000278C9B2F2
:1012F0008A421AB11CBF10F8012FF9E718BF00206D
:101300007047000000F10103810704D010F8011BB1
:1013100089B18107FAD10268B2F10131914311F02C
:10132000803F04BF50F8042FF6E710F8011B11B1FD
:1013300010F8011BFBE7C01A70470000C9B2830711
:1013400006D0521E22D310F8013B9942F7D11FE07C
:10135000083A13D302F1040241EA012141EA0141B2
:1013600050F8043B121F21BF4B40A3F1013C2CEA73
:10137000030C1CF0803FF3D0C9B2001F083210F8F4
:10138000013B521E28BF91EA030FF8D818BF012075
:10139000401E704780B500F075FD012002BD0000C1
:1013A00070B5054605F10F00C408AFF30080E400F6
:1013B000A54232D2082C04D2082402E0083000F002
:1013C00091F82248026811000CD1011D0A6802B38D
:1013D0001368A34238BF111DF8D310E01D68A54261
:1013E0000DD2191D0B68002BF8D11268011D00E009
:1013F000191D0B6893420CD01D68A542F8D361B14A
:101400000D682A68A2F10803A3420AD26A680A603A
:101410000FE000F071FD0028D0D1AFF30080002074
:1014200070BD2B190B60121B6E685E600B681A6032
:101430002C60096800291DBF4A68002A091D002187
:101440000160AFF3008005F1080070BDF0190020C5
:1014500070B504460D46164600F014FD3246294686
:101460002046BDE8704000F017BD000062B38B0756
:1014700008D0521E11F8013B00F8013B00F0248017
:101480008B07F6D1830740F0208000BF103A07D3C6
:1014900030B4B1E83810103AA0E83810F9D230BCB6
:1014A000530724BFB1E80810A0E8081044BF51F862
:1014B000043B40F8043BD20724BF31F8022B20F84C
:1014C000022B44BF0B7803707047083A07D3B1E88A
:1014D0000810083A40F8043B40F804CBF7D2530711
:1014E000E4E7000000B9704738B5A0F108042068AF
:1014F000082833D310F0070F30D1AFF3008018481D
:10150000416809B18C4203D26160446017E019461A
:101510004B680BB1A342FAD30B68CD18AC421BD376
:10152000A54204D12268D2180A600C4607E04A6836
:101530001AB1236823449A420ED362604C606168FA
:1015400051B12268A3188B4206D1002303600868BA
:101550008018206048686060AFF3008031BD0000F3
:10156000F01900201B4213D1094236D12AB184461A
:10157000B0FBF2F002FB10C2704700F0D3BCFCD30A
:101580000022002370470B0002000021002070475A
:10159000904271EB030CF6D370B5B1FA81F4B3FA53
:1015A00083F52C1BA340C4F1200532FA05F6334322
:1015B000A2405FF00046E64002E05B085FEA3202CC
:1015C000841A71EB030524BF204629467641F4D3E3
:1015D00002000B003000002170BD012ACFD970B588
:1015E000140C20D0B1FA81F4B2FA82F5C4F12004CF
:1015F0006419B4F12006D6D3B2405FF00044F44041
:10160000002502E052085FEA3303C61A71EB020EAE
:1016100024BF3046714664416D41F3D302000B0094
:101620002000290070BD0C46B1FBF2F102FB114510
:101630002D0445EA1045B5FBF2F402FB145580B2C7
:1016400040EA0545B5FBF2F002FB105240EA0440C7
:1016500070BD30B4436803F000420121C3F31303AB
:101660004360002B04BF0368002B08D10DE0036822
:10167000DD0F45EA440444605B000360491E446892
:10168000E302F4D5C4F31303436043681A43426092
:10169000084630BC704700004FF4001C1CEB410FA3
:1016A00094BF1CEB430F09E041EA030C50EA4C0CD9
:1016B00052EA0C0C03D2994208BF9042704714BF03
:1016C0008B428242704700004FF4001C1CEB410F1C
:1016D00094BF1CEB430F09E041EA030C50EA4C0CA9
:1016E00052EA0C0C03D28B4208BF8242704714BFEF
:1016F000994290427047000070B504460D466068FC
:10170000C0F30A5040F2FF71884207D160680003BD
:1017100004BF2068002817D0022070BD20B92046E1
:10172000FFF797FF012866DA012D0FDB40F2FF710A
:10173000091A8D420AD36068002847BF00202F494C
:1017400000202F49C4E90001012070BD4142A94297
:10175000616806DA6FF31E51401941EA005060607B
:1017600040E0401E63684519012205F1350062F32F
:101770001F53352801F00041636003D361600020EE
:10178000206070BD002015F11F0F04DA206823606F
:101790000022203562606A4212D0401E25688041D6
:1017A000C2F12003C0439D4045EAD07025686668B9
:1017B000D54006FA03F32B4323606368D34063608C
:1017C00062680A43B0F1004F626003D80DD12078FF
:1017D000C0070AD52068401C2060206828B96068CE
:1017E000401C60604FF0FF3070BD6068884204BFED
:1017F00020680028F6D1002070BD00BF0000F0FF77
:101800000000F07FF446400D40EAC120490006D2B6
:1018100000F014F8004248BF6FF00040604700F04D
:101820000DF84FF0004188428CBF084640426047A7
:10183000400D40EAC120490080F00D8040F000409A
:10184000490DA1F58061491C05D4D1F11F0154BF98
:10185000C840C01770474FF000007047010040F1CA
:101860000980F446404200F005F851F0004160471D
:10187000010000BF09D0B0FA80F18840C91CC1F551
:101880008461090501EBD02140057047F0B44FF0A9
:10189000004591EA030F44BF6B4000F045BB00BF19
:1018A000841A71EB030604D26E40001BB141121979
:1018B00073414FF4001C1CEB410F34BF7CEB43061B
:1018C00084E00C0DA4EB1356362E7DDC012E43DC98
:1018D00045EAC32343EA525312BFD20292025B0885
:1018E000240545EAC12141EA5051D2EBC02099417B
:1018F00025D407D1B0FA80F610FA06F164D00020A2
:10190000203608E0B1FA81F6B140C6F1200220FA93
:1019100002F21143B0404FEAF474B4EB465434F091
:1019200001064FEA74040AD8D6F50016760D04F0C5
:101930000044F04061FA06F25040F1404840C00ACD
:1019400040EA415021F0004128BF5FEA500550F1C4
:10195000000044EBD12137E045EAC323DB0A45EA26
:10196000C121C90AB6F120050EDD42EA0242120C7D
:10197000C5F1200603FA06F6EB4042EA06056D4281
:10198000984161F100010DE062FA06F5F240554020
:1019900063FA06FC82EA0C02F3405A406D42904121
:1019A00061EB030111F4801F05D1641E620502D0B2
:1019B0006D004041494121F48011430875F1004315
:1019C00050F1000041EB0451F0BC70471CEB410F9B
:1019D00015D223F0004352EA43060BD04FEA4C0CD9
:1019E000BCEB410F04D80C0D661E342EB7DDEBE7BF
:1019F000801A994150EA410608BF0021E4E708BF78
:101A00001CEB430F28BF6FF00001DDE7B0B581EAA2
:101A1000030C0CF0004C40F2FF7515EA11541DBF89
:101A200015EA1357AC42AF4239E0E41923EA4553B3
:101A300043F48013C90241F0004141EA505EC702FD
:101A40001100A7FB020200284FF00000EEFB01206E
:101A50004FF00001E3FB072118BF42F001024018DC
:101A600000214941E3FB0E01A4F580640F0302D27B
:101A700052004041494154F101046CDD470872F1C4
:101A8000004250F1000051EB0451A1F580115CBF00
:101A900041EA0C01B0BD4CEA05510020B0BD05EA99
:101AA0001357AC4214BFAF4241E050EA410E1CBF95
:101AB00052EA430E02E061460020B0BD24423C449D
:101AC0001BD15FEA070EF6D0090302BF01460020D2
:101AD000AEF1140EB1FA81F7AEEB070401FA07FE7E
:101AE0000C37C7F1200100FA07F7C8404EEA000E94
:101AF00023EA455343F48013A2E733F00043B3FADB
:101B000083F704BFB2FA82FE77440B3FE41BB7F1C0
:101B1000200E2FBF02FA0EF3BB40C7F1200E22FAAF
:101B20000EFE38BF43EA0E03BA40641C82E750EA57
:101B3000410E14BF52EA430E6FF000014FF400173C
:101B400017EB430F8ABF194617EB410FB5E74CEA75
:101B500005510020B0BDD4F10104B4F120070FDA23
:101B6000C4F12007520828BF42F0010210FA07F51D
:101B700001FA07F7E1BF2A43E0403843E1400FE0B4
:101B8000352C98DCC7F1200452EA400220FA07F213
:101B900018BF42F0010231FA07F0A1400A430021C8
:101BA00072F1004250F1000051EB0C01B0BD000099
:101BB0002DE9F04140F2FF7581EA030C0CF0004C76
:101BC00015EA11541DBF15EA1357AC42AF42E9E0C4
:101BD000BC41C1F31301C3F31303801A994143F4C9
:101BE000801304D2641E4000494180185941C90243
:101BF00041EA5051B1FBF3F603FB1611A2FB067547
:101C0000D7EBC020A94102D2761E80185941C902E3
:101C100041EA5051B1FBF3FE03FB1E11A2FB0E750E
:101C2000D7EBC020A94103D2AEF1010E8018594173
:101C3000890241EA9051760546EA8E2EB1FBF3F611
:101C400003FB1611A2FB0675D7EB8020A94102D237
:101C5000761E80185941C90241EA50514EEA060EDB
:101C6000B1FBF3F603FB1611A2FB0675D7EBC02000
:101C7000A94102D2761E80185941C90241EA505149
:101C8000B1FBF3F703FB1711A2FB0735D3EBC02021
:101C9000A94167F100070CBF004247F0010766F356
:101CA000D5274FEA1E31B80814F5806414DDBD074E
:101CB00075F1004250EB0E5051EB045111F5801FAD
:101CC0005CBF41EA0C01BDE8F0814CF07F6141F05E
:101CD000E0410020BDE8F081BD076D0840EA0E50EC
:101CE00041F48011D4F10104B4F120060ADAC4F100
:101CF00020060200E04001FA06F3E1401843B2403A
:101D000015430EE0342C14DCC6F1200445EA4005EE
:101D10006D0820FA06F2154321FA06F0A1400D43A2
:101D2000002175F1004250F1000051EB0C01BDE8BB
:101D3000F08100205FEA0C01BDE8F081CFB9921874
:101D40005B41B3FA83F704BFB2FA82F6BF190B3FC7
:101D5000B7F120062FBF02FA06F3BB40C7F12006F9
:101D600022FA06F638BF3343BA401CB1E419641EA8
:101D70002FE77F4231F00041B1FA81F404BFB0FA9D
:101D800080F6A4190B3CB4F120062FBF00FA06F12F
:101D9000A140C4F1200620FA06F638BF3143A04026
:101DA0003C1B16E7AC421ABF05EA1357AF4214E0DA
:101DB00050EA41061CBF52EA4306BFE750EA41071A
:101DC000304661461CBF41EA0551BDE8F08152EA48
:101DD000430C08BFC143BDE8F08100204FF400165A
:101DE00016EB410F98BF16EB430F08BF16EB410FE0
:101DF00024BFC14305E016EB430F0CBF61464CEA1C
:101E00000551BDE8F081000080B5134800F0F6F8F8
:101E10000FF24C020FF244010160426241600FF286
:101E20004402826381600FF24402C160016141613A
:101E300081618162C16201634163C2630164416483
:101E400001BD10B5044800F0D9F80446206808B96F
:101E5000FFF7DAFF204610BDB800002000000000A8
:101E60002E00000066616C73650000007472756579
:101E70000000000091FBF2F303FB1211C0E90031F6
:101E80007047000080B5DFF80C0000F0B7F88069FB
:101E900002BD00004801002030B430B90FF2480004
:101EA000D0E90045C2E900451BE00170012030BCCB
:101EB000704730B431B90FF23800D0E90045C3E9BA
:101EC00000450EE01AB930BC6FF00100704708B150
:101ED0000A7802800978481E804130BCC043C00F98
:101EE0007047002030BC7047000000000000000078
:101EF00000000000000000000749086808B1002049
:101F000070470648C008C00008600549C908C900F4
:101F1000091A0160704700BFF8190020BF050020B2
:101F2000B807002070470000841A71EB030603D243
:101F3000001BB141121973414FF4001C1CEB410FFF
:101F400034BF7CEB430443E00C0DA4EB1356352E59
:101F500050DC45EAC323DB0A45EAC121C912B6F1C8
:101F600020050DDD63FA05F6EB4086EA0305124213
:101F700018BF45F00105C01851F100010CD213E063
:101F800062FA06F5F2405540F3415A40B340F3403F
:101F90005A408018594107D349085FEA30005FEA88
:101FA000350528BF45F0010501F58011420875F19E
:101FB000004250F1000041EB0451F0BC4FF4001C12
:101FC0001CEB410F38BF70470020090D0905704711
:101FD0001CEB410F10D252EA43060BD0BCEB410F71
:101FE00005D80C0DAB43661E342EB5DD02E0AB43C5
:101FF00080185941F0BC7047F0BC70477047000032
:1020000038B5050001D1012032BD05F138046078F2
:1020100008B900F013F800F015F800F007F821F007
:102020002A01FFE7416100F017F832BD2868016915
:1020300021F4904101612868416970472070284669
:1020400000F0ADBA242060702868C16821F4005106
:10205000C160284600F0F1B92868C16841F4005118
:10206000C1600020606020206070A0700020704778
:102070002DE9F843044604F138070D467878202806
:102080001646984641D10DB1300001D101203DE006
:102090003878012839D0012038700020786021205C
:1020A000787000F043FBA6848146E68403E0216853
:1020B00015F8010B4860E08CC0B1E08C401EE08454
:1020C00000F026F80DD100F02AF8B8B92888216868
:1020D000C0F3080048602069002814BF6D1CAD1CC7
:1020E000E9E700F01CF80028E1D007E0CDF8008017
:1020F0004B460022402100F014F808B1032005E00F
:10210000202078700020387000E00220BDE8F283C3
:102110004B46A068CDF80080B0F5805F7047002284
:102120008021204600E110B500F138035C78202CB6
:1021300017D109B1140001D1012010BD1C78012C68
:102140000FD001241C7001628284C2840021596076
:1021500021215970002119700068C16841F0800187
:102160002BE0022010BD10B500F138039C78202C24
:1021700021D109B1140001D1012010BD1C78012C1E
:1021800019D001241C7081628285C28500215960AA
:1021900022219970002119700168CA6842F4807286
:1021A000CA6001684A6942F001024A610068C16878
:1021B00041F0200101E0022010BDC160002010BDEF
:1021C000C16020684169490849004161704741691F
:1021D00021F040014161606B704738B504462368C7
:1021E0001868D9685A6910F00F0507D182065DD5C5
:1021F0008A065BD52046BDE83240D5E0D50702D43B
:1022000011F4907F52D0C30705D5CB0503D5E36BFE
:1022100043F00103E363430705D5D30703D5E36B1D
:1022200043F00203E363830705D5D30703D5E36BCC
:1022300043F00403E363030705D5D20703D5E26B3C
:1022400042F00802E263E26B002A6CD0800604D5FB
:10225000880644BF204600F0A7F820684069E16B7B
:10226000090701D440061BD5204600F088F82068F5
:10227000416949060FD5FFF7AAFF60B10FF21D11A2
:102280004163606B00F058FA00284CD0606B416BE2
:10229000BDE8344008472046BDE8324000F0DABAD5
:1022A000204600F0D7FA0020E06331BD02062AD5AF
:1022B0000A0628D594F83900212834D1A068B0F551
:1022C000805F206A0BD10088C0F308005860206945
:1022D0000028206A0CBF801C401C206203E0411CC7
:1022E000216200785860E08C401EE08480B2D0B952
:1022F0002068C16821F08001C1602068C16841F098
:102300004001C16031BD40060DD548060BD5D868E7
:1023100020F04000D860202084F839002046BDE835
:10232000324000F098BA31BD2DE9F041069E0446D6
:102330000D4690461F46206800682840A8420CBF02
:1023400001200020404517D116F1010FF3D026B12E
:1023500000F0ECF9C01B8642EDD22068C16821F480
:10236000D071FFF72DFF04F13800202141708170FA
:1023700000210170032000E00020BDE8F081016829
:10238000CA6822F49072CA6001684A695208520011
:102390004A61202180F83A1070470000406A00210D
:1023A000C185C18400F056BA80B590F83A10222950
:1023B00041D18168B1F5805F12D10269816A002A3A
:1023C0000268526805D1C2F308020A80816A891C3A
:1023D00004E002F0FF020A80816A491C81620FE07A
:1023E00001690029816A04D14A1C8262026852682C
:1023F00005E04A1C82620268526802F07F020A709D
:10240000C18D491EC18589B299B90168CA6822F097
:102410002002CA600168CA6822F48072CA6001683A
:102420004A69520852004A61202180F83A1000F0AF
:10243000B4FA002002BD022002BD2DE9F047044697
:10244000642520680169E26821F44051114301616B
:102450001926C168304A1140A2681143226911430C
:1024600062691143C1604169A26921F4407111435D
:1024700041612A4988420ED100F0D2FD074600F0A2
:10248000CFFD804600F0CCFD814600F0C9FD8246BC
:1024900000F0C6FD0DE000F0BBFD074600F0B8FD02
:1024A000804600F0B5FD814600F0B2FD824600F0A6
:1024B000AFFD06FB08F361688900B3FBF1F306FB8F
:1024C00007F206FB09F7B7FBF1F7B7FBF5F705FBDA
:1024D00017331B013233B2FBF1F2B3FBF5F3B2FB5E
:1024E000F5F203F0F00303EB0212704306FB0AF36C
:1024F000B0FBF1F0B3FBF1F3B0FBF5F005FB1030EE
:1025000000013230B0FBF5F0216800F00F008018B8
:102510008860BDE8F0870000F3E9FFFF0038014064
:1025200080B56B486B4900F020F818B1BDE8044055
:1025300044210BE001BD80B56748684900F015F8FB
:1025400018B1BDE80440572100E001BD0FF2B01002
:1025500000F0CEBA80B56248624900F006F818B1C2
:10256000BDE804406A21F1E701BD01604FF4E131AB
:10257000416000218160C16001610C214161002145
:102580008161C161FFF73CBD80B557485749FFF7EE
:10259000ECFF18B1BDE804407D21D7E701BD70B55F
:1025A00086B001684B4A524891424FF400644FF4A0
:1025B000806516D1416841F40021416001A940685D
:1025C00000F4002000F07BF84A4D284600F052FD50
:1025D00000F06DF800220121342000F051FE34207B
:1025E00059E03E4A444E91421CD1016841F4804179
:1025F000016001A9006800F48040009000984FF449
:10260000007000F04CF8002002900390019501A9A1
:10261000304600F02FFD00220121252000F030FE81
:10262000252038E02F4A91421CD1416841F4003105
:10263000416001A9406800F4003000900098042037
:1026400000F02DF80820019001A9002002900390CD
:10265000304600F00FFD00220021262000F010FE81
:10266000262018E0214A914217D1416841F4802187
:10267000416001A9406800F4802000F020F81F4D5F
:10268000284600F0F7FC00F012F800220121272074
:1026900000F0F6FD272000F010FE06B070BD01909E
:1026A0000220029003200490304600F0E3BC00209A
:1026B00002900390019401A9284600F0DBBC009031
:1026C00000980195022002900320049070470000BA
:1026D000AC180020004C0040EC18002000380140ED
:1026E0002C190020004400406C19002000480040D4
:1026F000181002400010014000080140000C014089
:10270000433A5C55736572735C746573745C4465BD
:10271000736B746F705C31315C64696D69616E5CA0
:102720005372635C75736172742E63000148406874
:10273000704700BF08000020F8B590F82120002461
:10274000022A00F1340103D004204860012462E031
:102750000268DFF8CC70136823F00E0313604FF4A7
:102760008055026813685B085B0013604FF4803289
:102770000368BB424FF4807619D3DFF8A070BB42E8
:1027800008BF012210D0DFF89C70BB4208BF1022A6
:102790000AD0DFF89470BB4208BF324604D0DFF89D
:1027A0008C60B34208BF2A46DFF8843029E0DFF8A6
:1027B0008470BB421ED0DFF88070BB421CD0DFF8B3
:1027C0007C70BB421AD0DFF87860B3420EBF2A4655
:1027D000DFF87050AB4212D0DFF86C50AB4208BF4C
:1027E0004FF480120BD0DFF86450AB4207D14FF0AA
:1027F000807204E0012202E0102200E03246DFF89D
:1028000050301A60012280F8212080F820400968A9
:102810000A0018BF88472046F2BD000008040240A5
:10282000810002401C040240300402404404024083
:1028300004040240080002401C0002403000024034
:1028400044000240580002406C00024080000240F8
:10285000040002407047704701B54FF6FF73012234
:1028600069469248FFF704FC009802BD38B500F0B5
:102870005DFD00F058F800F06BFD00F0D5FDFFF7AE
:102880005AFEFFF767FEFFF77FFEFFF749FE00F0F5
:1028900033FE0FF26020864C864D00F095FE00F06E
:1028A000A5FE00F067FF00F0B2FE2946204601F0C9
:1028B00069F90FF2602000F087FE7F48C1788378C5
:1028C0004278009101780FF2802000F07DFE7B4875
:1028D00001880FF28C2000F077FE0FF2942000F0B8
:1028E00073FE0FF2C82000F06FFE2946204601F06B
:1028F00049F9734C6D4801222146FFF734FC01224F
:1029000021467048FFF72FFC012221466E48FFF751
:102910002AFC012221466D48FFF725FC00F0E0F873
:1029200001F07BF9FCE700B58FB001200590002194
:1029300007914FF48030069001210D9009914FF4DA
:10294000E01002210E900C9105A800F03BF900B1B7
:10295000FEE70F200090022102200190002002904B
:102960004FF48060039000200490684600F097FACE
:1029700000B1FEE700F049FB4FF47A71B0FBF1F0D3
:1029800000F0A5FC042000F0B6FC002201214FF06D
:10299000FF3000F075FC0FB000BD2DE9F04104469A
:1029A0004B4D41F204002E18404884424FF6FF7808
:1029B0000FD1434F01223946FFF7D5FB30883978D4
:1029C0002A18401C1171308080B2404504BF00209D
:1029D00030803C4884420FD101222946FFF7C3FBD7
:1029E000708829782A18401C82F80414708080B2FC
:1029F000404504BF00207080334884420FD101223B
:102A0000691CFFF7B0FBB08869782A18401C82F86F
:102A10000418B08080B2404504BF0020B0802B482D
:102A200084420FD10122A91CFFF79DFBF088A978F1
:102A30002A18401C82F8041CF08080B2404504BF74
:102A40000020F080BDE8F08170B500F022F800F0C1
:102A500019F80A2001F02EF91E4E00F021F8072285
:102A600031461948FFF75FFB01224FF40041204631
:102A700000F0CAFB2846BDE8704001224FF4006117
:102A800000F0C2BB144D00224FF40061284600F054
:102A9000BBBB124C00224FF40041204600F0B4BBF7
:102AA000084807223146FFF73EBB0000EC18002023
:102AB000180000202000002074000020B601002033
:102AC000FC1900202C1900206C190020AC180020E3
:102AD000B80700200000002000080140000C014061
:102AE00080B5FFF7B1FFBDE80240322001F0E2B847
:102AF000FEE70000205735353030CDF8C2E7CDA8CD
:102B0000D0C5B2E2CAD42044656D6F2056312E3054
:102B1000200D0A0020B5E7C4D4D7F7CEAA544350FD
:102B2000B7FECEF1C6F72CC8C35735353030D7F7CE
:102B3000CEAA20544350BFCDBBA7B6CBC8A5C1ACCD
:102B4000BDD3200A0000000020B7FECEF1C6F74931
:102B5000503A25642E25642E25642E25640A000033
:102B600020BCE0CCFDB6CBBFDA3A2564200A0000D9
:102B700020C1ACBDD3B3C9B9A6BAF3A3ACB7FECEDE
:102B8000F1C6F7B7A2CBCDCAFDBEDDB8F8573535D3
:102B90003030A3AC5735353030BDABB7B5BBD8B648
:102BA000D4D3A6CAFDBEDD200A00000020D3A6D3E0
:102BB000C3B3CCD0F2D6B4D0D0D6D0A1ADA1AD0A9B
:102BC000000000002DE9F8430446DFF8685420783F
:102BD000C00747D5686800F00C00042807D0686873
:102BE00000F00C0008280AD16868C00307D52868DF
:102BF000800337D56068002834D1012049E160683E
:102C0000B0F5803F09D008B928680AE0B0F5A02FD8
:102C1000286806D140F480202860286840F480307D
:102C200005E020F480302860286820F480202860A7
:102C3000606858B1FFF77AFD07462868800311D411
:102C4000FFF774FDC01B6528F7D31FE1FFF76EFD8A
:102C500007462868800305D5FFF768FDC01B652877
:102C6000F7D313E12078DFF8D863800718D56868B8
:102C700010F00C0F07D0686800F00C00082825D170
:102C80006868C00322D42868800702D5206901281B
:102C9000B3D12868616920F0F80040EAC1002860DB
:102CA000207800073ED5A169DFF89803002965D098
:102CB00001210160FFF73AFD0746686A800722D4C8
:102CC000FFF734FDC01B0328F7D3DFE0206968B1AC
:102CD00001203060FFF72AFD074628688007D8D416
:102CE000FFF724FDC01B0328F7D3CFE03060FFF7C8
:102CF0001DFD074628688007D2D5FFF717FDC01BCA
:102D00000328F7D3C2E0DFF830030068C0084FF4AF
:102D10007A71B0FBF1F0009000BF0098411E0028CE
:102D20000091F9D1207840076FD5E869C0004FF0D5
:102D300000080AD4E86940F08050E8614FF00108CB
:102D4000E86900F0805000900098DFF8FC92D9F814
:102D50000000C0051FD4D9F8000040F48070C9F805
:102D60000000FFF7E3FC0746D9F80000C00512D4C5
:102D7000FFF7DCFCC01B6528F6D387E00160FFF796
:102D8000D5FC0746686A8007CCD5FFF7CFFCC01B8F
:102D90000328F7D37AE0E068012808D008B9286A48
:102DA00009E00528286A06D140F004002862286A54
:102DB00040F0010005E0400840002862286A20F049
:102DC0000400286241F28939E06858B1FFF7AEFC8F
:102DD0000746286A800711D4FFF7A8FCC01B4845A6
:102DE000F7D353E0FFF7A2FC0746286A800705D512
:102DF000FFF79CFCC01B4845F7D347E0B8F1000F34
:102E000003D0E86920F08050E861E06900283FD0F5
:102E1000696801F00C0108293FF4EFAE02282AD1BD
:102E200000F039F807462868800105D5FFF77EFCD9
:102E3000C01B0328F7D329E0206AB0F5803F05D1F5
:102E40006868A16820F40030084368606868216AF7
:102E500020F474100843616A08436860012000F0A0
:102E60001BF807462868800112D4FFF75FFCC01BDF
:102E70000328F7D30AE000F00EF80746286880011F
:102E800006D5FFF753FCC01B0328F7D3032000E04F
:102E90000020BDE8F28300203066FFF747BC2DE933
:102EA000F8436A4E04463068884600F00700404503
:102EB00002D200F079F852D120785E4F800705D514
:102EC0007868A16820F0F000084378602078C00797
:102ED0003DD56068012802D13968890303E00228E2
:102EE000396802D1890102D439E0890737D5796878
:102EF000890840EA8100786041F28939FFF716FCC1
:102F00000546606801280AD1786800F00C000428A2
:102F10001DD0FFF70BFC401B4845F5D315E00228F8
:102F20000AD1786800F00C00082810D0FFF7FEFBEB
:102F3000401B4845F5D308E0786810F00C0F06D028
:102F4000FFF7F4FB401B4845F6D303202AE0306826
:102F500000F00700804504D200F026F801D00120DF
:102F600020E02078400705D57868E16820F4E0602B
:102F7000084378602078000706D57868216920F436
:102F8000605040EAC100786000F018F87A68304973
:102F9000C2F30312895CC84027490860012000F091
:102FA0009DFE0020BDE8F2833068C00848EAC000FA
:102FB0003060306800F007004045704710B586B0BB
:102FC00001A80FF29C011022FEF760FA0FF2A00098
:102FD00020490088ADF800000A68184802F00C0388
:102FE000082B10D101ABC2F38344D2031B5D08D57B
:102FF0000968C1F3404158431DF80110B0FBF1F0DE
:1030000001E01548584306B010BD0B4800687047F2
:103010000948104A006812681049C2F3022206E00B
:1030200005480C4A006812680C49C2F3C222895C48
:10303000C8407047001002401400002000127A00BF
:1030400000004242800442420070004000200240E2
:10305000644A00080410024000093D00184C0008B2
:1030600002030405060708090A0B0C0D0E0F1010C9
:10307000010200002DE9F8474FF0000E0022644BDA
:10308000DFF89081DFF890914FF00F0A012707FADF
:1030900002F60F683740B74240F0AA804C685CB334
:1030A000012C1AD0022C1FD0032C31D0112C17D098
:1030B000122C1DD0594DAC421CBF594DAC421BD0F7
:1030C000584DAC421CBF584DAC4215D0574DAC4288
:1030D0001CBF574DAC420FD01CE0D1F80CE019E0FA
:1030E000CC6804F1040E15E0CC6804F1080E11E080
:1030F000CC6804F10C0E0DE08C6814B94FF0040E8E
:1031000008E0012C4FF0080E14BF4661066101E093
:103110004FF0000EFF2F02D88446940004E0A2F185
:10312000080400F1040CA400DCF800500AFA04F6CC
:10313000B5430EFA04F42C43CCF800404C68E4008C
:1031400056D5D9F8004044F00104C9F800404FEAD0
:10315000920CD9F8005005F001040094009C58F836
:103160002C50940004F00C040AFA04F6B543314ED6
:10317000B04208BF002618D02F4EB04208BF01262B
:1031800013D02E4EB04208BF02260ED02C4EB042B5
:1031900008BF032609D02B4EB04208BF042604D036
:1031A000294EB0420CBF0526062606FA04F42C432D
:1031B00048F82C40FD434C68E4031C684CBF3C437A
:1031C0002C401C604C68A4035C684CBF3C432C4002
:1031D0005C604C68E4029C684CBF3C432C409C60A3
:1031E0004C68A40247BFDC682743DF682F40DF60DC
:1031F000521C102AFFF44AAFBDE8F18780680840EE
:1032000018BF0120C0B2704702B9090401617047BC
:103210000004014008000140181002400000111095
:1032200000001210000021100000221000003110D8
:103230000000321000080140000C01400010014065
:103240000014014000180140001C01400901002841
:1032500006D52E4A00F00F00104400F8041C7047F9
:103260002B4A115470472B490A684FF6FF0300029E
:103270001A4000F4E0601043274A1043086070478A
:1032800038B5244B1B68C3F30223C3F10704052C94
:1032900028BF04241D1D072D34BF0023DB1E01257C
:1032A00005FA04F4641E2140994005FA03F35B1EFD
:1032B0001A401143BDE83440C8E7012100F01F0265
:1032C0009140164AFFE7400942F82010704710B5B8
:1032D000401EB0F1807F01D3012010BD104C606012
:1032E0000F214FF0FF30FFF7B1FF0020A060072053
:1032F0002060002010BD0A49042808680CBF40F077
:10330000040020F0040008607047000018ED00E0A1
:1033100000E400E00CED00E00000FA0500E100E050
:1033200010E000E000F000B87047000080B50748EA
:10333000016841F0100101600320FFF794FF0120B4
:1033400000F0CCFC00F0EAFC002002BD00200240AE
:1033500030B52D482D4D2E4C85B0016841F020012F
:1033600001600022016801F02001009100990168CC
:1033700041F004010160016801F00401009100992D
:10338000016841F008010160016801F00801009145
:103390000099016841F01001016041F210010068DC
:1033A00000F01000009000982846FFF72DFF002243
:1033B0004FF4C0412046FFF727FF01224FF40041A0
:1033C0002046FFF721FF01224FF400612846FFF756
:1033D0001BFF41F6100000F01DF82846FFF74AFEDB
:1033E0004FF48050019001A90020029003902046E4
:1033F000FFF740FE4FF4604000F00CF82046FFF766
:1034000039FE05B030BD0000181002400008014030
:10341000000C0140019001A90120029000200390BE
:10342000022004907047000080B5244824490160C0
:103430004FF48271416000218160C160016141618E
:103440004FF4007181610821C16100210162416274
:1034500081620A21C16200F0AFFC30B1BDE80440D6
:1034600045210FF26800FFF743BB01BD0068144916
:10347000884200D0704710B51248134C86B00168DE
:1034800041F48051016001A9006800F4805000906F
:103490000098A02001900220029003200490204672
:1034A000FFF7E8FD4020019001A900200290039061
:1034B0002046FFF7DFFD06B010BD0000C417002056
:1034C000003001401810024000080140433A5C55AA
:1034D000736572735C746573745C4465736B746F4D
:1034E000705C31315C64696D69616E5C5372635C00
:1034F0007370692E630000004FF0804030B5254C9A
:103500000FF29805206087B0472060600020A0601F
:1035100040F2E730E06000202061A061204600F02A
:103520008DFC18B13F212846FFF7E2FA4FF4805096
:10353000029002A9204600F045FD18B14521284619
:10354000FFF7D6FA0020009001906946204600F06F
:1035500021FE18B14C212846FFF7CAFA07B030BD4A
:1035600080B50068B0F1804F13D10B48016841F07D
:10357000010101600022006800F0010000900021BC
:1035800000981C20FFF77CFEBDE802401C20FFF7DE
:1035900094BE01BD6C1800201C100240433A5C55DB
:1035A000736572735C746573745C4465736B746F7C
:1035B000705C31315C64696D69616E5C5372635C2F
:1035C00074696D2E630000000EB400B582B003A9CB
:1035D000009102466B460121034878440A30FCF70B
:1035E000A7FD06BC5DF810FBF115000010B5DFF873
:1035F0003843002200F0D4F80A2000F05BFB00F012
:10360000CEF8BDE810404FF4C86000F053BB70B571
:10361000DFF8184382B000F0BCF8DFF8145304223E
:103620002946A01DFDF722FF0422291D00F09EF867
:10363000042205F1080100F095F8042205F11001BB
:1036400004F11200FDF712FF287B0FF2FC2601287F
:1036500004BF3046FFF7B8FF287B022824D100F0D2
:1036600044F9207F002801BF607F0828A07FDC2864
:1036700014D10FF2F420FFF7A7FF042204F1220176
:10368000A01DFDF7F3FE042204F1260100F06EF800
:10369000042204F12A0100F065F805E00FF2DC20B5
:1036A000FFF792FF00F016F9287B012825D1687BEF
:1036B00001281BD10FF2FC209E4EFFF785FF04224C
:1036C000B11DA01DFDF7D2FE042206F10A0100F093
:1036D0004DF8042206F10E0100F044F8042206F130
:1036E000120104F11200FDF7C1FE06E00FF2D42032
:1036F000FFF76AFF3046FFF767FF0120A076002042
:10370000E07604F10A0000F0B9F904F10E0000F0CF
:10371000A9F9A01D00F0BEF9284600F0C7F9E87825
:10372000AB786A78297800900FF2B820FFF74CFF49
:10373000281D00F0B5F9E879AB796A79297900900C
:103740000FF2C020FFF740FF05F1080000F090F9EC
:10375000E87AAB7A6A7A297A00900FF2C820FFF7EC
:1037600033FF73BD04F10E00FDF780BE04F10A00C3
:10377000FDF77CBE10B56D4C00F00BF8204600F054
:1037800083F904F13001BDE8104006226948FDF7D5
:103790006DBE062204F130012046FDF777BE0122FE
:1037A0004FF400512046FFF72FBD01460A000CBF21
:1037B00000220129604802D11021FFF725BD704782
:1037C00000B583B001238DF8050001AA6FF07F409A
:1037D00000900DF10501594800F002FD10B1FF20E5
:1037E0008DF804009DF804000EBD38B504460D4662
:1037F00000F047F800F047F800F040F800F039F822
:103800002846FFF7DDFFBDE832400120CDE710B5C7
:10381000044600F036F800F036F800F02FF804F017
:10382000F800FFF7CDFF0020FFF7CAFF0446012094
:10383000FFF7BBFF204610BDF8B50446164600272B
:103840000D46300004BF0FF2FC10FFF7BDFE00F084
:1038500018F800F018F800F011F800F00AF804E089
:10386000BFB2E85DFFF7ACFF7F1CB8B2B042F7D340
:103870002BE004F0F800001DC0B2A1E72004000E08
:103880009EE7002091E72002000E99E7F8B5044674
:10389000164600270D46300004BF0FF2A810FFF7B0
:1038A00093FEFFF7EEFFFFF7EEFFFFF7E7FF04F0F1
:1038B000F800FFF785FF05E00020FFF781FFBFB2AA
:1038C000E8557F1CB8B2B042F6D30120FFF76DFF78
:1038D0003046F2BD80B512220021144800F0D9FE16
:1038E000BDE802400A2000F00DBF80B500F094FE54
:1038F00012220021124800F09AFEBDE802400A2080
:1039000000F002BFFFE70F484168491CB1F57A7F1C
:1039100006D38268521C826000210278521C027019
:103920004160704700000000000C014028000020AA
:1039300060000020CC19002000080140C4170020BE
:1039400044000020E419002020CAB9D3C3B6A8D28D
:10395000E5B5C44950D0C5CFA2C5E4D6C357353567
:1039600030300D0A000000002049502066726F6D53
:1039700020454550524F4D0D0A000000204545504E
:10398000524F4DCEB4C5E4D6C32CCAB9D3C3B6A8E2
:10399000D2E5B5C44950D0C5CFA2C5E4D6C357358A
:1039A0003530302CB2A2D0B4C8EB454550524F4D03
:1039B0000D0A00002049502066726F6D2044484374
:1039C000500D0A002044484350D7D3B3CCD0F2CE98
:1039D000B4D4CBD0D02CBBF2D5DFB2BBB3C9B9A61F
:1039E0000D0A0000205735353030204950B5D8D663
:1039F000B72020203A2025642E25642E25642E250C
:103A0000640D0A0020573535303020D7D3CDF8D19A
:103A1000DAC2EB203A2025642E25642E25642E255B
:103A2000640D0A0020573535303020CDF8B9D82044
:103A3000202020203A2025642E25642E25642E2562
:103A4000640D0A00556E6578706563746564322094
:103A50006C656E67746820300D0A0000644931F8A7
:103A600010007047014604224FF48070FFF7E4BE57
:103A7000014604224FF48070FFF708BF014604227C
:103A80004FF4A060FFF7D8BE014606224FF4106045
:103A9000FFF7D2BE014604224FF47060FFF7CCBEA0
:103AA000014604224FF4A060FFF7F0BE0146042255
:103AB0004FF47060FFF7EABE400100F50270FFF7B7
:103AC000A6BE400100F50270FFF78FBE400100F571
:103AD0004270FFF79CBEF8B5400100F51C5500F59B
:103AE000185600240835083600F034F8074600F070
:103AF0002CF800EB0727BFB237B100F02BF80446D3
:103B000000F023F800EB0424A4B2BC42ECD1204620
:103B1000F2BD2DE9F8431400884606D1BDE8F44310
:103B200001460FF2D000FFF74FBD470107F51055D2
:103B300000F00AF807F5145600F00AF800F019F83A
:103B40001030FFF779FE08E008352846FFF75FBE22
:103B5000814608363046FFF75ABE4C44A4B2210ACB
:103B60002846FFF742FEE1B23046BDE8F443FFF7D6
:103B70003CBE00EB09201FFA80F907EB0920224622
:103B8000414670472DE9F84F002604460D46B046E1
:103B9000002744F20109DFF858A04FEA471BE15D16
:103BA0000BF5F8500830FFF720FEE95D0BF5F050FB
:103BB0000830FFF71AFE00202AF8170000210AEB50
:103BC00047004E45018203DAE15D89022AF81710A9
:103BD000C84502DAE95D890201823AF81710008AC5
:103BE0008E197F1C082F8044D7DBBDE8F18F0000C1
:103BF000AC19002043483A20256420556E65787042
:103C0000656374656431206C656E67746820300D7F
:103C10000A00000024480288704770B5ADF5027DA7
:103C20000220FFF753FF10B1222808D035E0FFF73C
:103C3000F1FF00230221022000F07CFD2DE00A208C
:103C400000F038F80220FFF737FF400703D50421C2
:103C50000220FFF736FF0220FFF73DFF04001CD0D3
:103C6000104D0F4E00962B46224601A9022000F06F
:103C700026FE01A92144002001F8080C01A90FF239
:103C80002C00FFF7A1FC30880090A4F108022B461D
:103C900092B201A9022000F0AAFD0DF5027D70BDCF
:103CA000B601002074000020B401002025730D0A25
:103CB0000000000038B50446FEF738FD14F1010F8E
:103CC000054602D0044800780419FEF72FFD401B7A
:103CD000A042FAD331BD00BF0800002038B50D4D19
:103CE000297804464FF47A70B0FBF1F00A4909686C
:103CF000B1FBF0F0FFF7EBFA50B9102C08D200221C
:103D000021464FF0FF30FFF7BBFAAC60002032BD18
:103D1000012032BD080000201400002080B5244896
:103D2000016841F001010160016801F001010091A9
:103D30000099416841F080514160406800F0805036
:103D4000009000980320FFF78EFA002201216FF007
:103D50000B00FFF795FA002201216FF00A00FFF730
:103D60008FFA002201216FF00900FFF789FA002283
:103D700001216FF00400FFF783FA002201216FF0A8
:103D80000300FFF77DFA002201216FF00100FFF729
:103D900077FA002201214FF0FF30FFF771FA054852
:103DA000016821F0E06141F00071016001BD00BFD8
:103DB000181002400400014010B5040001D1012098
:103DC00010BD0020A06294F8510010B92046FFF702
:103DD0004DFB022084F851002068016821F0400169
:103DE00001606068A1680843E168084321690843ED
:103DF00061690843A16901F400710843E16908435E
:103E0000216A0843A16A084321680860A069616AC1
:103E1000000C00F004000843216848602168E06A53
:103E200008612068C16921F40061C16100206065FA
:103E3000012084F85100002010BD000038B50400B6
:103E400001D1012032BD00F010F818B928702046C9
:103E5000FFF786FBFFE702206870211D206800F055
:103E60001AF901206870002032BD04F13C05687821
:103E7000704710B5044620680169890715D5C168E7
:103E8000890712D56FF00201016101212177806954
:103E900010F0030F204602D000F0B8FD03E000F060
:103EA000B6FD00F087F800202077206801694907F7
:103EB00015D5C168490712D56FF0040101610221CF
:103EC0002177806910F4407F204602D000F09EFDEB
:103ED00003E000F09CFD00F06DF8002020772068E2
:103EE0000169090715D5C168090712D56FF00801E6
:103EF000016104212177C06910F0030F204602D030
:103F000000F084FD03E000F082FD00F053F8002093
:103F1000207720680169C90615D5C168C90612D580
:103F20006FF01001016108212177C06910F4407F12
:103F3000204602D000F06AFD03E000F068FD00F0CA
:103F400039F80020207720680169C90708D5C168C1
:103F5000C90705D56FF0010101612046FFF7D2FCCA
:103F600020680169090608D5C168090605D56FF002
:103F700080010161204600F04BFD2068016949067F
:103F800008D5C168490605D56FF04001016120469A
:103F900000F03FFD2068016989060AD5C1688906DD
:103FA00007D56FF0200101612046BDE8104000F008
:103FB00031BD10BD204600F02EBD01202070022032
:103FC0006070704738B500F05BF801D1022032BD57
:103FD000FFF7F3FFDFF83831286882681A40826003
:103FE0000868002837D0102837D0202837D030284C
:103FF00037D040282BD050281ED0602820D07028E1
:104000000BD0B0F5805F03D0B0F5005F0CD02CE092
:1040100028688168C908C9000CE000F02CF82868FD
:10402000816841F0770105E000F025F82868816893
:1040300041F48041816018E000F019F8502111E04E
:10404000CA684968286800F080F860210AE000F03A
:104050000EF8402106E0002104E0102102E02021BA
:1040600000E03021286800F082F80FE00000CA6804
:104070004968286858E0CB684A68896828687EE003
:10408000054605F13C042078012870470120607046
:104090000020207032BDF0B51E4B1F4A04681F4D32
:1040A0001F4E204F984218BF904208D0B0F1804F69
:1040B00018BFB84203D0B04218BFA8420FD1D1F800
:1040C00004C0984224F0700418BF90424CEA0404E3
:1040D00007D0B0F1804F1CBFB842B04201D0A84217
:1040E00003D1CD6824F440742C434D6924F080043E
:1040F0002C43046098428C68C4620C68846212BFCE
:1041000090420969016301214161F0BD0000000096
:104110008800FFFF002C014000340140000C0040EB
:10412000000800400004004010B5036A046A6408F7
:1041300064000462846924F0F00444EA021282619B
:1041400023F00A021143016210BD10B5036A23F087
:10415000100303628369046A23F4704343EA023262
:10416000826124F0A00242EA0111016210BD82685E
:1041700022F07002114341F007018160704710B5D1
:10418000846824F47F442143114341EA0321816080
:1041900010BD000030B500F13C021378012B01D1B5
:1041A000022030BD012313700223537003685C6842
:1041B00024F070045C6003685C680D682C435C60EC
:1041C00003689C6824F080049C60006883684968E8
:1041D00019438160012050700020107030BD000034
:1041E0002DE9F84F064606F15005012728780024EE
:1041F0000128894690469B4608BF022000F0B58002
:104200002F70FEF793FA82466878012809D071680A
:10421000B1F5827F02BFB1680029042801D00224D1
:10422000A1E0B9F1000F1CBFB8F1000FBBF1000F06
:1042300001D1012497E06878012804BF0520687047
:104240006C60C6F83880A6F83EB0A6F83CB0C6F858
:104250003090A6F836B0A6F834B03464746400F038
:10426000B2F801D400F0AAF8F068DDF828B0B0F593
:10427000006F706831D100281CBFF08E012805D175
:10428000316839F8020BC86000F07CF8F08E002825
:1042900004BFF08F002852D0002F1CBFF08E0028E2
:1042A00007D000F077F804D539F8021BC16000F0A0
:1042B00068F8F08F38B100F069F804D5C06828F8C4
:1042C000020B00F054F81BF1010FDFD0FEF72EFABD
:1042D000A0EB0A005845D9D337E000281CBFF08E68
:1042E000012805D1316819F8010B087300F04AF86C
:1042F000F08E002804BFF08F002820D0002F1CBFB4
:10430000F08E002807D000F045F804D519F8011BFD
:10431000017300F036F8F08F38B100F037F804D5AB
:10432000C06808F8010B00F022F81BF1010FDFD084
:10433000FEF7FCF9A0EB0A005845D9D305E0CDF80B
:1043400000A05B4600F018F808B103240BE05246C9
:104350005946304600F086F818B1202001246860E4
:1043600001E000F021F800F019F8BDE8F28F012714
:10437000F08F401EF087704701220221304600F086
:104380002CB80027F08E401EF08670473068816898
:10439000C9077047306881688907704701206870D5
:1043A0000020287020467047B06830B9009030680F
:1043B000C16800918068009000987047016841F0E2
:1043C0004001016070473068016849067047206805
:1043D000016821F04001016070472DE9F041069E1F
:1043E00004460D4690461F46206880682840A84233
:1043F0000CBF01200020404531D017F1010FF3D050
:1044000027B1FEF793F9801BB842EDD320684168CD
:1044100021F0E00141606068B0F5827F08D1A068BA
:10442000B0F5004F18BFB0F5806F01D1FFF7CFFF97
:10443000A06AB0F5005F0AD1206801684DF6FF72EE
:10444000114001602068016841F40051016004F1ED
:1044500050000121417000210170032000E0002084
:10446000BDE8F08110B582B00B46009204460022F0
:104470008021FFF7B2FF20B1606D40F02000606541
:10448000032016BD704710B500F084F801224021CA
:1044900000F083F8FFF7F6FF0022802187E010B5D7
:1044A0005B4C002200F078F8012267E070B504460A
:1044B0000025574E20064CBF0122002280213046A5
:1044C000FEF7A2FEFFF7DEFF00F02BF8FFF7DAFFA2
:1044D000002200F027F8072D04D101228021304668
:1044E000FEF792FEFFF7CEFF64006D1C082DE1DBA6
:1044F00070BD70B500240825454E00F012F8FFF796
:10450000C1FF80213046FEF779FE640000B1641CD3
:10451000002200F007F8FFF7B5FF6D1EEDD1E0B205
:1045200070BD012240213046FEF76EBE38B500F066
:1045300031F8FFF7A7FF0122402100F02EF8FFF726
:10454000A1FF80212046FEF759FE050018BF012576
:104550000022402100F021F8FFF794FF284632BDE9
:1045600010B52B4C002200F017F8FFF78BFF01224B
:10457000402100F012F8FFF785FF0022402100F0F3
:104580000CF8FFF77FFF2046BDE810400122802194
:10459000FEF73ABE1E4C012280212046FEF734BEB3
:1045A00010B5FFF7F7FFFFF76DFF01224021FFF77E
:1045B000F4FFFFF767FF00224021FFF7EEFFBDE8A1
:1045C00010405FE710B50446124886B0016841F01C
:1045D0000801016001A9006800F00800009000983F
:1045E000C020019011200290012004900848FEF79D
:1045F00041FDFFF754FFFFF746FF2046FFF756FF48
:10460000FFF794FF0446FFF74AFF204606B010BDAF
:10461000000C01401810024080B5A020FFF7D2FF27
:1046200008B9012002BDFFF73AFF002002BD70B5B6
:1046300004460D461646FFF726FFA020FFF736FF7B
:10464000FFF774FF08BBE8B2FFF730FFFFF76EFF1C
:10465000D8B9FFF718FFA120FFF728FFFFF766FF83
:1046600098B9002502E0FFF79BFF6D1CB54208DA00
:10467000FFF73FFF6055701E8542F4D0FFF770FFD3
:10468000F3E7FFF70CFF012070BDFFF708FF0020E4
:1046900070BD2DE9F04104460D469046002725E007
:1046A000002F1CBF0720054218D1FFF7F8FE002697
:1046B000FFF7E9FEA020FFF7F9FEFFF737FF20B173
:1046C000761CB6B2B6F57A7FF2DBB6F57A7F13D0F8
:1046D000E8B2FFF7EBFEFFF729FF68B9E05DFFF7EF
:1046E000E5FEFFF723FF38B96D1C7F1C4745D7DB7C
:1046F000FFF7D5FE012002E0FFF7D1FE0020BDE864
:10470000F0810000FFF7D6BA094A084912785043F1
:1047100048600020886001200860086800F00110EF
:104720000128FAD0002008608860704710E000E09F
:10473000FD190020F8B50E4606F00F01012918BF3B
:104740000229054614461F4606D003291EBF042928
:1047500006F00F0005282CD1284600F02FF86D0137
:1047600047EA060105F10800FFF73FF8210005F5CB
:10477000A16605F5816004D0210AFFF736F8E1B2A1
:1047800009E00D4C2188491C21800904090EFFF71E
:104790002CF82188C9B23046FFF727F805F5847454
:1047A000012100F089F800F01FF80028FBD101205A
:1047B000F2BD0020F2BD0000B401002038B5440174
:1047C00004F5847510212846FFF70FF800F009F86A
:1047D0000028FBD104F50270BDE83440FF21FFF74B
:1047E00004B82846FFF713B82046FFF710B82DE9A4
:1047F000F8438146884616461F46FFF72FF9B04218
:1048000003D24846FFF72AF906463978080004BF64
:104810007878002805D1B878002804BFF8780028F7
:1048200002D0089C200001D100263EE04FEA491545
:1048300005F60840FEF7D9FF797805F60850FEF72F
:10484000D4FFB97805F60860FEF7CFFFF97805F6D2
:104850000870FEF7CAFF05F58050210A00F028F81D
:1048600005F58850E1B200F023F83246414648464B
:10487000FFF74FF905F58474202100F01DF8FFF7CC
:10488000B3FF0028FBD105F50274FFF7ADFFC006AA
:1048900008D4FFF7A9FF0007F5D5182100F00CF8A0
:1048A000002003E0102100F007F83046BDE8F28355
:1048B0000830FEF79ABF40212046FEF796BF2DE94B
:1048C000FE4F0026002A8A461D4600F082804FEAED
:1048D000401B0BF5205000F108084046FEF797FFFB
:1048E00004460BF5245000F108094846FEF78FFFF7
:1048F00000EB0424A4B20BEB04201830009001AFAD
:104900000BF10800FEF783FF00F00700022804D037
:1049100057D304282ED015D353E00098082201A9BC
:10492000FEF7B4FF9DF804002870083400F054F836
:104930000C98397901807A7902EB01210180B879EC
:10494000F9790CE00098062201A9FEF79FFF9DF877
:1049500004002870A41D00F03FF87979387901EB44
:1049600000260BEB0420B2B251461830FEF78EFF42
:1049700034191EE00098022201A9FEF787FF9DF876
:104980000400797801EB0020861EB6B240F2EB50AD
:10499000A51C8642ADB204DB0FF25800FEF714FEF0
:1049A000FEE70BEB0520324651461830FEF76EFF4E
:1049B0007419A4B2210A00F018F8E1B24846FEF7D3
:1049C00014FF0BF58474FFF776FFFFF70DFF002847
:1049D000FBD1B0B2BDE8FE8F78786870A4B2B87829
:1049E000A870F878E870704710214046FEF7FDBEC9
:1049F00000000000646174615F6C656E206F766515
:104A00007220313531340D0A0000000070477047C4
:104A100070477047704770470E480F4A016841F071
:104A2000010101604168114041600C4A0168114078
:104A30000160016821F480210160416821F4FE01D8
:104A400041604FF41F0181604FF00060044908602D
:104A500070470000001002400000FFF8FFFFF6FE64
:104A600008ED00E000000000000000000102030467
:104A7000060708097047FEE7FEE7FEE7FEE7704716
:104A80007047704780B500F01DF8BDE80140FEF7A3
:104A900049BC0748FFF7EDB90648FDF79EBB06483D
:104AA000FDF79BBB0548FDF798BB0548FDF795BB97
:104AB0006C180020EC1800202C1900206C19002024
:104AC000AC180020024841680278511841607047D4
:104AD0000800002019E050F8041BCB0744BFA9F1DF
:104AE00001035918121F0023042A41F8043BF9D28C
:104AF0005FEA827C0B4604D54FF0000CA1F800C0A1
:104B00009B1CD10744BF0021197050F8042B002AC8
:104B1000E1D1704730B5016842688468014401EB17
:104B20005203D20748BF4C44994201D10C3030BDEA
:104B300011F9012B11F8015B002A04F8015B02D581
:104B4000521CF9D1F0E7521EF4D5EDE710B5074934
:104B500079441831064C7C44163404E00A68081D78
:104B6000114488470146A142F8D110BD0800000059
:104B70002400000061FFFFFF48120000B80700207A
:104B80000000000091FFFFFF74010000CC00000056
:104B90000000002000F00BF8002801D0FFF7D6FF3E
:104BA0000020AFF30080FDF761FE00F002F8012065
:104BB000704700F001B800000746384600F002F8E0
:104BC000FBE7000080B5AFF30080024A1100182017
:104BD000ABBEFBE72600020038B504460D4628466A
:104BE00000F006F8A84218BF0024204632BD00009D
:104BF0000149FDF731BE00BF780000200148804721
:104C000001480047194A00080D4C0008AFF3008026
:104C1000AFF30080FFF7BEFF0000000001020304B5
:104C2000FFF7FEBFFFF7FEBFFFF7FEBFFFF7FEBFB8
:104C3000FFF7FEBFFFF7FEBFFFF7FEBFFFF7FEBFA8
:104C4000FFF7FEBFFFF7FEBFFFF7FEBFFFF7FEBF98
:104C5000FFF7FEBFFFF7FEBFFFF7FEBFFFF7FEBF88
:104C6000FFF7FEBFFFF7FEBFFFF7FEBFFFF7FEBF78
:104C7000FFF7FEBFFFF7FEBFFFF7FEBFFFF7FEBF68
:104C8000FFF7FEBFFFF7FEBFFFF7FEBFFFF7FEBF58
:104C9000FFF7FEBFFFF7FEBFFFF7FEBFFFF7FEBF48
:104CA000FFF7FEBFFFF7FEBFFFF7FEBFFFF7FEBF38
:104CB000FFF7FEBFFFF7FEBFFFF7FEBFFFF7FEBF28
:104CC000FFF7FEBFFFF7FEBFFFF7FEBFFFF7FEBF18
:104CD000FFF7FEBFFFF7FEBFFFF7FEBFFFF7FEBF08
:104CE000FFF7FEBFFFF7FEBFFFF7FEBFFFF7FEBFF8
:104CF000FFF7FEBFFFF7FEBFFFF7FEBF08AAFAC32C
:104D0000000025800001F9000010FC0002A24A0406
:104D1000F002CF000108DCFD11050000C0A8086604
:104D2000FDFF0400C0A80801FC00FC0823C0A8087F
:104D300064020401011C1800206C1800201C1800DB
:104D4000201C1800201C180020B50000209C00002A
:104D500020C400F8FFDC00FAFF8100D100038813B3
:024D6000901FA2
:0400000508004C0D96
:00000001FF
