:020000040800F2
:10000000F80500205D4A0008B5480008B748000818
:10001000B9480008BB480008BD48000800000000BF
:10002000000000000000000000000000BF480008C1
:10003000C148000800000000C3480008C548000887
:10004000B94A0008BD4A0008C14A0008C54A00086C
:10005000C94A0008CD4A0008D14A0008D54A00081C
:10006000D94A0008DD4A0008E14A0008E54A0008CC
:10007000E94A0008ED4A0008F14A0008F54A00087C
:10008000F94A0008FD4A0008014B0008054B00082A
:10009000094B00080D4B0008114B0008154B0008D8
:1000A000194B00081D4B0008214B0008254B000888
:1000B000294B0008433A00082D4B0008314B00083B
:1000C000354B0008394B00083D4B0008414B0008F8
:1000D000454B0008494B00084D4B000833320008DF
:1000E000514B0008554B0008594B00082DE9F04FC3
:1000F00082460FF25860A5B015461E46D0E900238F
:10010000CDE9122303AF00207960B8620DF15009E8
:1001100000E045440020ADF8020012AB4FF0FF3282
:1001200029460DF1020001F0AEF88046B8F1010F4A
:1001300008DA2878B0F1010868EB08086FEA0800CF
:100140004FEAD078BDF8020025280CBFA8F1010BBA
:10015000C346BBF1010F0EDB2C4614F8011B786877
:10016000D0470028786000F0F880B86A401CBBF1E6
:10017000010BB862F1D1BDF80200252807D100209B
:1001800038617861B861F8613862786205E000280A
:10019000BFD1B86AE2E240F0010015F8011F202942
:1001A000F9D023290DD02B2904D02D2906D03029B0
:1001B0000AD00CE040F0020080B2EEE740F004000C
:1001C000FAE740F00800F7E740F01000F4E72A29CA
:1001D0000ED13168316051F8042B3160002A3A6346
:1001E00004D5514240F00400396380B26D1C13E025
:1001F000002139630BE0396B6FF00043994205D061
:1002000001EB810302EB4301303939636D1C2A781D
:10021000A2F130010A29EED329782E2903D04FF01C
:10022000FF31F9621FE015F8011F2A2907D1316853
:1002300031606D1C51F8042B3160FA6213E000212B
:10024000F9620BE0F96A6FF00043994205D001EBC7
:10025000810302EB43013039F9626D1C2A78A2F167
:1002600030010A29EED3B8860FF2E840297801F070
:100270001BF808B115F8010B8DF842009DF84200FB
:10028000682802BF29786829622005D06C2804BF3D
:1002900028786C2803D171208DF842006D1C14A8B9
:1002A000F86015F8014BB4F125002AD01C3800F095
:1002B000DB80001F022840F2D780133800F0FB805B
:1002C000093800F0D180801E00F06581401E00F0EA
:1002D0003C81401E022840F2C780001F00F035819B
:1002E000401F00F09280401E00F0E580401E37D095
:1002F000C01E0BD0801E00F0DE80C01E00F0DB8030
:100300006CE125208DF85000012070E19DF842003D
:100310006C283068306016D050F8048B3060C7F815
:100320000880FC6A002C04D5404600F0C9FF044652
:1003300007E022460021404600F0DEFF08B1A0EBB6
:1003400008047C6154E150F8042B306002A9504647
:1003500000F03EFA002840F14B814FF0FF30FDE104
:1003600031683160002251F8040B31604FF03C0ECF
:100370000021CDE9020114A8B860DDE90201914233
:10038000FC6808BF904201D1FA6AC2B100F00F03C5
:100390003033DBB23A2BA8BF2733AEF1010200099C
:1003A000A354964640EA017009090022914208BF11
:1003B000904204D0BA6804EB0E039A42E6D304EBF1
:1003C0000E01B960CEF13C00F96A7861884207DA23
:1003D000081AF8614FF6EF71B88E0840B88607E149
:1003E000002940F1058197F8341001F0140110291B
:1003F00040F0FE80396B3A69891AFA69891A081A3D
:100400000128C0F2F580F861F2E09DF84200622810
:100410001AD0682806D06A280CD06C281CD0712805
:1004200008D019E03068306050F8041B3060B86ABA
:100430000880DDE03068306050F8042B3060B86A26
:10044000C117C2E90001D3E03068306050F8041BE6
:100450003060B86A0870CBE03068306050F8041B38
:100460003060B86A0860C3E03068C01D20F0070241
:100470003260D2E9000108323260CDE90201002980
:1004800002D538692D2109E0B88E810702D5386977
:100490002B2103E0C00705D53869202109F8001099
:1004A000401C386114A839690844B860214602A884
:1004B00000F09AFB9CE09DF842006C280DD071285A
:1004C00018BF6A2809D13068C01D20F007023260C9
:1004D000D2E900010832326005E03168316051F83C
:1004E000040B31600021CDE902019DF8420068282B
:1004F00003D1DDE9020180B20BE0622803D1DDE91E
:100500000201C0B205E0742818BF7A2804D1DDE9E1
:1005100002010021CDE9020197F83400000731D52E
:10052000DDE902230020834208BF82422AD044F042
:100530002000782826D13869302109F80010401CA5
:10054000411C396109F800401CE09DF84200314629
:1005500000F007F9CDE90201DDE9022300218B4219
:1005600002DA38692D2109E0B88E810702D5386991
:100570002B2103E0C00705D53869202109F80010B8
:10058000401C386114A839690844B860214602A8A3
:1005900000F0A4FA2CE09DF842006C2809D001205C
:1005A00038613068306050F8041B30608DF85010AE
:1005B0001EE03068306001AA50F8041B3060ADF8CE
:1005C00004100020ADF8060002A94FF0FF30F862D9
:1005D000504600F0FDF800280AD5BEE625208DF82B
:1005E0005000012038611CB189F8014002203861B7
:1005F000386B3969401AF969401A7969401A396AC1
:10060000401AB969401A796AA0EB010897F83400DA
:10061000400711D42020B8F1010F8DF800000BDB4A
:10062000444601236A4602A9504600F007FE00280E
:100630007FF493AE641EF4D1D7F810B0BBF1000F75
:1006400014AC0DD014F8011B7868D04700287860EE
:100650003FF483AEB86A401CBBF1010BB862F1D124
:1006600030208DF80000FC69012C0ADB01236A466A
:1006700002A9504600F0E2FD00287FF46EAE641E31
:10068000F4D1D7F814B0BC68BBF1000F0DD014F84A
:10069000011B7868D047002878603FF45EAEB86AE6
:1006A000401CBBF1010BB862F1D130208DF8000085
:1006B0003C6A012C0ADB01236A4602A9504600F07D
:1006C000BDFD00287FF449AE641EF4D1B868796995
:1006D000D7F818B04418BBF1000F0DD014F8011B67
:1006E0007868D047002878603FF437AEB86A401C7D
:1006F000BBF1010BB862F1D130208DF800007C6AAB
:10070000012C0ADB01236A4602A9504600F096FD3F
:1007100000287FF422AE641EF4D197F8340040071D
:100720007FF5F8AC2020B8F1010F8DF80000FFF63E
:10073000F1AC01236A4602A9504600F07FFD002873
:100740007FF40BAEB8F10108F3D1E3E40000000040
:1007500000000000686A6C747A4C000025B0BDE8A7
:10076000F08F622826D068281DD06A2808D06C280F
:1007700027D0712804D0742823D07A280CD020E008
:100780000868C01D20F007000860D0E90023083089
:1007900008601946104670470A680A6052F8040B50
:1007A0000A60002170470A680A6052F8040B0A6068
:1007B00000B20BE00A680A6052F8040B0A6040B20B
:1007C00004E00A680A6052F8040B0A60C117704717
:1007D0002DE9F44F0D4694B0D5F830A0BAF1000FD2
:1007E000804648BF6FF0004A00F0B2FD696B4018C8
:1007F00001900FF67820D0E90023CDE9022395F887
:100800003800400702D40198412805D240200DF15C
:1008100010090190002609E000F0A0FD5FEA000940
:10082000F8D14FF0FF3056E1AAEB040ABAF1010FFC
:10083000C0F2CE801498018802AA0DF1010000F0E8
:10084000E5FD0028044600F1DE801498008810B908
:10085000641E00F1D880A245C0F2BA80686901998F
:100860002218914280F0A2806E634042296A401AA9
:10087000A969401A696A401AE969401AA96A461AC0
:1008800095F83800400710D42020012E8DF8000084
:100890000BDB374601236A462946404600F0CEFC72
:1008A000002840F0B0807F1EF4D1D5F814B0BBF121
:1008B000000F4F460DD017F8011BA868C04700284D
:1008C000A86000F0A080E86A401CBBF1010BE86260
:1008D000F1D130208DF800002F6A012F0ADB0123AF
:1008E0006A462946404600F0A9FC002840F08B806B
:1008F0007F1EF4D1D5F818B0EF68BBF1000F0CD013
:1009000017F8011BA868C0470028A8607BD0E86AD8
:10091000401CBBF1010BE862F2D130208DF80000E1
:100920006F6A012F09DB01236A462946404600F021
:1009300085FC002867D17F1EF5D1E868A969D5F844
:100940001CB04718BBF1000F0CD017F8011BA868AA
:10095000C0470028A86056D0E86A401CBBF1010BD4
:10096000E862F2D130208DF80000AF6A012F09DB78
:1009700001236A462946404600F060FC002842D127
:100980007F1EF5D195F8380040070DD52020012EA7
:100990008DF8000008DB01236A462946404600F036
:1009A0004DFC80BB761EF6D100266E61224668693A
:1009B0000DF10101484400F037FD686920186861B5
:1009C0001498801C1490801E008800287FF42CAF9F
:1009D000686B6969401A296A401AA969401A696AEC
:1009E000401AE969401AA96AA0EB010A95F8380093
:1009F000400710D4BAF1010F0DDB5446A86820213E
:100A0000C047A86010B94FF0FF365DE0E86A401CAF
:100A1000641EE862F2D16B694A462946404600F0FE
:100A20000DFC0028EFD12C6A012C0ADBA8683021CC
:100A3000C0470028A860E6D0E86A401C641EE8624F
:100A4000F4D1AB69EA682946404600F0F7FB00287C
:100A5000D9D16C6A012C0ADBA8683021C047002874
:100A6000A860D0D0E86A401C641EE862F4D1E8684F
:100A7000A969EB6942182946404600F0DFFB0028CF
:100A8000C1D1AC6A012C0ADBA8683021C04700281C
:100A9000A860B8D0E86A401C641EE862F4D195F8FA
:100AA000380040070ED5BAF1010F0BDBA8682021F2
:100AB000C0470028A860A6D0E86A401CBAF1010A25
:100AC000E862F3D16E616E6304A881451CBF48469D
:100AD00000F0E6FC304615B0BDE8F08F2DE9F34399
:100AE000054608462F696F2808BF082405D041F045
:100AF0002001782914BF0A2410243C26D5E90023BC
:100B0000642818BF69289046994606D100218B4277
:100B100003DAD8F1000869EB49090020814508BFD4
:100B200080450CD1286B50B9082C38D195F8380085
:100B3000000734D530203B2687F83B002FE0701E9D
:100B400000900646404649462246E31700F0E8FC7E
:100B500002F13000C0B23A2803DB9DF8041051398D
:100B60000818B855494640462246E31700F0D8FC1D
:100B7000804689460020814508BF804503D0E8684B
:100B8000B9198842DBD3082C09D195F83800000741
:100B900005D5B85D302802D0761E3020B855B91979
:100BA000E960C6F13C00296BA861884208DA081A9E
:100BB00028624FF6EF71288F08402887BDE8F3833D
:100BC00000290ED595F8381001F01401102908D12C
:100BD000696B6A69891A2A6A891A0E1A012EA8BFD6
:100BE0002E62BDE8F38300002DE9F24F04468EB07B
:100BF000D4E90001CDE9020104AF9DF8380040F0CE
:100C0000200BBBF1610F0AD0206B002848BF0620E3
:100C100004D408BFBBF1670F01D1012020636168D4
:100C2000C1F30A5040F2FF7290421CD1080304BF86
:100C30002068002809D10320A0619DF838006138A0
:100C40001A2835D30FF2386108E00320A0619DF81F
:100C5000380061381A2828D30FF21C61E06803229B
:100C600000F0E2FBBDE1012815DA204600F0CFFCE0
:100C7000012810DB00250020BBF1610F1FD1E168C6
:100C800030220A708A1CE2609DF83820612A0CBF6D
:100C9000782258220FE0626840F2FE3161F31E5262
:100CA000451A62604FF0FF30E6E70FF2C851D5E712
:100CB0000FF2C851D2E74A706169891C616110B9AD
:100CC0000026002584E1BBF1610F40F09880206B85
:100CD000D4E900AB00284CBF2126461CDDE9020107
:100CE0000022002300F0B6FC36B23ABF8BF0004081
:100CF000CDE902A0CDE902AB06F101082D1FB8F144
:100D0000010F8DF810200DF1110736DBDDE902012E
:100D10000022002300F0B6FC2FD21C2102A800F014
:100D2000C9FCDDE9020100F04BFDA8F10708B8F1AC
:100D3000010F814609DB00F06FFD02460B46DDE93D
:100D4000020100F081FDCDE90201F81D072105E057
:100D500009F00F0200F8012D4FEA2919B9F1010F2E
:100D600001DB491EF4D5491E5CBF002200F8012DAD
:100D7000F9D5C71DB8F1010FC8DA0DF11100391A04
:100D8000B142B8BF0E4636B230000DF111072FD474
:100D9000884206DA04A9014449780829A8BF0F212E
:100DA00000DA002104AA024400E0761E12F801399C
:100DB000401E8B42F9D00F2904D104A901444A787E
:100DC000521C4A70002802D504AF761C2D1D36B285
:100DD000701E0DD439180A783032D2B23A2A03DBA9
:100DE0009DF838303A3B9A18401E01F80129F2D597
:100DF000206B002840F1EC80701E2063E8E0DDE904
:100E000002010022002300F025FC3CBF81F00041DC
:100E1000CDE902012DB247F2975068434B49DFF804
:100E2000309190FBF1F52DB2C5F1070ABAF1010F2F
:100E300090461CDBDDE902675FEACA7007D54246CF
:100E40004B463046394600F0BFFD06460F46404649
:100E5000494642464B464FEA6A0A00F0B5FDBAF1F0
:100E6000000F80468946E7D1CDE9026724E0CAF148
:100E7000000A0026374F14E05FEACA7007D54246E1
:100E80004B463046394600F09FFD06460F46404629
:100E9000494642464B4600F097FD4FEA6A0A8046B3
:100EA0008946BAF1000FE7D1DDE9020132463B463F
:100EB00000F05CFECDE90201BBF1660F216BDFF8AB
:100EC00098900CBF05F10A0006204618142EA8BF02
:100ED000132630208DF810000DF11107012E3DDB97
:100EE000DDE9020100F082FC07F1080104220A2377
:100EF000B0FBF3F303EB8307A0EB4700303001F8BE
:100F0000010C0A20B3FBF0F000EB8007A3EB4703D2
:100F10003033521E01F8023DE9D1083E012E01F1A5
:100F20000807DBDBDDE9020100F060FC00F07EFC7D
:100F300002460B46DDE9020100F086FC00224B462A
:100F400000F042FDCDE90201CAE700BFA086010022
:100F5000000024400000F03F84D797410DF11100BC
:100F6000381A0DF1110702E0401E6D1E7F1C397802
:100F70003029F9D0BBF1660F08BF691C04D0BBF162
:100F8000650F0CBF01210021226B8E1836B2B042D2
:100F9000B8BF064636B231001AD4814204DA785C12
:100FA0003528A8BF392000DA30207A18521E00E018
:100FB000761E12F80139491E8342F9D0392802D130
:100FC000785C401C7854002902D57F1E761C6D1C6D
:100FD0002DB29DF83810009533B23A46204600F005
:100FE00003F80FB0BDE8F08F2DE9F04786B0064654
:100FF0008A4690461D4600F002FF012D406A376B7D
:1010000090F8009002DA01250FF278284AF02000CB
:10101000BDF93840662808BF641C12D0672878D113
:1010200014F1040F7BDBBC4279DA96F83800641CBB
:10103000000702D4BD42B8BF2F4624B23F1B48BFB1
:10104000002724B2F068B169012C23DA4A1C30234E
:101050004354012F03DA96F83800000703D5F068EF
:1010600000F80290521CE742B8BF7C4224B26042B2
:101070007062E719AF42B261B8BF3D46F068B3692C
:101080002DB2F5612A464146184400F0CDF9781B8F
:10109000B062BCE022469542084416DA2A46414630
:1010A00000F0C2F9B1696918601B012FB16170626B
:1010B00003DA96F83800000705D5F06800F80190CB
:1010C000F069401CF061B762A1E0414600F0ACF964
:1010D000B06920182D1B012F03DA96F83810090784
:1010E00003D5F16801F80090401CB0612DB2AF4209
:1010F000B8BF3D46F068B3692DB22A4608EB04013B
:10110000184400F091F9B0692818B061781B70623A
:101110007DE0BAF1610F14D14FF0700A16E0BD42C4
:1011200004DA96F83810090758BF2F467F1E48BFCB
:101130000027BAF1670F14BF4FF0450A4FF0650A58
:1011400004E0BAF1410F08BF4FF0500AB169F368EB
:10115000481CB061012F18F8012B5A5403DA96F895
:101160003810090717D5F168431CB36101F80090E6
:10117000012F10DB6D1E2DB2AF42B8BF3D46F068A7
:101180002DB22A464146184400F04EF9B06928189D
:10119000B061781B7062F068B1690144200081F889
:1011A00000A004D42B20487001F1020804E02D2295
:1011B0004A7001F102086442002502AF08E00A22E9
:1011C000684600F035FE019807F8010B6D1C009C85
:1011D00021B20129F3DA022D06DA4AF0200065284F
:1011E00004BF302008F8010B4DB9302008F8010B7E
:1011F00007E06D1E02A8405D303008F8010B012D9C
:10120000F7DAF068B1690844A8EB0000F06196F8DD
:10121000380000F0140010280DD17069B169081869
:10122000716A0818F1690818B16A0818716B884268
:10123000BCBF081A306206B0BDE8F087F8B50446B6
:101240000D4616461F46002077B116F8011BA86808
:10125000A047A86030B1E86A401CE86200207F1E09
:10126000F3D1F2BD4FF0FF30F2BD000000000000EE
:10127000000000006E616E004E414E00696E660017
:10128000494E46003000F8B504460D4616461F4646
:1012900000F0D6FD3B4632462946204601B0BDE867
:1012A000F04000F0E4BD01020278C9B28A421AB1EE
:1012B0001CBF10F8012FF9E718BF0020704700008D
:1012C00000F10103810704D010F8011B89B18107E7
:1012D000FAD10268B2F10131914311F0803F04BFAD
:1012E00050F8042FF6E710F8011B11B110F8011B9C
:1012F000FBE7C01A70470000C9B2830706D0521E30
:1013000022D310F8013B9942F7D11FE0083A13D3DA
:1013100002F1040241EA012141EA014150F8043B93
:10132000121F21BF4B40A3F1013C2CEA030C1CF01F
:10133000803FF3D0C9B2001F083210F8013B521EA3
:1013400028BF91EA030FF8D818BF0120401E70474C
:1013500080B500F075FD012002BD000070B50546A6
:1013600005F10F00C408AFF30080E400A54232D2BB
:10137000082C04D2082402E0083000F091F822483A
:10138000026811000CD1011D0A6802B31368A34260
:1013900038BF111DF8D310E01D68A5420DD2191DEC
:1013A0000B68002BF8D11268011D00E0191D0B68B5
:1013B00093420CD01D68A542F8D361B10D682A682C
:1013C000A2F10803A3420AD26A680A600FE000F0A3
:1013D00071FD0028D0D1AFF30080002070BD2B1923
:1013E0000B60121B6E685E600B681A602C600968E7
:1013F00000291DBF4A68002A091D00210160AFF3C2
:10140000008005F1080070BD880B002070B504460F
:101410000D46164600F014FD324629462046BDE82A
:10142000704000F017BD000062B38B0708D0521E59
:1014300011F8013B00F8013B00F024808B07F6D146
:10144000830740F0208000BF103A07D330B4B1E8E2
:101450003810103AA0E83810F9D230BC530724BF36
:10146000B1E80810A0E8081044BF51F8043B40F868
:10147000043BD20724BF31F8022B20F8022B44BFD3
:101480000B7803707047083A07D3B1E80810083AA0
:1014900040F8043B40F804CBF7D25307E4E70000E0
:1014A00000B9704738B5A0F108042068082833D384
:1014B00010F0070F30D1AFF300801848416809B130
:1014C0008C4203D26160446017E019464B680BB14F
:1014D000A342FAD30B68CD18AC421BD3A54204D16A
:1014E0002268D2180A600C4607E04A681AB12368DD
:1014F00023449A420ED362604C60616851B1226805
:10150000A3188B4206D1002303600868801820606E
:1015100048686060AFF3008031BD0000880B002098
:101520001B4213D1094236D12AB18446B0FBF2F0F6
:1015300002FB10C2704700F0D3BCFCD30022002392
:1015400070470B000200002100207047904271EBB1
:10155000030CF6D370B5B1FA81F4B3FA83F52C1B02
:10156000A340C4F1200532FA05F63343A2405FF0F0
:101570000046E64002E05B085FEA3202841A71EB43
:10158000030524BF204629467641F4D302000B0010
:101590003000002170BD012ACFD970B5140C20D0C5
:1015A000B1FA81F4B2FA82F5C4F120046419B4F1FD
:1015B0002006D6D3B2405FF00044F440002502E09C
:1015C00052085FEA3303C61A71EB020E24BF30469D
:1015D000714664416D41F3D302000B0020002900E5
:1015E00070BD0C46B1FBF2F102FB11452D0445EA3A
:1015F0001045B5FBF2F402FB145580B240EA0545F4
:10160000B5FBF2F002FB105240EA044070BD30B46A
:10161000436803F000420121C3F313034360002B2E
:1016200004BF0368002B08D10DE00368DD0F45EA15
:10163000440444605B000360491E4468E302F4D53F
:10164000C4F31303436043681A434260084630BC46
:10165000704700004FF4001C1CEB410F94BF1CEBC3
:10166000430F09E041EA030C50EA4C0C52EA0C0C1F
:1016700003D2994208BF9042704714BF8B42824206
:10168000704700004FF4001C1CEB410F94BF1CEB93
:10169000430F09E041EA030C50EA4C0C52EA0C0CEF
:1016A00003D28B4208BF8242704714BF99429042D6
:1016B0007047000070B504460D466068C0F30A50DC
:1016C00040F2FF71884207D16068000304BF2068C0
:1016D000002817D0022070BD20B92046FFF797FFE1
:1016E000012866DA012D0FDB40F2FF71091A8D42E5
:1016F0000AD36068002847BF00202F4900202F49E7
:10170000C4E90001012070BD4142A942616806DAC6
:101710006FF31E51401941EA0050606040E0401EE6
:1017200063684519012205F1350062F31F5335281E
:1017300001F00041636003D361600020206070BD50
:10174000002015F11F0F04DA2068236000222035E5
:1017500062606A4212D0401E25688041C2F12003B7
:10176000C0439D4045EAD07025686668D54006FABA
:1017700003F32B4323606368D340636062680A43CA
:10178000B0F1004F626003D80DD12078C0070AD5B0
:101790002068401C2060206828B96068401C606098
:1017A0004FF0FF3070BD6068884204BF2068002899
:1017B000F6D1002070BD00BF0000F0FF0000F07FF8
:1017C000F446400D40EAC120490006D200F014F86A
:1017D000004248BF6FF00040604700F00DF84FF046
:1017E000004188428CBF084640426047400D40EAB5
:1017F000C120490080F00D8040F00040490DA1F566
:101800008061491C05D4D1F11F0154BFC840C017E5
:1018100070474FF000007047010040F10980F44626
:10182000404200F005F851F000416047010000BF60
:1018300009D0B0FA80F18840C91CC1F5846109055E
:1018400001EBD02140057047F0B44FF0004591EA1C
:10185000030F44BF6B4000F045BB00BF841A71EB1F
:10186000030604D26E40001BB141121973414FF4BC
:10187000001C1CEB410F34BF7CEB430684E00C0DD5
:10188000A4EB1356362E7DDC012E43DC45EAC32340
:1018900043EA525312BFD20292025B08240545EA82
:1018A000C12141EA5051D2EBC020994125D407D142
:1018B000B0FA80F610FA06F164D00020203608E075
:1018C000B1FA81F6B140C6F1200220FA02F21143CA
:1018D000B0404FEAF474B4EB465434F001064FEADA
:1018E00074040AD8D6F50016760D04F00044F040D2
:1018F00061FA06F25040F1404840C00A40EA4150C7
:1019000021F0004128BF5FEA500550F1000044EB90
:10191000D12137E045EAC323DB0A45EAC121C90AE0
:10192000B6F120050EDD42EA0242120CC5F1200696
:1019300003FA06F6EB4042EA06056D42984161F172
:1019400000010DE062FA06F5F240554063FA06FC2C
:1019500082EA0C02F3405A406D42904161EB030170
:1019600011F4801F05D1641E620502D06D00404154
:10197000494121F48011430875F1004350F1000002
:1019800041EB0451F0BC70471CEB410F15D223F022
:10199000004352EA43060BD04FEA4C0CBCEB410F1C
:1019A00004D80C0D661E342EB7DDEBE7801A994182
:1019B00050EA410608BF0021E4E708BF1CEB430FD3
:1019C00028BF6FF00001DDE7B0B581EA030C0CF031
:1019D000004C40F2FF7515EA11541DBF15EA13576C
:1019E000AC42AF4239E0E41923EA455343F4801393
:1019F000C90241F0004141EA505EC7021100A7FB55
:101A0000020200284FF00000EEFB01204FF0000121
:101A1000E3FB072118BF42F00102401800214941B1
:101A2000E3FB0E01A4F580640F0302D25200404193
:101A3000494154F101046CDD470872F1004250F154
:101A4000000051EB0451A1F580115CBF41EA0C018B
:101A5000B0BD4CEA05510020B0BD05EA1357AC42B9
:101A600014BFAF4241E050EA410E1CBF52EA430EA0
:101A700002E061460020B0BD24423C441BD15FEA35
:101A8000070EF6D0090302BF01460020AEF1140E86
:101A9000B1FA81F7AEEB070401FA07FE0C37C7F184
:101AA000200100FA07F7C8404EEA000E23EA45532A
:101AB00043F48013A2E733F00043B3FA83F704BF83
:101AC000B2FA82FE77440B3FE41BB7F1200E2FBF22
:101AD00002FA0EF3BB40C7F1200E22FA0EFE38BF09
:101AE00043EA0E03BA40641C82E750EA410E14BF79
:101AF00052EA430E6FF000014FF4001717EB430F4B
:101B00008ABF194617EB410FB5E74CEA0551002093
:101B1000B0BDD4F10104B4F120070FDAC4F12007FD
:101B2000520828BF42F0010210FA07F501FA07F740
:101B3000E1BF2A43E0403843E1400FE0352C98DC18
:101B4000C7F1200452EA400220FA07F218BF42F01F
:101B5000010231FA07F0A1400A43002172F100426C
:101B600050F1000051EB0C01B0BD00002DE9F04137
:101B700040F2FF7581EA030C0CF0004C15EA115499
:101B80001DBF15EA1357AC42AF42E9E0BC41C1F3B7
:101B90001301C3F31303801A994143F4801304D251
:101BA000641E4000494180185941C90241EA505120
:101BB000B1FBF3F603FB1611A2FB0675D7EBC020B1
:101BC000A94102D2761E80185941C90241EA5051FA
:101BD000B1FBF3FE03FB1E11A2FB0E75D7EBC02079
:101BE000A94103D2AEF1010E80185941890241EAA0
:101BF0009051760546EA8E2EB1FBF3F603FB1611E3
:101C0000A2FB0675D7EB8020A94102D2761E801870
:101C10005941C90241EA50514EEA060EB1FBF3F6B2
:101C200003FB1611A2FB0675D7EBC020A94102D217
:101C3000761E80185941C90241EA5051B1FBF3F7B1
:101C400003FB1711A2FB0735D3EBC020A94167F1B5
:101C500000070CBF004247F0010766F3D5274FEAA3
:101C60001E31B80814F5806414DDBD0775F100421B
:101C700050EB0E5051EB045111F5801F5CBF41EA4F
:101C80000C01BDE8F0814CF07F6141F0E0410020A3
:101C9000BDE8F081BD076D0840EA0E5041F48011A7
:101CA000D4F10104B4F120060ADAC4F120060200DE
:101CB000E04001FA06F3E1401843B24015430EE05C
:101CC000342C14DCC6F1200445EA40056D0820FAE6
:101CD00006F2154321FA06F0A1400D43002175F1EB
:101CE000004250F1000051EB0C01BDE8F0810020F2
:101CF0005FEA0C01BDE8F081CFB992185B41B3FAFD
:101D000083F704BFB2FA82F6BF190B3FB7F1200682
:101D10002FBF02FA06F3BB40C7F1200622FA06F6EF
:101D200038BF3343BA401CB1E419641E2FE77F4229
:101D300031F00041B1FA81F404BFB0FA80F6A41981
:101D40000B3CB4F120062FBF00FA06F1A140C4F10C
:101D5000200620FA06F638BF3143A0403C1B16E7A8
:101D6000AC421ABF05EA1357AF4214E050EA4106ED
:101D70001CBF52EA4306BFE750EA410730466146BE
:101D80001CBF41EA0551BDE8F08152EA430C08BF8F
:101D9000C143BDE8F08100204FF4001616EB410F5F
:101DA00098BF16EB430F08BF16EB410F24BFC1438A
:101DB00005E016EB430F0CBF61464CEA0551BDE848
:101DC000F081000080B5134800F0F6F80FF24C02E5
:101DD0000FF244010160426241600FF244028263EB
:101DE00081600FF24402C1600161416181618162E1
:101DF000C16201634163C2630164416401BD10B506
:101E0000044800F0D9F80446206808B9FFF7DAFF63
:101E1000204610BDF4000020000000002E0000004D
:101E200066616C73650000007472756500000000E7
:101E300091FBF2F303FB1211C0E90031704700007F
:101E400080B5DFF80C0000F0B7F8806902BD000033
:101E50008401002030B430B90FF24800D0E90045C9
:101E6000C2E900451BE00170012030BC704730B46E
:101E700031B90FF23800D0E90045C3E900450EE062
:101E80001AB930BC6FF00100704708B10A780280BF
:101E90000978481E804130BCC043C00F7047002005
:101EA00030BC70470000000000000000000000008F
:101EB000000000000749086808B100207047064884
:101EC000C008C00008600549C908C900091A0160B6
:101ED000704700BF940B0020FF050020F80700208A
:101EE00070470000841A71EB030603D2001BB14156
:101EF000121973414FF4001C1CEB410F34BF7CEBF3
:101F0000430443E00C0DA4EB1356352E50DC45EA98
:101F1000C323DB0A45EAC121C912B6F120050DDD54
:101F200063FA05F6EB4086EA0305124218BF45F056
:101F30000105C01851F100010CD213E062FA06F558
:101F4000F2405540F3415A40B340F3405A408018A4
:101F5000594107D349085FEA30005FEA350528BFD9
:101F600045F0010501F58011420875F1004250F17C
:101F7000000041EB0451F0BC4FF4001C1CEB410F7E
:101F800038BF70470020090D090570471CEB410F51
:101F900010D252EA43060BD0BCEB410F05D80C0D12
:101FA000AB43661E342EB5DD02E0AB4380185941C9
:101FB000F0BC7047F0BC70477047000070B582B04D
:101FC000040000252078C00740F18480DFF89C06DB
:101FD000006810F00C0004280BD0DFF890060068B1
:101FE00010F00C0008280ED1DFF880060068C0034E
:101FF00009D5DFF87406006880036BD56068002897
:1020000068D1012004E26068B0F5803F08D1DFF8B4
:102010005806006850F48030DFF84C16086038E04D
:102020006068002810D1DFF84006006830F4803086
:10203000DFF834160860DFF83006006830F48020DE
:10204000DFF82416086024E06068B0F5A02F10D1F6
:10205000DFF81406006850F48020DFF80C160860E2
:10206000DFF80406006850F48030DFF8FC150860E3
:102070000FE0DFF8F405006830F48030DFF8E81591
:102080000860DFF8E405006830F48020DFF8D81538
:102090000860606800280ED000F008FB0500DFF83B
:1020A000C8050068800315D400F000FB401B6528BC
:1020B000F5D30320ACE100F0F9FA0500DFF8A8053C
:1020C0000068800306D500F0F1FA401B6528F5D3BF
:1020D00003209DE1207880075CD5DFF8900500683B
:1020E00010F00C0F0BD0DFF88405006810F00C0026
:1020F00008281AD1DFF874050068C00315D4DFF88A
:1021000068050068800704D52069012801D00120F6
:102110007EE1DFF85405006830F0F800616950EAAC
:10212000C100DFF84415086034E0206900281ED0A3
:102130000120DFF84815086000F0B8FA0500DFF864
:1021400028050068800706D400F0B0FA401B032879
:10215000F5D303205CE1DFF81005006830F0F800EB
:10216000616950EAC100DFF80015086012E0002044
:10217000DFF80815086000F099FA0500DFF8E804B8
:102180000068800706D500F091FA401B0328F5D3BC
:1021900003203DE1207800072CD5A069002816D047
:1021A0000120DFF8DC14086000F080FA0500DFF899
:1021B000C8040068800706D400F078FA401B0328A2
:1021C000F5D3032024E1012000F03AFA12E00020C8
:1021D000DFF8AC14086000F069FA0500DFF8980435
:1021E0000068800706D500F061FA401B0328F5D38C
:1021F00003200DE12078400740F1A7800026DFF89A
:1022000084040068C00010D4DFF87804006850F03F
:102210008050DFF870140860DFF86804006810F080
:1022200080500090009801200600DFF85C040068F0
:10223000C00516D4DFF85004006850F48070DFF851
:102240004814086000F032FA0500DFF83C0400682A
:10225000C00506D400F02AFA401B6528F5D30320F8
:10226000D6E0E068012808D1DFF82004006850F0CB
:102270000100DFF81814086037E0E068002810D18A
:10228000DFF80804006840084000DFF80014086028
:10229000DFF8F803006830F00400DFF8F01308609E
:1022A00023E0E068052810D1DFF8E003006850F073
:1022B0000400DFF8D8130860DFF8D003006850F09E
:1022C0000100DFF8C81308600FE0DFF8C003006802
:1022D00040084000DFF8B4130860DFF8B00300687E
:1022E00030F00400DFF8A4130860E068002810D084
:1022F00000F0DCF90500DFF894030068800719D4CA
:1023000000F0D4F9401B41F289318842F3D3032015
:102310007EE000F0CBF90500DFF87003006880076D
:1023200008D500F0C3F9401B41F289318842F3D34C
:1023300003206DE0F6B2012E07D1DFF848030068F4
:1023400030F08050DFF83C130860E06900285ED070
:10235000DFF81803006810F00C00082855D0E06979
:1023600002283FD10020DFF82813086000F09EF912
:102370000500DFF8F4020068800106D500F096F948
:10238000401B0328F5D3032042E0206AB0F5803FCC
:1023900009D1DFF8D802006830F40030A1680843A2
:1023A000DFF8C8120860DFF8C402006830F4741067
:1023B000216A0843616A0843DFF8B012086001200F
:1023C000DFF8CC12086000F071F90500DFF8980220
:1023D000006880011BD400F069F9401B0328F5D385
:1023E000032015E00020DFF8A812086000F05EF975
:1023F0000500DFF874020068800108D500F056F986
:10240000401B0328F5D3032002E0012000E0002058
:1024100076BD70B504000D000026DFF87802006874
:1024200010F00700A84211D2DFF868020068C00867
:10243000C0002843DFF85C120860DFF8580200682B
:1024400010F00700A84201D00120A3E02078800707
:1024500009D5DFF81802006830F0F000A1680843E1
:10246000DFF8081208602078C00758D56068012896
:1024700006D1DFF8F4010068800312D4012089E05E
:102480006068022806D1DFF8E0010068800108D406
:1024900001207FE0DFF8D0010068800701D401202F
:1024A00078E0DFF8C80100688008800061680843B0
:1024B0006E49086000F0FAF80600606801280ED145
:1024C0006A48006810F00C00042828D000F0EEF8EC
:1024D000801B41F289318842F2D303205AE06068C0
:1024E00002280ED16148006810F00C00082816D0B0
:1024F00000F0DCF8801B41F289318842F2D30320DE
:1025000048E05A48006810F00C0F08D000F0CEF8F0
:10251000801B41F289318842F3D303203AE05D48C1
:10252000006810F0070085420ED25A480068C008C3
:10253000C0002843574908605648006810F007005B
:10254000A84201D0012025E02078400707D5474860
:10255000006830F4E060E16808434449086020788E
:10256000000708D54148006830F46050216950EAFE
:10257000C1003E49086000F00EF847493B4A126826
:10258000C2F30312895CC8403A490860002000F099
:1025900093F8002070BD70B586B001A83F491022A5
:1025A000FEF752FF3E480088ADF8000000210022EF
:1025B0000023002400202D4D2D68290011F00C056A
:1025C000042D02D0082D03D01DE0294D28001CE069
:1025D00001ADC1F38346AD5D2C00CD030DD56D4635
:1025E000224E3668C6F34046AD5D2A00204D05FBFD
:1025F00004F5B5FBF2F52B0003E02A4D05FB04F5CD
:102600002B00180001E01A4D280006B070BD1948D3
:102610000068704780B5FFF7FAFF2349134A126834
:10262000C2F30222895CC84002BD80B5FFF7EFFF0C
:102630001D490E4A1268C2F3C222895CC84002BD1D
:1026400081B00C490968C9084FF47A72B1FBF2F104
:1026500001FB00F1009100BF00994A1E0092002981
:10266000F9D101B070470000001002400410024090
:1026700000127A00080000202410024000004242AC
:10268000800442421C1002400070004020100240B2
:1026900060004242002002404C4A00083C4A0008C8
:1026A000A612000800093D00B04A00080148006871
:1026B000704700BF900B002010B504004FF47A70F3
:1026C0000D490978B0FBF1F00C490968B1FBF0F055
:1026D00000F0A0F8002801D001200CE0102C09D255
:1026E000002221005FF0FF3000F07AF80448046017
:1026F000002000E0012010BDF401002008000020AF
:102700000400002010F007024D4B1B6819004FF623
:10271000FF0319404B4B53EA02231943484B1960FE
:10272000704747480068C0F302207047012110F04D
:102730001F029140444A40B2430942F823107047B7
:1027400010B440B2002808D50A01404B40B210F046
:102750000F04234403F8042C03E00A013C4B40B26D
:102760001A5410BC704770B4030013F00704D4F17E
:102770000706052E01D3042001E0D4F10700261D31
:10278000072E01D2002500E0E51E012616FA00F012
:10279000401E0840A8400121A940491E114008439D
:1027A00070BC704710B50400601EB0F1807F01D38B
:1027B00001200EE0601E274908600F215FF0FF3006
:1027C000FFF7BEFF00202449086007202349086066
:1027D000002010BD10B504002000FFF793FF10BDCE
:1027E000F8B504000D0016000027FFF79AFF070058
:1027F000320029003800FFF7B6FF0100200040B288
:10280000FFF79EFFF1BD10B50400200040B2FFF7B6
:102810008DFF10BD10B504002000FFF7C3FF10BDF1
:10282000042806D10D49096851F004010B4A1160D2
:1028300005E00A49096831F00401084A116070474F
:102840000CED00E00000FA0500E100E018ED00E00A
:1028500000E400E014E000E018E000E010E000E038
:1028600080B500F001F801BD70470000DFF8A41446
:1028700009684906FAD5C0B2DFF89C1408607047B1
:1028800080B5EF20FFF7F2FF0120FFF7EFFF01BD5A
:1028900080B5DFF888040068000EC0B2FFF7E6FFDD
:1028A000DFF878040068000CC0B2FFF7DFFFDFF844
:1028B0006C040068000AC0B2FFF7D8FFDFF85C04C0
:1028C0000068C0B2FFF7D2FF01BD10B504002000C0
:1028D000C0B2FFF7CBFF10BD10B504002012C0B28C
:1028E000FFF7C4FF2000C0B2FFF7C0FF10BD10B556
:1028F00004002000C0B2FFF7B9FF10BD10B50400FE
:10290000200080B2000AC0B2FFF7B0FF2000C0B2C2
:10291000FFF7ACFF10BD30B583B00400EF208DF899
:10292000000001208DF80100DFF8F0030068000EC0
:102930008DF80200DFF8E4030068000C8DF8030056
:10294000DFF8D8030068000A8DF80400DFF8CC0334
:1029500000688DF8050007208DF8060000208DF82E
:102960000700641EA4B2002C15D0012000F00CFA60
:10297000DFF8AC0300880004F3D50020DFF8A013D3
:1029800008806946DFF89C0300F012FA0500002D6C
:10299000E7D0280000E000203EBD70B5FFF770FFD3
:1029A000FFF776FF0120FFF790FF0320FFF794FF6A
:1029B0000120FFF79CFF05200400200080B2FFF7F4
:1029C0009DFF4FF4FA60FFF7A6FF0600002E02D02D
:1029D000707A050001E0FF2005002800C0B270BD3C
:1029E000F8B50400FFF74CFFFFF752FF0120FFF797
:1029F0006CFF0420FFF770FF0220FFF778FF200034
:102A0000C0B2FFF733FFE4B2E01D0500280080B23A
:102A1000FFF774FF4FF4FA60FFF77DFF0700002F08
:102A200002D0787A060001E0FF2006003000C0B234
:102A3000F2BD70B5FFF724FFFFF72AFF0120FFF773
:102A400044FF0320FFF748FF0320FFF750FF072054
:102A50000400200080B2FFF751FF4FF4FA60FFF747
:102A60005AFF0600002E02D0707A050001E0FF2018
:102A700005002800C0B270BD70B5FFF701FFFFF779
:102A800007FF0120FFF721FF0320FFF725FF0520A7
:102A9000FFF72DFF09200400200080B2FFF72EFF72
:102AA0004FF4FA60FFF737FF0600002E02D0707A6D
:102AB000050001E0FF2005002800C0B270BD2DE92F
:102AC000F04104008846FFF7DBFEFFF7E1FE01203E
:102AD000FFF7FBFE0620FFF7FFFE0620FFF707FFCC
:102AE0002000C0B2FFF7C2FE404680B2000AC0B26A
:102AF000FFF7BCFE4046C0B2FFF7B8FEE4B2404666
:102B000080B214EB10204146C9B208180D30050000
:102B1000280080B2FFF7F2FE4FF4FA60FFF7FBFEE9
:102B20000700002F02D0787A060001E0FF2006009F
:102B30003000C0B2BDE8F081F8B50400FFF7A0FE98
:102B4000FFF7A6FE0120FFF7C0FE0320FFF7C4FE3B
:102B50001D20FFF7CCFE21200500280080B2FFF7E2
:102B6000CDFE4FF4FA60FFF7D6FE0700002F07D026
:102B7000787A0600B87AF97A11EB0020208001E01B
:102B8000FF200600F6B2002E07D1B87AF97A11EBD1
:102B90000021664800F014F907E03000C0B200F0F0
:102BA00042F80100604800F00BF93000C0B2F2BDFD
:102BB00010B50400FFF764FEFFF76AFE0120FFF77F
:102BC00055FE0020FFF752FE0020FFF74FFEC82001
:102BD00000F0DAF852480088000422D55148007805
:102BE000EF281BD14F484078012817D14D488079F4
:102BF000072813D14B4880784A49C978090411EB5A
:102C000000604849097910EB0120464949790818C4
:102C10002060002042490880002003E00020404955
:102C20000880012010BD0100C9B20A00002A2AD084
:102C3000012A2BD0022A2CD0032A2DD0042A2ED0F0
:102C4000052A2FD0062A30D0072A31D0082A32D0C0
:102C5000092A33D00A2A34D00B2A35D0102A35D08D
:102C6000112A36D0152A37D0182A38D0192A39D047
:102C70001A2A3AD01B2A3BD01C2A3CD01F2A3DD00E
:102C8000202A3ED040E022A210003FE0284A100057
:102C90003CE0284A100039E0274A100036E0274A75
:102CA000100033E0264A100030E0264A10002DE0E4
:102CB000254A10002AE0254A100027E0244A100087
:102CC00024E0244A100021E0234A1000234A100087
:102CD0001CE0234A100019E0224A100016E0224AA4
:102CE000100013E0214A100010E0214A10000DE00E
:102CF000204A10000AE0204A100007E01F4A100096
:102D000004E01F4A100001E01E4A10007047000056
:102D10004F4B0000004800400448004000000020E5
:102D20009A0B0020F8070020A84A00085449000820
:102D3000CC490008684900087C4900085848000848
:102D40007848000898480008A84600086C4A00081F
:102D5000DC490008EC490008F0470008FC4900087D
:102D60000C4A0008144800081C4A0008784A000869
:102D70002C4A000890490008A4490008844A000829
:102D8000904A0008B849000870B50400FFF78EFCAF
:102D90000500260016F1010F02D0044800788619BC
:102DA000FFF784FC401BB042FAD370BDF401002051
:102DB00038B504000D002900200000F013F832BDE2
:102DC0000EB400B582B003A9009102466B46012102
:102DD000034878440A30FDF789F906BC5DF810FB1A
:102DE000511B000070B50C462578290006D170BD36
:102DF00011F8013F1678B34206D0401C2946FEF771
:102E000053FA28B10146224612F8013F002BEFD1B8
:102E100070BD000010B50400002C01D1012033E08A
:102E2000A0690028FFD194F83900002805D10020BE
:102E300084F83800200000F0C9F9242084F8390013
:102E40002068C06830F400502168C860200000F09D
:102E5000C8F82068006930F4904021680861206853
:102E6000406930F02A00216848612068C06850F449
:102E700000502168C8600020E063202084F83900F9
:102E8000202084F83A00002010BD2DE9F84304000A
:102E90000D0016001F005FF0000994F83A0020288A
:102EA00064D1002D02D0B6B2002E01D101205EE027
:102EB00094F83800012801D1022058E0012084F85C
:102EC00038000020E063222084F83A00FFF7EEFB90
:102ED0008146A685E685E08D00283FD0E08D401E26
:102EE000E085A068B0F5805F1ED100974B460022B8
:102EF0002021200000F03DF8002801D0032036E01A
:102F0000A8462069002807D120684068C005C00D88
:102F1000A8F80000AD1CDEE72068406800F0FF0064
:102F2000A8F800006D1CD6E700974B460022202130
:102F3000200000F01EF8002801D0032017E02069CF
:102F4000002804D12068406828706D1CC3E7206801
:102F5000406810F07F0028706D1CBCE7202084F8CA
:102F60003A00002084F83800002000E00220BDE88C
:102F7000F2832DE9F04104000D0016001F00DDF87A
:102F80001880206800682840A84201D1012000E094
:102F90000020F6B2B04221D118F1010FF1D0B8F102
:102FA000000F04D0FFF782FBC01B8045E9D22068E8
:102FB000C06830F4D0702168C8602068406940085B
:102FC000400021684861202084F83900202084F8DE
:102FD0003A00002084F83800032000E00020BDE81B
:102FE000F0812DE9F843040000252068006930F4E1
:102FF0004050E168084321680861A06821690843DE
:103000006169084305432068C0685C49084028435B
:103010002168C8602068406930F44070A1690843A5
:103020002168486120685649884252D1FFF7FDFA6D
:103030008146FFF7FAFA8046FFF7F7FA0700FFF735
:10304000F4FA0600FFF7F1FA192101FB09F16268B1
:103050009200B1FBF2F16422B1FBF2F1192202FB02
:1030600008F263689B00B2FBF3F2192303FB07F33A
:103070006768BF00B3FBF7F36427B3FBF7F364277C
:1030800007FB1322120132326423B2FBF3F212F077
:10309000F00212EB0111192202FB06F263689B0099
:1030A000B2FBF3F21923584363689B00B0FBF3F0C3
:1030B0006423B0FBF3F0642303FB102000013230E3
:1030C0006422B0FBF2F010F00F0040182168886015
:1030D00051E0FFF79FFA8146FFF79CFA8046FFF721
:1030E00099FA0700FFF796FA0600FFF793FA1921FD
:1030F00001FB09F162689200B1FBF2F16422B1FBBD
:10310000F2F1192202FB08F263689B00B2FBF3F2B2
:10311000192303FB07F36768BF00B3FBF7F36427CA
:10312000B3FBF7F3642707FB132212013232642347
:10313000B2FBF3F212F0F00212EB0111192202FBC2
:1031400006F263689B00B2FBF3F2192358436368ED
:103150009B00B0FBF3F06423B0FBF3F0642303FBAC
:103160001020000132306422B0FBF2F010F00F00AA
:10317000401821688860BDE8F1830000F3E9FFFF93
:103180000038014080B54848484908604FF4614024
:103190004649486000204549886000204349C8608E
:1031A0000020424908610C204049486100203F4905
:1031B000886100203D49C8613C48FFF72BFE00288C
:1031C00003D04A213A4800F08DF901BD10B586B010
:1031D000040020683449884229D13648006850F4F8
:1031E0008020344908603348006810F48020009043
:1031F00000984FF480600190022002900320049018
:1032000001A92D4800F070F94FF4006001900020F2
:1032100002900020039001A9274800F065F90022E0
:1032200000212720FFF7DCFA2720FFF7ECFA06B091
:1032300010BD80B51D4800680068800631D54FF488
:103240007A73012269461948FFF71FFE1B48008860
:10325000000426D419480088B0F5C87F1BDA002086
:1032600017490968486215480088002807D11448A2
:103270000068006850F001001149096808609DF875
:10328000000010490D4A128888540C480088401CE0
:103290000A49088005E00948008850F400400749C1
:1032A000088001BD00000000004800403C0B0020E9
:1032B0009C4700081C100240000C01409A0B0020A3
:1032C000FC0A0020F8070020704780B500F094FA4F
:1032D00000F01FF800F0A4FA00F00AFBFFF752FF1D
:1032E00000F058FB7A480068C06850F02000784928
:1032F0000968C8607748FFF75BFC002803D06420AA
:10330000FFF742FDF6E700F048F870A0FFF758FD20
:10331000F9E700B58FB0012005905FF4803006908A
:10332000002007900120099002200C905FF480306B
:103330000D905FF4E0100E9005A8FEF73FFE002808
:1033400003D0C821644800F0CDF80F20009002207F
:103350000190002002904FF48060039000200490C0
:1033600002216846FFF755F8002803D0D6215A48B5
:1033700000F0B8F8FFF74BF94FF47A71B0FBF1F0B9
:10338000FFF748FA0420FFF74BFA002200215FF014
:10339000FF30FFF725FA0FB000BDF8B50025EDB2FC
:1033A000002D06D0022D3ED020D3042D65D050D361
:1033B00082E07F1CFFF7F1FA0400E4B2002C10D188
:1033C0000120FFF70DFB0400E4B2002C04D1002023
:1033D00007000120050008E02000C0B2FFF774FFDD
:1033E00003E02000C0B2FFF76FFF65E07F1CFFF72E
:1033F000D4FA0400E4B2002C10D10220FFF7F0FA56
:103400000400E4B2002C04D10020070002200500D3
:1034100008E02000C0B2FFF757FF03E02000C0B271
:10342000FFF752FF48E0FFF704FB0400E4B2002C72
:1034300002D10320050007E02000C0B2FFF744FFDF
:1034400000200700002005004FF49660FFF79CFC69
:1034500032E0FFF711FB0400E4B2002C02D104209B
:10346000050005E0002005002000C0B2FFF72CFF9A
:103470004FF49660FFF788FC1EE00A20060030003B
:103480001649098880B28842F7D2310089B20220F9
:10349000FFF715FB0400E4B2002C07D11048FFF73A
:1034A0004BFB40F2DC50FFF76FFC0DE00020050005
:1034B0002000C0B2FFF708FF4FF4C870FFF764FCAC
:1034C000FFB2052F7FF46BAFF1BD000031000000AB
:1034D0003C0B002000000020444700087C0B00202B
:1034E000980B0020FEE700002DE9F841002300249E
:1034F000002500265FF0000E5FF0000C6246102AE7
:1035000080F04D815FF0010C1CFA02FC6346D1F89B
:1035100000C013EA0C0C64469C4240F03E81D1F896
:1035200004C0BCF1000F3DD0BCF1010F24D0BCF1B0
:10353000020F2BD0BCF1030F4CD0BCF1110F1FD0E8
:10354000BCF1120F28D0DFF87082C4452AD0DFF812
:103550006C82C44526D0DFF86882C44522D0DFF8EB
:103560006482C4451ED0DFF86082C4451AD0DFF8FB
:103570005C82C44516D031E0D1F80CC066462DE01F
:10358000D1F80CC01CF1040C664627E0D1F80CC041
:103590001CF1080C664621E0D1F80CC01CF10C0CA3
:1035A00066461BE0D1F808C0BCF1000F03D15FF004
:1035B000040C66460DE0D1F808C0BCF1010F04D13F
:1035C0005FF0080C6646036103E05FF0080C664696
:1035D000436103E05FF0000C6646FFE7FF2C01D873
:1035E000070000E0071DFF2C02D85FEA820E03E00F
:1035F000B2F1080C5FEA8C0ED7F800C05FF00F083C
:1036000018FA0EF83CEA080C16FA0EF858EA0C0CF8
:10361000C7F800C0D1F804C05FEACC0C40F1BD800F
:10362000DFF8ACC1DCF800C05CF0010CDFF8A08171
:10363000C8F800C0DFF898C1DCF800C01CF0010831
:10364000CDF80080DDF800C0DFF888C15FEA92089D
:103650005CF828C065465FF00F0C12F003085FFAB3
:1036600088F85FEA88081CFA08FC35EA0C05DFF8E0
:1036700068C1604502D15FF0000C16E0DFF85CC164
:10368000604502D15FF0010C0FE0DFF854C16045E6
:1036900002D15FF0020C08E0DFF848C1604502D1BA
:1036A0005FF0030C01E05FF0040C12F003085FFA16
:1036B00088F85FEA88081CFA08FC5CEA0505DFF870
:1036C00014C15FEA92084CF82850D1F804C05FEAB0
:1036D000CC3C0AD5DFF810C1DCF800C054EA0C0C71
:1036E000DFF80481C8F800C009E0DFF8FCC0DCF8AE
:1036F00000C03CEA040CDFF8F080C8F800C0D1F844
:1037000004C05FEA8C3C0AD5DFF8E0C0DCF800C0FA
:1037100054EA0C0CDFF8D480C8F800C009E0DFF8E8
:10372000CCC0DCF800C03CEA040CDFF8C080C8F86C
:1037300000C0D1F804C05FEACC2C0AD5DFF8B0C0D5
:10374000DCF800C054EA0C0CDFF8A480C8F800C014
:1037500009E0DFF89CC0DCF800C03CEA040CDFF8AC
:103760009080C8F800C0D1F804C05FEA8C2C0AD55C
:10377000DFF880C0DCF800C054EA0C0CDFF874807D
:10378000C8F800C009E0DFF86CC0DCF800C03CEA13
:10379000040CDFF86080C8F800C0521CAFE6BDE83A
:1037A000F181D2B2002A02D089B2016102E089B26D
:1037B0000B0403617047000000001110000012109C
:1037C0000000211000002210000031100000321013
:1037D000181002400800014000080140000C0140A0
:1037E00000100140001401400004014004040140A5
:1037F000080401400C04014080B50848006850F0FE
:103800001000064908600320FEF7E4FF0020FEF7E1
:1038100053FF00F04DF9002002BD000000200240DF
:1038200000B585B02F48006850F020002D49086091
:103830002C48006810F0200000900098294800688B
:1038400050F00400274908602648006810F0040082
:10385000009000982348006850F008002149086053
:103860002048006810F0080000900098002248F6F8
:1038700002711D48FFF795FF012210211B48FFF739
:1038800090FF48F602700190012002900020039002
:103890000220049001A91448FFF726FE022001909F
:1038A000002002900220039001A91048FFF71CFE9F
:1038B0004FF470400190002002900120039001A974
:1038C0000A48FFF711FE102001900120029000200D
:1038D00003900220049001A90448FFF705FE05B0FB
:1038E00000BD00BF1810024000080140000C01405C
:1038F00080B52248224908602248214948600020BA
:103900001F49886000201E49C8604FF480401C4950
:10391000086100201A494861002019498861002087
:103920001749C861002016490862154800F016F9C9
:10393000002803D042211448FFF7D4FD01BD10B583
:1039400086B0040020680D49884215D1C02001903E
:10395000122002900320049001A90C48FFF7C4FD37
:103960000B48006850F400100949086008480068D6
:1039700010F400100090009806B010BD00540040F4
:10398000080A0020A086010018470008000C01402A
:103990001C10024000B587B04048414908604720EC
:1039A0003F49486000203E49886040F2E7303C498A
:1039B000C86000203A4908610020394988613848C8
:1039C00000F098F9002803D03F213648FFF78AFD20
:1039D0004FF48050029002A9314800F0A7F9002866
:1039E00003D045212F48FFF77DFD002000900020E7
:1039F000019069462A4800F0A9FA002803D04C211A
:103A00002848FFF76FFD07B000BD10B582B0040075
:103A100020682249884213D12348006850F00200F0
:103A2000214908602048006810F0020000900098CA
:103A3000002200211D20FEF7D3FE1D20FEF7E3FE2D
:103A400013BD174800680069C00725D514480068F1
:103A5000C068C00720D57FF00100114909680861DE
:103A60001248008850F40040104908800C48006853
:103A7000006A41F2111108420ED109480068006A3B
:103A800040F24441084207D10548006800684008F8
:103A900040000349096808607047000000040040C6
:103AA000FC0A0020704700081C1002409A0B0020FE
:103AB00080B52748006850F0010025490860244877
:103AC000006810F00100009000982248006850F053
:103AD0008050204908601F48006810F08050009016
:103AE00000980320FEF776FE002200217FF00B00F5
:103AF000FEF776FE002200217FF00A00FEF770FE3E
:103B0000002200217FF00900FEF76AFE002200215A
:103B10007FF00400FEF764FE002200217FF0030026
:103B2000FEF75EFE002200217FF00100FEF758FE46
:103B3000002200215FF0FF30FEF752FE06490968BF
:103B4000080030F0E06050F000700349086001BDEB
:103B5000181002401C1002400400014070B504001F
:103B600000250026002C01D10120BAE094F83D0088
:103B7000002805D1002084F83C002000FFF7DFFE7C
:103B8000242084F83D002068006840084000216837
:103B90000860FEF73FFD06006068DFF848118842C4
:103BA00008D2DFF84401864201D2012000E0002063
:103BB000C0B207E0DFF83401864201D2012000E004
:103BC0000020C0B2012801D101208AE0DFF82001E5
:103BD000B6FBF0F00500206845606068DFF804116E
:103BE000884201D2681C08E04FF4967000FB05F093
:103BF0004FF47A71B0FBF1F0401C216808626068F4
:103C0000DFF8E010884214D2701E61684900B0FBF2
:103C1000F1F0401C0005000D042801D204203EE014
:103C2000701E61684900B0FBF1F0401C0005000DFA
:103C300035E0A068002809D1701E61680322514355
:103C4000B0FBF1F0401C0005000D0AE0701E616839
:103C500019225143B0FBF1F0401C0005000D50F457
:103C60008040000501D1012019E0A068002809D199
:103C7000701E616803225143B0FBF1F0401C000547
:103C8000000D0AE0701E616819225143B0FBF1F08B
:103C9000401C0005000D50F4804050F400402168A5
:103CA000C861E069216A0843216808602069E16809
:103CB0000843216888606069A16908432168C86079
:103CC0002068006850F0010021680860002020642E
:103CD000202084F83D0000202063002084F83E006E
:103CE000002070BDA186010080841E0000093D00F7
:103CF00040420F0010B50400002C01D1012014E057
:103D000094F83D00002805D1002084F83C002000F4
:103D1000FFF77BFE022084F83D00211D206800F0A3
:103D200094F8012084F83D00002010BD70B5040017
:103D30000D00002694F83C00012801D1022083E008
:103D4000012084F83C00022084F83D00206880684F
:103D5000060036F0770636F47F46206886602868CD
:103D6000002856D0102859D020285CD030285FD0A9
:103D7000402844D050282ED0602836D070280DD04E
:103D8000B0F5805F03D0B0F5005F17D055E0206834
:103D90008068C008C000216888604EE0EB686A68EF
:103DA000A968206800F0C4F820688068060036F032
:103DB000770656F07706206886603EE0EB686A6812
:103DC000A968206800F0B4F82068806850F480404A
:103DD0002168886031E0EA686968206800F070F85E
:103DE0005021206800F099F827E0EA6869682068A7
:103DF00000F07CF86021206800F08FF81DE0EA6890
:103E00006968206800F05CF84021206800F085F8BF
:103E100013E00021206800F080F80EE010212068F7
:103E200000F07BF809E02021206800F076F804E03B
:103E30003021206800F071F8FFE7012084F83D0090
:103E4000002084F83C00002070BD002203681A00A6
:103E5000184B984208D0B0F1804F05D0164B9842CD
:103E600002D0164B984203D132F070024B681A43CD
:103E7000104B984208D0B0F1804F05D00E4B9842BD
:103E800002D00E4B984203D132F44072CB681A43F1
:103E900032F080024B691A4302608B68C3620B6880
:103EA0008362044B984201D10B6903630123436190
:103EB00070470000002C0140000400400008004052
:103EC00030B400230024056A2C00056A6D086D00DB
:103ED000056285692B0033F0F00353EA021334F0D6
:103EE0000A040C438361046230BC704730B4002381
:103EF0000024056A35F01005056285692B00056A06
:103F00002C0033F4704353EA023334F0A00454EA33
:103F100001148361046230BC7047002283681A0078
:103F200032F0700289B251F007031A438260704781
:103F300030B4002485682C0034F47F4452EA010533
:103F400055EA03252C43846030BC7047020092F888
:103F50003C00012801D1022024E0012082F83C002D
:103F6000022082F83D001068406830F0700013684D
:103F70005860106840680B681843136858601068F0
:103F8000806830F0800013689860106880684B6823
:103F9000184313689860012082F83D00002082F8E1
:103FA0003C000020704700002DE9F04104460D461A
:103FB00020780321084216461F4632D0204600F0E2
:103FC0009AF870BB15B1D5E900018619012F30D1DF
:103FD0002088C00416D5A16904F13D02204600F0F6
:103FE000A7F8626A804602B92269E168204600F0BB
:103FF0009FF8A6EB08010E1AA26AE168204600F0BD
:1040000097F8361A1EB94FB916F1010F09D094F975
:1040100003003A46314600F091F8064616F1010FCA
:104020000AD100F0B1F8232101604FF0FF30BDE864
:10403000F081022FE7D1EAE720884FF4405108428F
:104040000ED06068E0602061A06260616068E0623C
:1040500004F13D00A06104F12400E06100206062F1
:104060002DB1D5E9020104F13002C2E90001208836
:104070004CF6FF61084020800020BDE8F081000080
:1040800038B500F087F80446208880042ED565688E
:1040900009E04A1B294600F07FF810F1010F18BF14
:1040A00000280CD00544E16894F903008D42F0D358
:1040B0000022002100F070F810F1010F0DD16068AE
:1040C000E0606061E062208840F40070208020465B
:1040D00000F061F84FF0FF3032BD6568E560656162
:1040E000E5624DF6FF71208808402080204600F0F0
:1040F00052F8002032BDF8B5A0B9AFF3008000241B
:104100000A4D08264FF0FF37286820B1FFF7B8FFA7
:10411000002848BF3C462D1D761EF5D1AFF3008028
:104120002046F2BDBDE8F240AAE70000CC00002026
:10413000914201D2501A70470020704730B583B0C9
:1041400004000D00012A02D100F073F807E0022AF2
:1041500007D100940020019069460C20ABBE2D18B9
:1041600001E0002A0CD10094019569460A20ABBEFB
:10417000002805D100222100280000F037F801E0D6
:104180000020C04303B030BD0148FDF715BF00005B
:10419000F00100207047704780B5002802D400F07D
:1041A00069F802BD002002BD10B4314A0021134657
:1041B0001C68844205D1002342F8313002EBC10172
:1041C00011E09C68491C84421EBF491C1C69844242
:1041D0001EBF491C9C698442EDD0491C2033102924
:1041E000E6D310BC70474B6010BC704770B4204CD5
:1041F000002325462E688E4209D1014604EBC303F5
:10420000012A04BF5A685118596070BC7047AE68E3
:104210005B1C8E421EBF5B1C2E698E421EBF5B1C48
:10422000AE698E42E9D05B1C2035102BE2D370BC06
:10423000704710B40E4A002113461C68844204D112
:1042400002EBC100406810BC70479C68491C844266
:104250001EBF491C1C6984421EBF491C9C698442C4
:10426000EED0491C20331029E7D310BC0020704742
:104270008809002080B5002901D1002002BD012855
:1042800001D0022802D100F004F802BD00F011F8BC
:1042900002BD30B583B00C001500012000F032F8EB
:1042A00000900194029569460520ABBE281A03B020
:1042B00030BD10B584B00300140000930191029446
:1042C00069460520ABBE01221900201AFFF78EFFB8
:1042D00004B010BD80B500F033F802000023DB43CA
:1042E0001068984204D011000220ABBE002010607C
:1042F0005068984204D0111D0220ABBE00205060CF
:1043000001BD000010B584B0040000F019F8A10050
:10431000421810680021C94388420DD107A00090BF
:10432000002C01D1002000E0042001900320029025
:1043300069460120ABBE106004B010BD3A74740031
:1043400000487047EC00002010B50446E068616941
:10435000884253D3218849F202020A40022A08D037
:1043600008044CBF4FF400704FF484400843208091
:104370003DE001F4C041B1F5C04F06D1A1688842CB
:1043800003D32046FFF7B7FE88BB20884FF4406177
:10439000084202BF606804F13D01884218D14FF421
:1043A0000070FCF7DBFF606030B904F13D00606035
:1043B000E060401CA0600BE0218841F040012180BA
:1043C000E060A0624FF4007101446068A160E062A7
:1043D00060682061A0686061207840070AD50222E9
:1043E0000021204600F00CF810F1010F02D14FF02F
:1043F000FF3010BD208840F4C0402080002010BD58
:1044000070B50C461546FFF7C5FE06462B462246FC
:104410000021FFF7C9FD04463046FFF7BCFE2046E9
:1044200070BD00000178090626D51D4A13680021D9
:10443000834203D1002342F821301BE0536801215D
:1044400083421EBF022193688342F3D0D3680321C5
:1044500083421EBF042113698342EBD053690521B7
:1044600083421EBF0621936983421EBF0721D36981
:104470008342DFD0FDF714B8002101804FF0FF31F7
:10448000C17000F13D014160C16001618162416123
:10449000C162816100F12401C16170470000000028
:1044A000CC00002038B5044603212078084202D011
:1044B0006056002809D5AFF300802046FFF7B2FF11
:1044C000AFF300804FF0FF3527E02046FFF713FEE3
:1044D0000546AFF300802078400644BF6068FCF7D3
:1044E000DFFF0020606094F90300022804D900F087
:1044F00016F808B14FF0FF35A06B48B100F01CF87A
:1045000008B14FF0FF35A06BFCF7CAFF0020A06395
:104510002046FFF787FFAFF30080284632BD10B575
:1045200082B00200009269460220ABBE0400100077
:10453000FFF73AFE200016BD00B583B00090FCF7EF
:10454000BFFE019069460E20ABBE03B000BD000067
:104550001348006850F001001149086011480068D4
:10456000114908400F4908600D4800680F4908408C
:104570000B4908600A48006830F480200849086048
:104580000848006830F4FE00064908605FF41F0028
:10459000074908605FF00060064908607047000046
:1045A00000100240041002400000FFF8FFFFF6FE7A
:1045B0000810024008ED00E010B5144C206808B166
:1045C000FFF770FF606808B1FFF76CFFA06808B1E3
:1045D000FFF768FFE06808B1FFF764FF206908B1E2
:1045E000FFF760FF606908B1FFF75CFFA06908B1E1
:1045F000FFF758FFE06908B1FFF754FFBDE810402E
:10460000002200214FF0FF30FFF7C6BDCC00002094
:1046100038B505460846FFF7BDFD0446E068616908
:10462000884204D32046FFF78FFE002810D4E068AC
:10463000401CE06000F8015D2088010504D44005BD
:104640000CD5EDB20A2D09D12046FFF754FD28B153
:104650002046FFF7A0FD4FF0FF3032BD2046FFF7A8
:104660009AFDE8B232BD19E050F8041BCB0744BFF5
:10467000A9F101035918121F0023042A41F8043B31
:10468000F9D25FEA827C0B4604D54FF0000CA1F80A
:1046900000C09B1CD10744BF0021197050F8042BA7
:1046A000002AE1D170470000D6B8CEC6CDBCCFF10C
:1046B000D5FDB3A3A3ACB5ABCCD8D5F7B5E3CCABA4
:1046C000C9D9A3A8BBF2C3E6BBFDCCABD0A1A3A9BB
:1046D000B6F8C9FAB2BBB3C9CCD8D5F70000000010
:1046E00030B5016842688468014401EB5203D20787
:1046F00048BF4C44994201D10C3030BD11F9012B17
:1047000011F8015B002A04F8015B02D5521CF9D1B3
:10471000F0E7521EF4D5EDE7433A5C5573657273CA
:104720005C746573745C4465736B746F705C313179
:104730005C7A686977656E5C5372635C6932632E7C
:1047400063000000433A5C55736572735C74657373
:10475000745C4465736B746F705C31315C7A68694A
:1047600077656E5C5372635C6D61696E2E630000E9
:10477000433A5C55736572735C746573745C44652D
:10478000736B746F705C31315C7A686977656E5CED
:104790005372635C74696D2E63000000433A5C558C
:1047A000736572735C746573745C4465736B746F6A
:1047B000705C31315C7A686977656E5C5372635CFA
:1047C00075736172742E630010B50749794418310E
:1047D000064C7C44163404E00A68081D11448847DE
:1047E0000146A142F8D110BD500000006C0000004D
:1047F000B7C3CECAD6B8CEC6BFE2CAB1B5D8D6B74F
:10480000D0F2BAC5B3ACB3F6D6B8CEC6BFE2B7B62F
:10481000CEA70000BBBAB3E5C7F8C4DAC3BBD3D098
:10482000D3D0D0A7D4ADCABCCDBCB6F8C9FAB2BB00
:10483000B3C9CDBCCFF100002FFEFFFFA4030000E1
:10484000F80700200000000099FEFFFF10030000A1
:104850002201000000000020D6B8CEC6CDBCCFF1AA
:10486000CCABB8C9A1A2CCABB5ADB6F8C9FAB2BB56
:10487000B3C9CCD8D5F70000D6B8CEC6CDBCCFF1E1
:10488000CCABCAAAA1A2CCABBAFDB6F8C9FAB2BBEE
:10489000B3C9CCD8D5F70000D6B8CEC6CDBCCFF1C1
:1048A000CCABC2D2B6F8C9FAB2BBB3C9CCD8D5F733
:1048B000000000007047FEE7FEE7FEE7FEE77047F6
:1048C0007047704780B500F003F8FDF7C9FF01BDE0
:1048D00003480068034909780818014908607047CF
:1048E000900B0020F401002000F00BF8002801D00C
:1048F000FFF76AFF0020AFF30080FEF7E6FC00F050
:1049000002F80120704700F001B800000746FFF7E9
:1049100053FE384600F002F8FBE7000080B5FFF7D1
:10492000D9FC024A11001820ABBEFBE726000200AA
:1049300038B504460D46284600F006F8A84218BFD0
:104940000024204632BD00000149FFF761BE00BFD0
:104950004C0000200D0AD3D0D0A7D6B8CEC6B8F6EA
:10496000CAFD3D2564000000B4ABB8D0C6F7C9CF7E
:10497000C3BBD3D0CAD6D6B800000000C2BCC8EBB7
:10498000D6B8CEC6CDBCCFF1CAA7B0DC00000000BF
:10499000BCC4B4E6C6F7C9E8B6A8C4DAC8DDB4ED4D
:1049A000CEF30000BCC7CAC2B1BED2B3C2EBD6B808
:1049B000B6A8B4EDCEF30000C4A3BFE9B7B5BBD829
:1049C000C8B7C8CFC2EBD3D0CEF30000CAFDBEDD5E
:1049D000B0FCBDD3CAD5B4EDCEF30000C3BBCBD180
:1049E000CBF7B5BDD6B8CEC600000000CCD8D5F701
:1049F000BACFB2A2CAA7B0DC00000000C9BEB3FDA6
:104A0000C4A3B0E5CAA7B0DC00000000C7E5BFD56D
:104A1000D6B8CEC6BFE2CAA7B0DC0000B6C1D0B4DB
:104A200020464C41534820B3F6B4ED00CEDED0A76B
:104A3000BCC4B4E6C6F7BAC5000000000203040512
:104A4000060708090A0B0C0D0E0F101000000000DD
:104A5000000000000102030406070809014880471E
:104A600001480047514500089D4A0008D6B8CEC607
:104A7000B2BBC6A5C5E40000CEB4B6A8D2E5B4ED7D
:104A8000CEF30000D6B8CEC6BFE2C2FA00000000E6
:104A9000B5D8D6B7B4EDCEF300000000AFF3008078
:104AA000AFF30080FFF720FF0D0A25730000000020
:104AB0000000000001020304FFF7FEBFFFF7FEBF86
:104AC000FFF7FEBFFFF7FEBFFFF7FEBFFFF7FEBF1A
:104AD000FFF7FEBFFFF7FEBFFFF7FEBFFFF7FEBF0A
:104AE000FFF7FEBFFFF7FEBFFFF7FEBFFFF7FEBFFA
:104AF000FFF7FEBFFFF7FEBFFFF7FEBFFFF7FEBFEA
:104B0000FFF7FEBFFFF7FEBFFFF7FEBFFFF7FEBFD9
:104B1000FFF7FEBFFFF7FEBFFFF7FEBFFFF7FEBFC9
:104B2000FFF7FEBFFFF7FEBFFFF7FEBFFFF7FEBFB9
:104B3000FFF7FEBFFFF7FEBFFFF7FEBFFFF7FEBFA9
:104B4000FFF7FEBFFFF7FEBFFFF7FEBFFFF7FEBF99
:104B5000FFF7FEBFFFF7FEBFFFF7FEBFFCFF001031
:104B6000FC0022A24A0401040000490000204A007F
:104B70000020490000204900002049000020490091
:104B8000002030000020E0001F02040101AC0A00F8
:104B900020FC0A0020AC0A0020AC0A0020AC0A006D
:104BA000208900002070000020E0001F020802029F
:104BB0005C0A0020AC0A00205C0A00205C0A00208D
:104BC0005C0A0020C9000020B0000020E0000B0CAF
:104BD0000000204C0000208C000020EC00F8FFE4D6
:0D4BE00000F8FFDC00FAFF8100CD000001AD
:0400000508004A9D08
:00000001FF
