:020000040800F2
:10000000100400209D280008E5270008E7270008C5
:10001000E9270008EB270008ED2700080000000092
:10002000000000000000000000000000EF270008B2
:10003000F127000800000000F3270008F52700085A
:10004000392900083D2900084129000845290008F0
:10005000492900084D2900085129000855290008A0
:10006000592900085D290008612900086529000850
:10007000692900086D290008712900087529000800
:10008000792900087D2900088129000885290008B0
:10009000892900088D290008912900089529000860
:1000A000992900089D290008A1290008A529000810
:1000B000A9290008AD290008B1290008B5290008C0
:1000C000B9290008BD290008C1290008C529000870
:1000D000C9290008CD290008D1290008D529000820
:1000E000D9290008DD290008E129000870B582B08F
:1000F000040000252078C00740F18480DFF89C06CA
:10010000006810F00C0004280BD0DFF8900600689F
:1001100010F00C0008280ED1DFF880060068C0033C
:1001200009D5DFF87406006880036BD56068002885
:1001300068D1012004E26068B0F5803F08D1DFF8A3
:100140005806006850F48030DFF84C16086038E03C
:100150006068002810D1DFF84006006830F4803075
:10016000DFF834160860DFF83006006830F48020CD
:10017000DFF82416086024E06068B0F5A02F10D1E5
:10018000DFF81406006850F48020DFF80C160860D1
:10019000DFF80406006850F48030DFF8FC150860D2
:1001A0000FE0DFF8F405006830F48030DFF8E81580
:1001B0000860DFF8E405006830F48020DFF8D81527
:1001C0000860606800280ED000F008FB0500DFF82A
:1001D000C8050068800315D400F000FB401B6528AB
:1001E000F5D30320ACE100F0F9FA0500DFF8A8052B
:1001F0000068800306D500F0F1FA401B6528F5D3AE
:1002000003209DE1207880075CD5DFF89005006829
:1002100010F00C0F0BD0DFF88405006810F00C0014
:1002200008281AD1DFF874050068C00315D4DFF878
:1002300068050068800704D52069012801D00120E5
:100240007EE1DFF85405006830F0F800616950EA9B
:10025000C100DFF84415086034E0206900281ED092
:100260000120DFF84815086000F0B8FA0500DFF853
:1002700028050068800706D400F0B0FA401B032868
:10028000F5D303205CE1DFF81005006830F0F800DA
:10029000616950EAC100DFF80015086012E0002033
:1002A000DFF80815086000F099FA0500DFF8E804A7
:1002B0000068800706D500F091FA401B0328F5D3AB
:1002C00003203DE1207800072CD5A069002816D036
:1002D0000120DFF8DC14086000F080FA0500DFF888
:1002E000C8040068800706D400F078FA401B032891
:1002F000F5D3032024E1012000F03AFA12E00020B7
:10030000DFF8AC14086000F069FA0500DFF8980423
:100310000068800706D500F061FA401B0328F5D37A
:1003200003200DE12078400740F1A7800026DFF888
:1003300084040068C00010D4DFF87804006850F02E
:100340008050DFF870140860DFF86804006810F06F
:1003500080500090009801200600DFF85C040068DF
:10036000C00516D4DFF85004006850F48070DFF840
:100370004814086000F032FA0500DFF83C04006819
:10038000C00506D400F02AFA401B6528F5D30320E7
:10039000D6E0E068012808D1DFF82004006850F0BA
:1003A0000100DFF81814086037E0E068002810D179
:1003B000DFF80804006840084000DFF80014086017
:1003C000DFF8F803006830F00400DFF8F01308608D
:1003D00023E0E068052810D1DFF8E003006850F062
:1003E0000400DFF8D8130860DFF8D003006850F08D
:1003F0000100DFF8C81308600FE0DFF8C0030068F1
:1004000040084000DFF8B4130860DFF8B00300686C
:1004100030F00400DFF8A4130860E068002810D072
:1004200000F0DCF90500DFF894030068800719D4B8
:1004300000F0D4F9401B41F289318842F3D3032004
:100440007EE000F0CBF90500DFF87003006880075C
:1004500008D500F0C3F9401B41F289318842F3D33B
:1004600003206DE0F6B2012E07D1DFF848030068E3
:1004700030F08050DFF83C130860E06900285ED05F
:10048000DFF81803006810F00C00082855D0E06968
:1004900002283FD10020DFF82813086000F09EF901
:1004A0000500DFF8F4020068800106D500F096F937
:1004B000401B0328F5D3032042E0206AB0F5803FBB
:1004C00009D1DFF8D802006830F40030A168084391
:1004D000DFF8C8120860DFF8C402006830F4741056
:1004E000216A0843616A0843DFF8B01208600120FE
:1004F000DFF8CC12086000F071F90500DFF898020F
:10050000006880011BD400F069F9401B0328F5D373
:10051000032015E00020DFF8A812086000F05EF963
:100520000500DFF874020068800108D500F056F974
:10053000401B0328F5D3032002E0012000E0002047
:1005400076BD70B504000D000026DFF87802006863
:1005500010F00700A84211D2DFF868020068C00856
:10056000C0002843DFF85C120860DFF8580200681A
:1005700010F00700A84201D00120A3E020788007F6
:1005800009D5DFF81802006830F0F000A1680843D0
:10059000DFF8081208602078C00758D56068012885
:1005A00006D1DFF8F4010068800312D4012089E04D
:1005B0006068022806D1DFF8E0010068800108D4F5
:1005C00001207FE0DFF8D0010068800701D401201E
:1005D00078E0DFF8C801006880088000616808439F
:1005E0006E49086000F0FAF80600606801280ED134
:1005F0006A48006810F00C00042828D000F0EEF8DB
:10060000801B41F289318842F2D303205AE06068AE
:1006100002280ED16148006810F00C00082816D09E
:1006200000F0DCF8801B41F289318842F2D30320CC
:1006300048E05A48006810F00C0F08D000F0CEF8DF
:10064000801B41F289318842F3D303203AE05D48B0
:10065000006810F0070085420ED25A480068C008B2
:10066000C0002843574908605648006810F007004A
:10067000A84201D0012025E02078400707D547484F
:10068000006830F4E060E16808434449086020787D
:10069000000708D54148006830F46050216950EAED
:1006A000C1003E49086000F00EF847493B4A126815
:1006B000C2F30312895CC8403A490860002000F088
:1006C00093F8002070BD70B586B001A83F49102294
:1006D00000F0B0F83E480088ADF80000002100228C
:1006E0000023002400202D4D2D68290011F00C0559
:1006F000042D02D0082D03D01DE0294D28001CE058
:1007000001ADC1F38346AD5D2C00CD030DD56D4623
:10071000224E3668C6F34046AD5D2A00204D05FBEB
:1007200004F5B5FBF2F52B0003E02A4D05FB04F5BB
:100730002B00180001E01A4D280006B070BD1948C2
:100740000068704780B5FFF7FAFF2349134A126823
:10075000C2F30222895CC84002BD80B5FFF7EFFFFB
:100760001D490E4A1268C2F3C222895CC84002BD0C
:1007700081B00C490968C9084FF47A72B1FBF2F1F3
:1007800001FB00F1009100BF00994A1E0092002970
:10079000F9D101B07047000000100240041002407F
:1007A00000127A000400002024100240000042429F
:1007B000800442421C1002400070004020100240A1
:1007C00060004242002002408C2800086C2800088B
:1007D0008A08000800093D00302900080148006827
:1007E000704700BF8004002010B504004FF47A70F9
:1007F0000D490978B0FBF1F00C490968B1FBF0F044
:1008000000F0BBF8002801D001200CE0102C09D228
:10081000002221005FF0FF3000F09CF804480460E3
:10082000002000E0012010BD08000020040000208E
:1008300000000020103A07D330B4B1E83810103A65
:10084000A0E83810F9D230BC530724BFB1E8081033
:10085000A0E8081044BF51F8043B40F8043BD2071D
:1008600024BF31F8022B20F8022B44BF0B78037011
:100870007047083A07D3B1E80810083A40F8043B3B
:1008800040F804CBF7D25307E4E7010210F0070267
:10089000454B1B6819004FF6FF031940434B53EAC1
:1008A00002231943404B196070473F480068C0F36A
:1008B0000220704710B440B2002808D50A013C4B12
:1008C00040B210F00F04234403F8042C03E00A01A3
:1008D000384B40B21A5410BC704770B4030013F088
:1008E0000704D4F10706052E01D3042001E0D4F15A
:1008F0000700261D072E01D2002500E0E51E012677
:1009000016FA00F0401E0840A8400121A940491EE7
:100910001140084370BC704710B50400601EB0F170
:10092000807F01D301200EE0601E234908600F2163
:100930005FF0FF30FFF7BEFF00202049086007206E
:100940001F490860002010BD10B504002000FFF70B
:100950009DFF10BDF8B504000D0016000027FFF73D
:10096000A4FF0700320029003800FFF7B6FF01009E
:10097000200040B2FFF79EFFF1BD10B5040020003B
:10098000FFF7CAFF10BD042806D10D49096851F0D0
:1009900004010B4A116005E00949096831F00401BE
:1009A000074A1160704700000CED00E00000FA05F6
:1009B00018ED00E000E400E014E000E018E000E0E2
:1009C00010E000E080B500F001F801BD70470102C1
:1009D0002DE9F04104000025002600275FF0000803
:1009E000002C01D1012095E0A068002801D06069A9
:1009F0000028A06A002807D10020E062002084F8C7
:100A00002400200000F021FB200000F0C7FA0500C0
:100A1000A06AC00676D4EDB2002D73D1A06A30F47E
:100A2000885050F00200A0626068E1690843E16804
:100A300050EA41000743A068B0F5807F02D0A0686B
:100A4000012802D14FF4807000E000200643606965
:100A5000012811D1E068002806D1A069401E40039A
:100A600050F40060064307E0A06A50F02000A06246
:100A7000E06A50F00100E0622068406830F46940AC
:100A800030432168486020688068DFF8DC14084043
:100A9000384321688860A068B0F5807F02D0A068E4
:100AA000012802D14FF4807000E00020B0F5807F73
:100AB00003D12069401E000580462068C06A30F4DA
:100AC000700058EA00002168C86220688068DFF87A
:100AD0009C140840B84208D10020E062A06A30F0BF
:100AE000020050F00100A06212E0A06A30F00200A3
:100AF00050F01000A062E06A50F00100E0620120B6
:100B0000050005E0A06A50F01000A0620120050079
:100B10002800C0B2BDE8F08138B50400002594F883
:100B20002400012801D102208BE0012084F8240058
:100B3000200000F0E0F90500EDB2002D7CD1A06AA4
:100B4000DFF82C14084050F48070A0622068DFF8B1
:100B50002414884209D1DFF82004006810F4702FB3
:100B600001D1012002E0002000E0012000280ED089
:100B7000A06A30F48010A06220684068400523D548
:100B8000A06A30F4005050F48050A0621CE0A06ACB
:100B900050F48010A0622068DFF8E013884204D08F
:100BA0002068DFF8D013884205D1DFF8CC03006855
:100BB00010F4806000E00020002805D0A06A30F426
:100BC000005050F48050A062A06AC00404D5E06ACE
:100BD00030F00600E06201E00020E062002084F8CE
:100BE00024007FF00200216808602068806810F40B
:100BF0006020B0F5602F18D12068DFF878138842A4
:100C000009D1DFF87403006810F4702F01D10120BE
:100C100002E0002000E00120002806D02068806863
:100C200050F4A0002168886009E02068806850F4D2
:100C300080102168886002E0002084F824002800E9
:100C4000C0B232BDF8B504000D00002600200090AF
:100C50000027FFF7C3FD060020688068C00508D59F
:100C6000A06A50F02000A062002084F82400012037
:100C700098E020684068C0051BD42068C06A10F462
:100C8000700F16D12068006880076DD415F1010F30
:100C9000F8D0002D04D0FFF7A1FD801B8542F1D2D2
:100CA000A06A50F00400A062002084F82400032011
:100CB00078E0022000F076FA21680969DFF8C022A6
:100CC000114215D12168C968DFF8B82211420FD14D
:100CD00021680969DFF8B022114207D12168C9688B
:100CE000DFF8A822114201D114211CE029211AE0C9
:100CF00021680969DFF89022114205D12168C9688D
:100D0000DFF8882211420BD021680969DFF88022C0
:100D1000114207D12168C968DFF87422114201D15C
:100D2000542100E0FC21DFF86C221268B2FBF0F0E5
:100D300001FB00F70098B84216D215F1010F0FD051
:100D4000002D04D0FFF74AFD801B854208D2A06A1F
:100D500050F00400A062002084F82400032021E069
:100D60000098401C0090E5E77FF0120021680860C1
:100D7000A06A50F40070A0622068806810F46020BF
:100D8000B0F5602F0DD1E06800280AD1A06A30F4D8
:100D90008070A062A06AC00403D4A06A50F0010071
:100DA000A0620020F2BD0068C06C704778B40200F9
:100DB00000230020009092F82400012801D1022095
:100DC00097E0012082F824004868072812D21068B2
:100DD000406B1F244D686D1E05267543AC40A04333
:100DE0000C684D686D1E05267543AC4020431468A1
:100DF000606327E048680D2812D21068006B1F243A
:100E00004D68ED1F05267543AC40A0430C684D6846
:100E1000ED1F05267543AC4020431468206311E0A4
:100E20001068C06A1F244D680D3D05267543AC400F
:100E3000A0430C684D680D3D05267543AC4020432A
:100E40001468E06208680A2812D31068C068072492
:100E50000D680A3D03267543AC40A0438C680D68BD
:100E60000A3D03267543AC4020431468E0600FE060
:100E70001068006907240D6803267543AC40A04341
:100E80008C680D6803267543AC40204314682061CC
:100E90000868102802D00868112825D11068374C3E
:100EA000A0421BD11068806800021DD410688068C1
:100EB00050F400001468A0600868102814D1354868
:100EC0000068354CB0FBF4F00A24604300900098B1
:100ED000002809D00098401E0090F8E7906A50F072
:100EE0002000906201200300002082F824001800F6
:100EF000C0B272BC704738B50400002500200090D5
:100F000020688068C0072BD42068806850F00100FA
:100F1000216888601F4800681F49B0FBF1F000900D
:100F20000098002803D00098401E0090F8E7FFF7D3
:100F300055FC050020688068C00711D4FFF74EFCFF
:100F4000401B0328F6D3A06A50F01000A062E06AAC
:100F500050F00100E062002084F82400012000E04D
:100F6000002032BD00000000FDF7E1FFFE0E1FFF74
:100F7000FEFDFFFF00280140042401400024014041
:100F8000244992242449920092244912922449002F
:100F9000499224000400002040420F0038B50400AC
:100FA000002520688068C0071BD52068806840083D
:100FB000400021688860FFF711FC05002068806808
:100FC000C0070ED5FFF70AFC401B0328F6D3A06A22
:100FD00050F01000A062E06A50F00100E0620120D1
:100FE00000E0002032BD0000E0B526482649086038
:100FF00000202549886000202349C860002022493C
:1010000048615FF460202049C86100201E494860A3
:1010100001201D4908611C48FFF7DAFC002803D0B5
:1010200043211A4800F060FB082000900120019045
:101030000020029069461448FFF7B8FE002803D04C
:101040004D21124800F050FB07BD10B586B00400DA
:1010500020680C49884213D10D48006850F4007094
:101060000B4908600A48006810F40070009000986E
:10107000012001900320029001A9064800F036FBF0
:1010800006B010BD0024014050040020E8260008EE
:1010900018100240000C0140F8B50400002500269D
:1010A0002078C00766D5002781480068C0000DD4AD
:1010B0007F48006850F080507D4908607C48006897
:1010C00010F08050009000980120070079480068D7
:1010D000C00513D47748006850F4807075490860E3
:1010E000FFF77CFB050073480068C00506D4FFF7D6
:1010F00075FB401B6528F6D3032052E06E4800685C
:1011000010F440700600002E23D0606810F4407088
:1011100086421ED06848006830F440700600012006
:101120006649086000206549086063480660F0076A
:101130000FD5FFF753FB05005F480068800708D410
:10114000FFF74CFB401B41F289318842F4D3032066
:1011500027E05948006830F44070616808435649F8
:101160000860FFB2012F05D15148006830F080506F
:101170004F4908602078800707D55148006830F44F
:101180004040A16808434E4908602078C00607D552
:101190004B48006830F48000E16808434849086023
:1011A0000020F2BD2DE9F04385B0040001A84549B7
:1011B0001022FFF73FFB44480088ADF800000025EF
:1011C000002600275FF000085FF0000920000128DA
:1011D00032D002285BD0102865D13948006880469B
:1011E0003A480068C00126D501A8C8F38341405C95
:1011F00007005FEAC8300FD5684631490968C1F376
:101200004041405C05005FEAC83009D53048B0FB7A
:10121000F5F07843060003E02E4800FB07F00600D7
:1012200027480068400201D5B14604E07000032160
:10123000B0FBF1F0814636E01F480068804640F27E
:10124000023010EA0800B0F5817F03D14FF400406E
:1012500081461BE018F44070B0F5007F07D11E48AE
:101260000068800703D549F6404081460EE018F437
:101270004070B0F5407F07D114480068800303D563
:101280004FF22440814601E0002081460BE0FFF749
:1012900064FA0B490968C1F38131491C4900B0FB6C
:1012A000F1F08146FFE7484605B0BDE8F083000055
:1012B0001C100240007000402010024040044242D6
:1012C000041002407C280008CE09000800100240EB
:1012D00000127A0000093D002410024080B5DFF8BA
:1012E0009003FFF719FC0A21DFF88403FFF7AAFC3B
:1012F000DFF87C03FFF757FD80B202BD70B5040034
:1013000000250020060030002100C0B2C9B288428A
:1013100005D2FFF7E3FF40190500761CF3E7E4B2BE
:10132000B5FBF4F080B270BD70B500F073FB00F057
:1013300051F900F083FBFFF757FE00F0D1FB0025C9
:101340000026DFF82C0300F025FC00F09BFC0A20AF
:10135000FFF7D4FF00F086FD5FF06632C54B00F06A
:101360008FFD0022C44B00F05DFE00225FF0804341
:1013700000F086FD00F082FF0400002D40F0F980AF
:10138000002E40F0F68001200600012000F0C4FC91
:101390002000BA4900F0BAFF0AD8B94A0121032057
:1013A00000F042FDB74A0221052000F03DFDE0E0DB
:1013B0002000B24900F0BCFF0FD22000B24900F07B
:1013C000A5FF0AD8AE4A0121032000F02DFDAF4A47
:1013D0000221052000F028FDCBE02000AA4900F002
:1013E000A7FF0FD22000AA4900F090FF0AD8A44A14
:1013F0000121032000F018FDA64A0221052000F07B
:1014000013FDB6E02000A24900F092FF0FD22000A9
:10141000A14900F07BFF0AD8994A0121032000F07E
:1014200003FD9E4A0221052000F0FEFCA1E0200001
:10143000994900F07DFF0FD22000994900F066FF26
:101440000AD88F4A0121032000F0EEFC954A0221C0
:10145000052000F0E9FC8CE02000914900F068FFD5
:101460000FD22000904900F051FF0AD8844A012190
:10147000032000F0D9FC8D4A0221052000F0D4FCA5
:1014800077E02000884900F053FF0FD22000884900
:1014900000F03CFF0AD87A4A0121032000F0C4FC86
:1014A000844A0221052000F0BFFC62E02000804950
:1014B00000F03EFF0FD220007F4900F027FF0AD83E
:1014C0006F4A0121032000F0AFFC7C4A0221052075
:1014D00000F0AAFC4DE02000774900F029FF0FD270
:1014E0002000774900F012FF0AD8654A0121032045
:1014F00000F09AFC734A0221052000F095FC38E0C8
:1015000020006F4900F014FF0FD220006E4900F058
:10151000FDFE0AD85A4A0121032000F085FC6B4ADF
:101520000221052000F080FC23E02000664900F045
:10153000FFFE0FD22000664900F0E8FE0AD8504AAC
:101540000121032000F070FC624A0221052000F016
:101550006BFC0EE020005E4900F0EAFE09D2484A2A
:101560000121032000F060FC5B4A0221052000F00D
:101570005BFC4FF40061594800F015FA284300283D
:101580000FD100224FF48051544800F018FA41F274
:10159000883000F0DFFE01224FF480514F4800F008
:1015A0000EFA40214D4800F0FEF901280FD1002D20
:1015B0007FF4CDAE0020060001200500012000F0E0
:1015C000ABFB474A0121012000F02EFCBFE60020C2
:1015D0000500BCE600B593B00220099001200D90F3
:1015E00010200E90022010900020119000201290E8
:1015F00009A8FEF77BFD002804D040F2031139480A
:1016000000F072F80F200490022005900020069050
:101610000020079000200890002104A8FEF791FF09
:10162000002804D040F211112E4800F05DF802208D
:101630000090002002906846FFF72EFD002804D09D
:101640004FF48C71274800F04FF8FFF778F84FF40B
:101650007A71B0FBF1F0FFF790F90420FFF793F9EE
:10166000002200215FF0FF30FFF774F913B000BDD6
:101670005004002066660A400000B040676686405D
:10168000AC280008D028000886EB8140D828000844
:1016900052B87E40E028000848E17A40E828000877
:1016A00015AE7740F0280008E27A7440F828000868
:1016B0005D8F724000290008AF477140082900087B
:1016C000295C6F40102900081F856B40182900080D
:1016D000CDCC5C402029000828290008000C0140DE
:1016E0005C28000814270008FEE700002DE9F841F7
:1016F00000230024002500265FF0000E5FF0000CA0
:101700006246102A80F04D815FF0010C1CFA02FC49
:101710006346D1F800C013EA0C0C64469C4240F0CA
:101720003E81D1F804C0BCF1000F3DD0BCF1010FE7
:1017300024D0BCF1020F2BD0BCF1030F4CD0BCF174
:10174000110F1FD0BCF1120F28D0DFF88882C445DA
:101750002AD0DFF88482C44526D0DFF88082C445D1
:1017600022D0DFF87C82C4451ED0DFF87882C445E1
:101770001AD0DFF87482C44516D031E0D1F80CC01D
:1017800066462DE0D1F80CC01CF1040C664627E03B
:10179000D1F80CC01CF1080C664621E0D1F80CC051
:1017A0001CF10C0C66461BE0D1F808C0BCF1000F20
:1017B00003D15FF0040C66460DE0D1F808C0BCF11F
:1017C000010F04D15FF0080C6646036103E05FF08F
:1017D000080C6646436103E05FF0000C6646FFE7D5
:1017E000FF2C01D8070000E0071DFF2C02D85FEA9C
:1017F000820E03E0B2F1080C5FEA8C0ED7F800C04D
:101800005FF00F0818FA0EF83CEA080C16FA0EF80A
:1018100058EA0C0CC7F800C0D1F804C05FEACC0C41
:1018200040F1BD80DFF8C4C1DCF800C05CF0010C01
:10183000DFF8B881C8F800C0DFF8B0C1DCF800C03C
:101840001CF00108CDF80080DDF800C0DFF8A0C171
:101850005FEA92085CF828C065465FF00F0C12F052
:1018600003085FFA88F85FEA88081CFA08FC35EA82
:101870000C05DFF880C1604502D15FF0000C16E076
:10188000DFF874C1604502D15FF0010C0FE0DFF8B2
:101890006CC1604502D15FF0020C08E0DFF860C166
:1018A000604502D15FF0030C01E05FF0040C12F020
:1018B00003085FFA88F85FEA88081CFA08FC5CEA0B
:1018C0000505DFF82CC15FEA92084CF82850D1F8E2
:1018D00004C05FEACC3C0AD5DFF828C1DCF800C0C0
:1018E00054EA0C0CDFF81C81C8F800C009E0DFF8EE
:1018F00014C1DCF800C03CEA040CDFF80881C8F829
:1019000000C0D1F804C05FEA8C3C0AD5DFF8F8C00B
:10191000DCF800C054EA0C0CDFF8EC80C8F800C01A
:1019200009E0DFF8E4C0DCF800C03CEA040CDFF8B2
:10193000D880C8F800C0D1F804C05FEACC2C0AD522
:10194000DFF8C8C0DCF800C054EA0C0CDFF8BC803B
:10195000C8F800C009E0DFF8B4C0DCF800C03CEA19
:10196000040CDFF8A880C8F800C0D1F804C05FEA12
:101970008C2C0AD5DFF898C0DCF800C054EA0C0CB7
:10198000DFF88C80C8F800C009E0DFF884C0DCF81C
:1019900000C03CEA040CDFF87880C8F800C0521C94
:1019A000AFE6BDE8F1810200936889B20B4202D034
:1019B0000123180001E000231800C0B27047D2B222
:1019C000002A02D089B2016102E089B20B040361EE
:1019D00070470000000011100000121000002110DC
:1019E00000002210000031100000321018100240D8
:1019F0000800014000080140000C014000100140B7
:101A000000140140000401400404014008040140A6
:101A10000C04014080B50848006850F010000649E9
:101A200008600320FEF790FF0020FEF7DDFE00F0C7
:101A3000A5FC002002BD00000020024000B585B0DA
:101A40002448006850F004002249086021480068DA
:101A500010F00400009000981E48006850F0080044
:101A60001C4908601B48006810F0080000900098AE
:101A70000022FB211848FFF7A2FF01224FF48051FA
:101A80001648FFF79CFFFB200190012002900020E8
:101A900003900220049001A90F48FFF727FE4FF49E
:101AA00004600190002002900020039001A90B48DF
:101AB000FFF71CFE4FF4805001900120029000209F
:101AC00003900220049001A90448FFF70FFE05B01F
:101AD00000BD00BF1810024000080140000C01408A
:101AE00080B52748274908605FF4E1302549486000
:101AF00000202449886000202249C8600020214934
:101B000008610C201F49486100201E49886100209F
:101B10001C49C8611B4800F087FC002803D0422103
:101B20001948FFF7E1FD01BD10B586B0040020683B
:101B30001349884221D11548006850F48040134968
:101B400008601248006810F48040009000984FF43C
:101B500000700190022002900320049001A90C481B
:101B6000FFF7C4FD4FF48060019000200290002038
:101B7000039001A90648FFF7B9FD06B010BD0000AB
:101B800000380140100400204027000818100240CF
:101B90000008014070B582B00400002500200090CC
:101BA00094F82400012801D1022068E0012084F883
:101BB00024002000FFF7F2F90500EDB2002D59D105
:101BC000A06A30F4885050F00200A0620220FFF7B3
:101BD000E9FADFF8AC100968B1FBF0F040000090C2
:101BE0000098002803D00098401E0090F8E72000DD
:101BF000FFF781F92068806850F00800216888604C
:101C0000FEF7ECFD06002068806800070FD5FEF7A0
:101C1000E5FD801B0B28F6D3A06A30F0020050F0DF
:101C20001000A062002084F82400012027E0206832
:101C3000806850F0040021688860FEF7CFFD060040
:101C40002068806840070FD5FEF7C8FD801B0B2871
:101C5000F6D3A06A30F0020050F01000A06200201D
:101C600084F8240001200AE0A06A30F0020050F05D
:101C70000100A062002084F824002800C0B276BDD4
:101C80000400002080B5002202215D48FFF797FE86
:101C900043F6982000F0DBF8002201215848FFF7B6
:101CA0008EFE032000F062F843F6982000F0CFF893
:101CB000032000F05BF843F6982000F0C8F80320FA
:101CC00000F054F8022000F051F8282000F024F829
:101CD00044F6206000F0BBF8082000F01DF844F640
:101CE000206000F0B4F8012000F016F844F62060FF
:101CF00000F0ADF8062000F00FF844F6206000F088
:101D0000A6F80C2000F008F844F6206000F09FF8D8
:101D1000012000F001F801BD10B5040000220121EE
:101D20003748FFF74CFE2000C0B2000900F01EF853
:101D30002000C0B200F01AF842F2107000F087F8EC
:101D400010BD10B50400012201212D48FFF737FE18
:101D50002000C0B2000900F009F82000C0B200F075
:101D600005F842F2107000F072F810BD10B50400D2
:101D7000E00705D5012210212148FFF720FE04E0ED
:101D8000002210211E48FFF71AFEA00705D50122E8
:101D900020211B48FFF713FE04E0002220211848F1
:101DA000FFF70DFE600705D5012240211448FFF71B
:101DB00006FE04E0002240211148FFF700FE200744
:101DC00005D5012280210E48FFF7F9FD04E000222D
:101DD00080210B48FFF7F3FD012208210848FFF797
:101DE000EEFD4FF4FA6000F032F8002208210448BA
:101DF000FFF7E5FD4FF4FA6000F029F810BD000090
:101E00000008014070B504000D00EDB2012D03D1B2
:101E100014F17F00060002E0B4F14100060030003A
:101E2000C0B2FFF779FF70BD70B504000D00160059
:101E30002900C9B22000C0B2FFF7E4FF30780028C3
:101E400004D03078FFF77DFF761CF7E770BD01B452
:101E5000009800900098411E00910028FAD101B02E
:101E600070470000010000BF09D0B0FA80F188403F
:101E7000C91CC1F58461090501EBD02140057047FB
:101E8000B0B581EA030C0CF0004C40F2FF7515EA86
:101E900011541DBF15EA1357AC42AF4239E0E419A3
:101EA00023EA455343F48013C90241F0004141EA5B
:101EB000505EC7021100A7FB020200284FF000008D
:101EC000EEFB01204FF00001E3FB072118BF42F0B9
:101ED0000102401800214941E3FB0E01A4F5806492
:101EE0000F0302D252004041494154F101046CDD1C
:101EF000470872F1004250F1000051EB0451A1F586
:101F000080115CBF41EA0C01B0BD4CEA05510020D4
:101F1000B0BD05EA1357AC4214BFAF4241E050EAEE
:101F2000410E1CBF52EA430E02E061460020B0BDE4
:101F300024423C441BD15FEA070EF6D0090302BFDE
:101F400001460020AEF1140EB1FA81F7AEEB0704A2
:101F500001FA07FE0C37C7F1200100FA07F7C84065
:101F60004EEA000E23EA455343F48013A2E733F010
:101F70000043B3FA83F704BFB2FA82FE77440B3F03
:101F8000E41BB7F1200E2FBF02FA0EF3BB40C7F1DE
:101F9000200E22FA0EFE38BF43EA0E03BA40641C3C
:101FA00082E750EA410E14BF52EA430E6FF000017F
:101FB0004FF4001717EB430F8ABF194617EB410F79
:101FC000B5E74CEA05510020B0BDD4F10104B4F1ED
:101FD00020070FDAC4F12007520828BF42F001029F
:101FE00010FA07F501FA07F7E1BF2A43E04038434A
:101FF000E1400FE0352C98DCC7F1200452EA4002A2
:1020000020FA07F218BF42F0010231FA07F0A140AE
:102010000A43002172F1004250F1000051EB0C0123
:10202000B0BD00002DE9F04140F2FF7581EA030CDC
:102030000CF0004C15EA11541DBF15EA1357AC42C1
:10204000AF42E9E0BC41C1F31301C3F31303801AAB
:10205000994143F4801304D2641E40004941801822
:102060005941C90241EA5051B1FBF3F603FB161185
:10207000A2FB0675D7EBC020A94102D2761E8018BC
:102080005941C90241EA5051B1FBF3FE03FB1E1155
:10209000A2FB0E75D7EBC020A94103D2AEF1010E11
:1020A00080185941890241EA9051760546EA8E2E00
:1020B000B1FBF3F603FB1611A2FB0675D7EB8020EC
:1020C000A94102D2761E80185941C90241EA5051F5
:1020D0004EEA060EB1FBF3F603FB1611A2FB0675E2
:1020E000D7EBC020A94102D2761E80185941C902FF
:1020F00041EA5051B1FBF3F703FB1711A2FB07357F
:10210000D3EBC020A94167F100070CBF004247F0A4
:10211000010766F3D5274FEA1E31B80814F580642D
:1021200014DDBD0775F1004250EB0E5051EB045128
:1021300011F5801F5CBF41EA0C01BDE8F0814CF055
:102140007F6141F0E0410020BDE8F081BD076D08EE
:1021500040EA0E5041F48011D4F10104B4F120069C
:102160000ADAC4F120060200E04001FA06F3E14079
:102170001843B24015430EE0342C14DCC6F12004A1
:1021800045EA40056D0820FA06F2154321FA06F0EB
:10219000A1400D43002175F1004250F1000051EBC8
:1021A0000C01BDE8F08100205FEA0C01BDE8F08180
:1021B000CFB992185B41B3FA83F704BFB2FA82F643
:1021C000BF190B3FB7F120062FBF02FA06F3BB4041
:1021D000C7F1200622FA06F638BF3343BA401CB1D5
:1021E000E419641E2FE77F4231F00041B1FA81F417
:1021F00004BFB0FA80F6A4190B3CB4F120062FBF3F
:1022000000FA06F1A140C4F1200620FA06F638BF14
:102210003143A0403C1B16E7AC421ABF05EA1357F6
:10222000AF4214E050EA41061CBF52EA4306BFE742
:1022300050EA4107304661461CBF41EA0551BDE8FE
:10224000F08152EA430C08BFC143BDE8F081002091
:102250004FF4001616EB410F98BF16EB430F08BF63
:1022600016EB410F24BFC14305E016EB430F0CBF33
:1022700061464CEA0551BDE8F08100004FEAF17C6F
:10228000BCF1E04C2CBFBCF5001F11E05FEA4C0C28
:1022900034BFBCF17F5F2EE05FEA9C0C4FEA0C1C60
:1022A0004FEA3C0CC10071F100414CEB507070479B
:1022B000C90241EA5051C00218BF41F0010141F08A
:1022C00000414FEA6C50C0F10900212810D240EAC9
:1022D000CC7CCCF1200C11FA0CF070F10040CCF168
:1022E000200C21FA0CF00CF0004C40EB0C00704775
:1022F0004FEACC707047490011F5001F04D84FEA2F
:10230000CC10FF30C0057047C81770474FF0807C75
:102310001CEB400F94BF1CEB410F05E040EA010CA1
:102320005FEA4C0C01D28142704718BF8842704767
:102330004FF0807C1CEB400F94BF1CEB410F05E07D
:1023400040EA010C5FEA4C0C01D28842704718BF8A
:102350008142704770B50400FEF740FA0500260080
:1023600016F1010F02D0044800788619FEF736FAFC
:10237000401BB042FAD370BD0800002080B527484A
:10238000006850F00100254908602448006810F0FA
:102390000100009000982248006850F080502049C9
:1023A00008601F48006810F08050009000980320DB
:1023B000FEF7CAFA002200217FF00B00FEF7CAFAEE
:1023C000002200217FF00A00FEF7C4FA002200215B
:1023D0007FF00900FEF7BEFA002200217FF0040022
:1023E000FEF7B8FA002200217FF00300FEF7B2FAF0
:1023F000002200217FF00100FEF7ACFA002200214C
:102400005FF0FF30FEF7A6FA06490968080030F0D1
:10241000E06050F000700349086001BD18100240F0
:102420001C1002400400014010B50400002C01D132
:10243000012033E0A0690028FFD194F8390000287A
:1024400005D1002084F838002000FFF76DFB242020
:1024500084F839002068C06830F400502168C860F2
:10246000200000F01CF82068006930F490402168DA
:1024700008612068406930F02A00216848612068BE
:10248000C06850F400502168C8600020E06320203C
:1024900084F83900202084F83A00002010BD2DE98E
:1024A000F843040000252068006930F44050E168DA
:1024B000084321680861A0682169084361690843ED
:1024C00005432068C0685C49084028432168C8600B
:1024D0002068406930F44070A16908432168486170
:1024E00020685649884252D1FEF737F98146FEF7F7
:1024F00034F98046FEF731F90700FEF72EF90600A1
:10250000FEF72BF9192101FB09F162689200B1FB7A
:10251000F2F16422B1FBF2F1192202FB08F26368C6
:102520009B00B2FBF3F2192303FB07F36768BF00BC
:10253000B3FBF7F36427B3FBF7F3642707FB13221E
:10254000120132326423B2FBF3F212F0F00212EB0A
:102550000111192202FB06F263689B00B2FBF3F241
:102560001923584363689B00B0FBF3F06423B0FB6E
:10257000F3F0642303FB1020000132306422B0FB2F
:10258000F2F010F00F0040182168886051E0FEF76B
:10259000D9F88146FEF7D6F88046FEF7D3F8070053
:1025A000FEF7D0F80600FEF7CDF8192101FB09F17E
:1025B00062689200B1FBF2F16422B1FBF2F11922E0
:1025C00002FB08F263689B00B2FBF3F2192303FBE2
:1025D00007F36768BF00B3FBF7F36427B3FBF7F3B8
:1025E000642707FB1322120132326423B2FBF3F299
:1025F00012F0F00212EB0111192202FB06F26368DD
:102600009B00B2FBF3F21923584363689B00B0FBB5
:10261000F3F06423B0FBF3F0642303FB102000010C
:1026200032306422B0FBF2F010F00F004018216845
:102630008860BDE8F1830000F3E9FFFF0038014046
:102640001348006850F00100114908601148006803
:10265000114908400F4908600D4800680F490840BB
:102660000B4908600A48006830F480200849086077
:102670000848006830F4FE00064908605FF41F0057
:10268000074908605FF00060064908607047000075
:1026900000100240041002400000FFF8FFFFF6FEA9
:1026A0000810024008ED00E019E050F8041BCB07C9
:1026B00044BFA9F101035918121F0023042A41F84D
:1026C000043BF9D25FEA827C0B4604D54FF0000C44
:1026D000A1F800C09B1CD10744BF0021197050F81D
:1026E000042B002AE1D17047433A5C55736572733D
:1026F0005C746573745C4465736B746F705C3131CA
:102700005C6C7564656E675C5372635C6164632EB8
:1027100063000000433A5C55736572735C746573C3
:10272000745C4465736B746F705C31315C6C7564A0
:10273000656E675C5372635C6D61696E2E63000049
:10274000433A5C55736572735C746573745C44657D
:10275000736B746F705C31315C6C7564656E675C53
:102760005372635C75736172742E630010B450F819
:10277000041B79B10268436802440830DC0744BF97
:10278000A9F10104E31852F8044B43F8044B091F64
:10279000F9D1ECE710BC704710B5074979441831FE
:1027A000064C7C44163404E00A68081D114488472E
:1027B0000146A142F8D110BD080000002800000029
:1027C000E9FEFFFF7400000010040020000000007C
:1027D0009DFFFFFF0C000000EC0000000000002047
:1027E000000000007047FEE7FEE7FEE7FEE77047E7
:1027F0007047704780B500F003F8FEF7E3F801BDBD
:1028000003480068034909780818014908607047BF
:10281000800400200800002000F00BF8002801D000
:10282000FFF7BAFF0020AFF30080FEF77DFD00F058
:1028300002F80120704700F001B800000746384652
:1028400000F002F8FBE7000080B5AFF30080024A19
:1028500011001820ABBEFBE72600020020205265C5
:102860006368617267696E672E2E2E00020304058D
:10287000060708090A0B0C0D0E0F101002030405C1
:10288000060708090A0B0C0D0E0F101000000000BF
:102890000000000001020304060708090148804700
:1028A0000148004741260008B928000844756D70AA
:1028B00020456E6572677900AFF30080AFF300804A
:1028C000FFF7AAFF1000000000A24A040100000068
:1028D000313030250000000020393525000000008F
:1028E0002038362500000000203738250000000081
:1028F0002036392500000000203634250000000075
:102900002035302500000000203433250000000071
:102910002033332500000000203231250000000064
:102920002031322500000000202035250000000065
:102930000000000001020304FFF7FEBFFFF7FEBF27
:10294000FFF7FEBFFFF7FEBFFFF7FEBFFFF7FEBFBB
:10295000FFF7FEBFFFF7FEBFFFF7FEBFFFF7FEBFAB
:10296000FFF7FEBFFFF7FEBFFFF7FEBFFFF7FEBF9B
:10297000FFF7FEBFFFF7FEBFFFF7FEBFFFF7FEBF8B
:10298000FFF7FEBFFFF7FEBFFFF7FEBFFFF7FEBF7B
:10299000FFF7FEBFFFF7FEBFFFF7FEBFFFF7FEBF6B
:1029A000FFF7FEBFFFF7FEBFFFF7FEBFFFF7FEBF5B
:1029B000FFF7FEBFFFF7FEBFFFF7FEBFFFF7FEBF4B
:1029C000FFF7FEBFFFF7FEBFFFF7FEBFFFF7FEBF3B
:1029D000FFF7FEBFFFF7FEBFFFF7FEBFFFF7FEBF2B
:0429E000FFF7FEBF40
:04000005080028B90E
:00000001FF
